{"abi":[{"inputs":[{"internalType":"contract StorageInterfaceV5","name":"_storageT","type":"address"},{"internalType":"contract NftRewardsInterfaceV6","name":"_nftRewards","type":"address"},{"internalType":"contract GNSPairInfosInterfaceV6","name":"_pairInfos","type":"address"},{"internalType":"contract GNSReferralsInterfaceV6_2","name":"_referrals","type":"address"},{"internalType":"uint256","name":"_maxPosDai","type":"uint256"},{"internalType":"uint256","name":"_limitOrdersTimelock","type":"uint256"},{"internalType":"uint256","name":"_marketOrdersTimeout","type":"uint256"}],"stateMutability":"nonpayable","type":"constructor","name":"constructor"},{"anonymous":false,"inputs":[{"indexed":true,"internalType":"uint256","name":"orderId","type":"uint256"},{"components":[{"components":[{"internalType":"address","name":"trader","type":"address"},{"internalType":"uint256","name":"pairIndex","type":"uint256"},{"internalType":"uint256","name":"index","type":"uint256"},{"internalType":"uint256","name":"initialPosToken","type":"uint256"},{"internalType":"uint256","name":"positionSizeDai","type":"uint256"},{"internalType":"uint256","name":"openPrice","type":"uint256"},{"internalType":"bool","name":"buy","type":"bool"},{"internalType":"uint256","name":"leverage","type":"uint256"},{"internalType":"uint256","name":"tp","type":"uint256"},{"internalType":"uint256","name":"sl","type":"uint256"}],"internalType":"struct StorageInterfaceV5.Trade","name":"trade","type":"tuple"},{"internalType":"uint256","name":"block","type":"uint256"},{"internalType":"uint256","name":"wantedPrice","type":"uint256"},{"internalType":"uint256","name":"slippageP","type":"uint256"},{"internalType":"uint256","name":"spreadReductionP","type":"uint256"},{"internalType":"uint256","name":"tokenId","type":"uint256"}],"indexed":false,"internalType":"struct StorageInterfaceV5.PendingMarketOrder","name":"order","type":"tuple"}],"name":"ChainlinkCallbackTimeout","type":"event"},{"anonymous":false,"inputs":[{"indexed":true,"internalType":"address","name":"trader","type":"address"},{"indexed":true,"internalType":"uint256","name":"pairIndex","type":"uint256"},{"indexed":false,"internalType":"uint256","name":"index","type":"uint256"}],"name":"CouldNotCloseTrade","type":"event"},{"anonymous":false,"inputs":[{"indexed":false,"internalType":"bool","name":"done","type":"bool"}],"name":"Done","type":"event"},{"anonymous":false,"inputs":[{"indexed":true,"internalType":"uint256","name":"orderId","type":"uint256"},{"indexed":true,"internalType":"address","name":"trader","type":"address"},{"indexed":true,"internalType":"uint256","name":"pairIndex","type":"uint256"},{"indexed":false,"internalType":"bool","name":"open","type":"bool"}],"name":"MarketOrderInitiated","type":"event"},{"anonymous":false,"inputs":[{"indexed":false,"internalType":"uint256","name":"orderId","type":"uint256"},{"indexed":true,"internalType":"address","name":"nftHolder","type":"address"},{"indexed":true,"internalType":"address","name":"trader","type":"address"},{"indexed":true,"internalType":"uint256","name":"pairIndex","type":"uint256"}],"name":"NftOrderInitiated","type":"event"},{"anonymous":false,"inputs":[{"indexed":true,"internalType":"address","name":"nftHolder","type":"address"},{"indexed":true,"internalType":"address","name":"trader","type":"address"},{"indexed":true,"internalType":"uint256","name":"pairIndex","type":"uint256"}],"name":"NftOrderSameBlock","type":"event"},{"anonymous":false,"inputs":[{"indexed":false,"internalType":"string","name":"name","type":"string"},{"indexed":false,"internalType":"uint256","name":"value","type":"uint256"}],"name":"NumberUpdated","type":"event"},{"anonymous":false,"inputs":[{"indexed":true,"internalType":"address","name":"trader","type":"address"},{"indexed":true,"internalType":"uint256","name":"pairIndex","type":"uint256"},{"indexed":false,"internalType":"uint256","name":"index","type":"uint256"}],"name":"OpenLimitCanceled","type":"event"},{"anonymous":false,"inputs":[{"indexed":true,"internalType":"address","name":"trader","type":"address"},{"indexed":true,"internalType":"uint256","name":"pairIndex","type":"uint256"},{"indexed":false,"internalType":"uint256","name":"index","type":"uint256"}],"name":"OpenLimitPlaced","type":"event"},{"anonymous":false,"inputs":[{"indexed":true,"internalType":"address","name":"trader","type":"address"},{"indexed":true,"internalType":"uint256","name":"pairIndex","type":"uint256"},{"indexed":false,"internalType":"uint256","name":"index","type":"uint256"},{"indexed":false,"internalType":"uint256","name":"newPrice","type":"uint256"},{"indexed":false,"internalType":"uint256","name":"newTp","type":"uint256"},{"indexed":false,"internalType":"uint256","name":"newSl","type":"uint256"}],"name":"OpenLimitUpdated","type":"event"},{"anonymous":false,"inputs":[{"indexed":false,"internalType":"bool","name":"paused","type":"bool"}],"name":"Paused","type":"event"},{"anonymous":false,"inputs":[{"indexed":true,"internalType":"uint256","name":"orderId","type":"uint256"},{"indexed":true,"internalType":"address","name":"trader","type":"address"},{"indexed":true,"internalType":"uint256","name":"pairIndex","type":"uint256"},{"indexed":false,"internalType":"uint256","name":"index","type":"uint256"},{"indexed":false,"internalType":"uint256","name":"newSl","type":"uint256"}],"name":"SlUpdateInitiated","type":"event"},{"anonymous":false,"inputs":[{"indexed":true,"internalType":"address","name":"trader","type":"address"},{"indexed":true,"internalType":"uint256","name":"pairIndex","type":"uint256"},{"indexed":false,"internalType":"uint256","name":"index","type":"uint256"},{"indexed":false,"internalType":"uint256","name":"newSl","type":"uint256"}],"name":"SlUpdated","type":"event"},{"anonymous":false,"inputs":[{"indexed":true,"internalType":"address","name":"trader","type":"address"},{"indexed":true,"internalType":"uint256","name":"pairIndex","type":"uint256"},{"indexed":false,"internalType":"uint256","name":"index","type":"uint256"},{"indexed":false,"internalType":"uint256","name":"newTp","type":"uint256"}],"name":"TpUpdated","type":"event"},{"inputs":[],"name":"_msgSender","outputs":[{"internalType":"address","name":"","type":"address"}],"stateMutability":"view","type":"function"},{"inputs":[{"internalType":"uint256","name":"pairIndex","type":"uint256"},{"internalType":"uint256","name":"index","type":"uint256"}],"name":"cancelOpenLimitOrder","outputs":[],"stateMutability":"nonpayable","type":"function"},{"inputs":[{"internalType":"uint256","name":"pairIndex","type":"uint256"},{"internalType":"uint256","name":"index","type":"uint256"}],"name":"closeTradeMarket","outputs":[],"stateMutability":"nonpayable","type":"function"},{"inputs":[{"internalType":"uint256","name":"_order","type":"uint256"}],"name":"closeTradeMarketTimeout","outputs":[],"stateMutability":"nonpayable","type":"function"},{"inputs":[{"internalType":"address","name":"trader","type":"address"},{"internalType":"bytes","name":"call_data","type":"bytes"}],"name":"delegatedAction","outputs":[{"internalType":"bytes","name":"","type":"bytes"}],"stateMutability":"nonpayable","type":"function"},{"inputs":[{"internalType":"address","name":"","type":"address"}],"name":"delegations","outputs":[{"internalType":"address","name":"","type":"address"}],"stateMutability":"view","type":"function"},{"inputs":[],"name":"done","outputs":[],"stateMutability":"nonpayable","type":"function"},{"inputs":[{"internalType":"enum StorageInterfaceV5.LimitOrder","name":"orderType","type":"uint8"},{"internalType":"address","name":"trader","type":"address"},{"internalType":"uint256","name":"pairIndex","type":"uint256"},{"internalType":"uint256","name":"index","type":"uint256"},{"internalType":"uint256","name":"nftId","type":"uint256"},{"internalType":"uint256","name":"nftType","type":"uint256"}],"name":"executeNftOrder","outputs":[],"stateMutability":"nonpayable","type":"function"},{"inputs":[],"name":"isDone","outputs":[{"internalType":"bool","name":"","type":"bool"}],"stateMutability":"view","type":"function"},{"inputs":[],"name":"isPaused","outputs":[{"internalType":"bool","name":"","type":"bool"}],"stateMutability":"view","type":"function"},{"inputs":[],"name":"limitOrdersTimelock","outputs":[{"internalType":"uint256","name":"","type":"uint256"}],"stateMutability":"view","type":"function"},{"inputs":[],"name":"marketOrdersTimeout","outputs":[{"internalType":"uint256","name":"","type":"uint256"}],"stateMutability":"view","type":"function"},{"inputs":[],"name":"maxPosDai","outputs":[{"internalType":"uint256","name":"","type":"uint256"}],"stateMutability":"view","type":"function"},{"inputs":[],"name":"nftRewards","outputs":[{"internalType":"contract NftRewardsInterfaceV6","name":"","type":"address"}],"stateMutability":"view","type":"function"},{"inputs":[{"components":[{"internalType":"address","name":"trader","type":"address"},{"internalType":"uint256","name":"pairIndex","type":"uint256"},{"internalType":"uint256","name":"index","type":"uint256"},{"internalType":"uint256","name":"initialPosToken","type":"uint256"},{"internalType":"uint256","name":"positionSizeDai","type":"uint256"},{"internalType":"uint256","name":"openPrice","type":"uint256"},{"internalType":"bool","name":"buy","type":"bool"},{"internalType":"uint256","name":"leverage","type":"uint256"},{"internalType":"uint256","name":"tp","type":"uint256"},{"internalType":"uint256","name":"sl","type":"uint256"}],"internalType":"struct StorageInterfaceV5.Trade","name":"t","type":"tuple"},{"internalType":"enum NftRewardsInterfaceV6.OpenLimitOrderType","name":"orderType","type":"uint8"},{"internalType":"uint256","name":"spreadReductionId","type":"uint256"},{"internalType":"uint256","name":"slippageP","type":"uint256"},{"internalType":"address","name":"referrer","type":"address"}],"name":"openTrade","outputs":[],"stateMutability":"nonpayable","type":"function"},{"inputs":[{"internalType":"uint256","name":"_order","type":"uint256"}],"name":"openTradeMarketTimeout","outputs":[],"stateMutability":"nonpayable","type":"function"},{"inputs":[],"name":"pairInfos","outputs":[{"internalType":"contract GNSPairInfosInterfaceV6","name":"","type":"address"}],"stateMutability":"view","type":"function"},{"inputs":[],"name":"pause","outputs":[],"stateMutability":"nonpayable","type":"function"},{"inputs":[],"name":"referrals","outputs":[{"internalType":"contract GNSReferralsInterfaceV6_2","name":"","type":"address"}],"stateMutability":"view","type":"function"},{"inputs":[],"name":"removeDelegate","outputs":[],"stateMutability":"nonpayable","type":"function"},{"inputs":[{"internalType":"address","name":"delegate","type":"address"}],"name":"setDelegate","outputs":[],"stateMutability":"nonpayable","type":"function"},{"inputs":[{"internalType":"uint256","name":"value","type":"uint256"}],"name":"setLimitOrdersTimelock","outputs":[],"stateMutability":"nonpayable","type":"function"},{"inputs":[{"internalType":"uint256","name":"value","type":"uint256"}],"name":"setMarketOrdersTimeout","outputs":[],"stateMutability":"nonpayable","type":"function"},{"inputs":[{"internalType":"uint256","name":"value","type":"uint256"}],"name":"setMaxPosDai","outputs":[],"stateMutability":"nonpayable","type":"function"},{"inputs":[],"name":"storageT","outputs":[{"internalType":"contract StorageInterfaceV5","name":"","type":"address"}],"stateMutability":"view","type":"function"},{"inputs":[{"internalType":"uint256","name":"pairIndex","type":"uint256"},{"internalType":"uint256","name":"index","type":"uint256"},{"internalType":"uint256","name":"price","type":"uint256"},{"internalType":"uint256","name":"tp","type":"uint256"},{"internalType":"uint256","name":"sl","type":"uint256"}],"name":"updateOpenLimitOrder","outputs":[],"stateMutability":"nonpayable","type":"function"},{"inputs":[{"internalType":"uint256","name":"pairIndex","type":"uint256"},{"internalType":"uint256","name":"index","type":"uint256"},{"internalType":"uint256","name":"newSl","type":"uint256"}],"name":"updateSl","outputs":[],"stateMutability":"nonpayable","type":"function"},{"inputs":[{"internalType":"uint256","name":"pairIndex","type":"uint256"},{"internalType":"uint256","name":"index","type":"uint256"},{"internalType":"uint256","name":"newTp","type":"uint256"}],"name":"updateTp","outputs":[],"stateMutability":"nonpayable","type":"function"}],"bytecode":"6101006040523480156200001257600080fd5b5060405162005a6c38038062005a6c833981016040819052620000359162000134565b6001600160a01b038716158015906200005657506001600160a01b03861615155b80156200006b57506001600160a01b03851615155b80156200008057506001600160a01b03841615155b80156200008d5750600083115b80156200009a5750600082115b8015620000a75750600081115b620000e75760405162461bcd60e51b815260206004820152600c60248201526b57524f4e475f504152414d5360a01b604482015260640160405180910390fd5b6001600160a01b0396871660805294861660a05292851660c052931660e052600292909255600391909155600455620001bb565b6001600160a01b03811681146200013157600080fd5b50565b600080600080600080600060e0888a0312156200015057600080fd5b87516200015d816200011b565b602089015190975062000170816200011b565b604089015190965062000183816200011b565b606089015190955062000196816200011b565b809450506080880151925060a0880151915060c0880151905092959891949750929550565b60805160a05160c05160e0516156a9620003c36000396000818161040e015261240f01526000818161020a01528181611bdf01528181611ca4015281816135270152818161359601526149050152600081816102a1015281816120810152818161330d015281816133a1015281816139b80152613a8f015260008181610231015281816104df0152818161058f0152818161071c015281816107e30152818161094301528181610ad501528181610b5501528181610c0801528181610d9901528181610f29015281816112680152818161135e0152818161140a015281816114a30152818161153c01528181611602015281816116a1015281816119ae01528181611d9d01528181611e5601528181611ec501528181611f40015281816121d3015281816122ae015281816124ba01528181612550015281816125e301528181612682015281816127a0015281816128c901528181612a2401528181612b2e01528181612cfd01528181612e3b01528181612ed101528181613021015281816130d3015281816134510152818161367f0152818161374f015281816137be015281816138d601528181613b9d01528181613c4d01528181613d1301528181613d9a01528181613e9b01528181613f31015281816140c00152818161425501528181614532015281816146a80152818161473e01528181614857015261495301526156a96000f3fe608060405234801561001057600080fd5b50600436106101c45760003560e01c80639a10cc32116100f9578063b9b6573a11610097578063ca5eb5e111610071578063ca5eb5e1146103f6578063d3dc753914610409578063d4a1caa714610430578063d8defd151461044357600080fd5b8063b9b6573a146103a7578063be73fb99146103ba578063bffe3486146103cd57600080fd5b8063ae8421e1116100d3578063ae8421e11461036c578063b187bd2614610374578063b81bfa0514610381578063b8ebd5cc1461039457600080fd5b80639a10cc32146103265780639aa7c0e514610346578063a2a3c0cb1461035957600080fd5b8063410c0b7c11610166578063876d3abd11610140578063876d3abd146102cb5780638f062227146102de578063934d1cf414610300578063990382cf1461031357600080fd5b8063410c0b7c146102935780635ad9f9931461029c5780638456cb59146102c357600080fd5b806316fff074116101a257806316fff0741461022c578063279a165c14610253578063318a368b1461025c57806336fb8b151461027157600080fd5b80630890d22a146101c9578063119df25f146101e55780631346b0ff14610205575b600080fd5b6101d260035481565b6040519081526020015b60405180910390f35b6101ed610456565b6040516001600160a01b0390911681526020016101dc565b6101ed7f000000000000000000000000000000000000000000000000000000000000000081565b6101ed7f000000000000000000000000000000000000000000000000000000000000000081565b6101d260025481565b61026f61026a366004614aab565b61047e565b005b61026f33600090815260208190526040902080546001600160a01b0319169055565b6101d260045481565b6101ed7f000000000000000000000000000000000000000000000000000000000000000081565b61026f6107e1565b61026f6102d9366004614ae6565b6108e1565b6005546102f090610100900460ff1681565b60405190151581526020016101dc565b61026f61030e366004614ae6565b610c06565b61026f610321366004614ae6565b610d37565b610339610334366004614b27565b6110b9565b6040516101dc9190614c08565b61026f610354366004614cae565b6111f4565b61026f610367366004614d8d565b612476565b61026f612a22565b6005546102f09060ff1681565b61026f61038f366004614ae6565b612b2c565b61026f6103a2366004614daf565b612c60565b61026f6103b5366004614d8d565b613b45565b61026f6103c8366004614e0c565b613e57565b6101ed6103db366004614e38565b6000602081905290815260409020546001600160a01b031681565b61026f610404366004614e38565b6144c4565b6101ed7f000000000000000000000000000000000000000000000000000000000000000081565b61026f61043e366004614ae6565b614530565b61026f610451366004614e0c565b614664565b6001546000906001600160a01b031661046e57503390565b506001546001600160a01b031690565b32331461048a57600080fd5b600554610100900460ff16156104bb5760405162461bcd60e51b81526004016104b290614e55565b60405180910390fd5b60006104c5610456565b604051636e6f99cd60e11b81529091506001600160a01b037f0000000000000000000000000000000000000000000000000000000000000000169063dcdf339a906105189084908a908a90600401614e73565b602060405180830381865afa158015610535573d6000803e3d6000fd5b505050506040513d601f19601f820116820180604052508101906105599190614e9f565b6105755760405162461bcd60e51b81526004016104b290614ebc565b604051632e21e28b60e21b81526000906001600160a01b037f0000000000000000000000000000000000000000000000000000000000000000169063b8878a2c906105c89085908b908b90600401614e73565b6101a060405180830381865afa1580156105e6573d6000803e3d6000fd5b505050506040513d601f19601f8201168201806040525081019061060a9190614ee9565b9050600354816101600151436106209190614fb2565b101561063e5760405162461bcd60e51b81526004016104b290614fc9565b83158061065b57508060a001516106575784841061065b565b8484115b6106925760405162461bcd60e51b8152602060048201526008602482015267057524f4e475f54560c41b60448201526064016104b2565b8215806106af57508060a001516106ab578483116106af565b8483105b6106e65760405162461bcd60e51b815260206004820152600860248201526715d493d391d7d4d360c21b60448201526064016104b2565b6101208101859052610140810185905260e081018490526101008101839052604051635bb3b04560e11b81526001600160a01b037f0000000000000000000000000000000000000000000000000000000000000000169063b767608a90610751908490600401614ff1565b600060405180830381600087803b15801561076b57600080fd5b505af115801561077f573d6000803e3d6000fd5b50506040805189815260208101899052908101879052606081018690528992506001600160a01b03851691507f21e15d62c2ece17c1dc11c5fa45dcefdc6f99f199aa111d1363ff242f23e1c5c9060800160405180910390a350505050505050565b7f00000000000000000000000000000000000000000000000000000000000000006001600160a01b03166312d43a516040518163ffffffff1660e01b8152600401602060405180830381865afa15801561083f573d6000803e3d6000fd5b505050506040513d601f19601f820116820180604052508101906108639190615091565b6001600160a01b0316336001600160a01b0316146108935760405162461bcd60e51b81526004016104b2906150ae565b6005805460ff8082161560ff1990921682179092556040519116151581527f0e2fb031ee032dc02d8011dc50b816eb450cf856abd8261680dac74f72165bd2906020015b60405180910390a1565b3233146108ed57600080fd5b600554610100900460ff16156109155760405162461bcd60e51b81526004016104b290614e55565b600061091f610456565b60405163b66e6b0560e01b8152600481018490529091506000906001600160a01b037f0000000000000000000000000000000000000000000000000000000000000000169063b66e6b05906024016101e060405180830381865afa15801561098b573d6000803e3d6000fd5b505050506040513d601f19601f820116820180604052508101906109af9190615163565b8051602082015191925090158015906109d9575060045482602001516109d591906151e6565b4310155b610a145760405162461bcd60e51b815260206004820152600c60248201526b15d0525517d512535153d55560a21b60448201526064016104b2565b826001600160a01b031681600001516001600160a01b031614610a6a5760405162461bcd60e51b815260206004820152600e60248201526d2727aa2faca7aaa92fa7a92222a960911b60448201526064016104b2565b60008160e0015111610ab85760405162461bcd60e51b815260206004820152601760248201527657524f4e475f4d41524b45545f4f524445525f5459504560481b60448201526064016104b2565b604051630195728b60e71b815260048101859052600160248201527f00000000000000000000000000000000000000000000000000000000000000006001600160a01b03169063cab9458090604401600060405180830381600087803b158015610b2157600080fd5b505af1158015610b35573d6000803e3d6000fd5b50505050608081015160405163373873db60e11b81526001600160a01b037f000000000000000000000000000000000000000000000000000000000000000081166004830181905290861660248301526044820192909252636e70e7b690606401600060405180830381600087803b158015610bb057600080fd5b505af1158015610bc4573d6000803e3d6000fd5b50505050837f3adaa586cdbe84dd24e45bd7dada6da933d7c2d1c7b4e4cd02fce033356decb183604051610bf891906152ac565b60405180910390a250505050565b7f00000000000000000000000000000000000000000000000000000000000000006001600160a01b03166312d43a516040518163ffffffff1660e01b8152600401602060405180830381865afa158015610c64573d6000803e3d6000fd5b505050506040513d601f19601f82011682018060405250810190610c889190615091565b6001600160a01b0316336001600160a01b031614610cb85760405162461bcd60e51b81526004016104b2906150ae565b60008111610cd85760405162461bcd60e51b81526004016104b2906152bb565b600281905560408051818152600991810191909152686d6178506f7344616960b81b6060820152602081018290527f8cf3e35f6221b16e1670a3413180c9484bf5aa71787905909fa82a6a2662e9ab906080015b60405180910390a150565b323314610d4357600080fd5b600554610100900460ff1615610d6b5760405162461bcd60e51b81526004016104b290614e55565b6000610d75610456565b60405163b66e6b0560e01b8152600481018490529091506000906001600160a01b037f0000000000000000000000000000000000000000000000000000000000000000169063b66e6b05906024016101e060405180830381865afa158015610de1573d6000803e3d6000fd5b505050506040513d601f19601f82011682018060405250810190610e059190615163565b805160208201519192509015801590610e2f57506004548260200151610e2b91906151e6565b4310155b610e6a5760405162461bcd60e51b815260206004820152600c60248201526b15d0525517d512535153d55560a21b60448201526064016104b2565b826001600160a01b031681600001516001600160a01b031614610ec05760405162461bcd60e51b815260206004820152600e60248201526d2727aa2faca7aaa92fa7a92222a960911b60448201526064016104b2565b60e081015115610f0c5760405162461bcd60e51b815260206004820152601760248201527657524f4e475f4d41524b45545f4f524445525f5459504560481b60448201526064016104b2565b604051630195728b60e71b815260048101859052600060248201527f00000000000000000000000000000000000000000000000000000000000000006001600160a01b03169063cab9458090604401600060405180830381600087803b158015610f7557600080fd5b505af1158015610f89573d6000803e3d6000fd5b505050602082015160408084015190516024810192909252604482015260009150309060640160408051601f198184030181529181526020820180516001600160e01b031663a2a3c0cb60e01b17905251610fe491906152dc565b600060405180830381855af49150503d806000811461101f576040519150601f19603f3d011682016040523d82523d6000602084013e611024565b606091505b505090508061107a578160200151846001600160a01b03167f60e497734ddabcd7293fd91739aaf65cf525eb539c97be528125a235a89288d8846040015160405161107191815260200190565b60405180910390a35b847f3adaa586cdbe84dd24e45bd7dada6da933d7c2d1c7b4e4cd02fce033356decb1846040516110aa91906152ac565b60405180910390a25050505050565b6001600160a01b0383811660009081526020819052604090205460609116331461111d5760405162461bcd60e51b81526020600482015260156024820152741111531151d0551157d393d517d054141493d59151605a1b60448201526064016104b2565b600180546001600160a01b0319166001600160a01b0386161790556040516000908190309061114f90879087906152f8565b600060405180830381855af49150503d806000811461118a576040519150601f19603f3d011682016040523d82523d6000602084013e61118f565b606091505b5091509150816111db576044815110156111a857600080fd5b600481019050808060200190518101906111c29190615308565b60405162461bcd60e51b81526004016104b29190614c08565b600180546001600160a01b031916905595945050505050565b32331461120057600080fd5b600554610100900460ff16156112285760405162461bcd60e51b81526004016104b290614e55565b60055460ff16156112645760405162461bcd60e51b815260206004820152600660248201526514105554d15160d21b60448201526064016104b2565b60007f00000000000000000000000000000000000000000000000000000000000000006001600160a01b0316633078fff56040518163ffffffff1660e01b8152600401602060405180830381865afa1580156112c4573d6000803e3d6000fd5b505050506040513d601f19601f820116820180604052508101906112e89190615091565b90506000816001600160a01b03166335b03c176040518163ffffffff1660e01b8152600401602060405180830381865afa15801561132a573d6000803e3d6000fd5b505050506040513d601f19601f8201168201806040525081019061134e9190615091565b9050600061135a610456565b90507f00000000000000000000000000000000000000000000000000000000000000006001600160a01b031663f65d9dbe6040518163ffffffff1660e01b8152600401602060405180830381865afa1580156113ba573d6000803e3d6000fd5b505050506040513d601f19601f820116820180604052508101906113de91906153b5565b6020890151604051634bf3ccad60e11b81526001600160a01b03848116600483015260248201929092527f0000000000000000000000000000000000000000000000000000000000000000909116906397e7995a90604401602060405180830381865afa158015611453573d6000803e3d6000fd5b505050506040513d601f19601f8201168201806040525081019061147791906153b5565b60208a0151604051639c8912f160e01b81526001600160a01b03858116600483015260248201929092527f000000000000000000000000000000000000000000000000000000000000000090911690639c8912f190604401602060405180830381865afa1580156114ec573d6000803e3d6000fd5b505050506040513d601f19601f8201168201806040525081019061151091906153b5565b60208b01516040516307218dad60e21b81526001600160a01b03868116600483015260248201929092527f000000000000000000000000000000000000000000000000000000000000000090911690631c8636b490604401602060405180830381865afa158015611585573d6000803e3d6000fd5b505050506040513d601f19601f820116820180604052508101906115a991906153b5565b6115b391906151e6565b6115bd91906151e6565b106116005760405162461bcd60e51b815260206004820152601360248201527226a0ac2faa2920a222a9afa822a92fa820a4a960691b60448201526064016104b2565b7f00000000000000000000000000000000000000000000000000000000000000006001600160a01b0316638049fde76040518163ffffffff1660e01b8152600401602060405180830381865afa15801561165e573d6000803e3d6000fd5b505050506040513d601f19601f8201168201806040525081019061168291906153b5565b60405163f7b3c6fd60e01b81526001600160a01b0383811660048301527f0000000000000000000000000000000000000000000000000000000000000000169063f7b3c6fd90602401602060405180830381865afa1580156116e8573d6000803e3d6000fd5b505050506040513d601f19601f8201168201806040525081019061170c91906153b5565b1061174e5760405162461bcd60e51b81526020600482015260126024820152714d41585f50454e44494e475f4f524445525360701b60448201526064016104b2565b600254886080015111156117945760405162461bcd60e51b815260206004820152600d60248201526c41424f56455f4d41585f504f5360981b60448201526064016104b2565b602088015160405163066c581160e11b815260048101919091526001600160a01b03831690630cd8b02290602401602060405180830381865afa1580156117df573d6000803e3d6000fd5b505050506040513d601f19601f8201168201806040525081019061180391906153b5565b8860e00151896080015161181791906153ce565b10156118555760405162461bcd60e51b815260206004820152600d60248201526c42454c4f575f4d494e5f504f5360981b60448201526064016104b2565b60008860e001511180156118db5750602088015160405163059a992d60e41b815260048101919091526001600160a01b038316906359a992d090602401602060405180830381865afa1580156118af573d6000803e3d6000fd5b505050506040513d601f19601f820116820180604052508101906118d391906153b5565b8860e0015110155b801561195957506020880151604051630a06da4f60e21b815260048101919091526001600160a01b0383169063281b693c90602401602060405180830381865afa15801561192d573d6000803e3d6000fd5b505050506040513d601f19601f8201168201806040525081019061195191906153b5565b8860e0015111155b61199a5760405162461bcd60e51b815260206004820152601260248201527113115591549051d157d25390d3d4949150d560721b60448201526064016104b2565b851580611aab575060006001600160a01b037f00000000000000000000000000000000000000000000000000000000000000001663265aa6216119de60018a614fb2565b6040518263ffffffff1660e01b81526004016119fc91815260200190565b602060405180830381865afa158015611a19573d6000803e3d6000fd5b505050506040513d601f19601f82011682018060405250810190611a3d9190615091565b6040516370a0823160e01b81526001600160a01b03848116600483015291909116906370a0823190602401602060405180830381865afa158015611a85573d6000803e3d6000fd5b505050506040513d601f19601f82011682018060405250810190611aa991906153b5565b115b611b055760405162461bcd60e51b815260206004820152602560248201527f4e4f5f434f52524553504f4e44494e475f4e46545f5350524541445f5245445560448201526421aa24a7a760d91b60648201526084016104b2565b6101008801511580611b3957508760c00151611b2c578760a0015188610100015110611b39565b8760a00151886101000151115b611b705760405162461bcd60e51b8152602060048201526008602482015267057524f4e475f54560c41b60448201526064016104b2565b6101208801511580611ba457508760c00151611b97578760a0015188610120015111611ba4565b8760a00151886101200151105b611bdb5760405162461bcd60e51b815260206004820152600860248201526715d493d391d7d4d360c21b60448201526064016104b2565b60007f00000000000000000000000000000000000000000000000000000000000000006001600160a01b0316637ea95f3260008b602001518c60c001518d60e001518e60800151611c2c91906153ce565b6040516001600160e01b031960e087901b168152600481019490945260248401929092521515604483015260648201526084016040805180830381865afa158015611c7b573d6000803e3d6000fd5b505050506040513d601f19601f82011682018060405250810190611c9f91906153ed565b5090507f00000000000000000000000000000000000000000000000000000000000000006001600160a01b03166380f6cfc26040518163ffffffff1660e01b8152600401602060405180830381865afa158015611d00573d6000803e3d6000fd5b505050506040513d601f19601f82011682018060405250810190611d2491906153b5565b60e08a0151611d3390836153ce565b1115611d795760405162461bcd60e51b81526020600482015260156024820152740a0a492868abe929aa08286a8bea89e9ebe90928e9605b1b60448201526064016104b2565b608089015160405163373873db60e11b81526001600160a01b0384811660048301527f000000000000000000000000000000000000000000000000000000000000000016602482018190526044820192909252636e70e7b690606401600060405180830381600087803b158015611def57600080fd5b505af1158015611e03573d6000803e3d6000fd5b5060009250611e10915050565b886002811115611e2257611e22615411565b1461214257602089015160405163226a27ad60e11b81526001600160a01b03848116600483015260248201929092526000917f000000000000000000000000000000000000000000000000000000000000000016906344d44f5a90604401602060405180830381865afa158015611e9d573d6000803e3d6000fd5b505050506040513d601f19601f82011682018060405250810190611ec191906153b5565b90507f00000000000000000000000000000000000000000000000000000000000000006001600160a01b031663d3b5fe70604051806101a00160405280866001600160a01b031681526020018d6020015181526020018481526020018d60800151815260200160008c11611f36576000611fcf565b6001600160a01b037f000000000000000000000000000000000000000000000000000000000000000016633dae10a0611f7060018f614fb2565b6040518263ffffffff1660e01b8152600401611f8e91815260200190565b602060405180830381865afa158015611fab573d6000803e3d6000fd5b505050506040513d601f19601f82011682018060405250810190611fcf91906153b5565b81526020018d60c00151151581526020018d60e0015181526020018d610100015181526020018d610120015181526020018d60a0015181526020018d60a00151815260200143815260200160008152506040518263ffffffff1660e01b815260040161203b9190614ff1565b600060405180830381600087803b15801561205557600080fd5b505af1158015612069573d6000803e3d6000fd5b5050505060208a0151604051630ec5706160e41b81527f00000000000000000000000000000000000000000000000000000000000000006001600160a01b03169163ec570610916120c291879186908f90600401615427565b600060405180830381600087803b1580156120dc57600080fd5b505af11580156120f0573d6000803e3d6000fd5b505050508960200151836001600160a01b03167fdfabd6f206f17b7f2e1f9e0d33c40d30d1e8d7b6a4f520a03fdc1c18110593438360405161213491815260200190565b60405180910390a3506123e8565b6000846001600160a01b031663fa8dd4988b6020015160008d60e001518e6080015161216e91906153ce565b6040518463ffffffff1660e01b815260040161218c93929190615464565b6020604051808303816000875af11580156121ab573d6000803e3d6000fd5b505050506040513d601f19601f820116820180604052508101906121cf91906153b5565b90507f00000000000000000000000000000000000000000000000000000000000000006001600160a01b031663c76faf786040518060c00160405280604051806101400160405280886001600160a01b031681526020018f60200151815260200160008152602001600081526020018f608001518152602001600081526020018f60c00151151581526020018f60e0015181526020018f610100015181526020018f61012001518152508152602001600081526020018d60a0015181526020018a815260200160008c116122a457600061233d565b6001600160a01b037f000000000000000000000000000000000000000000000000000000000000000016633dae10a06122de60018f614fb2565b6040518263ffffffff1660e01b81526004016122fc91815260200190565b602060405180830381865afa158015612319573d6000803e3d6000fd5b505050506040513d601f19601f8201168201806040525081019061233d91906153b5565b815260200160008152508360016040518463ffffffff1660e01b81526004016123689392919061548c565b600060405180830381600087803b15801561238257600080fd5b505af1158015612396573d6000803e3d6000fd5b505050508960200151836001600160a01b0316827f3e544118c04e3bb18b669475695cd270ba0e41fb13177483f01c14222de62a8660016040516123de911515815260200190565b60405180910390a4505b6040516326e2ada160e21b81526001600160a01b03838116600483015286811660248301527f00000000000000000000000000000000000000000000000000000000000000001690639b8ab68490604401600060405180830381600087803b15801561245357600080fd5b505af1158015612467573d6000803e3d6000fd5b50505050505050505050505050565b32331461248257600080fd5b600554610100900460ff16156124aa5760405162461bcd60e51b81526004016104b290614e55565b60006124b4610456565b905060007f00000000000000000000000000000000000000000000000000000000000000006001600160a01b031663a3a80ffe8386866040518463ffffffff1660e01b815260040161250893929190614e73565b61014060405180830381865afa158015612526573d6000803e3d6000fd5b505050506040513d601f19601f8201168201806040525081019061254a91906154b3565b905060007f00000000000000000000000000000000000000000000000000000000000000006001600160a01b0316638c8ff1d58487876040518463ffffffff1660e01b815260040161259e93929190614e73565b60c060405180830381865afa1580156125bb573d6000803e3d6000fd5b505050506040513d601f19601f820116820180604052508101906125df91906154d0565b90507f00000000000000000000000000000000000000000000000000000000000000006001600160a01b0316638049fde76040518163ffffffff1660e01b8152600401602060405180830381865afa15801561263f573d6000803e3d6000fd5b505050506040513d601f19601f8201168201806040525081019061266391906153b5565b60405163f7b3c6fd60e01b81526001600160a01b0385811660048301527f0000000000000000000000000000000000000000000000000000000000000000169063f7b3c6fd90602401602060405180830381865afa1580156126c9573d6000803e3d6000fd5b505050506040513d601f19601f820116820180604052508101906126ed91906153b5565b1061272f5760405162461bcd60e51b81526020600482015260126024820152714d41585f50454e44494e475f4f524445525360701b60448201526064016104b2565b8060a00151156127785760405162461bcd60e51b81526020600482015260146024820152731053149150511657d091525391d7d0d313d4d15160621b60448201526064016104b2565b60008260e001511161279c5760405162461bcd60e51b81526004016104b290615550565b60007f00000000000000000000000000000000000000000000000000000000000000006001600160a01b0316633078fff56040518163ffffffff1660e01b8152600401602060405180830381865afa1580156127fc573d6000803e3d6000fd5b505050506040513d601f19601f820116820180604052508101906128209190615091565b6001600160a01b031663fa8dd4988760016402540be4008760e001518760200151896060015161285091906153ce565b61285a91906153ce565b6128649190615572565b6040518463ffffffff1660e01b815260040161288293929190615464565b6020604051808303816000875af11580156128a1573d6000803e3d6000fd5b505050506040513d601f19601f820116820180604052508101906128c591906153b5565b90507f00000000000000000000000000000000000000000000000000000000000000006001600160a01b031663c76faf786040518060c00160405280604051806101400160405280896001600160a01b031681526020018b81526020018a81526020016000815260200160008152602001600081526020016000151581526020016000815260200160008152602001600081525081526020016000815260200160008152602001600081526020016000815260200160008152508360006040518463ffffffff1660e01b81526004016129a09392919061548c565b600060405180830381600087803b1580156129ba57600080fd5b505af11580156129ce573d6000803e3d6000fd5b5050505085846001600160a01b0316827f3e544118c04e3bb18b669475695cd270ba0e41fb13177483f01c14222de62a866000604051612a12911515815260200190565b60405180910390a4505050505050565b7f00000000000000000000000000000000000000000000000000000000000000006001600160a01b03166312d43a516040518163ffffffff1660e01b8152600401602060405180830381865afa158015612a80573d6000803e3d6000fd5b505050506040513d601f19601f82011682018060405250810190612aa49190615091565b6001600160a01b0316336001600160a01b031614612ad45760405162461bcd60e51b81526004016104b2906150ae565b6005805460ff610100808304821615810261ff001990931692909217928390556040517fc3a6f986261de9467c2838c6df8ef74f9107855159205600c0bc7a14cdfd3888936108d79390049091161515815260200190565b7f00000000000000000000000000000000000000000000000000000000000000006001600160a01b03166312d43a516040518163ffffffff1660e01b8152600401602060405180830381865afa158015612b8a573d6000803e3d6000fd5b505050506040513d601f19601f82011682018060405250810190612bae9190615091565b6001600160a01b0316336001600160a01b031614612bde5760405162461bcd60e51b81526004016104b2906150ae565b60008111612bfe5760405162461bcd60e51b81526004016104b2906152bb565b600481905560408051818152601391810191909152721b585c9ad95d13dc99195c9cd51a5b595bdd5d606a1b6060820152602081018290527f8cf3e35f6221b16e1670a3413180c9484bf5aa71787905909fa82a6a2662e9ab90608001610d2c565b323314612c6c57600080fd5b600554610100900460ff1615612c945760405162461bcd60e51b81526004016104b290614e55565b6000612c9e610456565b905060018210158015612cb2575060058211155b612cef5760405162461bcd60e51b815260206004820152600e60248201526d57524f4e475f4e46545f5459504560901b60448201526064016104b2565b6001600160a01b03808216907f00000000000000000000000000000000000000000000000000000000000000001663265aa621612d2d600186614fb2565b6040518263ffffffff1660e01b8152600401612d4b91815260200190565b602060405180830381865afa158015612d68573d6000803e3d6000fd5b505050506040513d601f19601f82011682018060405250810190612d8c9190615091565b6001600160a01b0316636352211e856040518263ffffffff1660e01b8152600401612db991815260200190565b602060405180830381865afa158015612dd6573d6000803e3d6000fd5b505050506040513d601f19601f82011682018060405250810190612dfa9190615091565b6001600160a01b031614612e395760405162461bcd60e51b81526020600482015260066024820152651393d7d3919560d21b60448201526064016104b2565b7f00000000000000000000000000000000000000000000000000000000000000006001600160a01b031663f8d24b486040518163ffffffff1660e01b8152600401602060405180830381865afa158015612e97573d6000803e3d6000fd5b505050506040513d601f19601f82011682018060405250810190612ebb91906153b5565b60405163aa3b7d7760e01b8152600481018590527f00000000000000000000000000000000000000000000000000000000000000006001600160a01b03169063aa3b7d7790602401602060405180830381865afa158015612f20573d6000803e3d6000fd5b505050506040513d601f19601f82011682018060405250810190612f4491906153b5565b612f4e91906151e6565b431015612f905760405162461bcd60e51b815260206004820152601060248201526f535543434553535f54494d454c4f434b60801b60448201526064016104b2565b612ff160405180610140016040528060006001600160a01b0316815260200160008152602001600081526020016000815260200160008152602001600081526020016000151581526020016000815260200160008152602001600081525090565b600388600381111561300557613005615411565b036130bc57604051636e6f99cd60e11b81526001600160a01b037f0000000000000000000000000000000000000000000000000000000000000000169063dcdf339a9061305a908a908a908a90600401614e73565b602060405180830381865afa158015613077573d6000803e3d6000fd5b505050506040513d601f19601f8201168201806040525081019061309b9190614e9f565b6130b75760405162461bcd60e51b81526004016104b290614ebc565b6132b7565b6040516351d407ff60e11b81526001600160a01b037f0000000000000000000000000000000000000000000000000000000000000000169063a3a80ffe9061310c908a908a908a90600401614e73565b61014060405180830381865afa15801561312a573d6000803e3d6000fd5b505050506040513d601f19601f8201168201806040525081019061314e91906154b3565b905060008160e00151116131745760405162461bcd60e51b81526004016104b290615550565b600288600381111561318857613188615411565b0361320357600061319882614901565b9050816101200151600014806131c857508160c001516131bf5781610120015181106131c8565b81610120015181115b6131fd5760405162461bcd60e51b8152602060048201526006602482015265121054d7d4d360d21b60448201526064016104b2565b506132b7565b600188600381111561321757613217615411565b14158061322957506000816101200151115b61325d5760405162461bcd60e51b81526020600482015260056024820152641393d7d4d360da1b60448201526064016104b2565b600088600381111561327157613271615411565b14158061328357506000816101000151115b6132b75760405162461bcd60e51b815260206004820152600560248201526404e4f5f54560dc1b60448201526064016104b2565b60006040518060800160405280896001600160a01b031681526020018881526020018781526020018a60038111156132f1576132f1615411565b905260405163108c3d4960e11b81529091506001600160a01b037f000000000000000000000000000000000000000000000000000000000000000016906321187a92906133429084906004016155df565b602060405180830381865afa15801561335f573d6000803e3d6000fd5b505050506040513d601f19601f820116820180604052508101906133839190614e9f565b15806134175750604051633f1b72bf60e21b81526001600160a01b037f0000000000000000000000000000000000000000000000000000000000000000169063fc6dcafc906133d69084906004016155df565b602060405180830381865afa1580156133f3573d6000803e3d6000fd5b505050506040513d601f19601f820116820180604052508101906134179190614e9f565b15613a7857600060038a600381111561343257613432615411565b0361367257604051632e21e28b60e21b81526000906001600160a01b037f0000000000000000000000000000000000000000000000000000000000000000169063b8878a2c9061348a908d908d908d90600401614e73565b6101a060405180830381865afa1580156134a8573d6000803e3d6000fd5b505050506040513d601f19601f820116820180604052508101906134cc9190614ee9565b90508060c0015181606001516134e291906153ce565b602082015160a0830151604051633f54af9960e11b81526000600482018190526024820193909352901515604482015260648101839052919350906001600160a01b037f00000000000000000000000000000000000000000000000000000000000000001690637ea95f32906084016040805180830381865afa15801561356d573d6000803e3d6000fd5b505050506040513d601f19601f8201168201806040525081019061359191906153ed565b5090507f00000000000000000000000000000000000000000000000000000000000000006001600160a01b03166380f6cfc26040518163ffffffff1660e01b8152600401602060405180830381865afa1580156135f2573d6000803e3d6000fd5b505050506040513d601f19601f8201168201806040525081019061361691906153b5565b60c083015161362590836153ce565b111561366b5760405162461bcd60e51b81526020600482015260156024820152740a0a492868abe929aa08286a8bea89e9ebe90928e9605b1b60448201526064016104b2565b5050613738565b6402540be4008360e001517f00000000000000000000000000000000000000000000000000000000000000006001600160a01b0316638c8ff1d58c8c8c6040518463ffffffff1660e01b81526004016136cd93929190614e73565b60c060405180830381865afa1580156136ea573d6000803e3d6000fd5b505050506040513d601f19601f8201168201806040525081019061370e91906154d0565b60200151856060015161372191906153ce565b61372b91906153ce565b6137359190615572565b90505b604051633348540360e11b81526001600160a01b037f00000000000000000000000000000000000000000000000000000000000000001690636690a806906137889087908c908690600401614e73565b600060405180830381600087803b1580156137a257600080fd5b505af11580156137b6573d6000803e3d6000fd5b5050505060007f00000000000000000000000000000000000000000000000000000000000000006001600160a01b0316633078fff56040518163ffffffff1660e01b8152600401602060405180830381865afa15801561381a573d6000803e3d6000fd5b505050506040513d601f19601f8201168201806040525081019061383e9190615091565b6001600160a01b031663fa8dd4988a60038e600381111561386157613861615411565b1461386d576003613870565b60025b856040518463ffffffff1660e01b815260040161388f93929190615464565b6020604051808303816000875af11580156138ae573d6000803e3d6000fd5b505050506040513d601f19601f820116820180604052508101906138d291906153b5565b90507f00000000000000000000000000000000000000000000000000000000000000006001600160a01b031663817fa1a46040518060c00160405280886001600160a01b031681526020018a81526020018d6001600160a01b031681526020018c81526020018b81526020018e600381111561395057613950615411565b815250836040518363ffffffff1660e01b81526004016139719291906155ed565b600060405180830381600087803b15801561398b57600080fd5b505af115801561399f573d6000803e3d6000fd5b505060405163308f221b60e21b81526001600160a01b037f000000000000000000000000000000000000000000000000000000000000000016925063c23c886c91506139f1908690899060040161564d565b600060405180830381600087803b158015613a0b57600080fd5b505af1158015613a1f573d6000803e3d6000fd5b50505050888a6001600160a01b0316866001600160a01b03167f6d87222414c5850caf1d385b1e080a771b505825b082a2162d0f4af5ffc86c0084604051613a6991815260200190565b60405180910390a45050613b3a565b6040516346ea285b60e01b81526001600160a01b037f000000000000000000000000000000000000000000000000000000000000000016906346ea285b90613ac6908490879060040161564d565b600060405180830381600087803b158015613ae057600080fd5b505af1158015613af4573d6000803e3d6000fd5b5050505086886001600160a01b0316846001600160a01b03167fde7da272dc52e28c3b33c5c74b461da89b05bd790d845e82db2f69bbf08108e760405160405180910390a45b505050505050505050565b323314613b5157600080fd5b600554610100900460ff1615613b795760405162461bcd60e51b81526004016104b290614e55565b6000613b83610456565b604051636e6f99cd60e11b81529091506001600160a01b037f0000000000000000000000000000000000000000000000000000000000000000169063dcdf339a90613bd690849087908790600401614e73565b602060405180830381865afa158015613bf3573d6000803e3d6000fd5b505050506040513d601f19601f82011682018060405250810190613c179190614e9f565b613c335760405162461bcd60e51b81526004016104b290614ebc565b604051632e21e28b60e21b81526000906001600160a01b037f0000000000000000000000000000000000000000000000000000000000000000169063b8878a2c90613c8690859088908890600401614e73565b6101a060405180830381865afa158015613ca4573d6000803e3d6000fd5b505050506040513d601f19601f82011682018060405250810190613cc89190614ee9565b905060035481610160015143613cde9190614fb2565b1015613cfc5760405162461bcd60e51b81526004016104b290614fc9565b60405163b4b0f56760e01b81526001600160a01b037f0000000000000000000000000000000000000000000000000000000000000000169063b4b0f56790613d4c90859088908890600401614e73565b600060405180830381600087803b158015613d6657600080fd5b505af1158015613d7a573d6000803e3d6000fd5b50505050606081015160405163373873db60e11b81526001600160a01b037f000000000000000000000000000000000000000000000000000000000000000081166004830181905290851660248301526044820192909252636e70e7b690606401600060405180830381600087803b158015613df557600080fd5b505af1158015613e09573d6000803e3d6000fd5b5050505083826001600160a01b03167ff1b38881d7f4b2b12141c5f39c5124545d6112532eb6afbe9630cdbde3ee53e985604051613e4991815260200190565b60405180910390a350505050565b323314613e6357600080fd5b600554610100900460ff1615613e8b5760405162461bcd60e51b81526004016104b290614e55565b6000613e95610456565b905060007f00000000000000000000000000000000000000000000000000000000000000006001600160a01b031663a3a80ffe8387876040518463ffffffff1660e01b8152600401613ee993929190614e73565b61014060405180830381865afa158015613f07573d6000803e3d6000fd5b505050506040513d601f19601f82011682018060405250810190613f2b91906154b3565b905060007f00000000000000000000000000000000000000000000000000000000000000006001600160a01b0316638c8ff1d58488886040518463ffffffff1660e01b8152600401613f7f93929190614e73565b60c060405180830381865afa158015613f9c573d6000803e3d6000fd5b505050506040513d601f19601f82011682018060405250810190613fc091906154d0565b905060008260e0015111613fe65760405162461bcd60e51b81526004016104b290615550565b60008260e001516064604b8560a0015161400091906153ce565b61400a9190615572565b6140149190615572565b905084158061405357508260c0015161403f57808360a0015161403791906151e6565b851115614053565b808360a0015161404f9190614fb2565b8510155b61408c5760405162461bcd60e51b815260206004820152600a602482015269534c5f544f4f5f42494760b01b60448201526064016104b2565b600354608083015161409e9043614fb2565b10156140bc5760405162461bcd60e51b81526004016104b290614fc9565b60007f00000000000000000000000000000000000000000000000000000000000000006001600160a01b0316633078fff56040518163ffffffff1660e01b8152600401602060405180830381865afa15801561411c573d6000803e3d6000fd5b505050506040513d601f19601f820116820180604052508101906141409190615091565b905085158061421c5750806001600160a01b03166335b03c176040518163ffffffff1660e01b8152600401602060405180830381865afa158015614188573d6000803e3d6000fd5b505050506040513d601f19601f820116820180604052508101906141ac9190615091565b6001600160a01b03166324abd3fb896040518263ffffffff1660e01b81526004016141d991815260200190565b602060405180830381865afa1580156141f6573d6000803e3d6000fd5b505050506040513d601f19601f8201168201806040525081019061421a9190614e9f565b155b156142fc5760405163a354418160e01b81526001600160a01b038681166004830152602482018a905260448201899052606482018890527f0000000000000000000000000000000000000000000000000000000000000000169063a354418190608401600060405180830381600087803b15801561429957600080fd5b505af11580156142ad573d6000803e3d6000fd5b5050604080518a8152602081018a90528b93506001600160a01b03891692507f1fc4a6c7ffe506697979b8ed54dc4135cd1ecd26a2745f70b760a2492222b316910160405180910390a36144ba565b6000816001600160a01b031663fa8dd4988a60046402540be4008960e0015189602001518b6060015161432f91906153ce565b61433991906153ce565b6143439190615572565b6040518463ffffffff1660e01b815260040161436193929190615464565b6020604051808303816000875af1158015614380573d6000803e3d6000fd5b505050506040513d601f19601f820116820180604052508101906143a491906153b5565b6040805160c080820183526001600160a01b038a81168352602083018e81528385018e815260a0808d015160608701908152948d01511515608087019081529086018f81529651635c109dfd60e11b81526004810189905295518416602487015291516044860152516064850152915160848401529051151560a4830152915160c482015291925083169063b8213bfa9060e401600060405180830381600087803b15801561445257600080fd5b505af1158015614466573d6000803e3d6000fd5b5050505088866001600160a01b0316827ffdfffd671d06639f57ee329f42ea52018346eb90ed43679721e81cc12bfa10548b8b6040516144b0929190918252602082015260400190565b60405180910390a4505b5050505050505050565b3233146145015760405162461bcd60e51b815260206004820152600b60248201526a1393d7d0d3d395149050d560aa1b60448201526064016104b2565b33600090815260208190526040902080546001600160a01b0319166001600160a01b0392909216919091179055565b7f00000000000000000000000000000000000000000000000000000000000000006001600160a01b03166312d43a516040518163ffffffff1660e01b8152600401602060405180830381865afa15801561458e573d6000803e3d6000fd5b505050506040513d601f19601f820116820180604052508101906145b29190615091565b6001600160a01b0316336001600160a01b0316146145e25760405162461bcd60e51b81526004016104b2906150ae565b600081116146025760405162461bcd60e51b81526004016104b2906152bb565b600381905560408051818152601391810191909152726c696d69744f726465727354696d656c6f636b60681b6060820152602081018290527f8cf3e35f6221b16e1670a3413180c9484bf5aa71787905909fa82a6a2662e9ab90608001610d2c565b32331461467057600080fd5b600554610100900460ff16156146985760405162461bcd60e51b81526004016104b290614e55565b60006146a2610456565b905060007f00000000000000000000000000000000000000000000000000000000000000006001600160a01b031663a3a80ffe8387876040518463ffffffff1660e01b81526004016146f693929190614e73565b61014060405180830381865afa158015614714573d6000803e3d6000fd5b505050506040513d601f19601f8201168201806040525081019061473891906154b3565b905060007f00000000000000000000000000000000000000000000000000000000000000006001600160a01b0316638c8ff1d58488886040518463ffffffff1660e01b815260040161478c93929190614e73565b60c060405180830381865afa1580156147a9573d6000803e3d6000fd5b505050506040513d601f19601f820116820180604052508101906147cd91906154d0565b905060008260e00151116147f35760405162461bcd60e51b81526004016104b290615550565b60035460608201516148059043614fb2565b10156148235760405162461bcd60e51b81526004016104b290614fc9565b604051637fdb96f360e01b81526001600160a01b0384811660048301526024820188905260448201879052606482018690527f00000000000000000000000000000000000000000000000000000000000000001690637fdb96f390608401600060405180830381600087803b15801561489b57600080fd5b505af11580156148af573d6000803e3d6000fd5b505060408051888152602081018890528993506001600160a01b03871692507f7e06a81c7a47891ccc7455b5ccb2ed850e32bb655ccda67eb3ebaaeed83242a4910160405180910390a3505050505050565b60007f00000000000000000000000000000000000000000000000000000000000000006001600160a01b0316636bc84d598360000151846020015185604001518660a001518760c001516402540be4007f00000000000000000000000000000000000000000000000000000000000000006001600160a01b0316638c8ff1d58b600001518c602001518d604001516040518463ffffffff1660e01b81526004016149ad93929190614e73565b60c060405180830381865afa1580156149ca573d6000803e3d6000fd5b505050506040513d601f19601f820116820180604052508101906149ee91906154d0565b602001518a60600151614a0191906153ce565b614a0b9190615572565b60e08a8101516040519189901b6001600160e01b03191682526001600160a01b039790971660048201526024810195909552604485019390935260648401919091521515608483015260a482015260c481019190915260e401602060405180830381865afa158015614a81573d6000803e3d6000fd5b505050506040513d601f19601f82011682018060405250810190614aa591906153b5565b92915050565b600080600080600060a08688031215614ac357600080fd5b505083359560208501359550604085013594606081013594506080013592509050565b600060208284031215614af857600080fd5b5035919050565b6001600160a01b0381168114614b1457600080fd5b50565b8035614b2281614aff565b919050565b600080600060408486031215614b3c57600080fd5b8335614b4781614aff565b9250602084013567ffffffffffffffff80821115614b6457600080fd5b818601915086601f830112614b7857600080fd5b813581811115614b8757600080fd5b876020828501011115614b9957600080fd5b6020830194508093505050509250925092565b60005b83811015614bc7578181015183820152602001614baf565b83811115614bd6576000848401525b50505050565b60008151808452614bf4816020860160208601614bac565b601f01601f19169290920160200192915050565b602081526000614c1b6020830184614bdc565b9392505050565b634e487b7160e01b600052604160045260246000fd5b604051610140810167ffffffffffffffff81118282101715614c5c57614c5c614c22565b60405290565b6040516101a0810167ffffffffffffffff81118282101715614c5c57614c5c614c22565b8015158114614b1457600080fd5b8035614b2281614c86565b803560038110614b2257600080fd5b60008060008060008587036101c0811215614cc857600080fd5b61014080821215614cd857600080fd5b614ce0614c38565b9150614ceb88614b17565b82526020880135602083015260408801356040830152606088013560608301526080880135608083015260a088013560a0830152614d2b60c08901614c94565b60c083015260e088013560e0830152610100808901358184015250610120808901358184015250819650614d60818901614c9f565b9550505061016086013592506101808601359150614d816101a08701614b17565b90509295509295909350565b60008060408385031215614da057600080fd5b50508035926020909101359150565b60008060008060008060c08789031215614dc857600080fd5b863560048110614dd757600080fd5b95506020870135614de781614aff565b95989597505050506040840135936060810135936080820135935060a0909101359150565b600080600060608486031215614e2157600080fd5b505081359360208301359350604090920135919050565b600060208284031215614e4a57600080fd5b8135614c1b81614aff565b602080825260049082015263444f4e4560e01b604082015260600190565b6001600160a01b039390931683526020830191909152604082015260600190565b8051614b2281614c86565b600060208284031215614eb157600080fd5b8151614c1b81614c86565b6020808252600890820152671393d7d31253525560c21b604082015260600190565b8051614b2281614aff565b60006101a08284031215614efc57600080fd5b614f04614c62565b614f0d83614ede565b815260208301516020820152604083015160408201526060830151606082015260808301516080820152614f4360a08401614e94565b60a082015260c0838101519082015260e080840151908201526101008084015190820152610120808401519082015261014080840151908201526101608084015190820152610180928301519281019290925250919050565b634e487b7160e01b600052601160045260246000fd5b600082821015614fc457614fc4614f9c565b500390565b6020808252600e908201526d4c494d49545f54494d454c4f434b60901b604082015260600190565b81516001600160a01b031681526101a081016020830151602083015260408301516040830152606083015160608301526080830151608083015260a083015161503e60a084018215159052565b5060c0838101519083015260e08084015190830152610100808401519083015261012080840151908301526101408084015190830152610160808401519083015261018092830151929091019190915290565b6000602082840312156150a357600080fd5b8151614c1b81614aff565b602080825260089082015267474f565f4f4e4c5960c01b604082015260600190565b600061014082840312156150e357600080fd5b6150eb614c38565b90506150f682614ede565b81526020820151602082015260408201516040820152606082015160608201526080820151608082015260a082015160a082015261513660c08301614e94565b60c082015260e082015160e082015261010080830151818301525061012080830151818301525092915050565b60006101e0828403121561517657600080fd5b60405160c0810181811067ffffffffffffffff8211171561519957615199614c22565b6040526151a684846150d0565b81526101408301516020820152610160830151604082015261018083015160608201526101a083015160808201526101c09092015160a083015250919050565b600082198211156151f9576151f9614f9c565b500190565b805180516001600160a01b031683526020810151602084015260408101516040840152606081015160608401526080810151608084015260a081015160a084015260c081015161525260c085018215159052565b5060e081810151908401526101008082015190840152610120908101519083015260208101516101408301526040810151610160830152606081015161018083015260808101516101a083015260a001516101c090910152565b6101e08101614aa582846151fe565b602080825260079082015266056414c55455f360cc1b604082015260600190565b600082516152ee818460208701614bac565b9190910192915050565b8183823760009101908152919050565b60006020828403121561531a57600080fd5b815167ffffffffffffffff8082111561533257600080fd5b818401915084601f83011261534657600080fd5b81518181111561535857615358614c22565b604051601f8201601f19908116603f0116810190838211818310171561538057615380614c22565b8160405282815287602084870101111561539957600080fd5b6153aa836020830160208801614bac565b979650505050505050565b6000602082840312156153c757600080fd5b5051919050565b60008160001904831182151516156153e8576153e8614f9c565b500290565b6000806040838503121561540057600080fd5b505080516020909101519092909150565b634e487b7160e01b600052602160045260246000fd5b6001600160a01b03851681526020810184905260408101839052608081016003831061545557615455615411565b82606083015295945050505050565b838152606081016005841061547b5761547b615411565b602082019390935260400152919050565b610220810161549b82866151fe565b836101e0830152821515610200830152949350505050565b600061014082840312156154c657600080fd5b614c1b83836150d0565b600060c082840312156154e257600080fd5b60405160c0810181811067ffffffffffffffff8211171561550557615505614c22565b8060405250825181526020830151602082015260408301516040820152606083015160608201526080830151608082015260a083015161554481614c86565b60a08201529392505050565b6020808252600890820152674e4f5f545241444560c01b604082015260600190565b60008261558f57634e487b7160e01b600052601260045260246000fd5b500490565b600481106155a4576155a4615411565b9052565b60018060a01b038151168252602081015160208301526040810151604083015260608101516155da6060840182615594565b505050565b60808101614aa582846155a8565b600060e08201905060018060a01b038085511683526020850151602084015280604086015116604084015250606084015160608301526080840151608083015260a084015161563f60a0840182615594565b508260c08301529392505050565b60a0810161565b82856155a8565b6001600160a01b03929092166080919091015291905056fea2646970667358221220f68a781af489d7222b8a03f5732504a53c352af38c8e83a05654ee27e3ae477c64736f6c634300080f0033","bytecodeSha1":"09c499d8efbead47a2a049444ce2de05240b28ad","compiler":{"evm_version":"istanbul","optimizer":{"enabled":true,"runs":200},"version":"0.8.15+commit.e14f2714"},"contractName":"GNSTradingV6_2","language":"Solidity","natspec":{"kind":"dev","methods":{},"version":1},"opcodes":"PUSH1 0x80 PUSH1 0x40 MSTORE CALLVALUE DUP1 ISZERO PUSH2 0x10 JUMPI PUSH1 0x0 DUP1 REVERT JUMPDEST POP PUSH1 0x4 CALLDATASIZE LT PUSH2 0x1C4 JUMPI PUSH1 0x0 CALLDATALOAD PUSH1 0xE0 SHR DUP1 PUSH4 0x9A10CC32 GT PUSH2 0xF9 JUMPI DUP1 PUSH4 0xB9B6573A GT PUSH2 0x97 JUMPI DUP1 PUSH4 0xCA5EB5E1 GT PUSH2 0x71 JUMPI DUP1 PUSH4 0xCA5EB5E1 EQ PUSH2 0x3F6 JUMPI DUP1 PUSH4 0xD3DC7539 EQ PUSH2 0x409 JUMPI DUP1 PUSH4 0xD4A1CAA7 EQ PUSH2 0x430 JUMPI DUP1 PUSH4 0xD8DEFD15 EQ PUSH2 0x443 JUMPI PUSH1 0x0 DUP1 REVERT JUMPDEST DUP1 PUSH4 0xB9B6573A EQ PUSH2 0x3A7 JUMPI DUP1 PUSH4 0xBE73FB99 EQ PUSH2 0x3BA JUMPI DUP1 PUSH4 0xBFFE3486 EQ PUSH2 0x3CD JUMPI PUSH1 0x0 DUP1 REVERT JUMPDEST DUP1 PUSH4 0xAE8421E1 GT PUSH2 0xD3 JUMPI DUP1 PUSH4 0xAE8421E1 EQ PUSH2 0x36C JUMPI DUP1 PUSH4 0xB187BD26 EQ PUSH2 0x374 JUMPI DUP1 PUSH4 0xB81BFA05 EQ PUSH2 0x381 JUMPI DUP1 PUSH4 0xB8EBD5CC EQ PUSH2 0x394 JUMPI PUSH1 0x0 DUP1 REVERT JUMPDEST DUP1 PUSH4 0x9A10CC32 EQ PUSH2 0x326 JUMPI DUP1 PUSH4 0x9AA7C0E5 EQ PUSH2 0x346 JUMPI DUP1 PUSH4 0xA2A3C0CB EQ PUSH2 0x359 JUMPI PUSH1 0x0 DUP1 REVERT JUMPDEST DUP1 PUSH4 0x410C0B7C GT PUSH2 0x166 JUMPI DUP1 PUSH4 0x876D3ABD GT PUSH2 0x140 JUMPI DUP1 PUSH4 0x876D3ABD EQ PUSH2 0x2CB JUMPI DUP1 PUSH4 0x8F062227 EQ PUSH2 0x2DE JUMPI DUP1 PUSH4 0x934D1CF4 EQ PUSH2 0x300 JUMPI DUP1 PUSH4 0x990382CF EQ PUSH2 0x313 JUMPI PUSH1 0x0 DUP1 REVERT JUMPDEST DUP1 PUSH4 0x410C0B7C EQ PUSH2 0x293 JUMPI DUP1 PUSH4 0x5AD9F993 EQ PUSH2 0x29C JUMPI DUP1 PUSH4 0x8456CB59 EQ PUSH2 0x2C3 JUMPI PUSH1 0x0 DUP1 REVERT JUMPDEST DUP1 PUSH4 0x16FFF074 GT PUSH2 0x1A2 JUMPI DUP1 PUSH4 0x16FFF074 EQ PUSH2 0x22C JUMPI DUP1 PUSH4 0x279A165C EQ PUSH2 0x253 JUMPI DUP1 PUSH4 0x318A368B EQ PUSH2 0x25C JUMPI DUP1 PUSH4 0x36FB8B15 EQ PUSH2 0x271 JUMPI PUSH1 0x0 DUP1 REVERT JUMPDEST DUP1 PUSH4 0x890D22A EQ PUSH2 0x1C9 JUMPI DUP1 PUSH4 0x119DF25F EQ PUSH2 0x1E5 JUMPI DUP1 PUSH4 0x1346B0FF EQ PUSH2 0x205 JUMPI JUMPDEST PUSH1 0x0 DUP1 REVERT JUMPDEST PUSH2 0x1D2 PUSH1 0x3 SLOAD DUP2 JUMP JUMPDEST PUSH1 0x40 MLOAD SWAP1 DUP2 MSTORE PUSH1 0x20 ADD JUMPDEST PUSH1 0x40 MLOAD DUP1 SWAP2 SUB SWAP1 RETURN JUMPDEST PUSH2 0x1ED PUSH2 0x456 JUMP JUMPDEST PUSH1 0x40 MLOAD PUSH1 0x1 PUSH1 0x1 PUSH1 0xA0 SHL SUB SWAP1 SWAP2 AND DUP2 MSTORE PUSH1 0x20 ADD PUSH2 0x1DC JUMP JUMPDEST PUSH2 0x1ED PUSH32 0x0 DUP2 JUMP JUMPDEST PUSH2 0x1ED PUSH32 0x0 DUP2 JUMP JUMPDEST PUSH2 0x1D2 PUSH1 0x2 SLOAD DUP2 JUMP JUMPDEST PUSH2 0x26F PUSH2 0x26A CALLDATASIZE PUSH1 0x4 PUSH2 0x4AAB JUMP JUMPDEST PUSH2 0x47E JUMP JUMPDEST STOP JUMPDEST PUSH2 0x26F CALLER PUSH1 0x0 SWAP1 DUP2 MSTORE PUSH1 0x20 DUP2 SWAP1 MSTORE PUSH1 0x40 SWAP1 KECCAK256 DUP1 SLOAD PUSH1 0x1 PUSH1 0x1 PUSH1 0xA0 SHL SUB NOT AND SWAP1 SSTORE JUMP JUMPDEST PUSH2 0x1D2 PUSH1 0x4 SLOAD DUP2 JUMP JUMPDEST PUSH2 0x1ED PUSH32 0x0 DUP2 JUMP JUMPDEST PUSH2 0x26F PUSH2 0x7E1 JUMP JUMPDEST PUSH2 0x26F PUSH2 0x2D9 CALLDATASIZE PUSH1 0x4 PUSH2 0x4AE6 JUMP JUMPDEST PUSH2 0x8E1 JUMP JUMPDEST PUSH1 0x5 SLOAD PUSH2 0x2F0 SWAP1 PUSH2 0x100 SWAP1 DIV PUSH1 0xFF AND DUP2 JUMP JUMPDEST PUSH1 0x40 MLOAD SWAP1 ISZERO ISZERO DUP2 MSTORE PUSH1 0x20 ADD PUSH2 0x1DC JUMP JUMPDEST PUSH2 0x26F PUSH2 0x30E CALLDATASIZE PUSH1 0x4 PUSH2 0x4AE6 JUMP JUMPDEST PUSH2 0xC06 JUMP JUMPDEST PUSH2 0x26F PUSH2 0x321 CALLDATASIZE PUSH1 0x4 PUSH2 0x4AE6 JUMP JUMPDEST PUSH2 0xD37 JUMP JUMPDEST PUSH2 0x339 PUSH2 0x334 CALLDATASIZE PUSH1 0x4 PUSH2 0x4B27 JUMP JUMPDEST PUSH2 0x10B9 JUMP JUMPDEST PUSH1 0x40 MLOAD PUSH2 0x1DC SWAP2 SWAP1 PUSH2 0x4C08 JUMP JUMPDEST PUSH2 0x26F PUSH2 0x354 CALLDATASIZE PUSH1 0x4 PUSH2 0x4CAE JUMP JUMPDEST PUSH2 0x11F4 JUMP JUMPDEST PUSH2 0x26F PUSH2 0x367 CALLDATASIZE PUSH1 0x4 PUSH2 0x4D8D JUMP JUMPDEST PUSH2 0x2476 JUMP JUMPDEST PUSH2 0x26F PUSH2 0x2A22 JUMP JUMPDEST PUSH1 0x5 SLOAD PUSH2 0x2F0 SWAP1 PUSH1 0xFF AND DUP2 JUMP JUMPDEST PUSH2 0x26F PUSH2 0x38F CALLDATASIZE PUSH1 0x4 PUSH2 0x4AE6 JUMP JUMPDEST PUSH2 0x2B2C JUMP JUMPDEST PUSH2 0x26F PUSH2 0x3A2 CALLDATASIZE PUSH1 0x4 PUSH2 0x4DAF JUMP JUMPDEST PUSH2 0x2C60 JUMP JUMPDEST PUSH2 0x26F PUSH2 0x3B5 CALLDATASIZE PUSH1 0x4 PUSH2 0x4D8D JUMP JUMPDEST PUSH2 0x3B45 JUMP JUMPDEST PUSH2 0x26F PUSH2 0x3C8 CALLDATASIZE PUSH1 0x4 PUSH2 0x4E0C JUMP JUMPDEST PUSH2 0x3E57 JUMP JUMPDEST PUSH2 0x1ED PUSH2 0x3DB CALLDATASIZE PUSH1 0x4 PUSH2 0x4E38 JUMP JUMPDEST PUSH1 0x0 PUSH1 0x20 DUP2 SWAP1 MSTORE SWAP1 DUP2 MSTORE PUSH1 0x40 SWAP1 KECCAK256 SLOAD PUSH1 0x1 PUSH1 0x1 PUSH1 0xA0 SHL SUB AND DUP2 JUMP JUMPDEST PUSH2 0x26F PUSH2 0x404 CALLDATASIZE PUSH1 0x4 PUSH2 0x4E38 JUMP JUMPDEST PUSH2 0x44C4 JUMP JUMPDEST PUSH2 0x1ED PUSH32 0x0 DUP2 JUMP JUMPDEST PUSH2 0x26F PUSH2 0x43E CALLDATASIZE PUSH1 0x4 PUSH2 0x4AE6 JUMP JUMPDEST PUSH2 0x4530 JUMP JUMPDEST PUSH2 0x26F PUSH2 0x451 CALLDATASIZE PUSH1 0x4 PUSH2 0x4E0C JUMP JUMPDEST PUSH2 0x4664 JUMP JUMPDEST PUSH1 0x1 SLOAD PUSH1 0x0 SWAP1 PUSH1 0x1 PUSH1 0x1 PUSH1 0xA0 SHL SUB AND PUSH2 0x46E JUMPI POP CALLER SWAP1 JUMP JUMPDEST POP PUSH1 0x1 SLOAD PUSH1 0x1 PUSH1 0x1 PUSH1 0xA0 SHL SUB AND SWAP1 JUMP JUMPDEST ORIGIN CALLER EQ PUSH2 0x48A JUMPI PUSH1 0x0 DUP1 REVERT JUMPDEST PUSH1 0x5 SLOAD PUSH2 0x100 SWAP1 DIV PUSH1 0xFF AND ISZERO PUSH2 0x4BB JUMPI PUSH1 0x40 MLOAD PUSH3 0x461BCD PUSH1 0xE5 SHL DUP2 MSTORE PUSH1 0x4 ADD PUSH2 0x4B2 SWAP1 PUSH2 0x4E55 JUMP JUMPDEST PUSH1 0x40 MLOAD DUP1 SWAP2 SUB SWAP1 REVERT JUMPDEST PUSH1 0x0 PUSH2 0x4C5 PUSH2 0x456 JUMP JUMPDEST PUSH1 0x40 MLOAD PUSH4 0x6E6F99CD PUSH1 0xE1 SHL DUP2 MSTORE SWAP1 SWAP2 POP PUSH1 0x1 PUSH1 0x1 PUSH1 0xA0 SHL SUB PUSH32 0x0 AND SWAP1 PUSH4 0xDCDF339A SWAP1 PUSH2 0x518 SWAP1 DUP5 SWAP1 DUP11 SWAP1 DUP11 SWAP1 PUSH1 0x4 ADD PUSH2 0x4E73 JUMP JUMPDEST PUSH1 0x20 PUSH1 0x40 MLOAD DUP1 DUP4 SUB DUP2 DUP7 GAS STATICCALL ISZERO DUP1 ISZERO PUSH2 0x535 JUMPI RETURNDATASIZE PUSH1 0x0 DUP1 RETURNDATACOPY RETURNDATASIZE PUSH1 0x0 REVERT JUMPDEST POP POP POP POP PUSH1 0x40 MLOAD RETURNDATASIZE PUSH1 0x1F NOT PUSH1 0x1F DUP3 ADD AND DUP3 ADD DUP1 PUSH1 0x40 MSTORE POP DUP2 ADD SWAP1 PUSH2 0x559 SWAP2 SWAP1 PUSH2 0x4E9F JUMP JUMPDEST PUSH2 0x575 JUMPI PUSH1 0x40 MLOAD PUSH3 0x461BCD PUSH1 0xE5 SHL DUP2 MSTORE PUSH1 0x4 ADD PUSH2 0x4B2 SWAP1 PUSH2 0x4EBC JUMP JUMPDEST PUSH1 0x40 MLOAD PUSH4 0x2E21E28B PUSH1 0xE2 SHL DUP2 MSTORE PUSH1 0x0 SWAP1 PUSH1 0x1 PUSH1 0x1 PUSH1 0xA0 SHL SUB PUSH32 0x0 AND SWAP1 PUSH4 0xB8878A2C SWAP1 PUSH2 0x5C8 SWAP1 DUP6 SWAP1 DUP12 SWAP1 DUP12 SWAP1 PUSH1 0x4 ADD PUSH2 0x4E73 JUMP JUMPDEST PUSH2 0x1A0 PUSH1 0x40 MLOAD DUP1 DUP4 SUB DUP2 DUP7 GAS STATICCALL ISZERO DUP1 ISZERO PUSH2 0x5E6 JUMPI RETURNDATASIZE PUSH1 0x0 DUP1 RETURNDATACOPY RETURNDATASIZE PUSH1 0x0 REVERT JUMPDEST POP POP POP POP PUSH1 0x40 MLOAD RETURNDATASIZE PUSH1 0x1F NOT PUSH1 0x1F DUP3 ADD AND DUP3 ADD DUP1 PUSH1 0x40 MSTORE POP DUP2 ADD SWAP1 PUSH2 0x60A SWAP2 SWAP1 PUSH2 0x4EE9 JUMP JUMPDEST SWAP1 POP PUSH1 0x3 SLOAD DUP2 PUSH2 0x160 ADD MLOAD NUMBER PUSH2 0x620 SWAP2 SWAP1 PUSH2 0x4FB2 JUMP JUMPDEST LT ISZERO PUSH2 0x63E JUMPI PUSH1 0x40 MLOAD PUSH3 0x461BCD PUSH1 0xE5 SHL DUP2 MSTORE PUSH1 0x4 ADD PUSH2 0x4B2 SWAP1 PUSH2 0x4FC9 JUMP JUMPDEST DUP4 ISZERO DUP1 PUSH2 0x65B JUMPI POP DUP1 PUSH1 0xA0 ADD MLOAD PUSH2 0x657 JUMPI DUP5 DUP5 LT PUSH2 0x65B JUMP JUMPDEST DUP5 DUP5 GT JUMPDEST PUSH2 0x692 JUMPI PUSH1 0x40 MLOAD PUSH3 0x461BCD PUSH1 0xE5 SHL DUP2 MSTORE PUSH1 0x20 PUSH1 0x4 DUP3 ADD MSTORE PUSH1 0x8 PUSH1 0x24 DUP3 ADD MSTORE PUSH8 0x57524F4E475F545 PUSH1 0xC4 SHL PUSH1 0x44 DUP3 ADD MSTORE PUSH1 0x64 ADD PUSH2 0x4B2 JUMP JUMPDEST DUP3 ISZERO DUP1 PUSH2 0x6AF JUMPI POP DUP1 PUSH1 0xA0 ADD MLOAD PUSH2 0x6AB JUMPI DUP5 DUP4 GT PUSH2 0x6AF JUMP JUMPDEST DUP5 DUP4 LT JUMPDEST PUSH2 0x6E6 JUMPI PUSH1 0x40 MLOAD PUSH3 0x461BCD PUSH1 0xE5 SHL DUP2 MSTORE PUSH1 0x20 PUSH1 0x4 DUP3 ADD MSTORE PUSH1 0x8 PUSH1 0x24 DUP3 ADD MSTORE PUSH8 0x15D493D391D7D4D3 PUSH1 0xC2 SHL PUSH1 0x44 DUP3 ADD MSTORE PUSH1 0x64 ADD PUSH2 0x4B2 JUMP JUMPDEST PUSH2 0x120 DUP2 ADD DUP6 SWAP1 MSTORE PUSH2 0x140 DUP2 ADD DUP6 SWAP1 MSTORE PUSH1 0xE0 DUP2 ADD DUP5 SWAP1 MSTORE PUSH2 0x100 DUP2 ADD DUP4 SWAP1 MSTORE PUSH1 0x40 MLOAD PUSH4 0x5BB3B045 PUSH1 0xE1 SHL DUP2 MSTORE PUSH1 0x1 PUSH1 0x1 PUSH1 0xA0 SHL SUB PUSH32 0x0 AND SWAP1 PUSH4 0xB767608A SWAP1 PUSH2 0x751 SWAP1 DUP5 SWAP1 PUSH1 0x4 ADD PUSH2 0x4FF1 JUMP JUMPDEST PUSH1 0x0 PUSH1 0x40 MLOAD DUP1 DUP4 SUB DUP2 PUSH1 0x0 DUP8 DUP1 EXTCODESIZE ISZERO DUP1 ISZERO PUSH2 0x76B JUMPI PUSH1 0x0 DUP1 REVERT JUMPDEST POP GAS CALL ISZERO DUP1 ISZERO PUSH2 0x77F JUMPI RETURNDATASIZE PUSH1 0x0 DUP1 RETURNDATACOPY RETURNDATASIZE PUSH1 0x0 REVERT JUMPDEST POP POP PUSH1 0x40 DUP1 MLOAD DUP10 DUP2 MSTORE PUSH1 0x20 DUP2 ADD DUP10 SWAP1 MSTORE SWAP1 DUP2 ADD DUP8 SWAP1 MSTORE PUSH1 0x60 DUP2 ADD DUP7 SWAP1 MSTORE DUP10 SWAP3 POP PUSH1 0x1 PUSH1 0x1 PUSH1 0xA0 SHL SUB DUP6 AND SWAP2 POP PUSH32 0x21E15D62C2ECE17C1DC11C5FA45DCEFDC6F99F199AA111D1363FF242F23E1C5C SWAP1 PUSH1 0x80 ADD PUSH1 0x40 MLOAD DUP1 SWAP2 SUB SWAP1 LOG3 POP POP POP POP POP POP POP JUMP JUMPDEST PUSH32 0x0 PUSH1 0x1 PUSH1 0x1 PUSH1 0xA0 SHL SUB AND PUSH4 0x12D43A51 PUSH1 0x40 MLOAD DUP2 PUSH4 0xFFFFFFFF AND PUSH1 0xE0 SHL DUP2 MSTORE PUSH1 0x4 ADD PUSH1 0x20 PUSH1 0x40 MLOAD DUP1 DUP4 SUB DUP2 DUP7 GAS STATICCALL ISZERO DUP1 ISZERO PUSH2 0x83F JUMPI RETURNDATASIZE PUSH1 0x0 DUP1 RETURNDATACOPY RETURNDATASIZE PUSH1 0x0 REVERT JUMPDEST POP POP POP POP PUSH1 0x40 MLOAD RETURNDATASIZE PUSH1 0x1F NOT PUSH1 0x1F DUP3 ADD AND DUP3 ADD DUP1 PUSH1 0x40 MSTORE POP DUP2 ADD SWAP1 PUSH2 0x863 SWAP2 SWAP1 PUSH2 0x5091 JUMP JUMPDEST PUSH1 0x1 PUSH1 0x1 PUSH1 0xA0 SHL SUB AND CALLER PUSH1 0x1 PUSH1 0x1 PUSH1 0xA0 SHL SUB AND EQ PUSH2 0x893 JUMPI PUSH1 0x40 MLOAD PUSH3 0x461BCD PUSH1 0xE5 SHL DUP2 MSTORE PUSH1 0x4 ADD PUSH2 0x4B2 SWAP1 PUSH2 0x50AE JUMP JUMPDEST PUSH1 0x5 DUP1 SLOAD PUSH1 0xFF DUP1 DUP3 AND ISZERO PUSH1 0xFF NOT SWAP1 SWAP3 AND DUP3 OR SWAP1 SWAP3 SSTORE PUSH1 0x40 MLOAD SWAP2 AND ISZERO ISZERO DUP2 MSTORE PUSH32 0xE2FB031EE032DC02D8011DC50B816EB450CF856ABD8261680DAC74F72165BD2 SWAP1 PUSH1 0x20 ADD JUMPDEST PUSH1 0x40 MLOAD DUP1 SWAP2 SUB SWAP1 LOG1 JUMP JUMPDEST ORIGIN CALLER EQ PUSH2 0x8ED JUMPI PUSH1 0x0 DUP1 REVERT JUMPDEST PUSH1 0x5 SLOAD PUSH2 0x100 SWAP1 DIV PUSH1 0xFF AND ISZERO PUSH2 0x915 JUMPI PUSH1 0x40 MLOAD PUSH3 0x461BCD PUSH1 0xE5 SHL DUP2 MSTORE PUSH1 0x4 ADD PUSH2 0x4B2 SWAP1 PUSH2 0x4E55 JUMP JUMPDEST PUSH1 0x0 PUSH2 0x91F PUSH2 0x456 JUMP JUMPDEST PUSH1 0x40 MLOAD PUSH4 0xB66E6B05 PUSH1 0xE0 SHL DUP2 MSTORE PUSH1 0x4 DUP2 ADD DUP5 SWAP1 MSTORE SWAP1 SWAP2 POP PUSH1 0x0 SWAP1 PUSH1 0x1 PUSH1 0x1 PUSH1 0xA0 SHL SUB PUSH32 0x0 AND SWAP1 PUSH4 0xB66E6B05 SWAP1 PUSH1 0x24 ADD PUSH2 0x1E0 PUSH1 0x40 MLOAD DUP1 DUP4 SUB DUP2 DUP7 GAS STATICCALL ISZERO DUP1 ISZERO PUSH2 0x98B JUMPI RETURNDATASIZE PUSH1 0x0 DUP1 RETURNDATACOPY RETURNDATASIZE PUSH1 0x0 REVERT JUMPDEST POP POP POP POP PUSH1 0x40 MLOAD RETURNDATASIZE PUSH1 0x1F NOT PUSH1 0x1F DUP3 ADD AND DUP3 ADD DUP1 PUSH1 0x40 MSTORE POP DUP2 ADD SWAP1 PUSH2 0x9AF SWAP2 SWAP1 PUSH2 0x5163 JUMP JUMPDEST DUP1 MLOAD PUSH1 0x20 DUP3 ADD MLOAD SWAP2 SWAP3 POP SWAP1 ISZERO DUP1 ISZERO SWAP1 PUSH2 0x9D9 JUMPI POP PUSH1 0x4 SLOAD DUP3 PUSH1 0x20 ADD MLOAD PUSH2 0x9D5 SWAP2 SWAP1 PUSH2 0x51E6 JUMP JUMPDEST NUMBER LT ISZERO JUMPDEST PUSH2 0xA14 JUMPI PUSH1 0x40 MLOAD PUSH3 0x461BCD PUSH1 0xE5 SHL DUP2 MSTORE PUSH1 0x20 PUSH1 0x4 DUP3 ADD MSTORE PUSH1 0xC PUSH1 0x24 DUP3 ADD MSTORE PUSH12 0x15D0525517D512535153D555 PUSH1 0xA2 SHL PUSH1 0x44 DUP3 ADD MSTORE PUSH1 0x64 ADD PUSH2 0x4B2 JUMP JUMPDEST DUP3 PUSH1 0x1 PUSH1 0x1 PUSH1 0xA0 SHL SUB AND DUP2 PUSH1 0x0 ADD MLOAD PUSH1 0x1 PUSH1 0x1 PUSH1 0xA0 SHL SUB AND EQ PUSH2 0xA6A JUMPI PUSH1 0x40 MLOAD PUSH3 0x461BCD PUSH1 0xE5 SHL DUP2 MSTORE PUSH1 0x20 PUSH1 0x4 DUP3 ADD MSTORE PUSH1 0xE PUSH1 0x24 DUP3 ADD MSTORE PUSH14 0x2727AA2FACA7AAA92FA7A92222A9 PUSH1 0x91 SHL PUSH1 0x44 DUP3 ADD MSTORE PUSH1 0x64 ADD PUSH2 0x4B2 JUMP JUMPDEST PUSH1 0x0 DUP2 PUSH1 0xE0 ADD MLOAD GT PUSH2 0xAB8 JUMPI PUSH1 0x40 MLOAD PUSH3 0x461BCD PUSH1 0xE5 SHL DUP2 MSTORE PUSH1 0x20 PUSH1 0x4 DUP3 ADD MSTORE PUSH1 0x17 PUSH1 0x24 DUP3 ADD MSTORE PUSH23 0x57524F4E475F4D41524B45545F4F524445525F54595045 PUSH1 0x48 SHL PUSH1 0x44 DUP3 ADD MSTORE PUSH1 0x64 ADD PUSH2 0x4B2 JUMP JUMPDEST PUSH1 0x40 MLOAD PUSH4 0x195728B PUSH1 0xE7 SHL DUP2 MSTORE PUSH1 0x4 DUP2 ADD DUP6 SWAP1 MSTORE PUSH1 0x1 PUSH1 0x24 DUP3 ADD MSTORE PUSH32 0x0 PUSH1 0x1 PUSH1 0x1 PUSH1 0xA0 SHL SUB AND SWAP1 PUSH4 0xCAB94580 SWAP1 PUSH1 0x44 ADD PUSH1 0x0 PUSH1 0x40 MLOAD DUP1 DUP4 SUB DUP2 PUSH1 0x0 DUP8 DUP1 EXTCODESIZE ISZERO DUP1 ISZERO PUSH2 0xB21 JUMPI PUSH1 0x0 DUP1 REVERT JUMPDEST POP GAS CALL ISZERO DUP1 ISZERO PUSH2 0xB35 JUMPI RETURNDATASIZE PUSH1 0x0 DUP1 RETURNDATACOPY RETURNDATASIZE PUSH1 0x0 REVERT JUMPDEST POP POP POP POP PUSH1 0x80 DUP2 ADD MLOAD PUSH1 0x40 MLOAD PUSH4 0x373873DB PUSH1 0xE1 SHL DUP2 MSTORE PUSH1 0x1 PUSH1 0x1 PUSH1 0xA0 SHL SUB PUSH32 0x0 DUP2 AND PUSH1 0x4 DUP4 ADD DUP2 SWAP1 MSTORE SWAP1 DUP7 AND PUSH1 0x24 DUP4 ADD MSTORE PUSH1 0x44 DUP3 ADD SWAP3 SWAP1 SWAP3 MSTORE PUSH4 0x6E70E7B6 SWAP1 PUSH1 0x64 ADD PUSH1 0x0 PUSH1 0x40 MLOAD DUP1 DUP4 SUB DUP2 PUSH1 0x0 DUP8 DUP1 EXTCODESIZE ISZERO DUP1 ISZERO PUSH2 0xBB0 JUMPI PUSH1 0x0 DUP1 REVERT JUMPDEST POP GAS CALL ISZERO DUP1 ISZERO PUSH2 0xBC4 JUMPI RETURNDATASIZE PUSH1 0x0 DUP1 RETURNDATACOPY RETURNDATASIZE PUSH1 0x0 REVERT JUMPDEST POP POP POP POP DUP4 PUSH32 0x3ADAA586CDBE84DD24E45BD7DADA6DA933D7C2D1C7B4E4CD02FCE033356DECB1 DUP4 PUSH1 0x40 MLOAD PUSH2 0xBF8 SWAP2 SWAP1 PUSH2 0x52AC JUMP JUMPDEST PUSH1 0x40 MLOAD DUP1 SWAP2 SUB SWAP1 LOG2 POP POP POP POP JUMP JUMPDEST PUSH32 0x0 PUSH1 0x1 PUSH1 0x1 PUSH1 0xA0 SHL SUB AND PUSH4 0x12D43A51 PUSH1 0x40 MLOAD DUP2 PUSH4 0xFFFFFFFF AND PUSH1 0xE0 SHL DUP2 MSTORE PUSH1 0x4 ADD PUSH1 0x20 PUSH1 0x40 MLOAD DUP1 DUP4 SUB DUP2 DUP7 GAS STATICCALL ISZERO DUP1 ISZERO PUSH2 0xC64 JUMPI RETURNDATASIZE PUSH1 0x0 DUP1 RETURNDATACOPY RETURNDATASIZE PUSH1 0x0 REVERT JUMPDEST POP POP POP POP PUSH1 0x40 MLOAD RETURNDATASIZE PUSH1 0x1F NOT PUSH1 0x1F DUP3 ADD AND DUP3 ADD DUP1 PUSH1 0x40 MSTORE POP DUP2 ADD SWAP1 PUSH2 0xC88 SWAP2 SWAP1 PUSH2 0x5091 JUMP JUMPDEST PUSH1 0x1 PUSH1 0x1 PUSH1 0xA0 SHL SUB AND CALLER PUSH1 0x1 PUSH1 0x1 PUSH1 0xA0 SHL SUB AND EQ PUSH2 0xCB8 JUMPI PUSH1 0x40 MLOAD PUSH3 0x461BCD PUSH1 0xE5 SHL DUP2 MSTORE PUSH1 0x4 ADD PUSH2 0x4B2 SWAP1 PUSH2 0x50AE JUMP JUMPDEST PUSH1 0x0 DUP2 GT PUSH2 0xCD8 JUMPI PUSH1 0x40 MLOAD PUSH3 0x461BCD PUSH1 0xE5 SHL DUP2 MSTORE PUSH1 0x4 ADD PUSH2 0x4B2 SWAP1 PUSH2 0x52BB JUMP JUMPDEST PUSH1 0x2 DUP2 SWAP1 SSTORE PUSH1 0x40 DUP1 MLOAD DUP2 DUP2 MSTORE PUSH1 0x9 SWAP2 DUP2 ADD SWAP2 SWAP1 SWAP2 MSTORE PUSH9 0x6D6178506F73446169 PUSH1 0xB8 SHL PUSH1 0x60 DUP3 ADD MSTORE PUSH1 0x20 DUP2 ADD DUP3 SWAP1 MSTORE PUSH32 0x8CF3E35F6221B16E1670A3413180C9484BF5AA71787905909FA82A6A2662E9AB SWAP1 PUSH1 0x80 ADD JUMPDEST PUSH1 0x40 MLOAD DUP1 SWAP2 SUB SWAP1 LOG1 POP JUMP JUMPDEST ORIGIN CALLER EQ PUSH2 0xD43 JUMPI PUSH1 0x0 DUP1 REVERT JUMPDEST PUSH1 0x5 SLOAD PUSH2 0x100 SWAP1 DIV PUSH1 0xFF AND ISZERO PUSH2 0xD6B JUMPI PUSH1 0x40 MLOAD PUSH3 0x461BCD PUSH1 0xE5 SHL DUP2 MSTORE PUSH1 0x4 ADD PUSH2 0x4B2 SWAP1 PUSH2 0x4E55 JUMP JUMPDEST PUSH1 0x0 PUSH2 0xD75 PUSH2 0x456 JUMP JUMPDEST PUSH1 0x40 MLOAD PUSH4 0xB66E6B05 PUSH1 0xE0 SHL DUP2 MSTORE PUSH1 0x4 DUP2 ADD DUP5 SWAP1 MSTORE SWAP1 SWAP2 POP PUSH1 0x0 SWAP1 PUSH1 0x1 PUSH1 0x1 PUSH1 0xA0 SHL SUB PUSH32 0x0 AND SWAP1 PUSH4 0xB66E6B05 SWAP1 PUSH1 0x24 ADD PUSH2 0x1E0 PUSH1 0x40 MLOAD DUP1 DUP4 SUB DUP2 DUP7 GAS STATICCALL ISZERO DUP1 ISZERO PUSH2 0xDE1 JUMPI RETURNDATASIZE PUSH1 0x0 DUP1 RETURNDATACOPY RETURNDATASIZE PUSH1 0x0 REVERT JUMPDEST POP POP POP POP PUSH1 0x40 MLOAD RETURNDATASIZE PUSH1 0x1F NOT PUSH1 0x1F DUP3 ADD AND DUP3 ADD DUP1 PUSH1 0x40 MSTORE POP DUP2 ADD SWAP1 PUSH2 0xE05 SWAP2 SWAP1 PUSH2 0x5163 JUMP JUMPDEST DUP1 MLOAD PUSH1 0x20 DUP3 ADD MLOAD SWAP2 SWAP3 POP SWAP1 ISZERO DUP1 ISZERO SWAP1 PUSH2 0xE2F JUMPI POP PUSH1 0x4 SLOAD DUP3 PUSH1 0x20 ADD MLOAD PUSH2 0xE2B SWAP2 SWAP1 PUSH2 0x51E6 JUMP JUMPDEST NUMBER LT ISZERO JUMPDEST PUSH2 0xE6A JUMPI PUSH1 0x40 MLOAD PUSH3 0x461BCD PUSH1 0xE5 SHL DUP2 MSTORE PUSH1 0x20 PUSH1 0x4 DUP3 ADD MSTORE PUSH1 0xC PUSH1 0x24 DUP3 ADD MSTORE PUSH12 0x15D0525517D512535153D555 PUSH1 0xA2 SHL PUSH1 0x44 DUP3 ADD MSTORE PUSH1 0x64 ADD PUSH2 0x4B2 JUMP JUMPDEST DUP3 PUSH1 0x1 PUSH1 0x1 PUSH1 0xA0 SHL SUB AND DUP2 PUSH1 0x0 ADD MLOAD PUSH1 0x1 PUSH1 0x1 PUSH1 0xA0 SHL SUB AND EQ PUSH2 0xEC0 JUMPI PUSH1 0x40 MLOAD PUSH3 0x461BCD PUSH1 0xE5 SHL DUP2 MSTORE PUSH1 0x20 PUSH1 0x4 DUP3 ADD MSTORE PUSH1 0xE PUSH1 0x24 DUP3 ADD MSTORE PUSH14 0x2727AA2FACA7AAA92FA7A92222A9 PUSH1 0x91 SHL PUSH1 0x44 DUP3 ADD MSTORE PUSH1 0x64 ADD PUSH2 0x4B2 JUMP JUMPDEST PUSH1 0xE0 DUP2 ADD MLOAD ISZERO PUSH2 0xF0C JUMPI PUSH1 0x40 MLOAD PUSH3 0x461BCD PUSH1 0xE5 SHL DUP2 MSTORE PUSH1 0x20 PUSH1 0x4 DUP3 ADD MSTORE PUSH1 0x17 PUSH1 0x24 DUP3 ADD MSTORE PUSH23 0x57524F4E475F4D41524B45545F4F524445525F54595045 PUSH1 0x48 SHL PUSH1 0x44 DUP3 ADD MSTORE PUSH1 0x64 ADD PUSH2 0x4B2 JUMP JUMPDEST PUSH1 0x40 MLOAD PUSH4 0x195728B PUSH1 0xE7 SHL DUP2 MSTORE PUSH1 0x4 DUP2 ADD DUP6 SWAP1 MSTORE PUSH1 0x0 PUSH1 0x24 DUP3 ADD MSTORE PUSH32 0x0 PUSH1 0x1 PUSH1 0x1 PUSH1 0xA0 SHL SUB AND SWAP1 PUSH4 0xCAB94580 SWAP1 PUSH1 0x44 ADD PUSH1 0x0 PUSH1 0x40 MLOAD DUP1 DUP4 SUB DUP2 PUSH1 0x0 DUP8 DUP1 EXTCODESIZE ISZERO DUP1 ISZERO PUSH2 0xF75 JUMPI PUSH1 0x0 DUP1 REVERT JUMPDEST POP GAS CALL ISZERO DUP1 ISZERO PUSH2 0xF89 JUMPI RETURNDATASIZE PUSH1 0x0 DUP1 RETURNDATACOPY RETURNDATASIZE PUSH1 0x0 REVERT JUMPDEST POP POP POP PUSH1 0x20 DUP3 ADD MLOAD PUSH1 0x40 DUP1 DUP5 ADD MLOAD SWAP1 MLOAD PUSH1 0x24 DUP2 ADD SWAP3 SWAP1 SWAP3 MSTORE PUSH1 0x44 DUP3 ADD MSTORE PUSH1 0x0 SWAP2 POP ADDRESS SWAP1 PUSH1 0x64 ADD PUSH1 0x40 DUP1 MLOAD PUSH1 0x1F NOT DUP2 DUP5 SUB ADD DUP2 MSTORE SWAP2 DUP2 MSTORE PUSH1 0x20 DUP3 ADD DUP1 MLOAD PUSH1 0x1 PUSH1 0x1 PUSH1 0xE0 SHL SUB AND PUSH4 0xA2A3C0CB PUSH1 0xE0 SHL OR SWAP1 MSTORE MLOAD PUSH2 0xFE4 SWAP2 SWAP1 PUSH2 0x52DC JUMP JUMPDEST PUSH1 0x0 PUSH1 0x40 MLOAD DUP1 DUP4 SUB DUP2 DUP6 GAS DELEGATECALL SWAP2 POP POP RETURNDATASIZE DUP1 PUSH1 0x0 DUP2 EQ PUSH2 0x101F JUMPI PUSH1 0x40 MLOAD SWAP2 POP PUSH1 0x1F NOT PUSH1 0x3F RETURNDATASIZE ADD AND DUP3 ADD PUSH1 0x40 MSTORE RETURNDATASIZE DUP3 MSTORE RETURNDATASIZE PUSH1 0x0 PUSH1 0x20 DUP5 ADD RETURNDATACOPY PUSH2 0x1024 JUMP JUMPDEST PUSH1 0x60 SWAP2 POP JUMPDEST POP POP SWAP1 POP DUP1 PUSH2 0x107A JUMPI DUP2 PUSH1 0x20 ADD MLOAD DUP5 PUSH1 0x1 PUSH1 0x1 PUSH1 0xA0 SHL SUB AND PUSH32 0x60E497734DDABCD7293FD91739AAF65CF525EB539C97BE528125A235A89288D8 DUP5 PUSH1 0x40 ADD MLOAD PUSH1 0x40 MLOAD PUSH2 0x1071 SWAP2 DUP2 MSTORE PUSH1 0x20 ADD SWAP1 JUMP JUMPDEST PUSH1 0x40 MLOAD DUP1 SWAP2 SUB SWAP1 LOG3 JUMPDEST DUP5 PUSH32 0x3ADAA586CDBE84DD24E45BD7DADA6DA933D7C2D1C7B4E4CD02FCE033356DECB1 DUP5 PUSH1 0x40 MLOAD PUSH2 0x10AA SWAP2 SWAP1 PUSH2 0x52AC JUMP JUMPDEST PUSH1 0x40 MLOAD DUP1 SWAP2 SUB SWAP1 LOG2 POP POP POP POP POP JUMP JUMPDEST PUSH1 0x1 PUSH1 0x1 PUSH1 0xA0 SHL SUB DUP4 DUP2 AND PUSH1 0x0 SWAP1 DUP2 MSTORE PUSH1 0x20 DUP2 SWAP1 MSTORE PUSH1 0x40 SWAP1 KECCAK256 SLOAD PUSH1 0x60 SWAP2 AND CALLER EQ PUSH2 0x111D JUMPI PUSH1 0x40 MLOAD PUSH3 0x461BCD PUSH1 0xE5 SHL DUP2 MSTORE PUSH1 0x20 PUSH1 0x4 DUP3 ADD MSTORE PUSH1 0x15 PUSH1 0x24 DUP3 ADD MSTORE PUSH21 0x1111531151D0551157D393D517D054141493D59151 PUSH1 0x5A SHL PUSH1 0x44 DUP3 ADD MSTORE PUSH1 0x64 ADD PUSH2 0x4B2 JUMP JUMPDEST PUSH1 0x1 DUP1 SLOAD PUSH1 0x1 PUSH1 0x1 PUSH1 0xA0 SHL SUB NOT AND PUSH1 0x1 PUSH1 0x1 PUSH1 0xA0 SHL SUB DUP7 AND OR SWAP1 SSTORE PUSH1 0x40 MLOAD PUSH1 0x0 SWAP1 DUP2 SWAP1 ADDRESS SWAP1 PUSH2 0x114F SWAP1 DUP8 SWAP1 DUP8 SWAP1 PUSH2 0x52F8 JUMP JUMPDEST PUSH1 0x0 PUSH1 0x40 MLOAD DUP1 DUP4 SUB DUP2 DUP6 GAS DELEGATECALL SWAP2 POP POP RETURNDATASIZE DUP1 PUSH1 0x0 DUP2 EQ PUSH2 0x118A JUMPI PUSH1 0x40 MLOAD SWAP2 POP PUSH1 0x1F NOT PUSH1 0x3F RETURNDATASIZE ADD AND DUP3 ADD PUSH1 0x40 MSTORE RETURNDATASIZE DUP3 MSTORE RETURNDATASIZE PUSH1 0x0 PUSH1 0x20 DUP5 ADD RETURNDATACOPY PUSH2 0x118F JUMP JUMPDEST PUSH1 0x60 SWAP2 POP JUMPDEST POP SWAP2 POP SWAP2 POP DUP2 PUSH2 0x11DB JUMPI PUSH1 0x44 DUP2 MLOAD LT ISZERO PUSH2 0x11A8 JUMPI PUSH1 0x0 DUP1 REVERT JUMPDEST PUSH1 0x4 DUP2 ADD SWAP1 POP DUP1 DUP1 PUSH1 0x20 ADD SWAP1 MLOAD DUP2 ADD SWAP1 PUSH2 0x11C2 SWAP2 SWAP1 PUSH2 0x5308 JUMP JUMPDEST PUSH1 0x40 MLOAD PUSH3 0x461BCD PUSH1 0xE5 SHL DUP2 MSTORE PUSH1 0x4 ADD PUSH2 0x4B2 SWAP2 SWAP1 PUSH2 0x4C08 JUMP JUMPDEST PUSH1 0x1 DUP1 SLOAD PUSH1 0x1 PUSH1 0x1 PUSH1 0xA0 SHL SUB NOT AND SWAP1 SSTORE SWAP6 SWAP5 POP POP POP POP POP JUMP JUMPDEST ORIGIN CALLER EQ PUSH2 0x1200 JUMPI PUSH1 0x0 DUP1 REVERT JUMPDEST PUSH1 0x5 SLOAD PUSH2 0x100 SWAP1 DIV PUSH1 0xFF AND ISZERO PUSH2 0x1228 JUMPI PUSH1 0x40 MLOAD PUSH3 0x461BCD PUSH1 0xE5 SHL DUP2 MSTORE PUSH1 0x4 ADD PUSH2 0x4B2 SWAP1 PUSH2 0x4E55 JUMP JUMPDEST PUSH1 0x5 SLOAD PUSH1 0xFF AND ISZERO PUSH2 0x1264 JUMPI PUSH1 0x40 MLOAD PUSH3 0x461BCD PUSH1 0xE5 SHL DUP2 MSTORE PUSH1 0x20 PUSH1 0x4 DUP3 ADD MSTORE PUSH1 0x6 PUSH1 0x24 DUP3 ADD MSTORE PUSH6 0x14105554D151 PUSH1 0xD2 SHL PUSH1 0x44 DUP3 ADD MSTORE PUSH1 0x64 ADD PUSH2 0x4B2 JUMP JUMPDEST PUSH1 0x0 PUSH32 0x0 PUSH1 0x1 PUSH1 0x1 PUSH1 0xA0 SHL SUB AND PUSH4 0x3078FFF5 PUSH1 0x40 MLOAD DUP2 PUSH4 0xFFFFFFFF AND PUSH1 0xE0 SHL DUP2 MSTORE PUSH1 0x4 ADD PUSH1 0x20 PUSH1 0x40 MLOAD DUP1 DUP4 SUB DUP2 DUP7 GAS STATICCALL ISZERO DUP1 ISZERO PUSH2 0x12C4 JUMPI RETURNDATASIZE PUSH1 0x0 DUP1 RETURNDATACOPY RETURNDATASIZE PUSH1 0x0 REVERT JUMPDEST POP POP POP POP PUSH1 0x40 MLOAD RETURNDATASIZE PUSH1 0x1F NOT PUSH1 0x1F DUP3 ADD AND DUP3 ADD DUP1 PUSH1 0x40 MSTORE POP DUP2 ADD SWAP1 PUSH2 0x12E8 SWAP2 SWAP1 PUSH2 0x5091 JUMP JUMPDEST SWAP1 POP PUSH1 0x0 DUP2 PUSH1 0x1 PUSH1 0x1 PUSH1 0xA0 SHL SUB AND PUSH4 0x35B03C17 PUSH1 0x40 MLOAD DUP2 PUSH4 0xFFFFFFFF AND PUSH1 0xE0 SHL DUP2 MSTORE PUSH1 0x4 ADD PUSH1 0x20 PUSH1 0x40 MLOAD DUP1 DUP4 SUB DUP2 DUP7 GAS STATICCALL ISZERO DUP1 ISZERO PUSH2 0x132A JUMPI RETURNDATASIZE PUSH1 0x0 DUP1 RETURNDATACOPY RETURNDATASIZE PUSH1 0x0 REVERT JUMPDEST POP POP POP POP PUSH1 0x40 MLOAD RETURNDATASIZE PUSH1 0x1F NOT PUSH1 0x1F DUP3 ADD AND DUP3 ADD DUP1 PUSH1 0x40 MSTORE POP DUP2 ADD SWAP1 PUSH2 0x134E SWAP2 SWAP1 PUSH2 0x5091 JUMP JUMPDEST SWAP1 POP PUSH1 0x0 PUSH2 0x135A PUSH2 0x456 JUMP JUMPDEST SWAP1 POP PUSH32 0x0 PUSH1 0x1 PUSH1 0x1 PUSH1 0xA0 SHL SUB AND PUSH4 0xF65D9DBE PUSH1 0x40 MLOAD DUP2 PUSH4 0xFFFFFFFF AND PUSH1 0xE0 SHL DUP2 MSTORE PUSH1 0x4 ADD PUSH1 0x20 PUSH1 0x40 MLOAD DUP1 DUP4 SUB DUP2 DUP7 GAS STATICCALL ISZERO DUP1 ISZERO PUSH2 0x13BA JUMPI RETURNDATASIZE PUSH1 0x0 DUP1 RETURNDATACOPY RETURNDATASIZE PUSH1 0x0 REVERT JUMPDEST POP POP POP POP PUSH1 0x40 MLOAD RETURNDATASIZE PUSH1 0x1F NOT PUSH1 0x1F DUP3 ADD AND DUP3 ADD DUP1 PUSH1 0x40 MSTORE POP DUP2 ADD SWAP1 PUSH2 0x13DE SWAP2 SWAP1 PUSH2 0x53B5 JUMP JUMPDEST PUSH1 0x20 DUP10 ADD MLOAD PUSH1 0x40 MLOAD PUSH4 0x4BF3CCAD PUSH1 0xE1 SHL DUP2 MSTORE PUSH1 0x1 PUSH1 0x1 PUSH1 0xA0 SHL SUB DUP5 DUP2 AND PUSH1 0x4 DUP4 ADD MSTORE PUSH1 0x24 DUP3 ADD SWAP3 SWAP1 SWAP3 MSTORE PUSH32 0x0 SWAP1 SWAP2 AND SWAP1 PUSH4 0x97E7995A SWAP1 PUSH1 0x44 ADD PUSH1 0x20 PUSH1 0x40 MLOAD DUP1 DUP4 SUB DUP2 DUP7 GAS STATICCALL ISZERO DUP1 ISZERO PUSH2 0x1453 JUMPI RETURNDATASIZE PUSH1 0x0 DUP1 RETURNDATACOPY RETURNDATASIZE PUSH1 0x0 REVERT JUMPDEST POP POP POP POP PUSH1 0x40 MLOAD RETURNDATASIZE PUSH1 0x1F NOT PUSH1 0x1F DUP3 ADD AND DUP3 ADD DUP1 PUSH1 0x40 MSTORE POP DUP2 ADD SWAP1 PUSH2 0x1477 SWAP2 SWAP1 PUSH2 0x53B5 JUMP JUMPDEST PUSH1 0x20 DUP11 ADD MLOAD PUSH1 0x40 MLOAD PUSH4 0x9C8912F1 PUSH1 0xE0 SHL DUP2 MSTORE PUSH1 0x1 PUSH1 0x1 PUSH1 0xA0 SHL SUB DUP6 DUP2 AND PUSH1 0x4 DUP4 ADD MSTORE PUSH1 0x24 DUP3 ADD SWAP3 SWAP1 SWAP3 MSTORE PUSH32 0x0 SWAP1 SWAP2 AND SWAP1 PUSH4 0x9C8912F1 SWAP1 PUSH1 0x44 ADD PUSH1 0x20 PUSH1 0x40 MLOAD DUP1 DUP4 SUB DUP2 DUP7 GAS STATICCALL ISZERO DUP1 ISZERO PUSH2 0x14EC JUMPI RETURNDATASIZE PUSH1 0x0 DUP1 RETURNDATACOPY RETURNDATASIZE PUSH1 0x0 REVERT JUMPDEST POP POP POP POP PUSH1 0x40 MLOAD RETURNDATASIZE PUSH1 0x1F NOT PUSH1 0x1F DUP3 ADD AND DUP3 ADD DUP1 PUSH1 0x40 MSTORE POP DUP2 ADD SWAP1 PUSH2 0x1510 SWAP2 SWAP1 PUSH2 0x53B5 JUMP JUMPDEST PUSH1 0x20 DUP12 ADD MLOAD PUSH1 0x40 MLOAD PUSH4 0x7218DAD PUSH1 0xE2 SHL DUP2 MSTORE PUSH1 0x1 PUSH1 0x1 PUSH1 0xA0 SHL SUB DUP7 DUP2 AND PUSH1 0x4 DUP4 ADD MSTORE PUSH1 0x24 DUP3 ADD SWAP3 SWAP1 SWAP3 MSTORE PUSH32 0x0 SWAP1 SWAP2 AND SWAP1 PUSH4 0x1C8636B4 SWAP1 PUSH1 0x44 ADD PUSH1 0x20 PUSH1 0x40 MLOAD DUP1 DUP4 SUB DUP2 DUP7 GAS STATICCALL ISZERO DUP1 ISZERO PUSH2 0x1585 JUMPI RETURNDATASIZE PUSH1 0x0 DUP1 RETURNDATACOPY RETURNDATASIZE PUSH1 0x0 REVERT JUMPDEST POP POP POP POP PUSH1 0x40 MLOAD RETURNDATASIZE PUSH1 0x1F NOT PUSH1 0x1F DUP3 ADD AND DUP3 ADD DUP1 PUSH1 0x40 MSTORE POP DUP2 ADD SWAP1 PUSH2 0x15A9 SWAP2 SWAP1 PUSH2 0x53B5 JUMP JUMPDEST PUSH2 0x15B3 SWAP2 SWAP1 PUSH2 0x51E6 JUMP JUMPDEST PUSH2 0x15BD SWAP2 SWAP1 PUSH2 0x51E6 JUMP JUMPDEST LT PUSH2 0x1600 JUMPI PUSH1 0x40 MLOAD PUSH3 0x461BCD PUSH1 0xE5 SHL DUP2 MSTORE PUSH1 0x20 PUSH1 0x4 DUP3 ADD MSTORE PUSH1 0x13 PUSH1 0x24 DUP3 ADD MSTORE PUSH19 0x26A0AC2FAA2920A222A9AFA822A92FA820A4A9 PUSH1 0x69 SHL PUSH1 0x44 DUP3 ADD MSTORE PUSH1 0x64 ADD PUSH2 0x4B2 JUMP JUMPDEST PUSH32 0x0 PUSH1 0x1 PUSH1 0x1 PUSH1 0xA0 SHL SUB AND PUSH4 0x8049FDE7 PUSH1 0x40 MLOAD DUP2 PUSH4 0xFFFFFFFF AND PUSH1 0xE0 SHL DUP2 MSTORE PUSH1 0x4 ADD PUSH1 0x20 PUSH1 0x40 MLOAD DUP1 DUP4 SUB DUP2 DUP7 GAS STATICCALL ISZERO DUP1 ISZERO PUSH2 0x165E JUMPI RETURNDATASIZE PUSH1 0x0 DUP1 RETURNDATACOPY RETURNDATASIZE PUSH1 0x0 REVERT JUMPDEST POP POP POP POP PUSH1 0x40 MLOAD RETURNDATASIZE PUSH1 0x1F NOT PUSH1 0x1F DUP3 ADD AND DUP3 ADD DUP1 PUSH1 0x40 MSTORE POP DUP2 ADD SWAP1 PUSH2 0x1682 SWAP2 SWAP1 PUSH2 0x53B5 JUMP JUMPDEST PUSH1 0x40 MLOAD PUSH4 0xF7B3C6FD PUSH1 0xE0 SHL DUP2 MSTORE PUSH1 0x1 PUSH1 0x1 PUSH1 0xA0 SHL SUB DUP4 DUP2 AND PUSH1 0x4 DUP4 ADD MSTORE PUSH32 0x0 AND SWAP1 PUSH4 0xF7B3C6FD SWAP1 PUSH1 0x24 ADD PUSH1 0x20 PUSH1 0x40 MLOAD DUP1 DUP4 SUB DUP2 DUP7 GAS STATICCALL ISZERO DUP1 ISZERO PUSH2 0x16E8 JUMPI RETURNDATASIZE PUSH1 0x0 DUP1 RETURNDATACOPY RETURNDATASIZE PUSH1 0x0 REVERT JUMPDEST POP POP POP POP PUSH1 0x40 MLOAD RETURNDATASIZE PUSH1 0x1F NOT PUSH1 0x1F DUP3 ADD AND DUP3 ADD DUP1 PUSH1 0x40 MSTORE POP DUP2 ADD SWAP1 PUSH2 0x170C SWAP2 SWAP1 PUSH2 0x53B5 JUMP JUMPDEST LT PUSH2 0x174E JUMPI PUSH1 0x40 MLOAD PUSH3 0x461BCD PUSH1 0xE5 SHL DUP2 MSTORE PUSH1 0x20 PUSH1 0x4 DUP3 ADD MSTORE PUSH1 0x12 PUSH1 0x24 DUP3 ADD MSTORE PUSH18 0x4D41585F50454E44494E475F4F5244455253 PUSH1 0x70 SHL PUSH1 0x44 DUP3 ADD MSTORE PUSH1 0x64 ADD PUSH2 0x4B2 JUMP JUMPDEST PUSH1 0x2 SLOAD DUP9 PUSH1 0x80 ADD MLOAD GT ISZERO PUSH2 0x1794 JUMPI PUSH1 0x40 MLOAD PUSH3 0x461BCD PUSH1 0xE5 SHL DUP2 MSTORE PUSH1 0x20 PUSH1 0x4 DUP3 ADD MSTORE PUSH1 0xD PUSH1 0x24 DUP3 ADD MSTORE PUSH13 0x41424F56455F4D41585F504F53 PUSH1 0x98 SHL PUSH1 0x44 DUP3 ADD MSTORE PUSH1 0x64 ADD PUSH2 0x4B2 JUMP JUMPDEST PUSH1 0x20 DUP9 ADD MLOAD PUSH1 0x40 MLOAD PUSH4 0x66C5811 PUSH1 0xE1 SHL DUP2 MSTORE PUSH1 0x4 DUP2 ADD SWAP2 SWAP1 SWAP2 MSTORE PUSH1 0x1 PUSH1 0x1 PUSH1 0xA0 SHL SUB DUP4 AND SWAP1 PUSH4 0xCD8B022 SWAP1 PUSH1 0x24 ADD PUSH1 0x20 PUSH1 0x40 MLOAD DUP1 DUP4 SUB DUP2 DUP7 GAS STATICCALL ISZERO DUP1 ISZERO PUSH2 0x17DF JUMPI RETURNDATASIZE PUSH1 0x0 DUP1 RETURNDATACOPY RETURNDATASIZE PUSH1 0x0 REVERT JUMPDEST POP POP POP POP PUSH1 0x40 MLOAD RETURNDATASIZE PUSH1 0x1F NOT PUSH1 0x1F DUP3 ADD AND DUP3 ADD DUP1 PUSH1 0x40 MSTORE POP DUP2 ADD SWAP1 PUSH2 0x1803 SWAP2 SWAP1 PUSH2 0x53B5 JUMP JUMPDEST DUP9 PUSH1 0xE0 ADD MLOAD DUP10 PUSH1 0x80 ADD MLOAD PUSH2 0x1817 SWAP2 SWAP1 PUSH2 0x53CE JUMP JUMPDEST LT ISZERO PUSH2 0x1855 JUMPI PUSH1 0x40 MLOAD PUSH3 0x461BCD PUSH1 0xE5 SHL DUP2 MSTORE PUSH1 0x20 PUSH1 0x4 DUP3 ADD MSTORE PUSH1 0xD PUSH1 0x24 DUP3 ADD MSTORE PUSH13 0x42454C4F575F4D494E5F504F53 PUSH1 0x98 SHL PUSH1 0x44 DUP3 ADD MSTORE PUSH1 0x64 ADD PUSH2 0x4B2 JUMP JUMPDEST PUSH1 0x0 DUP9 PUSH1 0xE0 ADD MLOAD GT DUP1 ISZERO PUSH2 0x18DB JUMPI POP PUSH1 0x20 DUP9 ADD MLOAD PUSH1 0x40 MLOAD PUSH4 0x59A992D PUSH1 0xE4 SHL DUP2 MSTORE PUSH1 0x4 DUP2 ADD SWAP2 SWAP1 SWAP2 MSTORE PUSH1 0x1 PUSH1 0x1 PUSH1 0xA0 SHL SUB DUP4 AND SWAP1 PUSH4 0x59A992D0 SWAP1 PUSH1 0x24 ADD PUSH1 0x20 PUSH1 0x40 MLOAD DUP1 DUP4 SUB DUP2 DUP7 GAS STATICCALL ISZERO DUP1 ISZERO PUSH2 0x18AF JUMPI RETURNDATASIZE PUSH1 0x0 DUP1 RETURNDATACOPY RETURNDATASIZE PUSH1 0x0 REVERT JUMPDEST POP POP POP POP PUSH1 0x40 MLOAD RETURNDATASIZE PUSH1 0x1F NOT PUSH1 0x1F DUP3 ADD AND DUP3 ADD DUP1 PUSH1 0x40 MSTORE POP DUP2 ADD SWAP1 PUSH2 0x18D3 SWAP2 SWAP1 PUSH2 0x53B5 JUMP JUMPDEST DUP9 PUSH1 0xE0 ADD MLOAD LT ISZERO JUMPDEST DUP1 ISZERO PUSH2 0x1959 JUMPI POP PUSH1 0x20 DUP9 ADD MLOAD PUSH1 0x40 MLOAD PUSH4 0xA06DA4F PUSH1 0xE2 SHL DUP2 MSTORE PUSH1 0x4 DUP2 ADD SWAP2 SWAP1 SWAP2 MSTORE PUSH1 0x1 PUSH1 0x1 PUSH1 0xA0 SHL SUB DUP4 AND SWAP1 PUSH4 0x281B693C SWAP1 PUSH1 0x24 ADD PUSH1 0x20 PUSH1 0x40 MLOAD DUP1 DUP4 SUB DUP2 DUP7 GAS STATICCALL ISZERO DUP1 ISZERO PUSH2 0x192D JUMPI RETURNDATASIZE PUSH1 0x0 DUP1 RETURNDATACOPY RETURNDATASIZE PUSH1 0x0 REVERT JUMPDEST POP POP POP POP PUSH1 0x40 MLOAD RETURNDATASIZE PUSH1 0x1F NOT PUSH1 0x1F DUP3 ADD AND DUP3 ADD DUP1 PUSH1 0x40 MSTORE POP DUP2 ADD SWAP1 PUSH2 0x1951 SWAP2 SWAP1 PUSH2 0x53B5 JUMP JUMPDEST DUP9 PUSH1 0xE0 ADD MLOAD GT ISZERO JUMPDEST PUSH2 0x199A JUMPI PUSH1 0x40 MLOAD PUSH3 0x461BCD PUSH1 0xE5 SHL DUP2 MSTORE PUSH1 0x20 PUSH1 0x4 DUP3 ADD MSTORE PUSH1 0x12 PUSH1 0x24 DUP3 ADD MSTORE PUSH18 0x13115591549051D157D25390D3D4949150D5 PUSH1 0x72 SHL PUSH1 0x44 DUP3 ADD MSTORE PUSH1 0x64 ADD PUSH2 0x4B2 JUMP JUMPDEST DUP6 ISZERO DUP1 PUSH2 0x1AAB JUMPI POP PUSH1 0x0 PUSH1 0x1 PUSH1 0x1 PUSH1 0xA0 SHL SUB PUSH32 0x0 AND PUSH4 0x265AA621 PUSH2 0x19DE PUSH1 0x1 DUP11 PUSH2 0x4FB2 JUMP JUMPDEST PUSH1 0x40 MLOAD DUP3 PUSH4 0xFFFFFFFF AND PUSH1 0xE0 SHL DUP2 MSTORE PUSH1 0x4 ADD PUSH2 0x19FC SWAP2 DUP2 MSTORE PUSH1 0x20 ADD SWAP1 JUMP JUMPDEST PUSH1 0x20 PUSH1 0x40 MLOAD DUP1 DUP4 SUB DUP2 DUP7 GAS STATICCALL ISZERO DUP1 ISZERO PUSH2 0x1A19 JUMPI RETURNDATASIZE PUSH1 0x0 DUP1 RETURNDATACOPY RETURNDATASIZE PUSH1 0x0 REVERT JUMPDEST POP POP POP POP PUSH1 0x40 MLOAD RETURNDATASIZE PUSH1 0x1F NOT PUSH1 0x1F DUP3 ADD AND DUP3 ADD DUP1 PUSH1 0x40 MSTORE POP DUP2 ADD SWAP1 PUSH2 0x1A3D SWAP2 SWAP1 PUSH2 0x5091 JUMP JUMPDEST PUSH1 0x40 MLOAD PUSH4 0x70A08231 PUSH1 0xE0 SHL DUP2 MSTORE PUSH1 0x1 PUSH1 0x1 PUSH1 0xA0 SHL SUB DUP5 DUP2 AND PUSH1 0x4 DUP4 ADD MSTORE SWAP2 SWAP1 SWAP2 AND SWAP1 PUSH4 0x70A08231 SWAP1 PUSH1 0x24 ADD PUSH1 0x20 PUSH1 0x40 MLOAD DUP1 DUP4 SUB DUP2 DUP7 GAS STATICCALL ISZERO DUP1 ISZERO PUSH2 0x1A85 JUMPI RETURNDATASIZE PUSH1 0x0 DUP1 RETURNDATACOPY RETURNDATASIZE PUSH1 0x0 REVERT JUMPDEST POP POP POP POP PUSH1 0x40 MLOAD RETURNDATASIZE PUSH1 0x1F NOT PUSH1 0x1F DUP3 ADD AND DUP3 ADD DUP1 PUSH1 0x40 MSTORE POP DUP2 ADD SWAP1 PUSH2 0x1AA9 SWAP2 SWAP1 PUSH2 0x53B5 JUMP JUMPDEST GT JUMPDEST PUSH2 0x1B05 JUMPI PUSH1 0x40 MLOAD PUSH3 0x461BCD PUSH1 0xE5 SHL DUP2 MSTORE PUSH1 0x20 PUSH1 0x4 DUP3 ADD MSTORE PUSH1 0x25 PUSH1 0x24 DUP3 ADD MSTORE PUSH32 0x4E4F5F434F52524553504F4E44494E475F4E46545F5350524541445F52454455 PUSH1 0x44 DUP3 ADD MSTORE PUSH5 0x21AA24A7A7 PUSH1 0xD9 SHL PUSH1 0x64 DUP3 ADD MSTORE PUSH1 0x84 ADD PUSH2 0x4B2 JUMP JUMPDEST PUSH2 0x100 DUP9 ADD MLOAD ISZERO DUP1 PUSH2 0x1B39 JUMPI POP DUP8 PUSH1 0xC0 ADD MLOAD PUSH2 0x1B2C JUMPI DUP8 PUSH1 0xA0 ADD MLOAD DUP9 PUSH2 0x100 ADD MLOAD LT PUSH2 0x1B39 JUMP JUMPDEST DUP8 PUSH1 0xA0 ADD MLOAD DUP9 PUSH2 0x100 ADD MLOAD GT JUMPDEST PUSH2 0x1B70 JUMPI PUSH1 0x40 MLOAD PUSH3 0x461BCD PUSH1 0xE5 SHL DUP2 MSTORE PUSH1 0x20 PUSH1 0x4 DUP3 ADD MSTORE PUSH1 0x8 PUSH1 0x24 DUP3 ADD MSTORE PUSH8 0x57524F4E475F545 PUSH1 0xC4 SHL PUSH1 0x44 DUP3 ADD MSTORE PUSH1 0x64 ADD PUSH2 0x4B2 JUMP JUMPDEST PUSH2 0x120 DUP9 ADD MLOAD ISZERO DUP1 PUSH2 0x1BA4 JUMPI POP DUP8 PUSH1 0xC0 ADD MLOAD PUSH2 0x1B97 JUMPI DUP8 PUSH1 0xA0 ADD MLOAD DUP9 PUSH2 0x120 ADD MLOAD GT PUSH2 0x1BA4 JUMP JUMPDEST DUP8 PUSH1 0xA0 ADD MLOAD DUP9 PUSH2 0x120 ADD MLOAD LT JUMPDEST PUSH2 0x1BDB JUMPI PUSH1 0x40 MLOAD PUSH3 0x461BCD PUSH1 0xE5 SHL DUP2 MSTORE PUSH1 0x20 PUSH1 0x4 DUP3 ADD MSTORE PUSH1 0x8 PUSH1 0x24 DUP3 ADD MSTORE PUSH8 0x15D493D391D7D4D3 PUSH1 0xC2 SHL PUSH1 0x44 DUP3 ADD MSTORE PUSH1 0x64 ADD PUSH2 0x4B2 JUMP JUMPDEST PUSH1 0x0 PUSH32 0x0 PUSH1 0x1 PUSH1 0x1 PUSH1 0xA0 SHL SUB AND PUSH4 0x7EA95F32 PUSH1 0x0 DUP12 PUSH1 0x20 ADD MLOAD DUP13 PUSH1 0xC0 ADD MLOAD DUP14 PUSH1 0xE0 ADD MLOAD DUP15 PUSH1 0x80 ADD MLOAD PUSH2 0x1C2C SWAP2 SWAP1 PUSH2 0x53CE JUMP JUMPDEST PUSH1 0x40 MLOAD PUSH1 0x1 PUSH1 0x1 PUSH1 0xE0 SHL SUB NOT PUSH1 0xE0 DUP8 SWAP1 SHL AND DUP2 MSTORE PUSH1 0x4 DUP2 ADD SWAP5 SWAP1 SWAP5 MSTORE PUSH1 0x24 DUP5 ADD SWAP3 SWAP1 SWAP3 MSTORE ISZERO ISZERO PUSH1 0x44 DUP4 ADD MSTORE PUSH1 0x64 DUP3 ADD MSTORE PUSH1 0x84 ADD PUSH1 0x40 DUP1 MLOAD DUP1 DUP4 SUB DUP2 DUP7 GAS STATICCALL ISZERO DUP1 ISZERO PUSH2 0x1C7B JUMPI RETURNDATASIZE PUSH1 0x0 DUP1 RETURNDATACOPY RETURNDATASIZE PUSH1 0x0 REVERT JUMPDEST POP POP POP POP PUSH1 0x40 MLOAD RETURNDATASIZE PUSH1 0x1F NOT PUSH1 0x1F DUP3 ADD AND DUP3 ADD DUP1 PUSH1 0x40 MSTORE POP DUP2 ADD SWAP1 PUSH2 0x1C9F SWAP2 SWAP1 PUSH2 0x53ED JUMP JUMPDEST POP SWAP1 POP PUSH32 0x0 PUSH1 0x1 PUSH1 0x1 PUSH1 0xA0 SHL SUB AND PUSH4 0x80F6CFC2 PUSH1 0x40 MLOAD DUP2 PUSH4 0xFFFFFFFF AND PUSH1 0xE0 SHL DUP2 MSTORE PUSH1 0x4 ADD PUSH1 0x20 PUSH1 0x40 MLOAD DUP1 DUP4 SUB DUP2 DUP7 GAS STATICCALL ISZERO DUP1 ISZERO PUSH2 0x1D00 JUMPI RETURNDATASIZE PUSH1 0x0 DUP1 RETURNDATACOPY RETURNDATASIZE PUSH1 0x0 REVERT JUMPDEST POP POP POP POP PUSH1 0x40 MLOAD RETURNDATASIZE PUSH1 0x1F NOT PUSH1 0x1F DUP3 ADD AND DUP3 ADD DUP1 PUSH1 0x40 MSTORE POP DUP2 ADD SWAP1 PUSH2 0x1D24 SWAP2 SWAP1 PUSH2 0x53B5 JUMP JUMPDEST PUSH1 0xE0 DUP11 ADD MLOAD PUSH2 0x1D33 SWAP1 DUP4 PUSH2 0x53CE JUMP JUMPDEST GT ISZERO PUSH2 0x1D79 JUMPI PUSH1 0x40 MLOAD PUSH3 0x461BCD PUSH1 0xE5 SHL DUP2 MSTORE PUSH1 0x20 PUSH1 0x4 DUP3 ADD MSTORE PUSH1 0x15 PUSH1 0x24 DUP3 ADD MSTORE PUSH21 0xA0A492868ABE929AA08286A8BEA89E9EBE90928E9 PUSH1 0x5B SHL PUSH1 0x44 DUP3 ADD MSTORE PUSH1 0x64 ADD PUSH2 0x4B2 JUMP JUMPDEST PUSH1 0x80 DUP10 ADD MLOAD PUSH1 0x40 MLOAD PUSH4 0x373873DB PUSH1 0xE1 SHL DUP2 MSTORE PUSH1 0x1 PUSH1 0x1 PUSH1 0xA0 SHL SUB DUP5 DUP2 AND PUSH1 0x4 DUP4 ADD MSTORE PUSH32 0x0 AND PUSH1 0x24 DUP3 ADD DUP2 SWAP1 MSTORE PUSH1 0x44 DUP3 ADD SWAP3 SWAP1 SWAP3 MSTORE PUSH4 0x6E70E7B6 SWAP1 PUSH1 0x64 ADD PUSH1 0x0 PUSH1 0x40 MLOAD DUP1 DUP4 SUB DUP2 PUSH1 0x0 DUP8 DUP1 EXTCODESIZE ISZERO DUP1 ISZERO PUSH2 0x1DEF JUMPI PUSH1 0x0 DUP1 REVERT JUMPDEST POP GAS CALL ISZERO DUP1 ISZERO PUSH2 0x1E03 JUMPI RETURNDATASIZE PUSH1 0x0 DUP1 RETURNDATACOPY RETURNDATASIZE PUSH1 0x0 REVERT JUMPDEST POP PUSH1 0x0 SWAP3 POP PUSH2 0x1E10 SWAP2 POP POP JUMP JUMPDEST DUP9 PUSH1 0x2 DUP2 GT ISZERO PUSH2 0x1E22 JUMPI PUSH2 0x1E22 PUSH2 0x5411 JUMP JUMPDEST EQ PUSH2 0x2142 JUMPI PUSH1 0x20 DUP10 ADD MLOAD PUSH1 0x40 MLOAD PUSH4 0x226A27AD PUSH1 0xE1 SHL DUP2 MSTORE PUSH1 0x1 PUSH1 0x1 PUSH1 0xA0 SHL SUB DUP5 DUP2 AND PUSH1 0x4 DUP4 ADD MSTORE PUSH1 0x24 DUP3 ADD SWAP3 SWAP1 SWAP3 MSTORE PUSH1 0x0 SWAP2 PUSH32 0x0 AND SWAP1 PUSH4 0x44D44F5A SWAP1 PUSH1 0x44 ADD PUSH1 0x20 PUSH1 0x40 MLOAD DUP1 DUP4 SUB DUP2 DUP7 GAS STATICCALL ISZERO DUP1 ISZERO PUSH2 0x1E9D JUMPI RETURNDATASIZE PUSH1 0x0 DUP1 RETURNDATACOPY RETURNDATASIZE PUSH1 0x0 REVERT JUMPDEST POP POP POP POP PUSH1 0x40 MLOAD RETURNDATASIZE PUSH1 0x1F NOT PUSH1 0x1F DUP3 ADD AND DUP3 ADD DUP1 PUSH1 0x40 MSTORE POP DUP2 ADD SWAP1 PUSH2 0x1EC1 SWAP2 SWAP1 PUSH2 0x53B5 JUMP JUMPDEST SWAP1 POP PUSH32 0x0 PUSH1 0x1 PUSH1 0x1 PUSH1 0xA0 SHL SUB AND PUSH4 0xD3B5FE70 PUSH1 0x40 MLOAD DUP1 PUSH2 0x1A0 ADD PUSH1 0x40 MSTORE DUP1 DUP7 PUSH1 0x1 PUSH1 0x1 PUSH1 0xA0 SHL SUB AND DUP2 MSTORE PUSH1 0x20 ADD DUP14 PUSH1 0x20 ADD MLOAD DUP2 MSTORE PUSH1 0x20 ADD DUP5 DUP2 MSTORE PUSH1 0x20 ADD DUP14 PUSH1 0x80 ADD MLOAD DUP2 MSTORE PUSH1 0x20 ADD PUSH1 0x0 DUP13 GT PUSH2 0x1F36 JUMPI PUSH1 0x0 PUSH2 0x1FCF JUMP JUMPDEST PUSH1 0x1 PUSH1 0x1 PUSH1 0xA0 SHL SUB PUSH32 0x0 AND PUSH4 0x3DAE10A0 PUSH2 0x1F70 PUSH1 0x1 DUP16 PUSH2 0x4FB2 JUMP JUMPDEST PUSH1 0x40 MLOAD DUP3 PUSH4 0xFFFFFFFF AND PUSH1 0xE0 SHL DUP2 MSTORE PUSH1 0x4 ADD PUSH2 0x1F8E SWAP2 DUP2 MSTORE PUSH1 0x20 ADD SWAP1 JUMP JUMPDEST PUSH1 0x20 PUSH1 0x40 MLOAD DUP1 DUP4 SUB DUP2 DUP7 GAS STATICCALL ISZERO DUP1 ISZERO PUSH2 0x1FAB JUMPI RETURNDATASIZE PUSH1 0x0 DUP1 RETURNDATACOPY RETURNDATASIZE PUSH1 0x0 REVERT JUMPDEST POP POP POP POP PUSH1 0x40 MLOAD RETURNDATASIZE PUSH1 0x1F NOT PUSH1 0x1F DUP3 ADD AND DUP3 ADD DUP1 PUSH1 0x40 MSTORE POP DUP2 ADD SWAP1 PUSH2 0x1FCF SWAP2 SWAP1 PUSH2 0x53B5 JUMP JUMPDEST DUP2 MSTORE PUSH1 0x20 ADD DUP14 PUSH1 0xC0 ADD MLOAD ISZERO ISZERO DUP2 MSTORE PUSH1 0x20 ADD DUP14 PUSH1 0xE0 ADD MLOAD DUP2 MSTORE PUSH1 0x20 ADD DUP14 PUSH2 0x100 ADD MLOAD DUP2 MSTORE PUSH1 0x20 ADD DUP14 PUSH2 0x120 ADD MLOAD DUP2 MSTORE PUSH1 0x20 ADD DUP14 PUSH1 0xA0 ADD MLOAD DUP2 MSTORE PUSH1 0x20 ADD DUP14 PUSH1 0xA0 ADD MLOAD DUP2 MSTORE PUSH1 0x20 ADD NUMBER DUP2 MSTORE PUSH1 0x20 ADD PUSH1 0x0 DUP2 MSTORE POP PUSH1 0x40 MLOAD DUP3 PUSH4 0xFFFFFFFF AND PUSH1 0xE0 SHL DUP2 MSTORE PUSH1 0x4 ADD PUSH2 0x203B SWAP2 SWAP1 PUSH2 0x4FF1 JUMP JUMPDEST PUSH1 0x0 PUSH1 0x40 MLOAD DUP1 DUP4 SUB DUP2 PUSH1 0x0 DUP8 DUP1 EXTCODESIZE ISZERO DUP1 ISZERO PUSH2 0x2055 JUMPI PUSH1 0x0 DUP1 REVERT JUMPDEST POP GAS CALL ISZERO DUP1 ISZERO PUSH2 0x2069 JUMPI RETURNDATASIZE PUSH1 0x0 DUP1 RETURNDATACOPY RETURNDATASIZE PUSH1 0x0 REVERT JUMPDEST POP POP POP POP PUSH1 0x20 DUP11 ADD MLOAD PUSH1 0x40 MLOAD PUSH4 0xEC57061 PUSH1 0xE4 SHL DUP2 MSTORE PUSH32 0x0 PUSH1 0x1 PUSH1 0x1 PUSH1 0xA0 SHL SUB AND SWAP2 PUSH4 0xEC570610 SWAP2 PUSH2 0x20C2 SWAP2 DUP8 SWAP2 DUP7 SWAP1 DUP16 SWAP1 PUSH1 0x4 ADD PUSH2 0x5427 JUMP JUMPDEST PUSH1 0x0 PUSH1 0x40 MLOAD DUP1 DUP4 SUB DUP2 PUSH1 0x0 DUP8 DUP1 EXTCODESIZE ISZERO DUP1 ISZERO PUSH2 0x20DC JUMPI PUSH1 0x0 DUP1 REVERT JUMPDEST POP GAS CALL ISZERO DUP1 ISZERO PUSH2 0x20F0 JUMPI RETURNDATASIZE PUSH1 0x0 DUP1 RETURNDATACOPY RETURNDATASIZE PUSH1 0x0 REVERT JUMPDEST POP POP POP POP DUP10 PUSH1 0x20 ADD MLOAD DUP4 PUSH1 0x1 PUSH1 0x1 PUSH1 0xA0 SHL SUB AND PUSH32 0xDFABD6F206F17B7F2E1F9E0D33C40D30D1E8D7B6A4F520A03FDC1C1811059343 DUP4 PUSH1 0x40 MLOAD PUSH2 0x2134 SWAP2 DUP2 MSTORE PUSH1 0x20 ADD SWAP1 JUMP JUMPDEST PUSH1 0x40 MLOAD DUP1 SWAP2 SUB SWAP1 LOG3 POP PUSH2 0x23E8 JUMP JUMPDEST PUSH1 0x0 DUP5 PUSH1 0x1 PUSH1 0x1 PUSH1 0xA0 SHL SUB AND PUSH4 0xFA8DD498 DUP12 PUSH1 0x20 ADD MLOAD PUSH1 0x0 DUP14 PUSH1 0xE0 ADD MLOAD DUP15 PUSH1 0x80 ADD MLOAD PUSH2 0x216E SWAP2 SWAP1 PUSH2 0x53CE JUMP JUMPDEST PUSH1 0x40 MLOAD DUP5 PUSH4 0xFFFFFFFF AND PUSH1 0xE0 SHL DUP2 MSTORE PUSH1 0x4 ADD PUSH2 0x218C SWAP4 SWAP3 SWAP2 SWAP1 PUSH2 0x5464 JUMP JUMPDEST PUSH1 0x20 PUSH1 0x40 MLOAD DUP1 DUP4 SUB DUP2 PUSH1 0x0 DUP8 GAS CALL ISZERO DUP1 ISZERO PUSH2 0x21AB JUMPI RETURNDATASIZE PUSH1 0x0 DUP1 RETURNDATACOPY RETURNDATASIZE PUSH1 0x0 REVERT JUMPDEST POP POP POP POP PUSH1 0x40 MLOAD RETURNDATASIZE PUSH1 0x1F NOT PUSH1 0x1F DUP3 ADD AND DUP3 ADD DUP1 PUSH1 0x40 MSTORE POP DUP2 ADD SWAP1 PUSH2 0x21CF SWAP2 SWAP1 PUSH2 0x53B5 JUMP JUMPDEST SWAP1 POP PUSH32 0x0 PUSH1 0x1 PUSH1 0x1 PUSH1 0xA0 SHL SUB AND PUSH4 0xC76FAF78 PUSH1 0x40 MLOAD DUP1 PUSH1 0xC0 ADD PUSH1 0x40 MSTORE DUP1 PUSH1 0x40 MLOAD DUP1 PUSH2 0x140 ADD PUSH1 0x40 MSTORE DUP1 DUP9 PUSH1 0x1 PUSH1 0x1 PUSH1 0xA0 SHL SUB AND DUP2 MSTORE PUSH1 0x20 ADD DUP16 PUSH1 0x20 ADD MLOAD DUP2 MSTORE PUSH1 0x20 ADD PUSH1 0x0 DUP2 MSTORE PUSH1 0x20 ADD PUSH1 0x0 DUP2 MSTORE PUSH1 0x20 ADD DUP16 PUSH1 0x80 ADD MLOAD DUP2 MSTORE PUSH1 0x20 ADD PUSH1 0x0 DUP2 MSTORE PUSH1 0x20 ADD DUP16 PUSH1 0xC0 ADD MLOAD ISZERO ISZERO DUP2 MSTORE PUSH1 0x20 ADD DUP16 PUSH1 0xE0 ADD MLOAD DUP2 MSTORE PUSH1 0x20 ADD DUP16 PUSH2 0x100 ADD MLOAD DUP2 MSTORE PUSH1 0x20 ADD DUP16 PUSH2 0x120 ADD MLOAD DUP2 MSTORE POP DUP2 MSTORE PUSH1 0x20 ADD PUSH1 0x0 DUP2 MSTORE PUSH1 0x20 ADD DUP14 PUSH1 0xA0 ADD MLOAD DUP2 MSTORE PUSH1 0x20 ADD DUP11 DUP2 MSTORE PUSH1 0x20 ADD PUSH1 0x0 DUP13 GT PUSH2 0x22A4 JUMPI PUSH1 0x0 PUSH2 0x233D JUMP JUMPDEST PUSH1 0x1 PUSH1 0x1 PUSH1 0xA0 SHL SUB PUSH32 0x0 AND PUSH4 0x3DAE10A0 PUSH2 0x22DE PUSH1 0x1 DUP16 PUSH2 0x4FB2 JUMP JUMPDEST PUSH1 0x40 MLOAD DUP3 PUSH4 0xFFFFFFFF AND PUSH1 0xE0 SHL DUP2 MSTORE PUSH1 0x4 ADD PUSH2 0x22FC SWAP2 DUP2 MSTORE PUSH1 0x20 ADD SWAP1 JUMP JUMPDEST PUSH1 0x20 PUSH1 0x40 MLOAD DUP1 DUP4 SUB DUP2 DUP7 GAS STATICCALL ISZERO DUP1 ISZERO PUSH2 0x2319 JUMPI RETURNDATASIZE PUSH1 0x0 DUP1 RETURNDATACOPY RETURNDATASIZE PUSH1 0x0 REVERT JUMPDEST POP POP POP POP PUSH1 0x40 MLOAD RETURNDATASIZE PUSH1 0x1F NOT PUSH1 0x1F DUP3 ADD AND DUP3 ADD DUP1 PUSH1 0x40 MSTORE POP DUP2 ADD SWAP1 PUSH2 0x233D SWAP2 SWAP1 PUSH2 0x53B5 JUMP JUMPDEST DUP2 MSTORE PUSH1 0x20 ADD PUSH1 0x0 DUP2 MSTORE POP DUP4 PUSH1 0x1 PUSH1 0x40 MLOAD DUP5 PUSH4 0xFFFFFFFF AND PUSH1 0xE0 SHL DUP2 MSTORE PUSH1 0x4 ADD PUSH2 0x2368 SWAP4 SWAP3 SWAP2 SWAP1 PUSH2 0x548C JUMP JUMPDEST PUSH1 0x0 PUSH1 0x40 MLOAD DUP1 DUP4 SUB DUP2 PUSH1 0x0 DUP8 DUP1 EXTCODESIZE ISZERO DUP1 ISZERO PUSH2 0x2382 JUMPI PUSH1 0x0 DUP1 REVERT JUMPDEST POP GAS CALL ISZERO DUP1 ISZERO PUSH2 0x2396 JUMPI RETURNDATASIZE PUSH1 0x0 DUP1 RETURNDATACOPY RETURNDATASIZE PUSH1 0x0 REVERT JUMPDEST POP POP POP POP DUP10 PUSH1 0x20 ADD MLOAD DUP4 PUSH1 0x1 PUSH1 0x1 PUSH1 0xA0 SHL SUB AND DUP3 PUSH32 0x3E544118C04E3BB18B669475695CD270BA0E41FB13177483F01C14222DE62A86 PUSH1 0x1 PUSH1 0x40 MLOAD PUSH2 0x23DE SWAP2 ISZERO ISZERO DUP2 MSTORE PUSH1 0x20 ADD SWAP1 JUMP JUMPDEST PUSH1 0x40 MLOAD DUP1 SWAP2 SUB SWAP1 LOG4 POP JUMPDEST PUSH1 0x40 MLOAD PUSH4 0x26E2ADA1 PUSH1 0xE2 SHL DUP2 MSTORE PUSH1 0x1 PUSH1 0x1 PUSH1 0xA0 SHL SUB DUP4 DUP2 AND PUSH1 0x4 DUP4 ADD MSTORE DUP7 DUP2 AND PUSH1 0x24 DUP4 ADD MSTORE PUSH32 0x0 AND SWAP1 PUSH4 0x9B8AB684 SWAP1 PUSH1 0x44 ADD PUSH1 0x0 PUSH1 0x40 MLOAD DUP1 DUP4 SUB DUP2 PUSH1 0x0 DUP8 DUP1 EXTCODESIZE ISZERO DUP1 ISZERO PUSH2 0x2453 JUMPI PUSH1 0x0 DUP1 REVERT JUMPDEST POP GAS CALL ISZERO DUP1 ISZERO PUSH2 0x2467 JUMPI RETURNDATASIZE PUSH1 0x0 DUP1 RETURNDATACOPY RETURNDATASIZE PUSH1 0x0 REVERT JUMPDEST POP POP POP POP POP POP POP POP POP POP POP POP POP JUMP JUMPDEST ORIGIN CALLER EQ PUSH2 0x2482 JUMPI PUSH1 0x0 DUP1 REVERT JUMPDEST PUSH1 0x5 SLOAD PUSH2 0x100 SWAP1 DIV PUSH1 0xFF AND ISZERO PUSH2 0x24AA JUMPI PUSH1 0x40 MLOAD PUSH3 0x461BCD PUSH1 0xE5 SHL DUP2 MSTORE PUSH1 0x4 ADD PUSH2 0x4B2 SWAP1 PUSH2 0x4E55 JUMP JUMPDEST PUSH1 0x0 PUSH2 0x24B4 PUSH2 0x456 JUMP JUMPDEST SWAP1 POP PUSH1 0x0 PUSH32 0x0 PUSH1 0x1 PUSH1 0x1 PUSH1 0xA0 SHL SUB AND PUSH4 0xA3A80FFE DUP4 DUP7 DUP7 PUSH1 0x40 MLOAD DUP5 PUSH4 0xFFFFFFFF AND PUSH1 0xE0 SHL DUP2 MSTORE PUSH1 0x4 ADD PUSH2 0x2508 SWAP4 SWAP3 SWAP2 SWAP1 PUSH2 0x4E73 JUMP JUMPDEST PUSH2 0x140 PUSH1 0x40 MLOAD DUP1 DUP4 SUB DUP2 DUP7 GAS STATICCALL ISZERO DUP1 ISZERO PUSH2 0x2526 JUMPI RETURNDATASIZE PUSH1 0x0 DUP1 RETURNDATACOPY RETURNDATASIZE PUSH1 0x0 REVERT JUMPDEST POP POP POP POP PUSH1 0x40 MLOAD RETURNDATASIZE PUSH1 0x1F NOT PUSH1 0x1F DUP3 ADD AND DUP3 ADD DUP1 PUSH1 0x40 MSTORE POP DUP2 ADD SWAP1 PUSH2 0x254A SWAP2 SWAP1 PUSH2 0x54B3 JUMP JUMPDEST SWAP1 POP PUSH1 0x0 PUSH32 0x0 PUSH1 0x1 PUSH1 0x1 PUSH1 0xA0 SHL SUB AND PUSH4 0x8C8FF1D5 DUP5 DUP8 DUP8 PUSH1 0x40 MLOAD DUP5 PUSH4 0xFFFFFFFF AND PUSH1 0xE0 SHL DUP2 MSTORE PUSH1 0x4 ADD PUSH2 0x259E SWAP4 SWAP3 SWAP2 SWAP1 PUSH2 0x4E73 JUMP JUMPDEST PUSH1 0xC0 PUSH1 0x40 MLOAD DUP1 DUP4 SUB DUP2 DUP7 GAS STATICCALL ISZERO DUP1 ISZERO PUSH2 0x25BB JUMPI RETURNDATASIZE PUSH1 0x0 DUP1 RETURNDATACOPY RETURNDATASIZE PUSH1 0x0 REVERT JUMPDEST POP POP POP POP PUSH1 0x40 MLOAD RETURNDATASIZE PUSH1 0x1F NOT PUSH1 0x1F DUP3 ADD AND DUP3 ADD DUP1 PUSH1 0x40 MSTORE POP DUP2 ADD SWAP1 PUSH2 0x25DF SWAP2 SWAP1 PUSH2 0x54D0 JUMP JUMPDEST SWAP1 POP PUSH32 0x0 PUSH1 0x1 PUSH1 0x1 PUSH1 0xA0 SHL SUB AND PUSH4 0x8049FDE7 PUSH1 0x40 MLOAD DUP2 PUSH4 0xFFFFFFFF AND PUSH1 0xE0 SHL DUP2 MSTORE PUSH1 0x4 ADD PUSH1 0x20 PUSH1 0x40 MLOAD DUP1 DUP4 SUB DUP2 DUP7 GAS STATICCALL ISZERO DUP1 ISZERO PUSH2 0x263F JUMPI RETURNDATASIZE PUSH1 0x0 DUP1 RETURNDATACOPY RETURNDATASIZE PUSH1 0x0 REVERT JUMPDEST POP POP POP POP PUSH1 0x40 MLOAD RETURNDATASIZE PUSH1 0x1F NOT PUSH1 0x1F DUP3 ADD AND DUP3 ADD DUP1 PUSH1 0x40 MSTORE POP DUP2 ADD SWAP1 PUSH2 0x2663 SWAP2 SWAP1 PUSH2 0x53B5 JUMP JUMPDEST PUSH1 0x40 MLOAD PUSH4 0xF7B3C6FD PUSH1 0xE0 SHL DUP2 MSTORE PUSH1 0x1 PUSH1 0x1 PUSH1 0xA0 SHL SUB DUP6 DUP2 AND PUSH1 0x4 DUP4 ADD MSTORE PUSH32 0x0 AND SWAP1 PUSH4 0xF7B3C6FD SWAP1 PUSH1 0x24 ADD PUSH1 0x20 PUSH1 0x40 MLOAD DUP1 DUP4 SUB DUP2 DUP7 GAS STATICCALL ISZERO DUP1 ISZERO PUSH2 0x26C9 JUMPI RETURNDATASIZE PUSH1 0x0 DUP1 RETURNDATACOPY RETURNDATASIZE PUSH1 0x0 REVERT JUMPDEST POP POP POP POP PUSH1 0x40 MLOAD RETURNDATASIZE PUSH1 0x1F NOT PUSH1 0x1F DUP3 ADD AND DUP3 ADD DUP1 PUSH1 0x40 MSTORE POP DUP2 ADD SWAP1 PUSH2 0x26ED SWAP2 SWAP1 PUSH2 0x53B5 JUMP JUMPDEST LT PUSH2 0x272F JUMPI PUSH1 0x40 MLOAD PUSH3 0x461BCD PUSH1 0xE5 SHL DUP2 MSTORE PUSH1 0x20 PUSH1 0x4 DUP3 ADD MSTORE PUSH1 0x12 PUSH1 0x24 DUP3 ADD MSTORE PUSH18 0x4D41585F50454E44494E475F4F5244455253 PUSH1 0x70 SHL PUSH1 0x44 DUP3 ADD MSTORE PUSH1 0x64 ADD PUSH2 0x4B2 JUMP JUMPDEST DUP1 PUSH1 0xA0 ADD MLOAD ISZERO PUSH2 0x2778 JUMPI PUSH1 0x40 MLOAD PUSH3 0x461BCD PUSH1 0xE5 SHL DUP2 MSTORE PUSH1 0x20 PUSH1 0x4 DUP3 ADD MSTORE PUSH1 0x14 PUSH1 0x24 DUP3 ADD MSTORE PUSH20 0x1053149150511657D091525391D7D0D313D4D151 PUSH1 0x62 SHL PUSH1 0x44 DUP3 ADD MSTORE PUSH1 0x64 ADD PUSH2 0x4B2 JUMP JUMPDEST PUSH1 0x0 DUP3 PUSH1 0xE0 ADD MLOAD GT PUSH2 0x279C JUMPI PUSH1 0x40 MLOAD PUSH3 0x461BCD PUSH1 0xE5 SHL DUP2 MSTORE PUSH1 0x4 ADD PUSH2 0x4B2 SWAP1 PUSH2 0x5550 JUMP JUMPDEST PUSH1 0x0 PUSH32 0x0 PUSH1 0x1 PUSH1 0x1 PUSH1 0xA0 SHL SUB AND PUSH4 0x3078FFF5 PUSH1 0x40 MLOAD DUP2 PUSH4 0xFFFFFFFF AND PUSH1 0xE0 SHL DUP2 MSTORE PUSH1 0x4 ADD PUSH1 0x20 PUSH1 0x40 MLOAD DUP1 DUP4 SUB DUP2 DUP7 GAS STATICCALL ISZERO DUP1 ISZERO PUSH2 0x27FC JUMPI RETURNDATASIZE PUSH1 0x0 DUP1 RETURNDATACOPY RETURNDATASIZE PUSH1 0x0 REVERT JUMPDEST POP POP POP POP PUSH1 0x40 MLOAD RETURNDATASIZE PUSH1 0x1F NOT PUSH1 0x1F DUP3 ADD AND DUP3 ADD DUP1 PUSH1 0x40 MSTORE POP DUP2 ADD SWAP1 PUSH2 0x2820 SWAP2 SWAP1 PUSH2 0x5091 JUMP JUMPDEST PUSH1 0x1 PUSH1 0x1 PUSH1 0xA0 SHL SUB AND PUSH4 0xFA8DD498 DUP8 PUSH1 0x1 PUSH5 0x2540BE400 DUP8 PUSH1 0xE0 ADD MLOAD DUP8 PUSH1 0x20 ADD MLOAD DUP10 PUSH1 0x60 ADD MLOAD PUSH2 0x2850 SWAP2 SWAP1 PUSH2 0x53CE JUMP JUMPDEST PUSH2 0x285A SWAP2 SWAP1 PUSH2 0x53CE JUMP JUMPDEST PUSH2 0x2864 SWAP2 SWAP1 PUSH2 0x5572 JUMP JUMPDEST PUSH1 0x40 MLOAD DUP5 PUSH4 0xFFFFFFFF AND PUSH1 0xE0 SHL DUP2 MSTORE PUSH1 0x4 ADD PUSH2 0x2882 SWAP4 SWAP3 SWAP2 SWAP1 PUSH2 0x5464 JUMP JUMPDEST PUSH1 0x20 PUSH1 0x40 MLOAD DUP1 DUP4 SUB DUP2 PUSH1 0x0 DUP8 GAS CALL ISZERO DUP1 ISZERO PUSH2 0x28A1 JUMPI RETURNDATASIZE PUSH1 0x0 DUP1 RETURNDATACOPY RETURNDATASIZE PUSH1 0x0 REVERT JUMPDEST POP POP POP POP PUSH1 0x40 MLOAD RETURNDATASIZE PUSH1 0x1F NOT PUSH1 0x1F DUP3 ADD AND DUP3 ADD DUP1 PUSH1 0x40 MSTORE POP DUP2 ADD SWAP1 PUSH2 0x28C5 SWAP2 SWAP1 PUSH2 0x53B5 JUMP JUMPDEST SWAP1 POP PUSH32 0x0 PUSH1 0x1 PUSH1 0x1 PUSH1 0xA0 SHL SUB AND PUSH4 0xC76FAF78 PUSH1 0x40 MLOAD DUP1 PUSH1 0xC0 ADD PUSH1 0x40 MSTORE DUP1 PUSH1 0x40 MLOAD DUP1 PUSH2 0x140 ADD PUSH1 0x40 MSTORE DUP1 DUP10 PUSH1 0x1 PUSH1 0x1 PUSH1 0xA0 SHL SUB AND DUP2 MSTORE PUSH1 0x20 ADD DUP12 DUP2 MSTORE PUSH1 0x20 ADD DUP11 DUP2 MSTORE PUSH1 0x20 ADD PUSH1 0x0 DUP2 MSTORE PUSH1 0x20 ADD PUSH1 0x0 DUP2 MSTORE PUSH1 0x20 ADD PUSH1 0x0 DUP2 MSTORE PUSH1 0x20 ADD PUSH1 0x0 ISZERO ISZERO DUP2 MSTORE PUSH1 0x20 ADD PUSH1 0x0 DUP2 MSTORE PUSH1 0x20 ADD PUSH1 0x0 DUP2 MSTORE PUSH1 0x20 ADD PUSH1 0x0 DUP2 MSTORE POP DUP2 MSTORE PUSH1 0x20 ADD PUSH1 0x0 DUP2 MSTORE PUSH1 0x20 ADD PUSH1 0x0 DUP2 MSTORE PUSH1 0x20 ADD PUSH1 0x0 DUP2 MSTORE PUSH1 0x20 ADD PUSH1 0x0 DUP2 MSTORE PUSH1 0x20 ADD PUSH1 0x0 DUP2 MSTORE POP DUP4 PUSH1 0x0 PUSH1 0x40 MLOAD DUP5 PUSH4 0xFFFFFFFF AND PUSH1 0xE0 SHL DUP2 MSTORE PUSH1 0x4 ADD PUSH2 0x29A0 SWAP4 SWAP3 SWAP2 SWAP1 PUSH2 0x548C JUMP JUMPDEST PUSH1 0x0 PUSH1 0x40 MLOAD DUP1 DUP4 SUB DUP2 PUSH1 0x0 DUP8 DUP1 EXTCODESIZE ISZERO DUP1 ISZERO PUSH2 0x29BA JUMPI PUSH1 0x0 DUP1 REVERT JUMPDEST POP GAS CALL ISZERO DUP1 ISZERO PUSH2 0x29CE JUMPI RETURNDATASIZE PUSH1 0x0 DUP1 RETURNDATACOPY RETURNDATASIZE PUSH1 0x0 REVERT JUMPDEST POP POP POP POP DUP6 DUP5 PUSH1 0x1 PUSH1 0x1 PUSH1 0xA0 SHL SUB AND DUP3 PUSH32 0x3E544118C04E3BB18B669475695CD270BA0E41FB13177483F01C14222DE62A86 PUSH1 0x0 PUSH1 0x40 MLOAD PUSH2 0x2A12 SWAP2 ISZERO ISZERO DUP2 MSTORE PUSH1 0x20 ADD SWAP1 JUMP JUMPDEST PUSH1 0x40 MLOAD DUP1 SWAP2 SUB SWAP1 LOG4 POP POP POP POP POP POP JUMP JUMPDEST PUSH32 0x0 PUSH1 0x1 PUSH1 0x1 PUSH1 0xA0 SHL SUB AND PUSH4 0x12D43A51 PUSH1 0x40 MLOAD DUP2 PUSH4 0xFFFFFFFF AND PUSH1 0xE0 SHL DUP2 MSTORE PUSH1 0x4 ADD PUSH1 0x20 PUSH1 0x40 MLOAD DUP1 DUP4 SUB DUP2 DUP7 GAS STATICCALL ISZERO DUP1 ISZERO PUSH2 0x2A80 JUMPI RETURNDATASIZE PUSH1 0x0 DUP1 RETURNDATACOPY RETURNDATASIZE PUSH1 0x0 REVERT JUMPDEST POP POP POP POP PUSH1 0x40 MLOAD RETURNDATASIZE PUSH1 0x1F NOT PUSH1 0x1F DUP3 ADD AND DUP3 ADD DUP1 PUSH1 0x40 MSTORE POP DUP2 ADD SWAP1 PUSH2 0x2AA4 SWAP2 SWAP1 PUSH2 0x5091 JUMP JUMPDEST PUSH1 0x1 PUSH1 0x1 PUSH1 0xA0 SHL SUB AND CALLER PUSH1 0x1 PUSH1 0x1 PUSH1 0xA0 SHL SUB AND EQ PUSH2 0x2AD4 JUMPI PUSH1 0x40 MLOAD PUSH3 0x461BCD PUSH1 0xE5 SHL DUP2 MSTORE PUSH1 0x4 ADD PUSH2 0x4B2 SWAP1 PUSH2 0x50AE JUMP JUMPDEST PUSH1 0x5 DUP1 SLOAD PUSH1 0xFF PUSH2 0x100 DUP1 DUP4 DIV DUP3 AND ISZERO DUP2 MUL PUSH2 0xFF00 NOT SWAP1 SWAP4 AND SWAP3 SWAP1 SWAP3 OR SWAP3 DUP4 SWAP1 SSTORE PUSH1 0x40 MLOAD PUSH32 0xC3A6F986261DE9467C2838C6DF8EF74F9107855159205600C0BC7A14CDFD3888 SWAP4 PUSH2 0x8D7 SWAP4 SWAP1 DIV SWAP1 SWAP2 AND ISZERO ISZERO DUP2 MSTORE PUSH1 0x20 ADD SWAP1 JUMP JUMPDEST PUSH32 0x0 PUSH1 0x1 PUSH1 0x1 PUSH1 0xA0 SHL SUB AND PUSH4 0x12D43A51 PUSH1 0x40 MLOAD DUP2 PUSH4 0xFFFFFFFF AND PUSH1 0xE0 SHL DUP2 MSTORE PUSH1 0x4 ADD PUSH1 0x20 PUSH1 0x40 MLOAD DUP1 DUP4 SUB DUP2 DUP7 GAS STATICCALL ISZERO DUP1 ISZERO PUSH2 0x2B8A JUMPI RETURNDATASIZE PUSH1 0x0 DUP1 RETURNDATACOPY RETURNDATASIZE PUSH1 0x0 REVERT JUMPDEST POP POP POP POP PUSH1 0x40 MLOAD RETURNDATASIZE PUSH1 0x1F NOT PUSH1 0x1F DUP3 ADD AND DUP3 ADD DUP1 PUSH1 0x40 MSTORE POP DUP2 ADD SWAP1 PUSH2 0x2BAE SWAP2 SWAP1 PUSH2 0x5091 JUMP JUMPDEST PUSH1 0x1 PUSH1 0x1 PUSH1 0xA0 SHL SUB AND CALLER PUSH1 0x1 PUSH1 0x1 PUSH1 0xA0 SHL SUB AND EQ PUSH2 0x2BDE JUMPI PUSH1 0x40 MLOAD PUSH3 0x461BCD PUSH1 0xE5 SHL DUP2 MSTORE PUSH1 0x4 ADD PUSH2 0x4B2 SWAP1 PUSH2 0x50AE JUMP JUMPDEST PUSH1 0x0 DUP2 GT PUSH2 0x2BFE JUMPI PUSH1 0x40 MLOAD PUSH3 0x461BCD PUSH1 0xE5 SHL DUP2 MSTORE PUSH1 0x4 ADD PUSH2 0x4B2 SWAP1 PUSH2 0x52BB JUMP JUMPDEST PUSH1 0x4 DUP2 SWAP1 SSTORE PUSH1 0x40 DUP1 MLOAD DUP2 DUP2 MSTORE PUSH1 0x13 SWAP2 DUP2 ADD SWAP2 SWAP1 SWAP2 MSTORE PUSH19 0x1B585C9AD95D13DC99195C9CD51A5B595BDD5D PUSH1 0x6A SHL PUSH1 0x60 DUP3 ADD MSTORE PUSH1 0x20 DUP2 ADD DUP3 SWAP1 MSTORE PUSH32 0x8CF3E35F6221B16E1670A3413180C9484BF5AA71787905909FA82A6A2662E9AB SWAP1 PUSH1 0x80 ADD PUSH2 0xD2C JUMP JUMPDEST ORIGIN CALLER EQ PUSH2 0x2C6C JUMPI PUSH1 0x0 DUP1 REVERT JUMPDEST PUSH1 0x5 SLOAD PUSH2 0x100 SWAP1 DIV PUSH1 0xFF AND ISZERO PUSH2 0x2C94 JUMPI PUSH1 0x40 MLOAD PUSH3 0x461BCD PUSH1 0xE5 SHL DUP2 MSTORE PUSH1 0x4 ADD PUSH2 0x4B2 SWAP1 PUSH2 0x4E55 JUMP JUMPDEST PUSH1 0x0 PUSH2 0x2C9E PUSH2 0x456 JUMP JUMPDEST SWAP1 POP PUSH1 0x1 DUP3 LT ISZERO DUP1 ISZERO PUSH2 0x2CB2 JUMPI POP PUSH1 0x5 DUP3 GT ISZERO JUMPDEST PUSH2 0x2CEF JUMPI PUSH1 0x40 MLOAD PUSH3 0x461BCD PUSH1 0xE5 SHL DUP2 MSTORE PUSH1 0x20 PUSH1 0x4 DUP3 ADD MSTORE PUSH1 0xE PUSH1 0x24 DUP3 ADD MSTORE PUSH14 0x57524F4E475F4E46545F54595045 PUSH1 0x90 SHL PUSH1 0x44 DUP3 ADD MSTORE PUSH1 0x64 ADD PUSH2 0x4B2 JUMP JUMPDEST PUSH1 0x1 PUSH1 0x1 PUSH1 0xA0 SHL SUB DUP1 DUP3 AND SWAP1 PUSH32 0x0 AND PUSH4 0x265AA621 PUSH2 0x2D2D PUSH1 0x1 DUP7 PUSH2 0x4FB2 JUMP JUMPDEST PUSH1 0x40 MLOAD DUP3 PUSH4 0xFFFFFFFF AND PUSH1 0xE0 SHL DUP2 MSTORE PUSH1 0x4 ADD PUSH2 0x2D4B SWAP2 DUP2 MSTORE PUSH1 0x20 ADD SWAP1 JUMP JUMPDEST PUSH1 0x20 PUSH1 0x40 MLOAD DUP1 DUP4 SUB DUP2 DUP7 GAS STATICCALL ISZERO DUP1 ISZERO PUSH2 0x2D68 JUMPI RETURNDATASIZE PUSH1 0x0 DUP1 RETURNDATACOPY RETURNDATASIZE PUSH1 0x0 REVERT JUMPDEST POP POP POP POP PUSH1 0x40 MLOAD RETURNDATASIZE PUSH1 0x1F NOT PUSH1 0x1F DUP3 ADD AND DUP3 ADD DUP1 PUSH1 0x40 MSTORE POP DUP2 ADD SWAP1 PUSH2 0x2D8C SWAP2 SWAP1 PUSH2 0x5091 JUMP JUMPDEST PUSH1 0x1 PUSH1 0x1 PUSH1 0xA0 SHL SUB AND PUSH4 0x6352211E DUP6 PUSH1 0x40 MLOAD DUP3 PUSH4 0xFFFFFFFF AND PUSH1 0xE0 SHL DUP2 MSTORE PUSH1 0x4 ADD PUSH2 0x2DB9 SWAP2 DUP2 MSTORE PUSH1 0x20 ADD SWAP1 JUMP JUMPDEST PUSH1 0x20 PUSH1 0x40 MLOAD DUP1 DUP4 SUB DUP2 DUP7 GAS STATICCALL ISZERO DUP1 ISZERO PUSH2 0x2DD6 JUMPI RETURNDATASIZE PUSH1 0x0 DUP1 RETURNDATACOPY RETURNDATASIZE PUSH1 0x0 REVERT JUMPDEST POP POP POP POP PUSH1 0x40 MLOAD RETURNDATASIZE PUSH1 0x1F NOT PUSH1 0x1F DUP3 ADD AND DUP3 ADD DUP1 PUSH1 0x40 MSTORE POP DUP2 ADD SWAP1 PUSH2 0x2DFA SWAP2 SWAP1 PUSH2 0x5091 JUMP JUMPDEST PUSH1 0x1 PUSH1 0x1 PUSH1 0xA0 SHL SUB AND EQ PUSH2 0x2E39 JUMPI PUSH1 0x40 MLOAD PUSH3 0x461BCD PUSH1 0xE5 SHL DUP2 MSTORE PUSH1 0x20 PUSH1 0x4 DUP3 ADD MSTORE PUSH1 0x6 PUSH1 0x24 DUP3 ADD MSTORE PUSH6 0x1393D7D39195 PUSH1 0xD2 SHL PUSH1 0x44 DUP3 ADD MSTORE PUSH1 0x64 ADD PUSH2 0x4B2 JUMP JUMPDEST PUSH32 0x0 PUSH1 0x1 PUSH1 0x1 PUSH1 0xA0 SHL SUB AND PUSH4 0xF8D24B48 PUSH1 0x40 MLOAD DUP2 PUSH4 0xFFFFFFFF AND PUSH1 0xE0 SHL DUP2 MSTORE PUSH1 0x4 ADD PUSH1 0x20 PUSH1 0x40 MLOAD DUP1 DUP4 SUB DUP2 DUP7 GAS STATICCALL ISZERO DUP1 ISZERO PUSH2 0x2E97 JUMPI RETURNDATASIZE PUSH1 0x0 DUP1 RETURNDATACOPY RETURNDATASIZE PUSH1 0x0 REVERT JUMPDEST POP POP POP POP PUSH1 0x40 MLOAD RETURNDATASIZE PUSH1 0x1F NOT PUSH1 0x1F DUP3 ADD AND DUP3 ADD DUP1 PUSH1 0x40 MSTORE POP DUP2 ADD SWAP1 PUSH2 0x2EBB SWAP2 SWAP1 PUSH2 0x53B5 JUMP JUMPDEST PUSH1 0x40 MLOAD PUSH4 0xAA3B7D77 PUSH1 0xE0 SHL DUP2 MSTORE PUSH1 0x4 DUP2 ADD DUP6 SWAP1 MSTORE PUSH32 0x0 PUSH1 0x1 PUSH1 0x1 PUSH1 0xA0 SHL SUB AND SWAP1 PUSH4 0xAA3B7D77 SWAP1 PUSH1 0x24 ADD PUSH1 0x20 PUSH1 0x40 MLOAD DUP1 DUP4 SUB DUP2 DUP7 GAS STATICCALL ISZERO DUP1 ISZERO PUSH2 0x2F20 JUMPI RETURNDATASIZE PUSH1 0x0 DUP1 RETURNDATACOPY RETURNDATASIZE PUSH1 0x0 REVERT JUMPDEST POP POP POP POP PUSH1 0x40 MLOAD RETURNDATASIZE PUSH1 0x1F NOT PUSH1 0x1F DUP3 ADD AND DUP3 ADD DUP1 PUSH1 0x40 MSTORE POP DUP2 ADD SWAP1 PUSH2 0x2F44 SWAP2 SWAP1 PUSH2 0x53B5 JUMP JUMPDEST PUSH2 0x2F4E SWAP2 SWAP1 PUSH2 0x51E6 JUMP JUMPDEST NUMBER LT ISZERO PUSH2 0x2F90 JUMPI PUSH1 0x40 MLOAD PUSH3 0x461BCD PUSH1 0xE5 SHL DUP2 MSTORE PUSH1 0x20 PUSH1 0x4 DUP3 ADD MSTORE PUSH1 0x10 PUSH1 0x24 DUP3 ADD MSTORE PUSH16 0x535543434553535F54494D454C4F434B PUSH1 0x80 SHL PUSH1 0x44 DUP3 ADD MSTORE PUSH1 0x64 ADD PUSH2 0x4B2 JUMP JUMPDEST PUSH2 0x2FF1 PUSH1 0x40 MLOAD DUP1 PUSH2 0x140 ADD PUSH1 0x40 MSTORE DUP1 PUSH1 0x0 PUSH1 0x1 PUSH1 0x1 PUSH1 0xA0 SHL SUB AND DUP2 MSTORE PUSH1 0x20 ADD PUSH1 0x0 DUP2 MSTORE PUSH1 0x20 ADD PUSH1 0x0 DUP2 MSTORE PUSH1 0x20 ADD PUSH1 0x0 DUP2 MSTORE PUSH1 0x20 ADD PUSH1 0x0 DUP2 MSTORE PUSH1 0x20 ADD PUSH1 0x0 DUP2 MSTORE PUSH1 0x20 ADD PUSH1 0x0 ISZERO ISZERO DUP2 MSTORE PUSH1 0x20 ADD PUSH1 0x0 DUP2 MSTORE PUSH1 0x20 ADD PUSH1 0x0 DUP2 MSTORE PUSH1 0x20 ADD PUSH1 0x0 DUP2 MSTORE POP SWAP1 JUMP JUMPDEST PUSH1 0x3 DUP9 PUSH1 0x3 DUP2 GT ISZERO PUSH2 0x3005 JUMPI PUSH2 0x3005 PUSH2 0x5411 JUMP JUMPDEST SUB PUSH2 0x30BC JUMPI PUSH1 0x40 MLOAD PUSH4 0x6E6F99CD PUSH1 0xE1 SHL DUP2 MSTORE PUSH1 0x1 PUSH1 0x1 PUSH1 0xA0 SHL SUB PUSH32 0x0 AND SWAP1 PUSH4 0xDCDF339A SWAP1 PUSH2 0x305A SWAP1 DUP11 SWAP1 DUP11 SWAP1 DUP11 SWAP1 PUSH1 0x4 ADD PUSH2 0x4E73 JUMP JUMPDEST PUSH1 0x20 PUSH1 0x40 MLOAD DUP1 DUP4 SUB DUP2 DUP7 GAS STATICCALL ISZERO DUP1 ISZERO PUSH2 0x3077 JUMPI RETURNDATASIZE PUSH1 0x0 DUP1 RETURNDATACOPY RETURNDATASIZE PUSH1 0x0 REVERT JUMPDEST POP POP POP POP PUSH1 0x40 MLOAD RETURNDATASIZE PUSH1 0x1F NOT PUSH1 0x1F DUP3 ADD AND DUP3 ADD DUP1 PUSH1 0x40 MSTORE POP DUP2 ADD SWAP1 PUSH2 0x309B SWAP2 SWAP1 PUSH2 0x4E9F JUMP JUMPDEST PUSH2 0x30B7 JUMPI PUSH1 0x40 MLOAD PUSH3 0x461BCD PUSH1 0xE5 SHL DUP2 MSTORE PUSH1 0x4 ADD PUSH2 0x4B2 SWAP1 PUSH2 0x4EBC JUMP JUMPDEST PUSH2 0x32B7 JUMP JUMPDEST PUSH1 0x40 MLOAD PUSH4 0x51D407FF PUSH1 0xE1 SHL DUP2 MSTORE PUSH1 0x1 PUSH1 0x1 PUSH1 0xA0 SHL SUB PUSH32 0x0 AND SWAP1 PUSH4 0xA3A80FFE SWAP1 PUSH2 0x310C SWAP1 DUP11 SWAP1 DUP11 SWAP1 DUP11 SWAP1 PUSH1 0x4 ADD PUSH2 0x4E73 JUMP JUMPDEST PUSH2 0x140 PUSH1 0x40 MLOAD DUP1 DUP4 SUB DUP2 DUP7 GAS STATICCALL ISZERO DUP1 ISZERO PUSH2 0x312A JUMPI RETURNDATASIZE PUSH1 0x0 DUP1 RETURNDATACOPY RETURNDATASIZE PUSH1 0x0 REVERT JUMPDEST POP POP POP POP PUSH1 0x40 MLOAD RETURNDATASIZE PUSH1 0x1F NOT PUSH1 0x1F DUP3 ADD AND DUP3 ADD DUP1 PUSH1 0x40 MSTORE POP DUP2 ADD SWAP1 PUSH2 0x314E SWAP2 SWAP1 PUSH2 0x54B3 JUMP JUMPDEST SWAP1 POP PUSH1 0x0 DUP2 PUSH1 0xE0 ADD MLOAD GT PUSH2 0x3174 JUMPI PUSH1 0x40 MLOAD PUSH3 0x461BCD PUSH1 0xE5 SHL DUP2 MSTORE PUSH1 0x4 ADD PUSH2 0x4B2 SWAP1 PUSH2 0x5550 JUMP JUMPDEST PUSH1 0x2 DUP9 PUSH1 0x3 DUP2 GT ISZERO PUSH2 0x3188 JUMPI PUSH2 0x3188 PUSH2 0x5411 JUMP JUMPDEST SUB PUSH2 0x3203 JUMPI PUSH1 0x0 PUSH2 0x3198 DUP3 PUSH2 0x4901 JUMP JUMPDEST SWAP1 POP DUP2 PUSH2 0x120 ADD MLOAD PUSH1 0x0 EQ DUP1 PUSH2 0x31C8 JUMPI POP DUP2 PUSH1 0xC0 ADD MLOAD PUSH2 0x31BF JUMPI DUP2 PUSH2 0x120 ADD MLOAD DUP2 LT PUSH2 0x31C8 JUMP JUMPDEST DUP2 PUSH2 0x120 ADD MLOAD DUP2 GT JUMPDEST PUSH2 0x31FD JUMPI PUSH1 0x40 MLOAD PUSH3 0x461BCD PUSH1 0xE5 SHL DUP2 MSTORE PUSH1 0x20 PUSH1 0x4 DUP3 ADD MSTORE PUSH1 0x6 PUSH1 0x24 DUP3 ADD MSTORE PUSH6 0x121054D7D4D3 PUSH1 0xD2 SHL PUSH1 0x44 DUP3 ADD MSTORE PUSH1 0x64 ADD PUSH2 0x4B2 JUMP JUMPDEST POP PUSH2 0x32B7 JUMP JUMPDEST PUSH1 0x1 DUP9 PUSH1 0x3 DUP2 GT ISZERO PUSH2 0x3217 JUMPI PUSH2 0x3217 PUSH2 0x5411 JUMP JUMPDEST EQ ISZERO DUP1 PUSH2 0x3229 JUMPI POP PUSH1 0x0 DUP2 PUSH2 0x120 ADD MLOAD GT JUMPDEST PUSH2 0x325D JUMPI PUSH1 0x40 MLOAD PUSH3 0x461BCD PUSH1 0xE5 SHL DUP2 MSTORE PUSH1 0x20 PUSH1 0x4 DUP3 ADD MSTORE PUSH1 0x5 PUSH1 0x24 DUP3 ADD MSTORE PUSH5 0x1393D7D4D3 PUSH1 0xDA SHL PUSH1 0x44 DUP3 ADD MSTORE PUSH1 0x64 ADD PUSH2 0x4B2 JUMP JUMPDEST PUSH1 0x0 DUP9 PUSH1 0x3 DUP2 GT ISZERO PUSH2 0x3271 JUMPI PUSH2 0x3271 PUSH2 0x5411 JUMP JUMPDEST EQ ISZERO DUP1 PUSH2 0x3283 JUMPI POP PUSH1 0x0 DUP2 PUSH2 0x100 ADD MLOAD GT JUMPDEST PUSH2 0x32B7 JUMPI PUSH1 0x40 MLOAD PUSH3 0x461BCD PUSH1 0xE5 SHL DUP2 MSTORE PUSH1 0x20 PUSH1 0x4 DUP3 ADD MSTORE PUSH1 0x5 PUSH1 0x24 DUP3 ADD MSTORE PUSH5 0x4E4F5F545 PUSH1 0xDC SHL PUSH1 0x44 DUP3 ADD MSTORE PUSH1 0x64 ADD PUSH2 0x4B2 JUMP JUMPDEST PUSH1 0x0 PUSH1 0x40 MLOAD DUP1 PUSH1 0x80 ADD PUSH1 0x40 MSTORE DUP1 DUP10 PUSH1 0x1 PUSH1 0x1 PUSH1 0xA0 SHL SUB AND DUP2 MSTORE PUSH1 0x20 ADD DUP9 DUP2 MSTORE PUSH1 0x20 ADD DUP8 DUP2 MSTORE PUSH1 0x20 ADD DUP11 PUSH1 0x3 DUP2 GT ISZERO PUSH2 0x32F1 JUMPI PUSH2 0x32F1 PUSH2 0x5411 JUMP JUMPDEST SWAP1 MSTORE PUSH1 0x40 MLOAD PUSH4 0x108C3D49 PUSH1 0xE1 SHL DUP2 MSTORE SWAP1 SWAP2 POP PUSH1 0x1 PUSH1 0x1 PUSH1 0xA0 SHL SUB PUSH32 0x0 AND SWAP1 PUSH4 0x21187A92 SWAP1 PUSH2 0x3342 SWAP1 DUP5 SWAP1 PUSH1 0x4 ADD PUSH2 0x55DF JUMP JUMPDEST PUSH1 0x20 PUSH1 0x40 MLOAD DUP1 DUP4 SUB DUP2 DUP7 GAS STATICCALL ISZERO DUP1 ISZERO PUSH2 0x335F JUMPI RETURNDATASIZE PUSH1 0x0 DUP1 RETURNDATACOPY RETURNDATASIZE PUSH1 0x0 REVERT JUMPDEST POP POP POP POP PUSH1 0x40 MLOAD RETURNDATASIZE PUSH1 0x1F NOT PUSH1 0x1F DUP3 ADD AND DUP3 ADD DUP1 PUSH1 0x40 MSTORE POP DUP2 ADD SWAP1 PUSH2 0x3383 SWAP2 SWAP1 PUSH2 0x4E9F JUMP JUMPDEST ISZERO DUP1 PUSH2 0x3417 JUMPI POP PUSH1 0x40 MLOAD PUSH4 0x3F1B72BF PUSH1 0xE2 SHL DUP2 MSTORE PUSH1 0x1 PUSH1 0x1 PUSH1 0xA0 SHL SUB PUSH32 0x0 AND SWAP1 PUSH4 0xFC6DCAFC SWAP1 PUSH2 0x33D6 SWAP1 DUP5 SWAP1 PUSH1 0x4 ADD PUSH2 0x55DF JUMP JUMPDEST PUSH1 0x20 PUSH1 0x40 MLOAD DUP1 DUP4 SUB DUP2 DUP7 GAS STATICCALL ISZERO DUP1 ISZERO PUSH2 0x33F3 JUMPI RETURNDATASIZE PUSH1 0x0 DUP1 RETURNDATACOPY RETURNDATASIZE PUSH1 0x0 REVERT JUMPDEST POP POP POP POP PUSH1 0x40 MLOAD RETURNDATASIZE PUSH1 0x1F NOT PUSH1 0x1F DUP3 ADD AND DUP3 ADD DUP1 PUSH1 0x40 MSTORE POP DUP2 ADD SWAP1 PUSH2 0x3417 SWAP2 SWAP1 PUSH2 0x4E9F JUMP JUMPDEST ISZERO PUSH2 0x3A78 JUMPI PUSH1 0x0 PUSH1 0x3 DUP11 PUSH1 0x3 DUP2 GT ISZERO PUSH2 0x3432 JUMPI PUSH2 0x3432 PUSH2 0x5411 JUMP JUMPDEST SUB PUSH2 0x3672 JUMPI PUSH1 0x40 MLOAD PUSH4 0x2E21E28B PUSH1 0xE2 SHL DUP2 MSTORE PUSH1 0x0 SWAP1 PUSH1 0x1 PUSH1 0x1 PUSH1 0xA0 SHL SUB PUSH32 0x0 AND SWAP1 PUSH4 0xB8878A2C SWAP1 PUSH2 0x348A SWAP1 DUP14 SWAP1 DUP14 SWAP1 DUP14 SWAP1 PUSH1 0x4 ADD PUSH2 0x4E73 JUMP JUMPDEST PUSH2 0x1A0 PUSH1 0x40 MLOAD DUP1 DUP4 SUB DUP2 DUP7 GAS STATICCALL ISZERO DUP1 ISZERO PUSH2 0x34A8 JUMPI RETURNDATASIZE PUSH1 0x0 DUP1 RETURNDATACOPY RETURNDATASIZE PUSH1 0x0 REVERT JUMPDEST POP POP POP POP PUSH1 0x40 MLOAD RETURNDATASIZE PUSH1 0x1F NOT PUSH1 0x1F DUP3 ADD AND DUP3 ADD DUP1 PUSH1 0x40 MSTORE POP DUP2 ADD SWAP1 PUSH2 0x34CC SWAP2 SWAP1 PUSH2 0x4EE9 JUMP JUMPDEST SWAP1 POP DUP1 PUSH1 0xC0 ADD MLOAD DUP2 PUSH1 0x60 ADD MLOAD PUSH2 0x34E2 SWAP2 SWAP1 PUSH2 0x53CE JUMP JUMPDEST PUSH1 0x20 DUP3 ADD MLOAD PUSH1 0xA0 DUP4 ADD MLOAD PUSH1 0x40 MLOAD PUSH4 0x3F54AF99 PUSH1 0xE1 SHL DUP2 MSTORE PUSH1 0x0 PUSH1 0x4 DUP3 ADD DUP2 SWAP1 MSTORE PUSH1 0x24 DUP3 ADD SWAP4 SWAP1 SWAP4 MSTORE SWAP1 ISZERO ISZERO PUSH1 0x44 DUP3 ADD MSTORE PUSH1 0x64 DUP2 ADD DUP4 SWAP1 MSTORE SWAP2 SWAP4 POP SWAP1 PUSH1 0x1 PUSH1 0x1 PUSH1 0xA0 SHL SUB PUSH32 0x0 AND SWAP1 PUSH4 0x7EA95F32 SWAP1 PUSH1 0x84 ADD PUSH1 0x40 DUP1 MLOAD DUP1 DUP4 SUB DUP2 DUP7 GAS STATICCALL ISZERO DUP1 ISZERO PUSH2 0x356D JUMPI RETURNDATASIZE PUSH1 0x0 DUP1 RETURNDATACOPY RETURNDATASIZE PUSH1 0x0 REVERT JUMPDEST POP POP POP POP PUSH1 0x40 MLOAD RETURNDATASIZE PUSH1 0x1F NOT PUSH1 0x1F DUP3 ADD AND DUP3 ADD DUP1 PUSH1 0x40 MSTORE POP DUP2 ADD SWAP1 PUSH2 0x3591 SWAP2 SWAP1 PUSH2 0x53ED JUMP JUMPDEST POP SWAP1 POP PUSH32 0x0 PUSH1 0x1 PUSH1 0x1 PUSH1 0xA0 SHL SUB AND PUSH4 0x80F6CFC2 PUSH1 0x40 MLOAD DUP2 PUSH4 0xFFFFFFFF AND PUSH1 0xE0 SHL DUP2 MSTORE PUSH1 0x4 ADD PUSH1 0x20 PUSH1 0x40 MLOAD DUP1 DUP4 SUB DUP2 DUP7 GAS STATICCALL ISZERO DUP1 ISZERO PUSH2 0x35F2 JUMPI RETURNDATASIZE PUSH1 0x0 DUP1 RETURNDATACOPY RETURNDATASIZE PUSH1 0x0 REVERT JUMPDEST POP POP POP POP PUSH1 0x40 MLOAD RETURNDATASIZE PUSH1 0x1F NOT PUSH1 0x1F DUP3 ADD AND DUP3 ADD DUP1 PUSH1 0x40 MSTORE POP DUP2 ADD SWAP1 PUSH2 0x3616 SWAP2 SWAP1 PUSH2 0x53B5 JUMP JUMPDEST PUSH1 0xC0 DUP4 ADD MLOAD PUSH2 0x3625 SWAP1 DUP4 PUSH2 0x53CE JUMP JUMPDEST GT ISZERO PUSH2 0x366B JUMPI PUSH1 0x40 MLOAD PUSH3 0x461BCD PUSH1 0xE5 SHL DUP2 MSTORE PUSH1 0x20 PUSH1 0x4 DUP3 ADD MSTORE PUSH1 0x15 PUSH1 0x24 DUP3 ADD MSTORE PUSH21 0xA0A492868ABE929AA08286A8BEA89E9EBE90928E9 PUSH1 0x5B SHL PUSH1 0x44 DUP3 ADD MSTORE PUSH1 0x64 ADD PUSH2 0x4B2 JUMP JUMPDEST POP POP PUSH2 0x3738 JUMP JUMPDEST PUSH5 0x2540BE400 DUP4 PUSH1 0xE0 ADD MLOAD PUSH32 0x0 PUSH1 0x1 PUSH1 0x1 PUSH1 0xA0 SHL SUB AND PUSH4 0x8C8FF1D5 DUP13 DUP13 DUP13 PUSH1 0x40 MLOAD DUP5 PUSH4 0xFFFFFFFF AND PUSH1 0xE0 SHL DUP2 MSTORE PUSH1 0x4 ADD PUSH2 0x36CD SWAP4 SWAP3 SWAP2 SWAP1 PUSH2 0x4E73 JUMP JUMPDEST PUSH1 0xC0 PUSH1 0x40 MLOAD DUP1 DUP4 SUB DUP2 DUP7 GAS STATICCALL ISZERO DUP1 ISZERO PUSH2 0x36EA JUMPI RETURNDATASIZE PUSH1 0x0 DUP1 RETURNDATACOPY RETURNDATASIZE PUSH1 0x0 REVERT JUMPDEST POP POP POP POP PUSH1 0x40 MLOAD RETURNDATASIZE PUSH1 0x1F NOT PUSH1 0x1F DUP3 ADD AND DUP3 ADD DUP1 PUSH1 0x40 MSTORE POP DUP2 ADD SWAP1 PUSH2 0x370E SWAP2 SWAP1 PUSH2 0x54D0 JUMP JUMPDEST PUSH1 0x20 ADD MLOAD DUP6 PUSH1 0x60 ADD MLOAD PUSH2 0x3721 SWAP2 SWAP1 PUSH2 0x53CE JUMP JUMPDEST PUSH2 0x372B SWAP2 SWAP1 PUSH2 0x53CE JUMP JUMPDEST PUSH2 0x3735 SWAP2 SWAP1 PUSH2 0x5572 JUMP JUMPDEST SWAP1 POP JUMPDEST PUSH1 0x40 MLOAD PUSH4 0x33485403 PUSH1 0xE1 SHL DUP2 MSTORE PUSH1 0x1 PUSH1 0x1 PUSH1 0xA0 SHL SUB PUSH32 0x0 AND SWAP1 PUSH4 0x6690A806 SWAP1 PUSH2 0x3788 SWAP1 DUP8 SWAP1 DUP13 SWAP1 DUP7 SWAP1 PUSH1 0x4 ADD PUSH2 0x4E73 JUMP JUMPDEST PUSH1 0x0 PUSH1 0x40 MLOAD DUP1 DUP4 SUB DUP2 PUSH1 0x0 DUP8 DUP1 EXTCODESIZE ISZERO DUP1 ISZERO PUSH2 0x37A2 JUMPI PUSH1 0x0 DUP1 REVERT JUMPDEST POP GAS CALL ISZERO DUP1 ISZERO PUSH2 0x37B6 JUMPI RETURNDATASIZE PUSH1 0x0 DUP1 RETURNDATACOPY RETURNDATASIZE PUSH1 0x0 REVERT JUMPDEST POP POP POP POP PUSH1 0x0 PUSH32 0x0 PUSH1 0x1 PUSH1 0x1 PUSH1 0xA0 SHL SUB AND PUSH4 0x3078FFF5 PUSH1 0x40 MLOAD DUP2 PUSH4 0xFFFFFFFF AND PUSH1 0xE0 SHL DUP2 MSTORE PUSH1 0x4 ADD PUSH1 0x20 PUSH1 0x40 MLOAD DUP1 DUP4 SUB DUP2 DUP7 GAS STATICCALL ISZERO DUP1 ISZERO PUSH2 0x381A JUMPI RETURNDATASIZE PUSH1 0x0 DUP1 RETURNDATACOPY RETURNDATASIZE PUSH1 0x0 REVERT JUMPDEST POP POP POP POP PUSH1 0x40 MLOAD RETURNDATASIZE PUSH1 0x1F NOT PUSH1 0x1F DUP3 ADD AND DUP3 ADD DUP1 PUSH1 0x40 MSTORE POP DUP2 ADD SWAP1 PUSH2 0x383E SWAP2 SWAP1 PUSH2 0x5091 JUMP JUMPDEST PUSH1 0x1 PUSH1 0x1 PUSH1 0xA0 SHL SUB AND PUSH4 0xFA8DD498 DUP11 PUSH1 0x3 DUP15 PUSH1 0x3 DUP2 GT ISZERO PUSH2 0x3861 JUMPI PUSH2 0x3861 PUSH2 0x5411 JUMP JUMPDEST EQ PUSH2 0x386D JUMPI PUSH1 0x3 PUSH2 0x3870 JUMP JUMPDEST PUSH1 0x2 JUMPDEST DUP6 PUSH1 0x40 MLOAD DUP5 PUSH4 0xFFFFFFFF AND PUSH1 0xE0 SHL DUP2 MSTORE PUSH1 0x4 ADD PUSH2 0x388F SWAP4 SWAP3 SWAP2 SWAP1 PUSH2 0x5464 JUMP JUMPDEST PUSH1 0x20 PUSH1 0x40 MLOAD DUP1 DUP4 SUB DUP2 PUSH1 0x0 DUP8 GAS CALL ISZERO DUP1 ISZERO PUSH2 0x38AE JUMPI RETURNDATASIZE PUSH1 0x0 DUP1 RETURNDATACOPY RETURNDATASIZE PUSH1 0x0 REVERT JUMPDEST POP POP POP POP PUSH1 0x40 MLOAD RETURNDATASIZE PUSH1 0x1F NOT PUSH1 0x1F DUP3 ADD AND DUP3 ADD DUP1 PUSH1 0x40 MSTORE POP DUP2 ADD SWAP1 PUSH2 0x38D2 SWAP2 SWAP1 PUSH2 0x53B5 JUMP JUMPDEST SWAP1 POP PUSH32 0x0 PUSH1 0x1 PUSH1 0x1 PUSH1 0xA0 SHL SUB AND PUSH4 0x817FA1A4 PUSH1 0x40 MLOAD DUP1 PUSH1 0xC0 ADD PUSH1 0x40 MSTORE DUP1 DUP9 PUSH1 0x1 PUSH1 0x1 PUSH1 0xA0 SHL SUB AND DUP2 MSTORE PUSH1 0x20 ADD DUP11 DUP2 MSTORE PUSH1 0x20 ADD DUP14 PUSH1 0x1 PUSH1 0x1 PUSH1 0xA0 SHL SUB AND DUP2 MSTORE PUSH1 0x20 ADD DUP13 DUP2 MSTORE PUSH1 0x20 ADD DUP12 DUP2 MSTORE PUSH1 0x20 ADD DUP15 PUSH1 0x3 DUP2 GT ISZERO PUSH2 0x3950 JUMPI PUSH2 0x3950 PUSH2 0x5411 JUMP JUMPDEST DUP2 MSTORE POP DUP4 PUSH1 0x40 MLOAD DUP4 PUSH4 0xFFFFFFFF AND PUSH1 0xE0 SHL DUP2 MSTORE PUSH1 0x4 ADD PUSH2 0x3971 SWAP3 SWAP2 SWAP1 PUSH2 0x55ED JUMP JUMPDEST PUSH1 0x0 PUSH1 0x40 MLOAD DUP1 DUP4 SUB DUP2 PUSH1 0x0 DUP8 DUP1 EXTCODESIZE ISZERO DUP1 ISZERO PUSH2 0x398B JUMPI PUSH1 0x0 DUP1 REVERT JUMPDEST POP GAS CALL ISZERO DUP1 ISZERO PUSH2 0x399F JUMPI RETURNDATASIZE PUSH1 0x0 DUP1 RETURNDATACOPY RETURNDATASIZE PUSH1 0x0 REVERT JUMPDEST POP POP PUSH1 0x40 MLOAD PUSH4 0x308F221B PUSH1 0xE2 SHL DUP2 MSTORE PUSH1 0x1 PUSH1 0x1 PUSH1 0xA0 SHL SUB PUSH32 0x0 AND SWAP3 POP PUSH4 0xC23C886C SWAP2 POP PUSH2 0x39F1 SWAP1 DUP7 SWAP1 DUP10 SWAP1 PUSH1 0x4 ADD PUSH2 0x564D JUMP JUMPDEST PUSH1 0x0 PUSH1 0x40 MLOAD DUP1 DUP4 SUB DUP2 PUSH1 0x0 DUP8 DUP1 EXTCODESIZE ISZERO DUP1 ISZERO PUSH2 0x3A0B JUMPI PUSH1 0x0 DUP1 REVERT JUMPDEST POP GAS CALL ISZERO DUP1 ISZERO PUSH2 0x3A1F JUMPI RETURNDATASIZE PUSH1 0x0 DUP1 RETURNDATACOPY RETURNDATASIZE PUSH1 0x0 REVERT JUMPDEST POP POP POP POP DUP9 DUP11 PUSH1 0x1 PUSH1 0x1 PUSH1 0xA0 SHL SUB AND DUP7 PUSH1 0x1 PUSH1 0x1 PUSH1 0xA0 SHL SUB AND PUSH32 0x6D87222414C5850CAF1D385B1E080A771B505825B082A2162D0F4AF5FFC86C00 DUP5 PUSH1 0x40 MLOAD PUSH2 0x3A69 SWAP2 DUP2 MSTORE PUSH1 0x20 ADD SWAP1 JUMP JUMPDEST PUSH1 0x40 MLOAD DUP1 SWAP2 SUB SWAP1 LOG4 POP POP PUSH2 0x3B3A JUMP JUMPDEST PUSH1 0x40 MLOAD PUSH4 0x46EA285B PUSH1 0xE0 SHL DUP2 MSTORE PUSH1 0x1 PUSH1 0x1 PUSH1 0xA0 SHL SUB PUSH32 0x0 AND SWAP1 PUSH4 0x46EA285B SWAP1 PUSH2 0x3AC6 SWAP1 DUP5 SWAP1 DUP8 SWAP1 PUSH1 0x4 ADD PUSH2 0x564D JUMP JUMPDEST PUSH1 0x0 PUSH1 0x40 MLOAD DUP1 DUP4 SUB DUP2 PUSH1 0x0 DUP8 DUP1 EXTCODESIZE ISZERO DUP1 ISZERO PUSH2 0x3AE0 JUMPI PUSH1 0x0 DUP1 REVERT JUMPDEST POP GAS CALL ISZERO DUP1 ISZERO PUSH2 0x3AF4 JUMPI RETURNDATASIZE PUSH1 0x0 DUP1 RETURNDATACOPY RETURNDATASIZE PUSH1 0x0 REVERT JUMPDEST POP POP POP POP DUP7 DUP9 PUSH1 0x1 PUSH1 0x1 PUSH1 0xA0 SHL SUB AND DUP5 PUSH1 0x1 PUSH1 0x1 PUSH1 0xA0 SHL SUB AND PUSH32 0xDE7DA272DC52E28C3B33C5C74B461DA89B05BD790D845E82DB2F69BBF08108E7 PUSH1 0x40 MLOAD PUSH1 0x40 MLOAD DUP1 SWAP2 SUB SWAP1 LOG4 JUMPDEST POP POP POP POP POP POP POP POP POP JUMP JUMPDEST ORIGIN CALLER EQ PUSH2 0x3B51 JUMPI PUSH1 0x0 DUP1 REVERT JUMPDEST PUSH1 0x5 SLOAD PUSH2 0x100 SWAP1 DIV PUSH1 0xFF AND ISZERO PUSH2 0x3B79 JUMPI PUSH1 0x40 MLOAD PUSH3 0x461BCD PUSH1 0xE5 SHL DUP2 MSTORE PUSH1 0x4 ADD PUSH2 0x4B2 SWAP1 PUSH2 0x4E55 JUMP JUMPDEST PUSH1 0x0 PUSH2 0x3B83 PUSH2 0x456 JUMP JUMPDEST PUSH1 0x40 MLOAD PUSH4 0x6E6F99CD PUSH1 0xE1 SHL DUP2 MSTORE SWAP1 SWAP2 POP PUSH1 0x1 PUSH1 0x1 PUSH1 0xA0 SHL SUB PUSH32 0x0 AND SWAP1 PUSH4 0xDCDF339A SWAP1 PUSH2 0x3BD6 SWAP1 DUP5 SWAP1 DUP8 SWAP1 DUP8 SWAP1 PUSH1 0x4 ADD PUSH2 0x4E73 JUMP JUMPDEST PUSH1 0x20 PUSH1 0x40 MLOAD DUP1 DUP4 SUB DUP2 DUP7 GAS STATICCALL ISZERO DUP1 ISZERO PUSH2 0x3BF3 JUMPI RETURNDATASIZE PUSH1 0x0 DUP1 RETURNDATACOPY RETURNDATASIZE PUSH1 0x0 REVERT JUMPDEST POP POP POP POP PUSH1 0x40 MLOAD RETURNDATASIZE PUSH1 0x1F NOT PUSH1 0x1F DUP3 ADD AND DUP3 ADD DUP1 PUSH1 0x40 MSTORE POP DUP2 ADD SWAP1 PUSH2 0x3C17 SWAP2 SWAP1 PUSH2 0x4E9F JUMP JUMPDEST PUSH2 0x3C33 JUMPI PUSH1 0x40 MLOAD PUSH3 0x461BCD PUSH1 0xE5 SHL DUP2 MSTORE PUSH1 0x4 ADD PUSH2 0x4B2 SWAP1 PUSH2 0x4EBC JUMP JUMPDEST PUSH1 0x40 MLOAD PUSH4 0x2E21E28B PUSH1 0xE2 SHL DUP2 MSTORE PUSH1 0x0 SWAP1 PUSH1 0x1 PUSH1 0x1 PUSH1 0xA0 SHL SUB PUSH32 0x0 AND SWAP1 PUSH4 0xB8878A2C SWAP1 PUSH2 0x3C86 SWAP1 DUP6 SWAP1 DUP9 SWAP1 DUP9 SWAP1 PUSH1 0x4 ADD PUSH2 0x4E73 JUMP JUMPDEST PUSH2 0x1A0 PUSH1 0x40 MLOAD DUP1 DUP4 SUB DUP2 DUP7 GAS STATICCALL ISZERO DUP1 ISZERO PUSH2 0x3CA4 JUMPI RETURNDATASIZE PUSH1 0x0 DUP1 RETURNDATACOPY RETURNDATASIZE PUSH1 0x0 REVERT JUMPDEST POP POP POP POP PUSH1 0x40 MLOAD RETURNDATASIZE PUSH1 0x1F NOT PUSH1 0x1F DUP3 ADD AND DUP3 ADD DUP1 PUSH1 0x40 MSTORE POP DUP2 ADD SWAP1 PUSH2 0x3CC8 SWAP2 SWAP1 PUSH2 0x4EE9 JUMP JUMPDEST SWAP1 POP PUSH1 0x3 SLOAD DUP2 PUSH2 0x160 ADD MLOAD NUMBER PUSH2 0x3CDE SWAP2 SWAP1 PUSH2 0x4FB2 JUMP JUMPDEST LT ISZERO PUSH2 0x3CFC JUMPI PUSH1 0x40 MLOAD PUSH3 0x461BCD PUSH1 0xE5 SHL DUP2 MSTORE PUSH1 0x4 ADD PUSH2 0x4B2 SWAP1 PUSH2 0x4FC9 JUMP JUMPDEST PUSH1 0x40 MLOAD PUSH4 0xB4B0F567 PUSH1 0xE0 SHL DUP2 MSTORE PUSH1 0x1 PUSH1 0x1 PUSH1 0xA0 SHL SUB PUSH32 0x0 AND SWAP1 PUSH4 0xB4B0F567 SWAP1 PUSH2 0x3D4C SWAP1 DUP6 SWAP1 DUP9 SWAP1 DUP9 SWAP1 PUSH1 0x4 ADD PUSH2 0x4E73 JUMP JUMPDEST PUSH1 0x0 PUSH1 0x40 MLOAD DUP1 DUP4 SUB DUP2 PUSH1 0x0 DUP8 DUP1 EXTCODESIZE ISZERO DUP1 ISZERO PUSH2 0x3D66 JUMPI PUSH1 0x0 DUP1 REVERT JUMPDEST POP GAS CALL ISZERO DUP1 ISZERO PUSH2 0x3D7A JUMPI RETURNDATASIZE PUSH1 0x0 DUP1 RETURNDATACOPY RETURNDATASIZE PUSH1 0x0 REVERT JUMPDEST POP POP POP POP PUSH1 0x60 DUP2 ADD MLOAD PUSH1 0x40 MLOAD PUSH4 0x373873DB PUSH1 0xE1 SHL DUP2 MSTORE PUSH1 0x1 PUSH1 0x1 PUSH1 0xA0 SHL SUB PUSH32 0x0 DUP2 AND PUSH1 0x4 DUP4 ADD DUP2 SWAP1 MSTORE SWAP1 DUP6 AND PUSH1 0x24 DUP4 ADD MSTORE PUSH1 0x44 DUP3 ADD SWAP3 SWAP1 SWAP3 MSTORE PUSH4 0x6E70E7B6 SWAP1 PUSH1 0x64 ADD PUSH1 0x0 PUSH1 0x40 MLOAD DUP1 DUP4 SUB DUP2 PUSH1 0x0 DUP8 DUP1 EXTCODESIZE ISZERO DUP1 ISZERO PUSH2 0x3DF5 JUMPI PUSH1 0x0 DUP1 REVERT JUMPDEST POP GAS CALL ISZERO DUP1 ISZERO PUSH2 0x3E09 JUMPI RETURNDATASIZE PUSH1 0x0 DUP1 RETURNDATACOPY RETURNDATASIZE PUSH1 0x0 REVERT JUMPDEST POP POP POP POP DUP4 DUP3 PUSH1 0x1 PUSH1 0x1 PUSH1 0xA0 SHL SUB AND PUSH32 0xF1B38881D7F4B2B12141C5F39C5124545D6112532EB6AFBE9630CDBDE3EE53E9 DUP6 PUSH1 0x40 MLOAD PUSH2 0x3E49 SWAP2 DUP2 MSTORE PUSH1 0x20 ADD SWAP1 JUMP JUMPDEST PUSH1 0x40 MLOAD DUP1 SWAP2 SUB SWAP1 LOG3 POP POP POP POP JUMP JUMPDEST ORIGIN CALLER EQ PUSH2 0x3E63 JUMPI PUSH1 0x0 DUP1 REVERT JUMPDEST PUSH1 0x5 SLOAD PUSH2 0x100 SWAP1 DIV PUSH1 0xFF AND ISZERO PUSH2 0x3E8B JUMPI PUSH1 0x40 MLOAD PUSH3 0x461BCD PUSH1 0xE5 SHL DUP2 MSTORE PUSH1 0x4 ADD PUSH2 0x4B2 SWAP1 PUSH2 0x4E55 JUMP JUMPDEST PUSH1 0x0 PUSH2 0x3E95 PUSH2 0x456 JUMP JUMPDEST SWAP1 POP PUSH1 0x0 PUSH32 0x0 PUSH1 0x1 PUSH1 0x1 PUSH1 0xA0 SHL SUB AND PUSH4 0xA3A80FFE DUP4 DUP8 DUP8 PUSH1 0x40 MLOAD DUP5 PUSH4 0xFFFFFFFF AND PUSH1 0xE0 SHL DUP2 MSTORE PUSH1 0x4 ADD PUSH2 0x3EE9 SWAP4 SWAP3 SWAP2 SWAP1 PUSH2 0x4E73 JUMP JUMPDEST PUSH2 0x140 PUSH1 0x40 MLOAD DUP1 DUP4 SUB DUP2 DUP7 GAS STATICCALL ISZERO DUP1 ISZERO PUSH2 0x3F07 JUMPI RETURNDATASIZE PUSH1 0x0 DUP1 RETURNDATACOPY RETURNDATASIZE PUSH1 0x0 REVERT JUMPDEST POP POP POP POP PUSH1 0x40 MLOAD RETURNDATASIZE PUSH1 0x1F NOT PUSH1 0x1F DUP3 ADD AND DUP3 ADD DUP1 PUSH1 0x40 MSTORE POP DUP2 ADD SWAP1 PUSH2 0x3F2B SWAP2 SWAP1 PUSH2 0x54B3 JUMP JUMPDEST SWAP1 POP PUSH1 0x0 PUSH32 0x0 PUSH1 0x1 PUSH1 0x1 PUSH1 0xA0 SHL SUB AND PUSH4 0x8C8FF1D5 DUP5 DUP9 DUP9 PUSH1 0x40 MLOAD DUP5 PUSH4 0xFFFFFFFF AND PUSH1 0xE0 SHL DUP2 MSTORE PUSH1 0x4 ADD PUSH2 0x3F7F SWAP4 SWAP3 SWAP2 SWAP1 PUSH2 0x4E73 JUMP JUMPDEST PUSH1 0xC0 PUSH1 0x40 MLOAD DUP1 DUP4 SUB DUP2 DUP7 GAS STATICCALL ISZERO DUP1 ISZERO PUSH2 0x3F9C JUMPI RETURNDATASIZE PUSH1 0x0 DUP1 RETURNDATACOPY RETURNDATASIZE PUSH1 0x0 REVERT JUMPDEST POP POP POP POP PUSH1 0x40 MLOAD RETURNDATASIZE PUSH1 0x1F NOT PUSH1 0x1F DUP3 ADD AND DUP3 ADD DUP1 PUSH1 0x40 MSTORE POP DUP2 ADD SWAP1 PUSH2 0x3FC0 SWAP2 SWAP1 PUSH2 0x54D0 JUMP JUMPDEST SWAP1 POP PUSH1 0x0 DUP3 PUSH1 0xE0 ADD MLOAD GT PUSH2 0x3FE6 JUMPI PUSH1 0x40 MLOAD PUSH3 0x461BCD PUSH1 0xE5 SHL DUP2 MSTORE PUSH1 0x4 ADD PUSH2 0x4B2 SWAP1 PUSH2 0x5550 JUMP JUMPDEST PUSH1 0x0 DUP3 PUSH1 0xE0 ADD MLOAD PUSH1 0x64 PUSH1 0x4B DUP6 PUSH1 0xA0 ADD MLOAD PUSH2 0x4000 SWAP2 SWAP1 PUSH2 0x53CE JUMP JUMPDEST PUSH2 0x400A SWAP2 SWAP1 PUSH2 0x5572 JUMP JUMPDEST PUSH2 0x4014 SWAP2 SWAP1 PUSH2 0x5572 JUMP JUMPDEST SWAP1 POP DUP5 ISZERO DUP1 PUSH2 0x4053 JUMPI POP DUP3 PUSH1 0xC0 ADD MLOAD PUSH2 0x403F JUMPI DUP1 DUP4 PUSH1 0xA0 ADD MLOAD PUSH2 0x4037 SWAP2 SWAP1 PUSH2 0x51E6 JUMP JUMPDEST DUP6 GT ISZERO PUSH2 0x4053 JUMP JUMPDEST DUP1 DUP4 PUSH1 0xA0 ADD MLOAD PUSH2 0x404F SWAP2 SWAP1 PUSH2 0x4FB2 JUMP JUMPDEST DUP6 LT ISZERO JUMPDEST PUSH2 0x408C JUMPI PUSH1 0x40 MLOAD PUSH3 0x461BCD PUSH1 0xE5 SHL DUP2 MSTORE PUSH1 0x20 PUSH1 0x4 DUP3 ADD MSTORE PUSH1 0xA PUSH1 0x24 DUP3 ADD MSTORE PUSH10 0x534C5F544F4F5F424947 PUSH1 0xB0 SHL PUSH1 0x44 DUP3 ADD MSTORE PUSH1 0x64 ADD PUSH2 0x4B2 JUMP JUMPDEST PUSH1 0x3 SLOAD PUSH1 0x80 DUP4 ADD MLOAD PUSH2 0x409E SWAP1 NUMBER PUSH2 0x4FB2 JUMP JUMPDEST LT ISZERO PUSH2 0x40BC JUMPI PUSH1 0x40 MLOAD PUSH3 0x461BCD PUSH1 0xE5 SHL DUP2 MSTORE PUSH1 0x4 ADD PUSH2 0x4B2 SWAP1 PUSH2 0x4FC9 JUMP JUMPDEST PUSH1 0x0 PUSH32 0x0 PUSH1 0x1 PUSH1 0x1 PUSH1 0xA0 SHL SUB AND PUSH4 0x3078FFF5 PUSH1 0x40 MLOAD DUP2 PUSH4 0xFFFFFFFF AND PUSH1 0xE0 SHL DUP2 MSTORE PUSH1 0x4 ADD PUSH1 0x20 PUSH1 0x40 MLOAD DUP1 DUP4 SUB DUP2 DUP7 GAS STATICCALL ISZERO DUP1 ISZERO PUSH2 0x411C JUMPI RETURNDATASIZE PUSH1 0x0 DUP1 RETURNDATACOPY RETURNDATASIZE PUSH1 0x0 REVERT JUMPDEST POP POP POP POP PUSH1 0x40 MLOAD RETURNDATASIZE PUSH1 0x1F NOT PUSH1 0x1F DUP3 ADD AND DUP3 ADD DUP1 PUSH1 0x40 MSTORE POP DUP2 ADD SWAP1 PUSH2 0x4140 SWAP2 SWAP1 PUSH2 0x5091 JUMP JUMPDEST SWAP1 POP DUP6 ISZERO DUP1 PUSH2 0x421C JUMPI POP DUP1 PUSH1 0x1 PUSH1 0x1 PUSH1 0xA0 SHL SUB AND PUSH4 0x35B03C17 PUSH1 0x40 MLOAD DUP2 PUSH4 0xFFFFFFFF AND PUSH1 0xE0 SHL DUP2 MSTORE PUSH1 0x4 ADD PUSH1 0x20 PUSH1 0x40 MLOAD DUP1 DUP4 SUB DUP2 DUP7 GAS STATICCALL ISZERO DUP1 ISZERO PUSH2 0x4188 JUMPI RETURNDATASIZE PUSH1 0x0 DUP1 RETURNDATACOPY RETURNDATASIZE PUSH1 0x0 REVERT JUMPDEST POP POP POP POP PUSH1 0x40 MLOAD RETURNDATASIZE PUSH1 0x1F NOT PUSH1 0x1F DUP3 ADD AND DUP3 ADD DUP1 PUSH1 0x40 MSTORE POP DUP2 ADD SWAP1 PUSH2 0x41AC SWAP2 SWAP1 PUSH2 0x5091 JUMP JUMPDEST PUSH1 0x1 PUSH1 0x1 PUSH1 0xA0 SHL SUB AND PUSH4 0x24ABD3FB DUP10 PUSH1 0x40 MLOAD DUP3 PUSH4 0xFFFFFFFF AND PUSH1 0xE0 SHL DUP2 MSTORE PUSH1 0x4 ADD PUSH2 0x41D9 SWAP2 DUP2 MSTORE PUSH1 0x20 ADD SWAP1 JUMP JUMPDEST PUSH1 0x20 PUSH1 0x40 MLOAD DUP1 DUP4 SUB DUP2 DUP7 GAS STATICCALL ISZERO DUP1 ISZERO PUSH2 0x41F6 JUMPI RETURNDATASIZE PUSH1 0x0 DUP1 RETURNDATACOPY RETURNDATASIZE PUSH1 0x0 REVERT JUMPDEST POP POP POP POP PUSH1 0x40 MLOAD RETURNDATASIZE PUSH1 0x1F NOT PUSH1 0x1F DUP3 ADD AND DUP3 ADD DUP1 PUSH1 0x40 MSTORE POP DUP2 ADD SWAP1 PUSH2 0x421A SWAP2 SWAP1 PUSH2 0x4E9F JUMP JUMPDEST ISZERO JUMPDEST ISZERO PUSH2 0x42FC JUMPI PUSH1 0x40 MLOAD PUSH4 0xA3544181 PUSH1 0xE0 SHL DUP2 MSTORE PUSH1 0x1 PUSH1 0x1 PUSH1 0xA0 SHL SUB DUP7 DUP2 AND PUSH1 0x4 DUP4 ADD MSTORE PUSH1 0x24 DUP3 ADD DUP11 SWAP1 MSTORE PUSH1 0x44 DUP3 ADD DUP10 SWAP1 MSTORE PUSH1 0x64 DUP3 ADD DUP9 SWAP1 MSTORE PUSH32 0x0 AND SWAP1 PUSH4 0xA3544181 SWAP1 PUSH1 0x84 ADD PUSH1 0x0 PUSH1 0x40 MLOAD DUP1 DUP4 SUB DUP2 PUSH1 0x0 DUP8 DUP1 EXTCODESIZE ISZERO DUP1 ISZERO PUSH2 0x4299 JUMPI PUSH1 0x0 DUP1 REVERT JUMPDEST POP GAS CALL ISZERO DUP1 ISZERO PUSH2 0x42AD JUMPI RETURNDATASIZE PUSH1 0x0 DUP1 RETURNDATACOPY RETURNDATASIZE PUSH1 0x0 REVERT JUMPDEST POP POP PUSH1 0x40 DUP1 MLOAD DUP11 DUP2 MSTORE PUSH1 0x20 DUP2 ADD DUP11 SWAP1 MSTORE DUP12 SWAP4 POP PUSH1 0x1 PUSH1 0x1 PUSH1 0xA0 SHL SUB DUP10 AND SWAP3 POP PUSH32 0x1FC4A6C7FFE506697979B8ED54DC4135CD1ECD26A2745F70B760A2492222B316 SWAP2 ADD PUSH1 0x40 MLOAD DUP1 SWAP2 SUB SWAP1 LOG3 PUSH2 0x44BA JUMP JUMPDEST PUSH1 0x0 DUP2 PUSH1 0x1 PUSH1 0x1 PUSH1 0xA0 SHL SUB AND PUSH4 0xFA8DD498 DUP11 PUSH1 0x4 PUSH5 0x2540BE400 DUP10 PUSH1 0xE0 ADD MLOAD DUP10 PUSH1 0x20 ADD MLOAD DUP12 PUSH1 0x60 ADD MLOAD PUSH2 0x432F SWAP2 SWAP1 PUSH2 0x53CE JUMP JUMPDEST PUSH2 0x4339 SWAP2 SWAP1 PUSH2 0x53CE JUMP JUMPDEST PUSH2 0x4343 SWAP2 SWAP1 PUSH2 0x5572 JUMP JUMPDEST PUSH1 0x40 MLOAD DUP5 PUSH4 0xFFFFFFFF AND PUSH1 0xE0 SHL DUP2 MSTORE PUSH1 0x4 ADD PUSH2 0x4361 SWAP4 SWAP3 SWAP2 SWAP1 PUSH2 0x5464 JUMP JUMPDEST PUSH1 0x20 PUSH1 0x40 MLOAD DUP1 DUP4 SUB DUP2 PUSH1 0x0 DUP8 GAS CALL ISZERO DUP1 ISZERO PUSH2 0x4380 JUMPI RETURNDATASIZE PUSH1 0x0 DUP1 RETURNDATACOPY RETURNDATASIZE PUSH1 0x0 REVERT JUMPDEST POP POP POP POP PUSH1 0x40 MLOAD RETURNDATASIZE PUSH1 0x1F NOT PUSH1 0x1F DUP3 ADD AND DUP3 ADD DUP1 PUSH1 0x40 MSTORE POP DUP2 ADD SWAP1 PUSH2 0x43A4 SWAP2 SWAP1 PUSH2 0x53B5 JUMP JUMPDEST PUSH1 0x40 DUP1 MLOAD PUSH1 0xC0 DUP1 DUP3 ADD DUP4 MSTORE PUSH1 0x1 PUSH1 0x1 PUSH1 0xA0 SHL SUB DUP11 DUP2 AND DUP4 MSTORE PUSH1 0x20 DUP4 ADD DUP15 DUP2 MSTORE DUP4 DUP6 ADD DUP15 DUP2 MSTORE PUSH1 0xA0 DUP1 DUP14 ADD MLOAD PUSH1 0x60 DUP8 ADD SWAP1 DUP2 MSTORE SWAP5 DUP14 ADD MLOAD ISZERO ISZERO PUSH1 0x80 DUP8 ADD SWAP1 DUP2 MSTORE SWAP1 DUP7 ADD DUP16 DUP2 MSTORE SWAP7 MLOAD PUSH4 0x5C109DFD PUSH1 0xE1 SHL DUP2 MSTORE PUSH1 0x4 DUP2 ADD DUP10 SWAP1 MSTORE SWAP6 MLOAD DUP5 AND PUSH1 0x24 DUP8 ADD MSTORE SWAP2 MLOAD PUSH1 0x44 DUP7 ADD MSTORE MLOAD PUSH1 0x64 DUP6 ADD MSTORE SWAP2 MLOAD PUSH1 0x84 DUP5 ADD MSTORE SWAP1 MLOAD ISZERO ISZERO PUSH1 0xA4 DUP4 ADD MSTORE SWAP2 MLOAD PUSH1 0xC4 DUP3 ADD MSTORE SWAP2 SWAP3 POP DUP4 AND SWAP1 PUSH4 0xB8213BFA SWAP1 PUSH1 0xE4 ADD PUSH1 0x0 PUSH1 0x40 MLOAD DUP1 DUP4 SUB DUP2 PUSH1 0x0 DUP8 DUP1 EXTCODESIZE ISZERO DUP1 ISZERO PUSH2 0x4452 JUMPI PUSH1 0x0 DUP1 REVERT JUMPDEST POP GAS CALL ISZERO DUP1 ISZERO PUSH2 0x4466 JUMPI RETURNDATASIZE PUSH1 0x0 DUP1 RETURNDATACOPY RETURNDATASIZE PUSH1 0x0 REVERT JUMPDEST POP POP POP POP DUP9 DUP7 PUSH1 0x1 PUSH1 0x1 PUSH1 0xA0 SHL SUB AND DUP3 PUSH32 0xFDFFFD671D06639F57EE329F42EA52018346EB90ED43679721E81CC12BFA1054 DUP12 DUP12 PUSH1 0x40 MLOAD PUSH2 0x44B0 SWAP3 SWAP2 SWAP1 SWAP2 DUP3 MSTORE PUSH1 0x20 DUP3 ADD MSTORE PUSH1 0x40 ADD SWAP1 JUMP JUMPDEST PUSH1 0x40 MLOAD DUP1 SWAP2 SUB SWAP1 LOG4 POP JUMPDEST POP POP POP POP POP POP POP POP JUMP JUMPDEST ORIGIN CALLER EQ PUSH2 0x4501 JUMPI PUSH1 0x40 MLOAD PUSH3 0x461BCD PUSH1 0xE5 SHL DUP2 MSTORE PUSH1 0x20 PUSH1 0x4 DUP3 ADD MSTORE PUSH1 0xB PUSH1 0x24 DUP3 ADD MSTORE PUSH11 0x1393D7D0D3D395149050D5 PUSH1 0xAA SHL PUSH1 0x44 DUP3 ADD MSTORE PUSH1 0x64 ADD PUSH2 0x4B2 JUMP JUMPDEST CALLER PUSH1 0x0 SWAP1 DUP2 MSTORE PUSH1 0x20 DUP2 SWAP1 MSTORE PUSH1 0x40 SWAP1 KECCAK256 DUP1 SLOAD PUSH1 0x1 PUSH1 0x1 PUSH1 0xA0 SHL SUB NOT AND PUSH1 0x1 PUSH1 0x1 PUSH1 0xA0 SHL SUB SWAP3 SWAP1 SWAP3 AND SWAP2 SWAP1 SWAP2 OR SWAP1 SSTORE JUMP JUMPDEST PUSH32 0x0 PUSH1 0x1 PUSH1 0x1 PUSH1 0xA0 SHL SUB AND PUSH4 0x12D43A51 PUSH1 0x40 MLOAD DUP2 PUSH4 0xFFFFFFFF AND PUSH1 0xE0 SHL DUP2 MSTORE PUSH1 0x4 ADD PUSH1 0x20 PUSH1 0x40 MLOAD DUP1 DUP4 SUB DUP2 DUP7 GAS STATICCALL ISZERO DUP1 ISZERO PUSH2 0x458E JUMPI RETURNDATASIZE PUSH1 0x0 DUP1 RETURNDATACOPY RETURNDATASIZE PUSH1 0x0 REVERT JUMPDEST POP POP POP POP PUSH1 0x40 MLOAD RETURNDATASIZE PUSH1 0x1F NOT PUSH1 0x1F DUP3 ADD AND DUP3 ADD DUP1 PUSH1 0x40 MSTORE POP DUP2 ADD SWAP1 PUSH2 0x45B2 SWAP2 SWAP1 PUSH2 0x5091 JUMP JUMPDEST PUSH1 0x1 PUSH1 0x1 PUSH1 0xA0 SHL SUB AND CALLER PUSH1 0x1 PUSH1 0x1 PUSH1 0xA0 SHL SUB AND EQ PUSH2 0x45E2 JUMPI PUSH1 0x40 MLOAD PUSH3 0x461BCD PUSH1 0xE5 SHL DUP2 MSTORE PUSH1 0x4 ADD PUSH2 0x4B2 SWAP1 PUSH2 0x50AE JUMP JUMPDEST PUSH1 0x0 DUP2 GT PUSH2 0x4602 JUMPI PUSH1 0x40 MLOAD PUSH3 0x461BCD PUSH1 0xE5 SHL DUP2 MSTORE PUSH1 0x4 ADD PUSH2 0x4B2 SWAP1 PUSH2 0x52BB JUMP JUMPDEST PUSH1 0x3 DUP2 SWAP1 SSTORE PUSH1 0x40 DUP1 MLOAD DUP2 DUP2 MSTORE PUSH1 0x13 SWAP2 DUP2 ADD SWAP2 SWAP1 SWAP2 MSTORE PUSH19 0x6C696D69744F726465727354696D656C6F636B PUSH1 0x68 SHL PUSH1 0x60 DUP3 ADD MSTORE PUSH1 0x20 DUP2 ADD DUP3 SWAP1 MSTORE PUSH32 0x8CF3E35F6221B16E1670A3413180C9484BF5AA71787905909FA82A6A2662E9AB SWAP1 PUSH1 0x80 ADD PUSH2 0xD2C JUMP JUMPDEST ORIGIN CALLER EQ PUSH2 0x4670 JUMPI PUSH1 0x0 DUP1 REVERT JUMPDEST PUSH1 0x5 SLOAD PUSH2 0x100 SWAP1 DIV PUSH1 0xFF AND ISZERO PUSH2 0x4698 JUMPI PUSH1 0x40 MLOAD PUSH3 0x461BCD PUSH1 0xE5 SHL DUP2 MSTORE PUSH1 0x4 ADD PUSH2 0x4B2 SWAP1 PUSH2 0x4E55 JUMP JUMPDEST PUSH1 0x0 PUSH2 0x46A2 PUSH2 0x456 JUMP JUMPDEST SWAP1 POP PUSH1 0x0 PUSH32 0x0 PUSH1 0x1 PUSH1 0x1 PUSH1 0xA0 SHL SUB AND PUSH4 0xA3A80FFE DUP4 DUP8 DUP8 PUSH1 0x40 MLOAD DUP5 PUSH4 0xFFFFFFFF AND PUSH1 0xE0 SHL DUP2 MSTORE PUSH1 0x4 ADD PUSH2 0x46F6 SWAP4 SWAP3 SWAP2 SWAP1 PUSH2 0x4E73 JUMP JUMPDEST PUSH2 0x140 PUSH1 0x40 MLOAD DUP1 DUP4 SUB DUP2 DUP7 GAS STATICCALL ISZERO DUP1 ISZERO PUSH2 0x4714 JUMPI RETURNDATASIZE PUSH1 0x0 DUP1 RETURNDATACOPY RETURNDATASIZE PUSH1 0x0 REVERT JUMPDEST POP POP POP POP PUSH1 0x40 MLOAD RETURNDATASIZE PUSH1 0x1F NOT PUSH1 0x1F DUP3 ADD AND DUP3 ADD DUP1 PUSH1 0x40 MSTORE POP DUP2 ADD SWAP1 PUSH2 0x4738 SWAP2 SWAP1 PUSH2 0x54B3 JUMP JUMPDEST SWAP1 POP PUSH1 0x0 PUSH32 0x0 PUSH1 0x1 PUSH1 0x1 PUSH1 0xA0 SHL SUB AND PUSH4 0x8C8FF1D5 DUP5 DUP9 DUP9 PUSH1 0x40 MLOAD DUP5 PUSH4 0xFFFFFFFF AND PUSH1 0xE0 SHL DUP2 MSTORE PUSH1 0x4 ADD PUSH2 0x478C SWAP4 SWAP3 SWAP2 SWAP1 PUSH2 0x4E73 JUMP JUMPDEST PUSH1 0xC0 PUSH1 0x40 MLOAD DUP1 DUP4 SUB DUP2 DUP7 GAS STATICCALL ISZERO DUP1 ISZERO PUSH2 0x47A9 JUMPI RETURNDATASIZE PUSH1 0x0 DUP1 RETURNDATACOPY RETURNDATASIZE PUSH1 0x0 REVERT JUMPDEST POP POP POP POP PUSH1 0x40 MLOAD RETURNDATASIZE PUSH1 0x1F NOT PUSH1 0x1F DUP3 ADD AND DUP3 ADD DUP1 PUSH1 0x40 MSTORE POP DUP2 ADD SWAP1 PUSH2 0x47CD SWAP2 SWAP1 PUSH2 0x54D0 JUMP JUMPDEST SWAP1 POP PUSH1 0x0 DUP3 PUSH1 0xE0 ADD MLOAD GT PUSH2 0x47F3 JUMPI PUSH1 0x40 MLOAD PUSH3 0x461BCD PUSH1 0xE5 SHL DUP2 MSTORE PUSH1 0x4 ADD PUSH2 0x4B2 SWAP1 PUSH2 0x5550 JUMP JUMPDEST PUSH1 0x3 SLOAD PUSH1 0x60 DUP3 ADD MLOAD PUSH2 0x4805 SWAP1 NUMBER PUSH2 0x4FB2 JUMP JUMPDEST LT ISZERO PUSH2 0x4823 JUMPI PUSH1 0x40 MLOAD PUSH3 0x461BCD PUSH1 0xE5 SHL DUP2 MSTORE PUSH1 0x4 ADD PUSH2 0x4B2 SWAP1 PUSH2 0x4FC9 JUMP JUMPDEST PUSH1 0x40 MLOAD PUSH4 0x7FDB96F3 PUSH1 0xE0 SHL DUP2 MSTORE PUSH1 0x1 PUSH1 0x1 PUSH1 0xA0 SHL SUB DUP5 DUP2 AND PUSH1 0x4 DUP4 ADD MSTORE PUSH1 0x24 DUP3 ADD DUP9 SWAP1 MSTORE PUSH1 0x44 DUP3 ADD DUP8 SWAP1 MSTORE PUSH1 0x64 DUP3 ADD DUP7 SWAP1 MSTORE PUSH32 0x0 AND SWAP1 PUSH4 0x7FDB96F3 SWAP1 PUSH1 0x84 ADD PUSH1 0x0 PUSH1 0x40 MLOAD DUP1 DUP4 SUB DUP2 PUSH1 0x0 DUP8 DUP1 EXTCODESIZE ISZERO DUP1 ISZERO PUSH2 0x489B JUMPI PUSH1 0x0 DUP1 REVERT JUMPDEST POP GAS CALL ISZERO DUP1 ISZERO PUSH2 0x48AF JUMPI RETURNDATASIZE PUSH1 0x0 DUP1 RETURNDATACOPY RETURNDATASIZE PUSH1 0x0 REVERT JUMPDEST POP POP PUSH1 0x40 DUP1 MLOAD DUP9 DUP2 MSTORE PUSH1 0x20 DUP2 ADD DUP9 SWAP1 MSTORE DUP10 SWAP4 POP PUSH1 0x1 PUSH1 0x1 PUSH1 0xA0 SHL SUB DUP8 AND SWAP3 POP PUSH32 0x7E06A81C7A47891CCC7455B5CCB2ED850E32BB655CCDA67EB3EBAAEED83242A4 SWAP2 ADD PUSH1 0x40 MLOAD DUP1 SWAP2 SUB SWAP1 LOG3 POP POP POP POP POP POP JUMP JUMPDEST PUSH1 0x0 PUSH32 0x0 PUSH1 0x1 PUSH1 0x1 PUSH1 0xA0 SHL SUB AND PUSH4 0x6BC84D59 DUP4 PUSH1 0x0 ADD MLOAD DUP5 PUSH1 0x20 ADD MLOAD DUP6 PUSH1 0x40 ADD MLOAD DUP7 PUSH1 0xA0 ADD MLOAD DUP8 PUSH1 0xC0 ADD MLOAD PUSH5 0x2540BE400 PUSH32 0x0 PUSH1 0x1 PUSH1 0x1 PUSH1 0xA0 SHL SUB AND PUSH4 0x8C8FF1D5 DUP12 PUSH1 0x0 ADD MLOAD DUP13 PUSH1 0x20 ADD MLOAD DUP14 PUSH1 0x40 ADD MLOAD PUSH1 0x40 MLOAD DUP5 PUSH4 0xFFFFFFFF AND PUSH1 0xE0 SHL DUP2 MSTORE PUSH1 0x4 ADD PUSH2 0x49AD SWAP4 SWAP3 SWAP2 SWAP1 PUSH2 0x4E73 JUMP JUMPDEST PUSH1 0xC0 PUSH1 0x40 MLOAD DUP1 DUP4 SUB DUP2 DUP7 GAS STATICCALL ISZERO DUP1 ISZERO PUSH2 0x49CA JUMPI RETURNDATASIZE PUSH1 0x0 DUP1 RETURNDATACOPY RETURNDATASIZE PUSH1 0x0 REVERT JUMPDEST POP POP POP POP PUSH1 0x40 MLOAD RETURNDATASIZE PUSH1 0x1F NOT PUSH1 0x1F DUP3 ADD AND DUP3 ADD DUP1 PUSH1 0x40 MSTORE POP DUP2 ADD SWAP1 PUSH2 0x49EE SWAP2 SWAP1 PUSH2 0x54D0 JUMP JUMPDEST PUSH1 0x20 ADD MLOAD DUP11 PUSH1 0x60 ADD MLOAD PUSH2 0x4A01 SWAP2 SWAP1 PUSH2 0x53CE JUMP JUMPDEST PUSH2 0x4A0B SWAP2 SWAP1 PUSH2 0x5572 JUMP JUMPDEST PUSH1 0xE0 DUP11 DUP2 ADD MLOAD PUSH1 0x40 MLOAD SWAP2 DUP10 SWAP1 SHL PUSH1 0x1 PUSH1 0x1 PUSH1 0xE0 SHL SUB NOT AND DUP3 MSTORE PUSH1 0x1 PUSH1 0x1 PUSH1 0xA0 SHL SUB SWAP8 SWAP1 SWAP8 AND PUSH1 0x4 DUP3 ADD MSTORE PUSH1 0x24 DUP2 ADD SWAP6 SWAP1 SWAP6 MSTORE PUSH1 0x44 DUP6 ADD SWAP4 SWAP1 SWAP4 MSTORE PUSH1 0x64 DUP5 ADD SWAP2 SWAP1 SWAP2 MSTORE ISZERO ISZERO PUSH1 0x84 DUP4 ADD MSTORE PUSH1 0xA4 DUP3 ADD MSTORE PUSH1 0xC4 DUP2 ADD SWAP2 SWAP1 SWAP2 MSTORE PUSH1 0xE4 ADD PUSH1 0x20 PUSH1 0x40 MLOAD DUP1 DUP4 SUB DUP2 DUP7 GAS STATICCALL ISZERO DUP1 ISZERO PUSH2 0x4A81 JUMPI RETURNDATASIZE PUSH1 0x0 DUP1 RETURNDATACOPY RETURNDATASIZE PUSH1 0x0 REVERT JUMPDEST POP POP POP POP PUSH1 0x40 MLOAD RETURNDATASIZE PUSH1 0x1F NOT PUSH1 0x1F DUP3 ADD AND DUP3 ADD DUP1 PUSH1 0x40 MSTORE POP DUP2 ADD SWAP1 PUSH2 0x4AA5 SWAP2 SWAP1 PUSH2 0x53B5 JUMP JUMPDEST SWAP3 SWAP2 POP POP JUMP JUMPDEST PUSH1 0x0 DUP1 PUSH1 0x0 DUP1 PUSH1 0x0 PUSH1 0xA0 DUP7 DUP9 SUB SLT ISZERO PUSH2 0x4AC3 JUMPI PUSH1 0x0 DUP1 REVERT JUMPDEST POP POP DUP4 CALLDATALOAD SWAP6 PUSH1 0x20 DUP6 ADD CALLDATALOAD SWAP6 POP PUSH1 0x40 DUP6 ADD CALLDATALOAD SWAP5 PUSH1 0x60 DUP2 ADD CALLDATALOAD SWAP5 POP PUSH1 0x80 ADD CALLDATALOAD SWAP3 POP SWAP1 POP JUMP JUMPDEST PUSH1 0x0 PUSH1 0x20 DUP3 DUP5 SUB SLT ISZERO PUSH2 0x4AF8 JUMPI PUSH1 0x0 DUP1 REVERT JUMPDEST POP CALLDATALOAD SWAP2 SWAP1 POP JUMP JUMPDEST PUSH1 0x1 PUSH1 0x1 PUSH1 0xA0 SHL SUB DUP2 AND DUP2 EQ PUSH2 0x4B14 JUMPI PUSH1 0x0 DUP1 REVERT JUMPDEST POP JUMP JUMPDEST DUP1 CALLDATALOAD PUSH2 0x4B22 DUP2 PUSH2 0x4AFF JUMP JUMPDEST SWAP2 SWAP1 POP JUMP JUMPDEST PUSH1 0x0 DUP1 PUSH1 0x0 PUSH1 0x40 DUP5 DUP7 SUB SLT ISZERO PUSH2 0x4B3C JUMPI PUSH1 0x0 DUP1 REVERT JUMPDEST DUP4 CALLDATALOAD PUSH2 0x4B47 DUP2 PUSH2 0x4AFF JUMP JUMPDEST SWAP3 POP PUSH1 0x20 DUP5 ADD CALLDATALOAD PUSH8 0xFFFFFFFFFFFFFFFF DUP1 DUP3 GT ISZERO PUSH2 0x4B64 JUMPI PUSH1 0x0 DUP1 REVERT JUMPDEST DUP2 DUP7 ADD SWAP2 POP DUP7 PUSH1 0x1F DUP4 ADD SLT PUSH2 0x4B78 JUMPI PUSH1 0x0 DUP1 REVERT JUMPDEST DUP2 CALLDATALOAD DUP2 DUP2 GT ISZERO PUSH2 0x4B87 JUMPI PUSH1 0x0 DUP1 REVERT JUMPDEST DUP8 PUSH1 0x20 DUP3 DUP6 ADD ADD GT ISZERO PUSH2 0x4B99 JUMPI PUSH1 0x0 DUP1 REVERT JUMPDEST PUSH1 0x20 DUP4 ADD SWAP5 POP DUP1 SWAP4 POP POP POP POP SWAP3 POP SWAP3 POP SWAP3 JUMP JUMPDEST PUSH1 0x0 JUMPDEST DUP4 DUP2 LT ISZERO PUSH2 0x4BC7 JUMPI DUP2 DUP2 ADD MLOAD DUP4 DUP3 ADD MSTORE PUSH1 0x20 ADD PUSH2 0x4BAF JUMP JUMPDEST DUP4 DUP2 GT ISZERO PUSH2 0x4BD6 JUMPI PUSH1 0x0 DUP5 DUP5 ADD MSTORE JUMPDEST POP POP POP POP JUMP JUMPDEST PUSH1 0x0 DUP2 MLOAD DUP1 DUP5 MSTORE PUSH2 0x4BF4 DUP2 PUSH1 0x20 DUP7 ADD PUSH1 0x20 DUP7 ADD PUSH2 0x4BAC JUMP JUMPDEST PUSH1 0x1F ADD PUSH1 0x1F NOT AND SWAP3 SWAP1 SWAP3 ADD PUSH1 0x20 ADD SWAP3 SWAP2 POP POP JUMP JUMPDEST PUSH1 0x20 DUP2 MSTORE PUSH1 0x0 PUSH2 0x4C1B PUSH1 0x20 DUP4 ADD DUP5 PUSH2 0x4BDC JUMP JUMPDEST SWAP4 SWAP3 POP POP POP JUMP JUMPDEST PUSH4 0x4E487B71 PUSH1 0xE0 SHL PUSH1 0x0 MSTORE PUSH1 0x41 PUSH1 0x4 MSTORE PUSH1 0x24 PUSH1 0x0 REVERT JUMPDEST PUSH1 0x40 MLOAD PUSH2 0x140 DUP2 ADD PUSH8 0xFFFFFFFFFFFFFFFF DUP2 GT DUP3 DUP3 LT OR ISZERO PUSH2 0x4C5C JUMPI PUSH2 0x4C5C PUSH2 0x4C22 JUMP JUMPDEST PUSH1 0x40 MSTORE SWAP1 JUMP JUMPDEST PUSH1 0x40 MLOAD PUSH2 0x1A0 DUP2 ADD PUSH8 0xFFFFFFFFFFFFFFFF DUP2 GT DUP3 DUP3 LT OR ISZERO PUSH2 0x4C5C JUMPI PUSH2 0x4C5C PUSH2 0x4C22 JUMP JUMPDEST DUP1 ISZERO ISZERO DUP2 EQ PUSH2 0x4B14 JUMPI PUSH1 0x0 DUP1 REVERT JUMPDEST DUP1 CALLDATALOAD PUSH2 0x4B22 DUP2 PUSH2 0x4C86 JUMP JUMPDEST DUP1 CALLDATALOAD PUSH1 0x3 DUP2 LT PUSH2 0x4B22 JUMPI PUSH1 0x0 DUP1 REVERT JUMPDEST PUSH1 0x0 DUP1 PUSH1 0x0 DUP1 PUSH1 0x0 DUP6 DUP8 SUB PUSH2 0x1C0 DUP2 SLT ISZERO PUSH2 0x4CC8 JUMPI PUSH1 0x0 DUP1 REVERT JUMPDEST PUSH2 0x140 DUP1 DUP3 SLT ISZERO PUSH2 0x4CD8 JUMPI PUSH1 0x0 DUP1 REVERT JUMPDEST PUSH2 0x4CE0 PUSH2 0x4C38 JUMP JUMPDEST SWAP2 POP PUSH2 0x4CEB DUP9 PUSH2 0x4B17 JUMP JUMPDEST DUP3 MSTORE PUSH1 0x20 DUP9 ADD CALLDATALOAD PUSH1 0x20 DUP4 ADD MSTORE PUSH1 0x40 DUP9 ADD CALLDATALOAD PUSH1 0x40 DUP4 ADD MSTORE PUSH1 0x60 DUP9 ADD CALLDATALOAD PUSH1 0x60 DUP4 ADD MSTORE PUSH1 0x80 DUP9 ADD CALLDATALOAD PUSH1 0x80 DUP4 ADD MSTORE PUSH1 0xA0 DUP9 ADD CALLDATALOAD PUSH1 0xA0 DUP4 ADD MSTORE PUSH2 0x4D2B PUSH1 0xC0 DUP10 ADD PUSH2 0x4C94 JUMP JUMPDEST PUSH1 0xC0 DUP4 ADD MSTORE PUSH1 0xE0 DUP9 ADD CALLDATALOAD PUSH1 0xE0 DUP4 ADD MSTORE PUSH2 0x100 DUP1 DUP10 ADD CALLDATALOAD DUP2 DUP5 ADD MSTORE POP PUSH2 0x120 DUP1 DUP10 ADD CALLDATALOAD DUP2 DUP5 ADD MSTORE POP DUP2 SWAP7 POP PUSH2 0x4D60 DUP2 DUP10 ADD PUSH2 0x4C9F JUMP JUMPDEST SWAP6 POP POP POP PUSH2 0x160 DUP7 ADD CALLDATALOAD SWAP3 POP PUSH2 0x180 DUP7 ADD CALLDATALOAD SWAP2 POP PUSH2 0x4D81 PUSH2 0x1A0 DUP8 ADD PUSH2 0x4B17 JUMP JUMPDEST SWAP1 POP SWAP3 SWAP6 POP SWAP3 SWAP6 SWAP1 SWAP4 POP JUMP JUMPDEST PUSH1 0x0 DUP1 PUSH1 0x40 DUP4 DUP6 SUB SLT ISZERO PUSH2 0x4DA0 JUMPI PUSH1 0x0 DUP1 REVERT JUMPDEST POP POP DUP1 CALLDATALOAD SWAP3 PUSH1 0x20 SWAP1 SWAP2 ADD CALLDATALOAD SWAP2 POP JUMP JUMPDEST PUSH1 0x0 DUP1 PUSH1 0x0 DUP1 PUSH1 0x0 DUP1 PUSH1 0xC0 DUP8 DUP10 SUB SLT ISZERO PUSH2 0x4DC8 JUMPI PUSH1 0x0 DUP1 REVERT JUMPDEST DUP7 CALLDATALOAD PUSH1 0x4 DUP2 LT PUSH2 0x4DD7 JUMPI PUSH1 0x0 DUP1 REVERT JUMPDEST SWAP6 POP PUSH1 0x20 DUP8 ADD CALLDATALOAD PUSH2 0x4DE7 DUP2 PUSH2 0x4AFF JUMP JUMPDEST SWAP6 SWAP9 SWAP6 SWAP8 POP POP POP POP PUSH1 0x40 DUP5 ADD CALLDATALOAD SWAP4 PUSH1 0x60 DUP2 ADD CALLDATALOAD SWAP4 PUSH1 0x80 DUP3 ADD CALLDATALOAD SWAP4 POP PUSH1 0xA0 SWAP1 SWAP2 ADD CALLDATALOAD SWAP2 POP JUMP JUMPDEST PUSH1 0x0 DUP1 PUSH1 0x0 PUSH1 0x60 DUP5 DUP7 SUB SLT ISZERO PUSH2 0x4E21 JUMPI PUSH1 0x0 DUP1 REVERT JUMPDEST POP POP DUP2 CALLDATALOAD SWAP4 PUSH1 0x20 DUP4 ADD CALLDATALOAD SWAP4 POP PUSH1 0x40 SWAP1 SWAP3 ADD CALLDATALOAD SWAP2 SWAP1 POP JUMP JUMPDEST PUSH1 0x0 PUSH1 0x20 DUP3 DUP5 SUB SLT ISZERO PUSH2 0x4E4A JUMPI PUSH1 0x0 DUP1 REVERT JUMPDEST DUP2 CALLDATALOAD PUSH2 0x4C1B DUP2 PUSH2 0x4AFF JUMP JUMPDEST PUSH1 0x20 DUP1 DUP3 MSTORE PUSH1 0x4 SWAP1 DUP3 ADD MSTORE PUSH4 0x444F4E45 PUSH1 0xE0 SHL PUSH1 0x40 DUP3 ADD MSTORE PUSH1 0x60 ADD SWAP1 JUMP JUMPDEST PUSH1 0x1 PUSH1 0x1 PUSH1 0xA0 SHL SUB SWAP4 SWAP1 SWAP4 AND DUP4 MSTORE PUSH1 0x20 DUP4 ADD SWAP2 SWAP1 SWAP2 MSTORE PUSH1 0x40 DUP3 ADD MSTORE PUSH1 0x60 ADD SWAP1 JUMP JUMPDEST DUP1 MLOAD PUSH2 0x4B22 DUP2 PUSH2 0x4C86 JUMP JUMPDEST PUSH1 0x0 PUSH1 0x20 DUP3 DUP5 SUB SLT ISZERO PUSH2 0x4EB1 JUMPI PUSH1 0x0 DUP1 REVERT JUMPDEST DUP2 MLOAD PUSH2 0x4C1B DUP2 PUSH2 0x4C86 JUMP JUMPDEST PUSH1 0x20 DUP1 DUP3 MSTORE PUSH1 0x8 SWAP1 DUP3 ADD MSTORE PUSH8 0x1393D7D312535255 PUSH1 0xC2 SHL PUSH1 0x40 DUP3 ADD MSTORE PUSH1 0x60 ADD SWAP1 JUMP JUMPDEST DUP1 MLOAD PUSH2 0x4B22 DUP2 PUSH2 0x4AFF JUMP JUMPDEST PUSH1 0x0 PUSH2 0x1A0 DUP3 DUP5 SUB SLT ISZERO PUSH2 0x4EFC JUMPI PUSH1 0x0 DUP1 REVERT JUMPDEST PUSH2 0x4F04 PUSH2 0x4C62 JUMP JUMPDEST PUSH2 0x4F0D DUP4 PUSH2 0x4EDE JUMP JUMPDEST DUP2 MSTORE PUSH1 0x20 DUP4 ADD MLOAD PUSH1 0x20 DUP3 ADD MSTORE PUSH1 0x40 DUP4 ADD MLOAD PUSH1 0x40 DUP3 ADD MSTORE PUSH1 0x60 DUP4 ADD MLOAD PUSH1 0x60 DUP3 ADD MSTORE PUSH1 0x80 DUP4 ADD MLOAD PUSH1 0x80 DUP3 ADD MSTORE PUSH2 0x4F43 PUSH1 0xA0 DUP5 ADD PUSH2 0x4E94 JUMP JUMPDEST PUSH1 0xA0 DUP3 ADD MSTORE PUSH1 0xC0 DUP4 DUP2 ADD MLOAD SWAP1 DUP3 ADD MSTORE PUSH1 0xE0 DUP1 DUP5 ADD MLOAD SWAP1 DUP3 ADD MSTORE PUSH2 0x100 DUP1 DUP5 ADD MLOAD SWAP1 DUP3 ADD MSTORE PUSH2 0x120 DUP1 DUP5 ADD MLOAD SWAP1 DUP3 ADD MSTORE PUSH2 0x140 DUP1 DUP5 ADD MLOAD SWAP1 DUP3 ADD MSTORE PUSH2 0x160 DUP1 DUP5 ADD MLOAD SWAP1 DUP3 ADD MSTORE PUSH2 0x180 SWAP3 DUP4 ADD MLOAD SWAP3 DUP2 ADD SWAP3 SWAP1 SWAP3 MSTORE POP SWAP2 SWAP1 POP JUMP JUMPDEST PUSH4 0x4E487B71 PUSH1 0xE0 SHL PUSH1 0x0 MSTORE PUSH1 0x11 PUSH1 0x4 MSTORE PUSH1 0x24 PUSH1 0x0 REVERT JUMPDEST PUSH1 0x0 DUP3 DUP3 LT ISZERO PUSH2 0x4FC4 JUMPI PUSH2 0x4FC4 PUSH2 0x4F9C JUMP JUMPDEST POP SUB SWAP1 JUMP JUMPDEST PUSH1 0x20 DUP1 DUP3 MSTORE PUSH1 0xE SWAP1 DUP3 ADD MSTORE PUSH14 0x4C494D49545F54494D454C4F434B PUSH1 0x90 SHL PUSH1 0x40 DUP3 ADD MSTORE PUSH1 0x60 ADD SWAP1 JUMP JUMPDEST DUP2 MLOAD PUSH1 0x1 PUSH1 0x1 PUSH1 0xA0 SHL SUB AND DUP2 MSTORE PUSH2 0x1A0 DUP2 ADD PUSH1 0x20 DUP4 ADD MLOAD PUSH1 0x20 DUP4 ADD MSTORE PUSH1 0x40 DUP4 ADD MLOAD PUSH1 0x40 DUP4 ADD MSTORE PUSH1 0x60 DUP4 ADD MLOAD PUSH1 0x60 DUP4 ADD MSTORE PUSH1 0x80 DUP4 ADD MLOAD PUSH1 0x80 DUP4 ADD MSTORE PUSH1 0xA0 DUP4 ADD MLOAD PUSH2 0x503E PUSH1 0xA0 DUP5 ADD DUP3 ISZERO ISZERO SWAP1 MSTORE JUMP JUMPDEST POP PUSH1 0xC0 DUP4 DUP2 ADD MLOAD SWAP1 DUP4 ADD MSTORE PUSH1 0xE0 DUP1 DUP5 ADD MLOAD SWAP1 DUP4 ADD MSTORE PUSH2 0x100 DUP1 DUP5 ADD MLOAD SWAP1 DUP4 ADD MSTORE PUSH2 0x120 DUP1 DUP5 ADD MLOAD SWAP1 DUP4 ADD MSTORE PUSH2 0x140 DUP1 DUP5 ADD MLOAD SWAP1 DUP4 ADD MSTORE PUSH2 0x160 DUP1 DUP5 ADD MLOAD SWAP1 DUP4 ADD MSTORE PUSH2 0x180 SWAP3 DUP4 ADD MLOAD SWAP3 SWAP1 SWAP2 ADD SWAP2 SWAP1 SWAP2 MSTORE SWAP1 JUMP JUMPDEST PUSH1 0x0 PUSH1 0x20 DUP3 DUP5 SUB SLT ISZERO PUSH2 0x50A3 JUMPI PUSH1 0x0 DUP1 REVERT JUMPDEST DUP2 MLOAD PUSH2 0x4C1B DUP2 PUSH2 0x4AFF JUMP JUMPDEST PUSH1 0x20 DUP1 DUP3 MSTORE PUSH1 0x8 SWAP1 DUP3 ADD MSTORE PUSH8 0x474F565F4F4E4C59 PUSH1 0xC0 SHL PUSH1 0x40 DUP3 ADD MSTORE PUSH1 0x60 ADD SWAP1 JUMP JUMPDEST PUSH1 0x0 PUSH2 0x140 DUP3 DUP5 SUB SLT ISZERO PUSH2 0x50E3 JUMPI PUSH1 0x0 DUP1 REVERT JUMPDEST PUSH2 0x50EB PUSH2 0x4C38 JUMP JUMPDEST SWAP1 POP PUSH2 0x50F6 DUP3 PUSH2 0x4EDE JUMP JUMPDEST DUP2 MSTORE PUSH1 0x20 DUP3 ADD MLOAD PUSH1 0x20 DUP3 ADD MSTORE PUSH1 0x40 DUP3 ADD MLOAD PUSH1 0x40 DUP3 ADD MSTORE PUSH1 0x60 DUP3 ADD MLOAD PUSH1 0x60 DUP3 ADD MSTORE PUSH1 0x80 DUP3 ADD MLOAD PUSH1 0x80 DUP3 ADD MSTORE PUSH1 0xA0 DUP3 ADD MLOAD PUSH1 0xA0 DUP3 ADD MSTORE PUSH2 0x5136 PUSH1 0xC0 DUP4 ADD PUSH2 0x4E94 JUMP JUMPDEST PUSH1 0xC0 DUP3 ADD MSTORE PUSH1 0xE0 DUP3 ADD MLOAD PUSH1 0xE0 DUP3 ADD MSTORE PUSH2 0x100 DUP1 DUP4 ADD MLOAD DUP2 DUP4 ADD MSTORE POP PUSH2 0x120 DUP1 DUP4 ADD MLOAD DUP2 DUP4 ADD MSTORE POP SWAP3 SWAP2 POP POP JUMP JUMPDEST PUSH1 0x0 PUSH2 0x1E0 DUP3 DUP5 SUB SLT ISZERO PUSH2 0x5176 JUMPI PUSH1 0x0 DUP1 REVERT JUMPDEST PUSH1 0x40 MLOAD PUSH1 0xC0 DUP2 ADD DUP2 DUP2 LT PUSH8 0xFFFFFFFFFFFFFFFF DUP3 GT OR ISZERO PUSH2 0x5199 JUMPI PUSH2 0x5199 PUSH2 0x4C22 JUMP JUMPDEST PUSH1 0x40 MSTORE PUSH2 0x51A6 DUP5 DUP5 PUSH2 0x50D0 JUMP JUMPDEST DUP2 MSTORE PUSH2 0x140 DUP4 ADD MLOAD PUSH1 0x20 DUP3 ADD MSTORE PUSH2 0x160 DUP4 ADD MLOAD PUSH1 0x40 DUP3 ADD MSTORE PUSH2 0x180 DUP4 ADD MLOAD PUSH1 0x60 DUP3 ADD MSTORE PUSH2 0x1A0 DUP4 ADD MLOAD PUSH1 0x80 DUP3 ADD MSTORE PUSH2 0x1C0 SWAP1 SWAP3 ADD MLOAD PUSH1 0xA0 DUP4 ADD MSTORE POP SWAP2 SWAP1 POP JUMP JUMPDEST PUSH1 0x0 DUP3 NOT DUP3 GT ISZERO PUSH2 0x51F9 JUMPI PUSH2 0x51F9 PUSH2 0x4F9C JUMP JUMPDEST POP ADD SWAP1 JUMP JUMPDEST DUP1 MLOAD DUP1 MLOAD PUSH1 0x1 PUSH1 0x1 PUSH1 0xA0 SHL SUB AND DUP4 MSTORE PUSH1 0x20 DUP2 ADD MLOAD PUSH1 0x20 DUP5 ADD MSTORE PUSH1 0x40 DUP2 ADD MLOAD PUSH1 0x40 DUP5 ADD MSTORE PUSH1 0x60 DUP2 ADD MLOAD PUSH1 0x60 DUP5 ADD MSTORE PUSH1 0x80 DUP2 ADD MLOAD PUSH1 0x80 DUP5 ADD MSTORE PUSH1 0xA0 DUP2 ADD MLOAD PUSH1 0xA0 DUP5 ADD MSTORE PUSH1 0xC0 DUP2 ADD MLOAD PUSH2 0x5252 PUSH1 0xC0 DUP6 ADD DUP3 ISZERO ISZERO SWAP1 MSTORE JUMP JUMPDEST POP PUSH1 0xE0 DUP2 DUP2 ADD MLOAD SWAP1 DUP5 ADD MSTORE PUSH2 0x100 DUP1 DUP3 ADD MLOAD SWAP1 DUP5 ADD MSTORE PUSH2 0x120 SWAP1 DUP2 ADD MLOAD SWAP1 DUP4 ADD MSTORE PUSH1 0x20 DUP2 ADD MLOAD PUSH2 0x140 DUP4 ADD MSTORE PUSH1 0x40 DUP2 ADD MLOAD PUSH2 0x160 DUP4 ADD MSTORE PUSH1 0x60 DUP2 ADD MLOAD PUSH2 0x180 DUP4 ADD MSTORE PUSH1 0x80 DUP2 ADD MLOAD PUSH2 0x1A0 DUP4 ADD MSTORE PUSH1 0xA0 ADD MLOAD PUSH2 0x1C0 SWAP1 SWAP2 ADD MSTORE JUMP JUMPDEST PUSH2 0x1E0 DUP2 ADD PUSH2 0x4AA5 DUP3 DUP5 PUSH2 0x51FE JUMP JUMPDEST PUSH1 0x20 DUP1 DUP3 MSTORE PUSH1 0x7 SWAP1 DUP3 ADD MSTORE PUSH7 0x56414C55455F3 PUSH1 0xCC SHL PUSH1 0x40 DUP3 ADD MSTORE PUSH1 0x60 ADD SWAP1 JUMP JUMPDEST PUSH1 0x0 DUP3 MLOAD PUSH2 0x52EE DUP2 DUP5 PUSH1 0x20 DUP8 ADD PUSH2 0x4BAC JUMP JUMPDEST SWAP2 SWAP1 SWAP2 ADD SWAP3 SWAP2 POP POP JUMP JUMPDEST DUP2 DUP4 DUP3 CALLDATACOPY PUSH1 0x0 SWAP2 ADD SWAP1 DUP2 MSTORE SWAP2 SWAP1 POP JUMP JUMPDEST PUSH1 0x0 PUSH1 0x20 DUP3 DUP5 SUB SLT ISZERO PUSH2 0x531A JUMPI PUSH1 0x0 DUP1 REVERT JUMPDEST DUP2 MLOAD PUSH8 0xFFFFFFFFFFFFFFFF DUP1 DUP3 GT ISZERO PUSH2 0x5332 JUMPI PUSH1 0x0 DUP1 REVERT JUMPDEST DUP2 DUP5 ADD SWAP2 POP DUP5 PUSH1 0x1F DUP4 ADD SLT PUSH2 0x5346 JUMPI PUSH1 0x0 DUP1 REVERT JUMPDEST DUP2 MLOAD DUP2 DUP2 GT ISZERO PUSH2 0x5358 JUMPI PUSH2 0x5358 PUSH2 0x4C22 JUMP JUMPDEST PUSH1 0x40 MLOAD PUSH1 0x1F DUP3 ADD PUSH1 0x1F NOT SWAP1 DUP2 AND PUSH1 0x3F ADD AND DUP2 ADD SWAP1 DUP4 DUP3 GT DUP2 DUP4 LT OR ISZERO PUSH2 0x5380 JUMPI PUSH2 0x5380 PUSH2 0x4C22 JUMP JUMPDEST DUP2 PUSH1 0x40 MSTORE DUP3 DUP2 MSTORE DUP8 PUSH1 0x20 DUP5 DUP8 ADD ADD GT ISZERO PUSH2 0x5399 JUMPI PUSH1 0x0 DUP1 REVERT JUMPDEST PUSH2 0x53AA DUP4 PUSH1 0x20 DUP4 ADD PUSH1 0x20 DUP9 ADD PUSH2 0x4BAC JUMP JUMPDEST SWAP8 SWAP7 POP POP POP POP POP POP POP JUMP JUMPDEST PUSH1 0x0 PUSH1 0x20 DUP3 DUP5 SUB SLT ISZERO PUSH2 0x53C7 JUMPI PUSH1 0x0 DUP1 REVERT JUMPDEST POP MLOAD SWAP2 SWAP1 POP JUMP JUMPDEST PUSH1 0x0 DUP2 PUSH1 0x0 NOT DIV DUP4 GT DUP3 ISZERO ISZERO AND ISZERO PUSH2 0x53E8 JUMPI PUSH2 0x53E8 PUSH2 0x4F9C JUMP JUMPDEST POP MUL SWAP1 JUMP JUMPDEST PUSH1 0x0 DUP1 PUSH1 0x40 DUP4 DUP6 SUB SLT ISZERO PUSH2 0x5400 JUMPI PUSH1 0x0 DUP1 REVERT JUMPDEST POP POP DUP1 MLOAD PUSH1 0x20 SWAP1 SWAP2 ADD MLOAD SWAP1 SWAP3 SWAP1 SWAP2 POP JUMP JUMPDEST PUSH4 0x4E487B71 PUSH1 0xE0 SHL PUSH1 0x0 MSTORE PUSH1 0x21 PUSH1 0x4 MSTORE PUSH1 0x24 PUSH1 0x0 REVERT JUMPDEST PUSH1 0x1 PUSH1 0x1 PUSH1 0xA0 SHL SUB DUP6 AND DUP2 MSTORE PUSH1 0x20 DUP2 ADD DUP5 SWAP1 MSTORE PUSH1 0x40 DUP2 ADD DUP4 SWAP1 MSTORE PUSH1 0x80 DUP2 ADD PUSH1 0x3 DUP4 LT PUSH2 0x5455 JUMPI PUSH2 0x5455 PUSH2 0x5411 JUMP JUMPDEST DUP3 PUSH1 0x60 DUP4 ADD MSTORE SWAP6 SWAP5 POP POP POP POP POP JUMP JUMPDEST DUP4 DUP2 MSTORE PUSH1 0x60 DUP2 ADD PUSH1 0x5 DUP5 LT PUSH2 0x547B JUMPI PUSH2 0x547B PUSH2 0x5411 JUMP JUMPDEST PUSH1 0x20 DUP3 ADD SWAP4 SWAP1 SWAP4 MSTORE PUSH1 0x40 ADD MSTORE SWAP2 SWAP1 POP JUMP JUMPDEST PUSH2 0x220 DUP2 ADD PUSH2 0x549B DUP3 DUP7 PUSH2 0x51FE JUMP JUMPDEST DUP4 PUSH2 0x1E0 DUP4 ADD MSTORE DUP3 ISZERO ISZERO PUSH2 0x200 DUP4 ADD MSTORE SWAP5 SWAP4 POP POP POP POP JUMP JUMPDEST PUSH1 0x0 PUSH2 0x140 DUP3 DUP5 SUB SLT ISZERO PUSH2 0x54C6 JUMPI PUSH1 0x0 DUP1 REVERT JUMPDEST PUSH2 0x4C1B DUP4 DUP4 PUSH2 0x50D0 JUMP JUMPDEST PUSH1 0x0 PUSH1 0xC0 DUP3 DUP5 SUB SLT ISZERO PUSH2 0x54E2 JUMPI PUSH1 0x0 DUP1 REVERT JUMPDEST PUSH1 0x40 MLOAD PUSH1 0xC0 DUP2 ADD DUP2 DUP2 LT PUSH8 0xFFFFFFFFFFFFFFFF DUP3 GT OR ISZERO PUSH2 0x5505 JUMPI PUSH2 0x5505 PUSH2 0x4C22 JUMP JUMPDEST DUP1 PUSH1 0x40 MSTORE POP DUP3 MLOAD DUP2 MSTORE PUSH1 0x20 DUP4 ADD MLOAD PUSH1 0x20 DUP3 ADD MSTORE PUSH1 0x40 DUP4 ADD MLOAD PUSH1 0x40 DUP3 ADD MSTORE PUSH1 0x60 DUP4 ADD MLOAD PUSH1 0x60 DUP3 ADD MSTORE PUSH1 0x80 DUP4 ADD MLOAD PUSH1 0x80 DUP3 ADD MSTORE PUSH1 0xA0 DUP4 ADD MLOAD PUSH2 0x5544 DUP2 PUSH2 0x4C86 JUMP JUMPDEST PUSH1 0xA0 DUP3 ADD MSTORE SWAP4 SWAP3 POP POP POP JUMP JUMPDEST PUSH1 0x20 DUP1 DUP3 MSTORE PUSH1 0x8 SWAP1 DUP3 ADD MSTORE PUSH8 0x4E4F5F5452414445 PUSH1 0xC0 SHL PUSH1 0x40 DUP3 ADD MSTORE PUSH1 0x60 ADD SWAP1 JUMP JUMPDEST PUSH1 0x0 DUP3 PUSH2 0x558F JUMPI PUSH4 0x4E487B71 PUSH1 0xE0 SHL PUSH1 0x0 MSTORE PUSH1 0x12 PUSH1 0x4 MSTORE PUSH1 0x24 PUSH1 0x0 REVERT JUMPDEST POP DIV SWAP1 JUMP JUMPDEST PUSH1 0x4 DUP2 LT PUSH2 0x55A4 JUMPI PUSH2 0x55A4 PUSH2 0x5411 JUMP JUMPDEST SWAP1 MSTORE JUMP JUMPDEST PUSH1 0x1 DUP1 PUSH1 0xA0 SHL SUB DUP2 MLOAD AND DUP3 MSTORE PUSH1 0x20 DUP2 ADD MLOAD PUSH1 0x20 DUP4 ADD MSTORE PUSH1 0x40 DUP2 ADD MLOAD PUSH1 0x40 DUP4 ADD MSTORE PUSH1 0x60 DUP2 ADD MLOAD PUSH2 0x55DA PUSH1 0x60 DUP5 ADD DUP3 PUSH2 0x5594 JUMP JUMPDEST POP POP POP JUMP JUMPDEST PUSH1 0x80 DUP2 ADD PUSH2 0x4AA5 DUP3 DUP5 PUSH2 0x55A8 JUMP JUMPDEST PUSH1 0x0 PUSH1 0xE0 DUP3 ADD SWAP1 POP PUSH1 0x1 DUP1 PUSH1 0xA0 SHL SUB DUP1 DUP6 MLOAD AND DUP4 MSTORE PUSH1 0x20 DUP6 ADD MLOAD PUSH1 0x20 DUP5 ADD MSTORE DUP1 PUSH1 0x40 DUP7 ADD MLOAD AND PUSH1 0x40 DUP5 ADD MSTORE POP PUSH1 0x60 DUP5 ADD MLOAD PUSH1 0x60 DUP4 ADD MSTORE PUSH1 0x80 DUP5 ADD MLOAD PUSH1 0x80 DUP4 ADD MSTORE PUSH1 0xA0 DUP5 ADD MLOAD PUSH2 0x563F PUSH1 0xA0 DUP5 ADD DUP3 PUSH2 0x5594 JUMP JUMPDEST POP DUP3 PUSH1 0xC0 DUP4 ADD MSTORE SWAP4 SWAP3 POP POP POP JUMP JUMPDEST PUSH1 0xA0 DUP2 ADD PUSH2 0x565B DUP3 DUP6 PUSH2 0x55A8 JUMP JUMPDEST PUSH1 0x1 PUSH1 0x1 PUSH1 0xA0 SHL SUB SWAP3 SWAP1 SWAP3 AND PUSH1 0x80 SWAP2 SWAP1 SWAP2 ADD MSTORE SWAP2 SWAP1 POP JUMP INVALID LOG2 PUSH5 0x6970667358 0x22 SLT KECCAK256 0xF6 DUP11 PUSH25 0x1AF489D7222B8A03F5732504A53C352AF38C8E83A05654EE27 0xE3 0xAE SELFBALANCE PUSH29 0x64736F6C634300080F0033000000000000000000000000000000000000 ","sha1":"92a3ca696a154faee876b7625065f815e0d43c7e","source":"/**\n *Submitted for verification at polygonscan.com on 2022-08-16\n*/\n\n// File: contracts\\interfaces\\UniswapRouterInterfaceV5.sol\n// SPDX-License-Identifier: MIT\n\npragma solidity 0.8.15;\n\ninterface UniswapRouterInterfaceV5{\n\tfunction swapExactTokensForTokens(\n\t\tuint amountIn,\n\t\tuint amountOutMin,\n\t\taddress[] calldata path,\n\t\taddress to,\n\t\tuint deadline\n\t) external returns (uint[] memory amounts);\n\n\tfunction swapTokensForExactTokens(\n\t\tuint amountOut,\n\t\tuint amountInMax,\n\t\taddress[] calldata path,\n\t\taddress to,\n\t\tuint deadline\n\t) external returns (uint[] memory amounts);\n}\n\n// File: contracts\\interfaces\\TokenInterfaceV5.sol\n\npragma solidity 0.8.15;\n\ninterface TokenInterfaceV5{\n    function burn(address, uint256) external;\n    function mint(address, uint256) external;\n    function transfer(address, uint256) external returns (bool);\n    function transferFrom(address, address, uint256) external returns(bool);\n    function balanceOf(address) external view returns(uint256);\n    function hasRole(bytes32, address) external view returns (bool);\n    function approve(address, uint256) external returns (bool);\n    function allowance(address, address) external view returns (uint256);\n}\n\n// File: contracts\\interfaces\\NftInterfaceV5.sol\n\npragma solidity 0.8.15;\n\ninterface NftInterfaceV5{\n    function balanceOf(address) external view returns (uint);\n    function ownerOf(uint) external view returns (address);\n    function transferFrom(address, address, uint) external;\n    function tokenOfOwnerByIndex(address, uint) external view returns(uint);\n}\n\n// File: contracts\\interfaces\\VaultInterfaceV5.sol\n\npragma solidity 0.8.15;\n\ninterface VaultInterfaceV5{\n\tfunction sendDaiToTrader(address, uint) external;\n\tfunction receiveDaiFromTrader(address, uint, uint) external;\n\tfunction currentBalanceDai() external view returns(uint);\n\tfunction distributeRewardDai(uint) external;\n}\n\n// File: contracts\\interfaces\\PairsStorageInterfaceV6.sol\n\npragma solidity 0.8.15;\n\ninterface PairsStorageInterfaceV6{\n    enum FeedCalculation { DEFAULT, INVERT, COMBINE }    // FEED 1, 1 / (FEED 1), (FEED 1)/(FEED 2)\n    struct Feed{ address feed1; address feed2; FeedCalculation feedCalculation; uint maxDeviationP; } // PRECISION (%)\n    function incrementCurrentOrderId() external returns(uint);\n    function updateGroupCollateral(uint, uint, bool, bool) external;\n    function pairJob(uint) external returns(string memory, string memory, bytes32, uint);\n    function pairFeed(uint) external view returns(Feed memory);\n    function pairSpreadP(uint) external view returns(uint);\n    function pairMinLeverage(uint) external view returns(uint);\n    function pairMaxLeverage(uint) external view returns(uint);\n    function groupMaxCollateral(uint) external view returns(uint);\n    function groupCollateral(uint, bool) external view returns(uint);\n    function guaranteedSlEnabled(uint) external view returns(bool);\n    function pairOpenFeeP(uint) external view returns(uint);\n    function pairCloseFeeP(uint) external view returns(uint);\n    function pairOracleFeeP(uint) external view returns(uint);\n    function pairNftLimitOrderFeeP(uint) external view returns(uint);\n    function pairReferralFeeP(uint) external view returns(uint);\n    function pairMinLevPosDai(uint) external view returns(uint);\n}\n\n// File: contracts\\interfaces\\StorageInterfaceV5.sol\n\npragma solidity 0.8.15;\n\ninterface StorageInterfaceV5{\n    enum LimitOrder { TP, SL, LIQ, OPEN }\n    struct Trader{\n        uint leverageUnlocked;\n        address referral;\n        uint referralRewardsTotal;  // 1e18\n    }\n    struct Trade{\n        address trader;\n        uint pairIndex;\n        uint index;\n        uint initialPosToken;       // 1e18\n        uint positionSizeDai;       // 1e18\n        uint openPrice;             // PRECISION\n        bool buy;\n        uint leverage;\n        uint tp;                    // PRECISION\n        uint sl;                    // PRECISION\n    }\n    struct TradeInfo{\n        uint tokenId;\n        uint tokenPriceDai;         // PRECISION\n        uint openInterestDai;       // 1e18\n        uint tpLastUpdated;\n        uint slLastUpdated;\n        bool beingMarketClosed;\n    }\n    struct OpenLimitOrder{\n        address trader;\n        uint pairIndex;\n        uint index;\n        uint positionSize;          // 1e18 (DAI or GFARM2)\n        uint spreadReductionP;\n        bool buy;\n        uint leverage;\n        uint tp;                    // PRECISION (%)\n        uint sl;                    // PRECISION (%)\n        uint minPrice;              // PRECISION\n        uint maxPrice;              // PRECISION\n        uint block;\n        uint tokenId;               // index in supportedTokens\n    }\n    struct PendingMarketOrder{\n        Trade trade;\n        uint block;\n        uint wantedPrice;           // PRECISION\n        uint slippageP;             // PRECISION (%)\n        uint spreadReductionP;\n        uint tokenId;               // index in supportedTokens\n    }\n    struct PendingNftOrder{\n        address nftHolder;\n        uint nftId;\n        address trader;\n        uint pairIndex;\n        uint index;\n        LimitOrder orderType;\n    }\n    function PRECISION() external pure returns(uint);\n    function gov() external view returns(address);\n    function dev() external view returns(address);\n    function dai() external view returns(TokenInterfaceV5);\n    function token() external view returns(TokenInterfaceV5);\n    function linkErc677() external view returns(TokenInterfaceV5);\n    function tokenDaiRouter() external view returns(UniswapRouterInterfaceV5);\n    function priceAggregator() external view returns(AggregatorInterfaceV6_2);\n    function vault() external view returns(VaultInterfaceV5);\n    function trading() external view returns(address);\n    function callbacks() external view returns(address);\n    function handleTokens(address,uint,bool) external;\n    function transferDai(address, address, uint) external;\n    function transferLinkToAggregator(address, uint, uint) external;\n    function unregisterTrade(address, uint, uint) external;\n    function unregisterPendingMarketOrder(uint, bool) external;\n    function unregisterOpenLimitOrder(address, uint, uint) external;\n    function hasOpenLimitOrder(address, uint, uint) external view returns(bool);\n    function storePendingMarketOrder(PendingMarketOrder memory, uint, bool) external;\n    function storeReferral(address, address) external;\n    function openTrades(address, uint, uint) external view returns(Trade memory);\n    function openTradesInfo(address, uint, uint) external view returns(TradeInfo memory);\n    function updateSl(address, uint, uint, uint) external;\n    function updateTp(address, uint, uint, uint) external;\n    function getOpenLimitOrder(address, uint, uint) external view returns(OpenLimitOrder memory);\n    function spreadReductionsP(uint) external view returns(uint);\n    function positionSizeTokenDynamic(uint,uint) external view returns(uint);\n    function maxSlP() external view returns(uint);\n    function storeOpenLimitOrder(OpenLimitOrder memory) external;\n    function reqID_pendingMarketOrder(uint) external view returns(PendingMarketOrder memory);\n    function storePendingNftOrder(PendingNftOrder memory, uint) external;\n    function updateOpenLimitOrder(OpenLimitOrder calldata) external;\n    function firstEmptyTradeIndex(address, uint) external view returns(uint);\n    function firstEmptyOpenLimitIndex(address, uint) external view returns(uint);\n    function increaseNftRewards(uint, uint) external;\n    function nftSuccessTimelock() external view returns(uint);\n    function currentPercentProfit(uint,uint,bool,uint) external view returns(int);\n    function reqID_pendingNftOrder(uint) external view returns(PendingNftOrder memory);\n    function setNftLastSuccess(uint) external;\n    function updateTrade(Trade memory) external;\n    function nftLastSuccess(uint) external view returns(uint);\n    function unregisterPendingNftOrder(uint) external;\n    function handleDevGovFees(uint, uint, bool, bool) external returns(uint);\n    function distributeLpRewards(uint) external;\n    function getReferral(address) external view returns(address);\n    function increaseReferralRewards(address, uint) external;\n    function storeTrade(Trade memory, TradeInfo memory) external;\n    function setLeverageUnlocked(address, uint) external;\n    function getLeverageUnlocked(address) external view returns(uint);\n    function openLimitOrdersCount(address, uint) external view returns(uint);\n    function maxOpenLimitOrdersPerPair() external view returns(uint);\n    function openTradesCount(address, uint) external view returns(uint);\n    function pendingMarketOpenCount(address, uint) external view returns(uint);\n    function pendingMarketCloseCount(address, uint) external view returns(uint);\n    function maxTradesPerPair() external view returns(uint);\n    function maxTradesPerBlock() external view returns(uint);\n    function tradesPerBlock(uint) external view returns(uint);\n    function pendingOrderIdsCount(address) external view returns(uint);\n    function maxPendingMarketOrders() external view returns(uint);\n    function maxGainP() external view returns(uint);\n    function defaultLeverageUnlocked() external view returns(uint);\n    function openInterestDai(uint, uint) external view returns(uint);\n    function getPendingOrderIds(address) external view returns(uint[] memory);\n    function traders(address) external view returns(Trader memory);\n    function nfts(uint) external view returns(NftInterfaceV5);\n}\n\ninterface AggregatorInterfaceV6_2{\n    enum OrderType { MARKET_OPEN, MARKET_CLOSE, LIMIT_OPEN, LIMIT_CLOSE, UPDATE_SL }\n    function pairsStorage() external view returns(PairsStorageInterfaceV6);\n    function getPrice(uint,OrderType,uint) external returns(uint);\n    function tokenPriceDai() external returns(uint);\n    function linkFee(uint,uint) external view returns(uint);\n    function tokenDaiReservesLp() external view returns(uint, uint);\n    function pendingSlOrders(uint) external view returns(PendingSl memory);\n    function storePendingSlOrder(uint orderId, PendingSl calldata p) external;\n    function unregisterPendingSlOrder(uint orderId) external;\n    struct PendingSl{address trader; uint pairIndex; uint index; uint openPrice; bool buy; uint newSl; }\n}\n\ninterface NftRewardsInterfaceV6{\n    struct TriggeredLimitId{ address trader; uint pairIndex; uint index; StorageInterfaceV5.LimitOrder order; }\n    enum OpenLimitOrderType{ LEGACY, REVERSAL, MOMENTUM }\n    function storeFirstToTrigger(TriggeredLimitId calldata, address) external;\n    function storeTriggerSameBlock(TriggeredLimitId calldata, address) external;\n    function unregisterTrigger(TriggeredLimitId calldata) external;\n    function distributeNftReward(TriggeredLimitId calldata, uint) external;\n    function openLimitOrderTypes(address, uint, uint) external view returns(OpenLimitOrderType);\n    function setOpenLimitOrderType(address, uint, uint, OpenLimitOrderType) external;\n    function triggered(TriggeredLimitId calldata) external view returns(bool);\n    function timedOut(TriggeredLimitId calldata) external view returns(bool);\n}\n\n// File: contracts\\interfaces\\GNSPairInfosInterfaceV6.sol\n\npragma solidity 0.8.15;\n\ninterface GNSPairInfosInterfaceV6{\n    function maxNegativePnlOnOpenP() external view returns(uint); // PRECISION (%)\n\n    function storeTradeInitialAccFees(\n        address trader,\n        uint pairIndex,\n        uint index,\n        bool long\n    ) external;\n\n    function getTradePriceImpact(\n        uint openPrice,   // PRECISION\n        uint pairIndex,\n        bool long,\n        uint openInterest // 1e18 (DAI)\n    ) external view returns(\n        uint priceImpactP,      // PRECISION (%)\n        uint priceAfterImpact   // PRECISION\n    );\n\n   function getTradeLiquidationPrice(\n        address trader,\n        uint pairIndex,\n        uint index,\n        uint openPrice,  // PRECISION\n        bool long,\n        uint collateral, // 1e18 (DAI)\n        uint leverage\n    ) external view returns(uint); // PRECISION\n\n    function getTradeValue(\n        address trader,\n        uint pairIndex,\n        uint index,\n        bool long,\n        uint collateral,   // 1e18 (DAI)\n        uint leverage,\n        int percentProfit, // PRECISION (%)\n        uint closingFee    // 1e18 (DAI)\n    ) external returns(uint); // 1e18 (DAI)\n}\n\n// File: contracts\\interfaces\\GNSReferralsInterfaceV6_2.sol\n\npragma solidity 0.8.15;\n\ninterface GNSReferralsInterfaceV6_2{\n    function registerPotentialReferrer(address trader, address referral) external;\n   \tfunction distributePotentialReward(\n        address trader,\n        uint volumeDai,\n        uint pairOpenFeeP,\n        uint tokenPriceDai\n    ) external returns(uint);\n    function getPercentOfOpenFeeP(address trader) external view returns(uint);\n    function getTraderReferrer(address trader) external view returns(address referrer);\n}\n\n// File: contracts\\Delegatable.sol\n\npragma solidity 0.8.15;\n\nabstract contract Delegatable {\n    mapping (address => address) public delegations;\n    address private senderOverride;\n\n    function setDelegate(address delegate) external {\n        require(tx.origin == msg.sender, \"NO_CONTRACT\");\n\n        delegations[msg.sender] = delegate;\n    }\n\n    function removeDelegate() external {\n        delegations[msg.sender] = address(0);\n    }\n\n    function delegatedAction(address trader, bytes calldata call_data) external returns (bytes memory) {\n        require(delegations[trader] == msg.sender, \"DELEGATE_NOT_APPROVED\");\n\n        senderOverride = trader;\n        (bool success, bytes memory result) = address(this).delegatecall(call_data);\n        if (!success) {\n            // Next 5 lines from https://ethereum.stackexchange.com/a/83577 (return the original revert reason)\n            if (result.length < 68) revert();\n            assembly {\n                result := add(result, 0x04)\n            }\n            revert(abi.decode(result, (string)));\n        }\n\n        senderOverride = address(0);\n\n        return result;\n    }\n\n\n    function _msgSender() public view returns (address) {\n        if (senderOverride == address(0)) {\n            return msg.sender;\n        } else {\n            return senderOverride;\n        }\n    }\n}\n\n// File: contracts\\GNSTradingV6_2.sol\n\npragma solidity 0.8.15;\n\ncontract GNSTradingV6_2 is Delegatable {\n\n    // Contracts (constant)\n    StorageInterfaceV5 public immutable storageT;\n    NftRewardsInterfaceV6 public immutable nftRewards;\n    GNSPairInfosInterfaceV6 public immutable pairInfos;\n    GNSReferralsInterfaceV6_2 public immutable referrals;\n\n    // Params (constant)\n    uint constant PRECISION = 1e10;\n    uint constant MAX_SL_P = 75;  // -75% PNL\n\n    // Params (adjustable)\n    uint public maxPosDai;            // 1e18 (eg. 75000 * 1e18)\n    uint public limitOrdersTimelock;  // block (eg. 30)\n    uint public marketOrdersTimeout;  // block (eg. 30)\n\n    // State\n    bool public isPaused;  // Prevent opening new trades\n    bool public isDone;    // Prevent any interaction with the contract\n\n    // Events\n    event Done(bool done);\n    event Paused(bool paused);\n\n    event NumberUpdated(string name, uint value);\n\n    event MarketOrderInitiated(\n        uint indexed orderId,\n        address indexed trader,\n        uint indexed pairIndex,\n        bool open\n    );\n\n    event OpenLimitPlaced(\n        address indexed trader,\n        uint indexed pairIndex,\n        uint index\n    );\n    event OpenLimitUpdated(\n        address indexed trader,\n        uint indexed pairIndex,\n        uint index,\n        uint newPrice,\n        uint newTp,\n        uint newSl\n    );\n    event OpenLimitCanceled(\n        address indexed trader,\n        uint indexed pairIndex,\n        uint index\n    );\n\n    event TpUpdated(\n        address indexed trader,\n        uint indexed pairIndex,\n        uint index,\n        uint newTp\n    );\n    event SlUpdated(\n        address indexed trader,\n        uint indexed pairIndex,\n        uint index,\n        uint newSl\n    );\n    event SlUpdateInitiated(\n        uint indexed orderId,\n        address indexed trader,\n        uint indexed pairIndex,\n        uint index,\n        uint newSl\n    );\n\n    event NftOrderInitiated(\n        uint orderId,\n        address indexed nftHolder,\n        address indexed trader,\n        uint indexed pairIndex\n    );\n    event NftOrderSameBlock(\n        address indexed nftHolder,\n        address indexed trader,\n        uint indexed pairIndex\n    );\n\n    event ChainlinkCallbackTimeout(\n        uint indexed orderId,\n        StorageInterfaceV5.PendingMarketOrder order\n    );\n    event CouldNotCloseTrade(\n        address indexed trader,\n        uint indexed pairIndex,\n        uint index\n    );\n\n    constructor(\n        StorageInterfaceV5 _storageT,\n        NftRewardsInterfaceV6 _nftRewards,\n        GNSPairInfosInterfaceV6 _pairInfos,\n        GNSReferralsInterfaceV6_2 _referrals,\n        uint _maxPosDai,\n        uint _limitOrdersTimelock,\n        uint _marketOrdersTimeout\n    ) {\n        require(address(_storageT) != address(0)\n            && address(_nftRewards) != address(0)\n            && address(_pairInfos) != address(0)\n            && address(_referrals) != address(0)\n            && _maxPosDai > 0\n            && _limitOrdersTimelock > 0\n            && _marketOrdersTimeout > 0, \"WRONG_PARAMS\");\n\n        storageT = _storageT;\n        nftRewards = _nftRewards;\n        pairInfos = _pairInfos;\n        referrals = _referrals;\n\n        maxPosDai = _maxPosDai;\n        limitOrdersTimelock = _limitOrdersTimelock;\n        marketOrdersTimeout = _marketOrdersTimeout;\n    }\n\n    // Modifiers\n    modifier onlyGov(){\n        require(msg.sender == storageT.gov(), \"GOV_ONLY\");\n        _;\n    }\n    modifier notContract(){\n        require(tx.origin == msg.sender);\n        _;\n    }\n    modifier notDone(){\n        require(!isDone, \"DONE\");\n        _;\n    }\n\n    // Manage params\n    function setMaxPosDai(uint value) external onlyGov{\n        require(value > 0, \"VALUE_0\");\n        maxPosDai = value;\n        \n        emit NumberUpdated(\"maxPosDai\", value);\n    }\n    function setLimitOrdersTimelock(uint value) external onlyGov{\n        require(value > 0, \"VALUE_0\");\n        limitOrdersTimelock = value;\n        \n        emit NumberUpdated(\"limitOrdersTimelock\", value);\n    }\n    function setMarketOrdersTimeout(uint value) external onlyGov{\n        require(value > 0, \"VALUE_0\");\n        marketOrdersTimeout = value;\n        \n        emit NumberUpdated(\"marketOrdersTimeout\", value);\n    }\n\n    // Manage state\n    function pause() external onlyGov{\n        isPaused = !isPaused;\n\n        emit Paused(isPaused);\n    }\n    function done() external onlyGov{\n        isDone = !isDone;\n\n        emit Done(isDone);\n    }\n\n    // Open new trade (MARKET/LIMIT)\n    function openTrade(\n        StorageInterfaceV5.Trade memory t,\n        NftRewardsInterfaceV6.OpenLimitOrderType orderType, // LEGACY => market\n        uint spreadReductionId,\n        uint slippageP, // for market orders only\n        address referrer\n    ) external notContract notDone{\n\n        require(!isPaused, \"PAUSED\");\n\n        AggregatorInterfaceV6_2 aggregator = storageT.priceAggregator();\n        PairsStorageInterfaceV6 pairsStored = aggregator.pairsStorage();\n\n        address sender = _msgSender();\n\n        require(storageT.openTradesCount(sender, t.pairIndex)\n            + storageT.pendingMarketOpenCount(sender, t.pairIndex)\n            + storageT.openLimitOrdersCount(sender, t.pairIndex)\n            < storageT.maxTradesPerPair(), \n            \"MAX_TRADES_PER_PAIR\");\n\n        require(storageT.pendingOrderIdsCount(sender)\n            < storageT.maxPendingMarketOrders(), \n            \"MAX_PENDING_ORDERS\");\n\n        require(t.positionSizeDai <= maxPosDai, \"ABOVE_MAX_POS\");\n        require(t.positionSizeDai * t.leverage\n            >= pairsStored.pairMinLevPosDai(t.pairIndex), \"BELOW_MIN_POS\");\n\n        require(t.leverage > 0 && t.leverage >= pairsStored.pairMinLeverage(t.pairIndex) \n            && t.leverage <= pairsStored.pairMaxLeverage(t.pairIndex), \n            \"LEVERAGE_INCORRECT\");\n\n        require(spreadReductionId == 0\n            || storageT.nfts(spreadReductionId - 1).balanceOf(sender) > 0,\n            \"NO_CORRESPONDING_NFT_SPREAD_REDUCTION\");\n\n        require(t.tp == 0 || (t.buy ?\n                t.tp > t.openPrice :\n                t.tp < t.openPrice), \"WRONG_TP\");\n\n        require(t.sl == 0 || (t.buy ?\n                t.sl < t.openPrice :\n                t.sl > t.openPrice), \"WRONG_SL\");\n\n        (uint priceImpactP, ) = pairInfos.getTradePriceImpact(\n            0,\n            t.pairIndex,\n            t.buy,\n            t.positionSizeDai * t.leverage\n        );\n\n        require(priceImpactP * t.leverage\n            <= pairInfos.maxNegativePnlOnOpenP(), \"PRICE_IMPACT_TOO_HIGH\");\n\n        storageT.transferDai(sender, address(storageT), t.positionSizeDai);\n\n        if(orderType != NftRewardsInterfaceV6.OpenLimitOrderType.LEGACY){\n            uint index = storageT.firstEmptyOpenLimitIndex(sender, t.pairIndex);\n\n            storageT.storeOpenLimitOrder(\n                StorageInterfaceV5.OpenLimitOrder(\n                    sender,\n                    t.pairIndex,\n                    index,\n                    t.positionSizeDai,\n                    spreadReductionId > 0 ?\n                        storageT.spreadReductionsP(spreadReductionId - 1) :\n                        0,\n                    t.buy,\n                    t.leverage,\n                    t.tp,\n                    t.sl,\n                    t.openPrice,\n                    t.openPrice,\n                    block.number,\n                    0\n                )\n            );\n\n            nftRewards.setOpenLimitOrderType(sender, t.pairIndex, index, orderType);\n\n            emit OpenLimitPlaced(\n                sender,\n                t.pairIndex,\n                index\n            );\n\n        }else{\n            uint orderId = aggregator.getPrice(\n                t.pairIndex, \n                AggregatorInterfaceV6_2.OrderType.MARKET_OPEN, \n                t.positionSizeDai * t.leverage\n            );\n\n            storageT.storePendingMarketOrder(\n                StorageInterfaceV5.PendingMarketOrder(\n                    StorageInterfaceV5.Trade(\n                        sender,\n                        t.pairIndex,\n                        0,\n                        0,\n                        t.positionSizeDai,\n                        0, \n                        t.buy,\n                        t.leverage,\n                        t.tp,\n                        t.sl\n                    ),\n                    0,\n                    t.openPrice,\n                    slippageP,\n                    spreadReductionId > 0 ?\n                        storageT.spreadReductionsP(spreadReductionId - 1) :\n                        0,\n                    0\n                ), orderId, true\n            );\n\n            emit MarketOrderInitiated(\n                orderId,\n                sender,\n                t.pairIndex,\n                true\n            );\n        }\n\n        referrals.registerPotentialReferrer(sender, referrer);\n    }\n\n    // Close trade (MARKET)\n    function closeTradeMarket(\n        uint pairIndex,\n        uint index\n    ) external notContract notDone{\n\n        address sender = _msgSender();\n\n        StorageInterfaceV5.Trade memory t = storageT.openTrades(\n            sender, pairIndex, index\n        );\n\n        StorageInterfaceV5.TradeInfo memory i = storageT.openTradesInfo(\n            sender, pairIndex, index\n        );\n\n        require(storageT.pendingOrderIdsCount(sender)\n            < storageT.maxPendingMarketOrders(), \"MAX_PENDING_ORDERS\");\n\n        require(!i.beingMarketClosed, \"ALREADY_BEING_CLOSED\");\n        require(t.leverage > 0, \"NO_TRADE\");\n\n        uint orderId = storageT.priceAggregator().getPrice(\n            pairIndex, \n            AggregatorInterfaceV6_2.OrderType.MARKET_CLOSE, \n            t.initialPosToken * i.tokenPriceDai * t.leverage / PRECISION\n        );\n\n        storageT.storePendingMarketOrder(\n            StorageInterfaceV5.PendingMarketOrder(\n                StorageInterfaceV5.Trade(\n                    sender, pairIndex, index, 0, 0, 0, false, 0, 0, 0\n                ),\n                0, 0, 0, 0, 0\n            ), orderId, false\n        );\n\n        emit MarketOrderInitiated(\n            orderId,\n            sender,\n            pairIndex,\n            false\n        );\n    }\n\n    // Manage limit order (OPEN)\n    function updateOpenLimitOrder(\n        uint pairIndex, \n        uint index, \n        uint price,  // PRECISION\n        uint tp,\n        uint sl\n    ) external notContract notDone{\n\n        address sender = _msgSender();\n\n        require(storageT.hasOpenLimitOrder(sender, pairIndex, index),\n            \"NO_LIMIT\");\n\n        StorageInterfaceV5.OpenLimitOrder memory o = storageT.getOpenLimitOrder(\n            sender, pairIndex, index\n        );\n\n        require(block.number - o.block >= limitOrdersTimelock, \"LIMIT_TIMELOCK\");\n\n        require(tp == 0 || (o.buy ?\n            tp > price :\n            tp < price), \"WRONG_TP\");\n\n        require(sl == 0 || (o.buy ?\n            sl < price :\n            sl > price), \"WRONG_SL\");\n\n        o.minPrice = price;\n        o.maxPrice = price;\n\n        o.tp = tp;\n        o.sl = sl;\n\n        storageT.updateOpenLimitOrder(o);\n\n        emit OpenLimitUpdated(\n            sender,\n            pairIndex,\n            index,\n            price,\n            tp,\n            sl\n        );\n    }\n\n    function cancelOpenLimitOrder(\n        uint pairIndex,\n        uint index\n    ) external notContract notDone{\n\n        address sender = _msgSender();\n\n        require(storageT.hasOpenLimitOrder(sender, pairIndex, index),\n            \"NO_LIMIT\");\n\n        StorageInterfaceV5.OpenLimitOrder memory o = storageT.getOpenLimitOrder(\n            sender, pairIndex, index\n        );\n\n        require(block.number - o.block >= limitOrdersTimelock, \"LIMIT_TIMELOCK\");\n\n        storageT.unregisterOpenLimitOrder(sender, pairIndex, index);\n        storageT.transferDai(address(storageT), sender, o.positionSize);\n\n        emit OpenLimitCanceled(\n            sender,\n            pairIndex,\n            index\n        );\n    }\n\n    // Manage limit order (TP/SL)\n    function updateTp(\n        uint pairIndex,\n        uint index,\n        uint newTp\n    ) external notContract notDone{\n\n        address sender = _msgSender();\n\n        StorageInterfaceV5.Trade memory t = storageT.openTrades(\n            sender, pairIndex, index\n        );\n\n        StorageInterfaceV5.TradeInfo memory i = storageT.openTradesInfo(\n            sender, pairIndex, index\n        );\n\n        require(t.leverage > 0, \"NO_TRADE\");\n        require(block.number - i.tpLastUpdated >= limitOrdersTimelock,\n            \"LIMIT_TIMELOCK\");\n\n        storageT.updateTp(sender, pairIndex, index, newTp);\n\n        emit TpUpdated(\n            sender,\n            pairIndex,\n            index,\n            newTp\n        );\n    }\n\n    function updateSl(\n        uint pairIndex,\n        uint index,\n        uint newSl\n    ) external notContract notDone{\n\n        address sender = _msgSender();\n\n        StorageInterfaceV5.Trade memory t = storageT.openTrades(\n            sender, pairIndex, index\n        );\n\n        StorageInterfaceV5.TradeInfo memory i = storageT.openTradesInfo(\n            sender, pairIndex, index\n        );\n\n        require(t.leverage > 0, \"NO_TRADE\");\n\n        uint maxSlDist = t.openPrice * MAX_SL_P / 100 / t.leverage;\n\n        require(newSl == 0 || (t.buy ? \n            newSl >= t.openPrice - maxSlDist :\n            newSl <= t.openPrice + maxSlDist), \"SL_TOO_BIG\");\n        \n        require(block.number - i.slLastUpdated >= limitOrdersTimelock,\n            \"LIMIT_TIMELOCK\");\n\n        AggregatorInterfaceV6_2 aggregator = storageT.priceAggregator();\n\n        if(newSl == 0\n        || !aggregator.pairsStorage().guaranteedSlEnabled(pairIndex)){\n\n            storageT.updateSl(sender, pairIndex, index, newSl);\n\n            emit SlUpdated(\n                sender,\n                pairIndex,\n                index,\n                newSl\n            );\n\n        }else{\n            uint orderId = aggregator.getPrice(\n                pairIndex,\n                AggregatorInterfaceV6_2.OrderType.UPDATE_SL, \n                t.initialPosToken * i.tokenPriceDai * t.leverage / PRECISION\n            );\n\n            aggregator.storePendingSlOrder(\n                orderId, \n                AggregatorInterfaceV6_2.PendingSl(\n                    sender, pairIndex, index, t.openPrice, t.buy, newSl\n                )\n            );\n            \n            emit SlUpdateInitiated(\n                orderId,\n                sender,\n                pairIndex,\n                index,\n                newSl\n            );\n        }\n    }\n\n    // Execute limit order\n    function executeNftOrder(\n        StorageInterfaceV5.LimitOrder orderType, \n        address trader, \n        uint pairIndex, \n        uint index,\n        uint nftId, \n        uint nftType\n    ) external notContract notDone{\n\n        address sender = _msgSender();\n\n        require(nftType >= 1 && nftType <= 5, \"WRONG_NFT_TYPE\");\n        require(storageT.nfts(nftType - 1).ownerOf(nftId) == sender, \"NO_NFT\");\n\n        require(block.number >=\n            storageT.nftLastSuccess(nftId) + storageT.nftSuccessTimelock(),\n            \"SUCCESS_TIMELOCK\");\n\n        StorageInterfaceV5.Trade memory t;\n\n        if(orderType == StorageInterfaceV5.LimitOrder.OPEN){\n            require(storageT.hasOpenLimitOrder(trader, pairIndex, index),\n                \"NO_LIMIT\");\n\n        }else{\n            t = storageT.openTrades(trader, pairIndex, index);\n\n            require(t.leverage > 0, \"NO_TRADE\");\n\n            if(orderType == StorageInterfaceV5.LimitOrder.LIQ){\n                uint liqPrice = getTradeLiquidationPrice(t);\n                \n                require(t.sl == 0 || (t.buy ?\n                    liqPrice > t.sl :\n                    liqPrice < t.sl), \"HAS_SL\");\n\n            }else{\n                require(orderType != StorageInterfaceV5.LimitOrder.SL || t.sl > 0,\n                    \"NO_SL\");\n                require(orderType != StorageInterfaceV5.LimitOrder.TP || t.tp > 0,\n                    \"NO_TP\");\n            }\n        }\n\n        NftRewardsInterfaceV6.TriggeredLimitId memory triggeredLimitId =\n            NftRewardsInterfaceV6.TriggeredLimitId(\n                trader, pairIndex, index, orderType\n            );\n\n        if(!nftRewards.triggered(triggeredLimitId)\n        || nftRewards.timedOut(triggeredLimitId)){\n            \n            uint leveragedPosDai;\n\n            if(orderType == StorageInterfaceV5.LimitOrder.OPEN){\n\n                StorageInterfaceV5.OpenLimitOrder memory l = storageT.getOpenLimitOrder(\n                    trader, pairIndex, index\n                );\n\n                leveragedPosDai = l.positionSize * l.leverage;\n\n                (uint priceImpactP, ) = pairInfos.getTradePriceImpact(\n                    0,\n                    l.pairIndex,\n                    l.buy,\n                    leveragedPosDai\n                );\n                \n                require(priceImpactP * l.leverage <= pairInfos.maxNegativePnlOnOpenP(),\n                    \"PRICE_IMPACT_TOO_HIGH\");\n\n            }else{\n                leveragedPosDai = t.initialPosToken * storageT.openTradesInfo(\n                    trader, pairIndex, index\n                ).tokenPriceDai * t.leverage / PRECISION;\n            }\n\n            storageT.transferLinkToAggregator(sender, pairIndex, leveragedPosDai);\n\n            uint orderId = storageT.priceAggregator().getPrice(\n                pairIndex, \n                orderType == StorageInterfaceV5.LimitOrder.OPEN ? \n                    AggregatorInterfaceV6_2.OrderType.LIMIT_OPEN : \n                    AggregatorInterfaceV6_2.OrderType.LIMIT_CLOSE,\n                leveragedPosDai\n            );\n\n            storageT.storePendingNftOrder(\n                StorageInterfaceV5.PendingNftOrder(\n                    sender,\n                    nftId,\n                    trader,\n                    pairIndex,\n                    index,\n                    orderType\n                ), orderId\n            );\n\n            nftRewards.storeFirstToTrigger(triggeredLimitId, sender);\n            \n            emit NftOrderInitiated(\n                orderId,\n                sender,\n                trader,\n                pairIndex\n            );\n\n        }else{\n            nftRewards.storeTriggerSameBlock(triggeredLimitId, sender);\n            \n            emit NftOrderSameBlock(\n                sender,\n                trader,\n                pairIndex\n            );\n        }\n    }\n    // Avoid stack too deep error in executeNftOrder\n    function getTradeLiquidationPrice(\n        StorageInterfaceV5.Trade memory t\n    ) private view returns(uint){\n        return pairInfos.getTradeLiquidationPrice(\n            t.trader,\n            t.pairIndex,\n            t.index,\n            t.openPrice,\n            t.buy,\n            t.initialPosToken * storageT.openTradesInfo(\n                t.trader, t.pairIndex, t.index\n            ).tokenPriceDai / PRECISION,\n            t.leverage\n        );\n    }\n\n    // Market timeout\n    function openTradeMarketTimeout(uint _order) external notContract notDone{\n        address sender = _msgSender();\n\n        StorageInterfaceV5.PendingMarketOrder memory o =\n            storageT.reqID_pendingMarketOrder(_order);\n\n        StorageInterfaceV5.Trade memory t = o.trade;\n\n        require(o.block > 0\n            && block.number >= o.block + marketOrdersTimeout, \"WAIT_TIMEOUT\");\n\n        require(t.trader == sender, \"NOT_YOUR_ORDER\");\n        require(t.leverage > 0, \"WRONG_MARKET_ORDER_TYPE\");\n\n        storageT.unregisterPendingMarketOrder(_order, true);\n        storageT.transferDai(address(storageT), sender, t.positionSizeDai);\n\n        emit ChainlinkCallbackTimeout(\n            _order,\n            o\n        );\n    }\n    \n    function closeTradeMarketTimeout(uint _order) external notContract notDone{\n        address sender = _msgSender();\n\n        StorageInterfaceV5.PendingMarketOrder memory o =\n            storageT.reqID_pendingMarketOrder(_order);\n\n        StorageInterfaceV5.Trade memory t = o.trade;\n\n        require(o.block > 0\n            && block.number >= o.block + marketOrdersTimeout, \"WAIT_TIMEOUT\");\n\n        require(t.trader == sender, \"NOT_YOUR_ORDER\");\n        require(t.leverage == 0, \"WRONG_MARKET_ORDER_TYPE\");\n\n        storageT.unregisterPendingMarketOrder(_order, false);\n\n        (bool success, ) = address(this).delegatecall(\n            abi.encodeWithSignature(\n                \"closeTradeMarket(uint256,uint256)\",\n                t.pairIndex,\n                t.index\n            )\n        );\n\n        if(!success){\n            emit CouldNotCloseTrade(\n                sender,\n                t.pairIndex,\n                t.index\n            );\n        }\n\n        emit ChainlinkCallbackTimeout(\n            _order,\n            o\n        );\n    }\n}","sourcePath":"contracts/GNSTradingV6_2.sol","type":"contract","deployment":{"address":"0x81465dF3c64B18b4092990eB73200A3814AF75E5","chainid":"80001","blockHeight":28755342}}