{
  "abi": [
    {
      "inputs": [
        {
          "internalType": "contract TokenInterfaceV5",
          "name": "_dai",
          "type": "address"
        },
        {
          "internalType": "contract TokenInterfaceV5",
          "name": "_token",
          "type": "address"
        },
        {
          "internalType": "contract TokenInterfaceV5",
          "name": "_linkErc677",
          "type": "address"
        },
        {
          "internalType": "contract NftInterfaceV5[5]",
          "name": "_nfts",
          "type": "address[5]"
        }
      ],
      "stateMutability": "nonpayable",
      "type": "constructor"
    },
    {
      "anonymous": false,
      "inputs": [
        {
          "indexed": false,
          "internalType": "string",
          "name": "name",
          "type": "string"
        },
        {
          "indexed": false,
          "internalType": "address",
          "name": "a",
          "type": "address"
        }
      ],
      "name": "AddressUpdated",
      "type": "event"
    },
    {
      "anonymous": false,
      "inputs": [
        {
          "indexed": false,
          "internalType": "contract NftInterfaceV5[5]",
          "name": "nfts",
          "type": "address[5]"
        }
      ],
      "name": "NftsUpdated",
      "type": "event"
    },
    {
      "anonymous": false,
      "inputs": [
        {
          "indexed": false,
          "internalType": "string",
          "name": "name",
          "type": "string"
        },
        {
          "indexed": false,
          "internalType": "uint256",
          "name": "value",
          "type": "uint256"
        }
      ],
      "name": "NumberUpdated",
      "type": "event"
    },
    {
      "anonymous": false,
      "inputs": [
        {
          "indexed": false,
          "internalType": "string",
          "name": "name",
          "type": "string"
        },
        {
          "indexed": false,
          "internalType": "uint256",
          "name": "pairIndex",
          "type": "uint256"
        },
        {
          "indexed": false,
          "internalType": "uint256",
          "name": "value",
          "type": "uint256"
        }
      ],
      "name": "NumberUpdatedPair",
      "type": "event"
    },
    {
      "anonymous": false,
      "inputs": [
        {
          "indexed": false,
          "internalType": "uint256[5]",
          "name": "",
          "type": "uint256[5]"
        }
      ],
      "name": "SpreadReductionsUpdated",
      "type": "event"
    },
    {
      "anonymous": false,
      "inputs": [
        {
          "indexed": false,
          "internalType": "address",
          "name": "a",
          "type": "address"
        }
      ],
      "name": "SupportedTokenAdded",
      "type": "event"
    },
    {
      "anonymous": false,
      "inputs": [
        {
          "indexed": false,
          "internalType": "address",
          "name": "a",
          "type": "address"
        }
      ],
      "name": "TradingContractAdded",
      "type": "event"
    },
    {
      "anonymous": false,
      "inputs": [
        {
          "indexed": false,
          "internalType": "address",
          "name": "a",
          "type": "address"
        }
      ],
      "name": "TradingContractRemoved",
      "type": "event"
    },
    {
      "inputs": [],
      "name": "MINTER_ROLE",
      "outputs": [
        {
          "internalType": "bytes32",
          "name": "",
          "type": "bytes32"
        }
      ],
      "stateMutability": "view",
      "type": "function"
    },
    {
      "inputs": [],
      "name": "PRECISION",
      "outputs": [
        {
          "internalType": "uint256",
          "name": "",
          "type": "uint256"
        }
      ],
      "stateMutability": "view",
      "type": "function"
    },
    {
      "inputs": [
        {
          "internalType": "address",
          "name": "_token",
          "type": "address"
        }
      ],
      "name": "addSupportedToken",
      "outputs": [],
      "stateMutability": "nonpayable",
      "type": "function"
    },
    {
      "inputs": [
        {
          "internalType": "address",
          "name": "_trading",
          "type": "address"
        }
      ],
      "name": "addTradingContract",
      "outputs": [],
      "stateMutability": "nonpayable",
      "type": "function"
    },
    {
      "inputs": [],
      "name": "callbacks",
      "outputs": [
        {
          "internalType": "contract PausableInterfaceV5",
          "name": "",
          "type": "address"
        }
      ],
      "stateMutability": "view",
      "type": "function"
    },
    {
      "inputs": [],
      "name": "claimFees",
      "outputs": [],
      "stateMutability": "nonpayable",
      "type": "function"
    },
    {
      "inputs": [],
      "name": "dai",
      "outputs": [
        {
          "internalType": "contract TokenInterfaceV5",
          "name": "",
          "type": "address"
        }
      ],
      "stateMutability": "view",
      "type": "function"
    },
    {
      "inputs": [],
      "name": "defaultLeverageUnlocked",
      "outputs": [
        {
          "internalType": "uint256",
          "name": "",
          "type": "uint256"
        }
      ],
      "stateMutability": "view",
      "type": "function"
    },
    {
      "inputs": [],
      "name": "dev",
      "outputs": [
        {
          "internalType": "address",
          "name": "",
          "type": "address"
        }
      ],
      "stateMutability": "view",
      "type": "function"
    },
    {
      "inputs": [],
      "name": "devFeesDai",
      "outputs": [
        {
          "internalType": "uint256",
          "name": "",
          "type": "uint256"
        }
      ],
      "stateMutability": "view",
      "type": "function"
    },
    {
      "inputs": [],
      "name": "devFeesToken",
      "outputs": [
        {
          "internalType": "uint256",
          "name": "",
          "type": "uint256"
        }
      ],
      "stateMutability": "view",
      "type": "function"
    },
    {
      "inputs": [
        {
          "internalType": "uint256",
          "name": "_amount",
          "type": "uint256"
        }
      ],
      "name": "distributeLpRewards",
      "outputs": [],
      "stateMutability": "nonpayable",
      "type": "function"
    },
    {
      "inputs": [
        {
          "internalType": "address",
          "name": "trader",
          "type": "address"
        },
        {
          "internalType": "uint256",
          "name": "pairIndex",
          "type": "uint256"
        }
      ],
      "name": "firstEmptyOpenLimitIndex",
      "outputs": [
        {
          "internalType": "uint256",
          "name": "index",
          "type": "uint256"
        }
      ],
      "stateMutability": "view",
      "type": "function"
    },
    {
      "inputs": [
        {
          "internalType": "address",
          "name": "trader",
          "type": "address"
        },
        {
          "internalType": "uint256",
          "name": "pairIndex",
          "type": "uint256"
        }
      ],
      "name": "firstEmptyTradeIndex",
      "outputs": [
        {
          "internalType": "uint256",
          "name": "index",
          "type": "uint256"
        }
      ],
      "stateMutability": "view",
      "type": "function"
    },
    {
      "inputs": [
        {
          "internalType": "address",
          "name": "_trader",
          "type": "address"
        }
      ],
      "name": "getLeverageUnlocked",
      "outputs": [
        {
          "internalType": "uint256",
          "name": "",
          "type": "uint256"
        }
      ],
      "stateMutability": "view",
      "type": "function"
    },
    {
      "inputs": [
        {
          "internalType": "address",
          "name": "_trader",
          "type": "address"
        },
        {
          "internalType": "uint256",
          "name": "_pairIndex",
          "type": "uint256"
        },
        {
          "internalType": "uint256",
          "name": "_index",
          "type": "uint256"
        }
      ],
      "name": "getOpenLimitOrder",
      "outputs": [
        {
          "components": [
            {
              "internalType": "address",
              "name": "trader",
              "type": "address"
            },
            {
              "internalType": "uint256",
              "name": "pairIndex",
              "type": "uint256"
            },
            {
              "internalType": "uint256",
              "name": "index",
              "type": "uint256"
            },
            {
              "internalType": "uint256",
              "name": "positionSize",
              "type": "uint256"
            },
            {
              "internalType": "uint256",
              "name": "spreadReductionP",
              "type": "uint256"
            },
            {
              "internalType": "bool",
              "name": "buy",
              "type": "bool"
            },
            {
              "internalType": "uint256",
              "name": "leverage",
              "type": "uint256"
            },
            {
              "internalType": "uint256",
              "name": "tp",
              "type": "uint256"
            },
            {
              "internalType": "uint256",
              "name": "sl",
              "type": "uint256"
            },
            {
              "internalType": "uint256",
              "name": "minPrice",
              "type": "uint256"
            },
            {
              "internalType": "uint256",
              "name": "maxPrice",
              "type": "uint256"
            },
            {
              "internalType": "uint256",
              "name": "block",
              "type": "uint256"
            },
            {
              "internalType": "uint256",
              "name": "tokenId",
              "type": "uint256"
            }
          ],
          "internalType": "struct GNSTestnetTradingStorageV5.OpenLimitOrder",
          "name": "",
          "type": "tuple"
        }
      ],
      "stateMutability": "view",
      "type": "function"
    },
    {
      "inputs": [],
      "name": "getOpenLimitOrders",
      "outputs": [
        {
          "components": [
            {
              "internalType": "address",
              "name": "trader",
              "type": "address"
            },
            {
              "internalType": "uint256",
              "name": "pairIndex",
              "type": "uint256"
            },
            {
              "internalType": "uint256",
              "name": "index",
              "type": "uint256"
            },
            {
              "internalType": "uint256",
              "name": "positionSize",
              "type": "uint256"
            },
            {
              "internalType": "uint256",
              "name": "spreadReductionP",
              "type": "uint256"
            },
            {
              "internalType": "bool",
              "name": "buy",
              "type": "bool"
            },
            {
              "internalType": "uint256",
              "name": "leverage",
              "type": "uint256"
            },
            {
              "internalType": "uint256",
              "name": "tp",
              "type": "uint256"
            },
            {
              "internalType": "uint256",
              "name": "sl",
              "type": "uint256"
            },
            {
              "internalType": "uint256",
              "name": "minPrice",
              "type": "uint256"
            },
            {
              "internalType": "uint256",
              "name": "maxPrice",
              "type": "uint256"
            },
            {
              "internalType": "uint256",
              "name": "block",
              "type": "uint256"
            },
            {
              "internalType": "uint256",
              "name": "tokenId",
              "type": "uint256"
            }
          ],
          "internalType": "struct GNSTestnetTradingStorageV5.OpenLimitOrder[]",
          "name": "",
          "type": "tuple[]"
        }
      ],
      "stateMutability": "view",
      "type": "function"
    },
    {
      "inputs": [
        {
          "internalType": "address",
          "name": "_trader",
          "type": "address"
        }
      ],
      "name": "getPendingOrderIds",
      "outputs": [
        {
          "internalType": "uint256[]",
          "name": "",
          "type": "uint256[]"
        }
      ],
      "stateMutability": "view",
      "type": "function"
    },
    {
      "inputs": [
        {
          "internalType": "address",
          "name": "_trader",
          "type": "address"
        }
      ],
      "name": "getReferral",
      "outputs": [
        {
          "internalType": "address",
          "name": "",
          "type": "address"
        }
      ],
      "stateMutability": "view",
      "type": "function"
    },
    {
      "inputs": [],
      "name": "getSpreadReductionsArray",
      "outputs": [
        {
          "internalType": "uint256[5]",
          "name": "",
          "type": "uint256[5]"
        }
      ],
      "stateMutability": "view",
      "type": "function"
    },
    {
      "inputs": [],
      "name": "getSupportedTokens",
      "outputs": [
        {
          "internalType": "address[]",
          "name": "",
          "type": "address[]"
        }
      ],
      "stateMutability": "view",
      "type": "function"
    },
    {
      "inputs": [],
      "name": "gov",
      "outputs": [
        {
          "internalType": "address",
          "name": "",
          "type": "address"
        }
      ],
      "stateMutability": "view",
      "type": "function"
    },
    {
      "inputs": [],
      "name": "govFeesDai",
      "outputs": [
        {
          "internalType": "uint256",
          "name": "",
          "type": "uint256"
        }
      ],
      "stateMutability": "view",
      "type": "function"
    },
    {
      "inputs": [],
      "name": "govFeesToken",
      "outputs": [
        {
          "internalType": "uint256",
          "name": "",
          "type": "uint256"
        }
      ],
      "stateMutability": "view",
      "type": "function"
    },
    {
      "inputs": [
        {
          "internalType": "uint256",
          "name": "_pairIndex",
          "type": "uint256"
        },
        {
          "internalType": "uint256",
          "name": "_leveragedPositionSize",
          "type": "uint256"
        },
        {
          "internalType": "bool",
          "name": "_dai",
          "type": "bool"
        },
        {
          "internalType": "bool",
          "name": "_fullFee",
          "type": "bool"
        }
      ],
      "name": "handleDevGovFees",
      "outputs": [
        {
          "internalType": "uint256",
          "name": "fee",
          "type": "uint256"
        }
      ],
      "stateMutability": "nonpayable",
      "type": "function"
    },
    {
      "inputs": [
        {
          "internalType": "address",
          "name": "_a",
          "type": "address"
        },
        {
          "internalType": "uint256",
          "name": "_amount",
          "type": "uint256"
        },
        {
          "internalType": "bool",
          "name": "_mint",
          "type": "bool"
        }
      ],
      "name": "handleTokens",
      "outputs": [],
      "stateMutability": "nonpayable",
      "type": "function"
    },
    {
      "inputs": [
        {
          "internalType": "address",
          "name": "trader",
          "type": "address"
        },
        {
          "internalType": "uint256",
          "name": "pairIndex",
          "type": "uint256"
        },
        {
          "internalType": "uint256",
          "name": "index",
          "type": "uint256"
        }
      ],
      "name": "hasOpenLimitOrder",
      "outputs": [
        {
          "internalType": "bool",
          "name": "",
          "type": "bool"
        }
      ],
      "stateMutability": "view",
      "type": "function"
    },
    {
      "inputs": [
        {
          "internalType": "uint256",
          "name": "_nftId",
          "type": "uint256"
        },
        {
          "internalType": "uint256",
          "name": "_amount",
          "type": "uint256"
        }
      ],
      "name": "increaseNftRewards",
      "outputs": [],
      "stateMutability": "nonpayable",
      "type": "function"
    },
    {
      "inputs": [
        {
          "internalType": "address",
          "name": "_referral",
          "type": "address"
        },
        {
          "internalType": "uint256",
          "name": "_amount",
          "type": "uint256"
        }
      ],
      "name": "increaseReferralRewards",
      "outputs": [],
      "stateMutability": "nonpayable",
      "type": "function"
    },
    {
      "inputs": [
        {
          "internalType": "address",
          "name": "",
          "type": "address"
        }
      ],
      "name": "isTradingContract",
      "outputs": [
        {
          "internalType": "bool",
          "name": "",
          "type": "bool"
        }
      ],
      "stateMutability": "view",
      "type": "function"
    },
    {
      "inputs": [],
      "name": "linkErc677",
      "outputs": [
        {
          "internalType": "contract TokenInterfaceV5",
          "name": "",
          "type": "address"
        }
      ],
      "stateMutability": "view",
      "type": "function"
    },
    {
      "inputs": [],
      "name": "maxGainP",
      "outputs": [
        {
          "internalType": "uint256",
          "name": "",
          "type": "uint256"
        }
      ],
      "stateMutability": "view",
      "type": "function"
    },
    {
      "inputs": [],
      "name": "maxPendingMarketOrders",
      "outputs": [
        {
          "internalType": "uint256",
          "name": "",
          "type": "uint256"
        }
      ],
      "stateMutability": "view",
      "type": "function"
    },
    {
      "inputs": [],
      "name": "maxSlP",
      "outputs": [
        {
          "internalType": "uint256",
          "name": "",
          "type": "uint256"
        }
      ],
      "stateMutability": "view",
      "type": "function"
    },
    {
      "inputs": [],
      "name": "maxTradesPerBlock",
      "outputs": [
        {
          "internalType": "uint256",
          "name": "",
          "type": "uint256"
        }
      ],
      "stateMutability": "view",
      "type": "function"
    },
    {
      "inputs": [],
      "name": "maxTradesPerPair",
      "outputs": [
        {
          "internalType": "uint256",
          "name": "",
          "type": "uint256"
        }
      ],
      "stateMutability": "view",
      "type": "function"
    },
    {
      "inputs": [
        {
          "internalType": "uint256",
          "name": "",
          "type": "uint256"
        }
      ],
      "name": "nftLastSuccess",
      "outputs": [
        {
          "internalType": "uint256",
          "name": "",
          "type": "uint256"
        }
      ],
      "stateMutability": "view",
      "type": "function"
    },
    {
      "inputs": [],
      "name": "nftRewards",
      "outputs": [
        {
          "internalType": "uint256",
          "name": "",
          "type": "uint256"
        }
      ],
      "stateMutability": "view",
      "type": "function"
    },
    {
      "inputs": [],
      "name": "nftSuccessTimelock",
      "outputs": [
        {
          "internalType": "uint256",
          "name": "",
          "type": "uint256"
        }
      ],
      "stateMutability": "view",
      "type": "function"
    },
    {
      "inputs": [
        {
          "internalType": "uint256",
          "name": "",
          "type": "uint256"
        }
      ],
      "name": "nfts",
      "outputs": [
        {
          "internalType": "contract NftInterfaceV5",
          "name": "",
          "type": "address"
        }
      ],
      "stateMutability": "view",
      "type": "function"
    },
    {
      "inputs": [
        {
          "internalType": "uint256",
          "name": "",
          "type": "uint256"
        },
        {
          "internalType": "uint256",
          "name": "",
          "type": "uint256"
        }
      ],
      "name": "openInterestDai",
      "outputs": [
        {
          "internalType": "uint256",
          "name": "",
          "type": "uint256"
        }
      ],
      "stateMutability": "view",
      "type": "function"
    },
    {
      "inputs": [
        {
          "internalType": "address",
          "name": "",
          "type": "address"
        },
        {
          "internalType": "uint256",
          "name": "",
          "type": "uint256"
        },
        {
          "internalType": "uint256",
          "name": "",
          "type": "uint256"
        }
      ],
      "name": "openLimitOrderIds",
      "outputs": [
        {
          "internalType": "uint256",
          "name": "",
          "type": "uint256"
        }
      ],
      "stateMutability": "view",
      "type": "function"
    },
    {
      "inputs": [
        {
          "internalType": "uint256",
          "name": "",
          "type": "uint256"
        }
      ],
      "name": "openLimitOrders",
      "outputs": [
        {
          "internalType": "address",
          "name": "trader",
          "type": "address"
        },
        {
          "internalType": "uint256",
          "name": "pairIndex",
          "type": "uint256"
        },
        {
          "internalType": "uint256",
          "name": "index",
          "type": "uint256"
        },
        {
          "internalType": "uint256",
          "name": "positionSize",
          "type": "uint256"
        },
        {
          "internalType": "uint256",
          "name": "spreadReductionP",
          "type": "uint256"
        },
        {
          "internalType": "bool",
          "name": "buy",
          "type": "bool"
        },
        {
          "internalType": "uint256",
          "name": "leverage",
          "type": "uint256"
        },
        {
          "internalType": "uint256",
          "name": "tp",
          "type": "uint256"
        },
        {
          "internalType": "uint256",
          "name": "sl",
          "type": "uint256"
        },
        {
          "internalType": "uint256",
          "name": "minPrice",
          "type": "uint256"
        },
        {
          "internalType": "uint256",
          "name": "maxPrice",
          "type": "uint256"
        },
        {
          "internalType": "uint256",
          "name": "block",
          "type": "uint256"
        },
        {
          "internalType": "uint256",
          "name": "tokenId",
          "type": "uint256"
        }
      ],
      "stateMutability": "view",
      "type": "function"
    },
    {
      "inputs": [
        {
          "internalType": "address",
          "name": "",
          "type": "address"
        },
        {
          "internalType": "uint256",
          "name": "",
          "type": "uint256"
        }
      ],
      "name": "openLimitOrdersCount",
      "outputs": [
        {
          "internalType": "uint256",
          "name": "",
          "type": "uint256"
        }
      ],
      "stateMutability": "view",
      "type": "function"
    },
    {
      "inputs": [
        {
          "internalType": "address",
          "name": "",
          "type": "address"
        },
        {
          "internalType": "uint256",
          "name": "",
          "type": "uint256"
        },
        {
          "internalType": "uint256",
          "name": "",
          "type": "uint256"
        }
      ],
      "name": "openTrades",
      "outputs": [
        {
          "internalType": "address",
          "name": "trader",
          "type": "address"
        },
        {
          "internalType": "uint256",
          "name": "pairIndex",
          "type": "uint256"
        },
        {
          "internalType": "uint256",
          "name": "index",
          "type": "uint256"
        },
        {
          "internalType": "uint256",
          "name": "initialPosToken",
          "type": "uint256"
        },
        {
          "internalType": "uint256",
          "name": "positionSizeDai",
          "type": "uint256"
        },
        {
          "internalType": "uint256",
          "name": "openPrice",
          "type": "uint256"
        },
        {
          "internalType": "bool",
          "name": "buy",
          "type": "bool"
        },
        {
          "internalType": "uint256",
          "name": "leverage",
          "type": "uint256"
        },
        {
          "internalType": "uint256",
          "name": "tp",
          "type": "uint256"
        },
        {
          "internalType": "uint256",
          "name": "sl",
          "type": "uint256"
        }
      ],
      "stateMutability": "view",
      "type": "function"
    },
    {
      "inputs": [
        {
          "internalType": "address",
          "name": "",
          "type": "address"
        },
        {
          "internalType": "uint256",
          "name": "",
          "type": "uint256"
        }
      ],
      "name": "openTradesCount",
      "outputs": [
        {
          "internalType": "uint256",
          "name": "",
          "type": "uint256"
        }
      ],
      "stateMutability": "view",
      "type": "function"
    },
    {
      "inputs": [
        {
          "internalType": "address",
          "name": "",
          "type": "address"
        },
        {
          "internalType": "uint256",
          "name": "",
          "type": "uint256"
        },
        {
          "internalType": "uint256",
          "name": "",
          "type": "uint256"
        }
      ],
      "name": "openTradesInfo",
      "outputs": [
        {
          "internalType": "uint256",
          "name": "tokenId",
          "type": "uint256"
        },
        {
          "internalType": "uint256",
          "name": "tokenPriceDai",
          "type": "uint256"
        },
        {
          "internalType": "uint256",
          "name": "openInterestDai",
          "type": "uint256"
        },
        {
          "internalType": "uint256",
          "name": "tpLastUpdated",
          "type": "uint256"
        },
        {
          "internalType": "uint256",
          "name": "slLastUpdated",
          "type": "uint256"
        },
        {
          "internalType": "bool",
          "name": "beingMarketClosed",
          "type": "bool"
        }
      ],
      "stateMutability": "view",
      "type": "function"
    },
    {
      "inputs": [
        {
          "internalType": "uint256",
          "name": "",
          "type": "uint256"
        },
        {
          "internalType": "uint256",
          "name": "",
          "type": "uint256"
        }
      ],
      "name": "pairTraders",
      "outputs": [
        {
          "internalType": "address",
          "name": "",
          "type": "address"
        }
      ],
      "stateMutability": "view",
      "type": "function"
    },
    {
      "inputs": [
        {
          "internalType": "uint256",
          "name": "_pairIndex",
          "type": "uint256"
        }
      ],
      "name": "pairTradersArray",
      "outputs": [
        {
          "internalType": "address[]",
          "name": "",
          "type": "address[]"
        }
      ],
      "stateMutability": "view",
      "type": "function"
    },
    {
      "inputs": [
        {
          "internalType": "address",
          "name": "",
          "type": "address"
        },
        {
          "internalType": "uint256",
          "name": "",
          "type": "uint256"
        }
      ],
      "name": "pairTradersId",
      "outputs": [
        {
          "internalType": "uint256",
          "name": "",
          "type": "uint256"
        }
      ],
      "stateMutability": "view",
      "type": "function"
    },
    {
      "inputs": [
        {
          "internalType": "address",
          "name": "",
          "type": "address"
        },
        {
          "internalType": "uint256",
          "name": "",
          "type": "uint256"
        }
      ],
      "name": "pendingMarketCloseCount",
      "outputs": [
        {
          "internalType": "uint256",
          "name": "",
          "type": "uint256"
        }
      ],
      "stateMutability": "view",
      "type": "function"
    },
    {
      "inputs": [
        {
          "internalType": "address",
          "name": "",
          "type": "address"
        },
        {
          "internalType": "uint256",
          "name": "",
          "type": "uint256"
        }
      ],
      "name": "pendingMarketOpenCount",
      "outputs": [
        {
          "internalType": "uint256",
          "name": "",
          "type": "uint256"
        }
      ],
      "stateMutability": "view",
      "type": "function"
    },
    {
      "inputs": [
        {
          "internalType": "address",
          "name": "",
          "type": "address"
        },
        {
          "internalType": "uint256",
          "name": "",
          "type": "uint256"
        }
      ],
      "name": "pendingOrderIds",
      "outputs": [
        {
          "internalType": "uint256",
          "name": "",
          "type": "uint256"
        }
      ],
      "stateMutability": "view",
      "type": "function"
    },
    {
      "inputs": [
        {
          "internalType": "address",
          "name": "_trader",
          "type": "address"
        }
      ],
      "name": "pendingOrderIdsCount",
      "outputs": [
        {
          "internalType": "uint256",
          "name": "",
          "type": "uint256"
        }
      ],
      "stateMutability": "view",
      "type": "function"
    },
    {
      "inputs": [],
      "name": "pool",
      "outputs": [
        {
          "internalType": "contract PoolInterfaceV5",
          "name": "",
          "type": "address"
        }
      ],
      "stateMutability": "view",
      "type": "function"
    },
    {
      "inputs": [],
      "name": "priceAggregator",
      "outputs": [
        {
          "internalType": "contract AggregatorInterfaceV5",
          "name": "",
          "type": "address"
        }
      ],
      "stateMutability": "view",
      "type": "function"
    },
    {
      "inputs": [
        {
          "internalType": "address",
          "name": "_trading",
          "type": "address"
        }
      ],
      "name": "removeTradingContract",
      "outputs": [],
      "stateMutability": "nonpayable",
      "type": "function"
    },
    {
      "inputs": [
        {
          "internalType": "uint256",
          "name": "",
          "type": "uint256"
        }
      ],
      "name": "reqID_pendingMarketOrder",
      "outputs": [
        {
          "components": [
            {
              "internalType": "address",
              "name": "trader",
              "type": "address"
            },
            {
              "internalType": "uint256",
              "name": "pairIndex",
              "type": "uint256"
            },
            {
              "internalType": "uint256",
              "name": "index",
              "type": "uint256"
            },
            {
              "internalType": "uint256",
              "name": "initialPosToken",
              "type": "uint256"
            },
            {
              "internalType": "uint256",
              "name": "positionSizeDai",
              "type": "uint256"
            },
            {
              "internalType": "uint256",
              "name": "openPrice",
              "type": "uint256"
            },
            {
              "internalType": "bool",
              "name": "buy",
              "type": "bool"
            },
            {
              "internalType": "uint256",
              "name": "leverage",
              "type": "uint256"
            },
            {
              "internalType": "uint256",
              "name": "tp",
              "type": "uint256"
            },
            {
              "internalType": "uint256",
              "name": "sl",
              "type": "uint256"
            }
          ],
          "internalType": "struct GNSTestnetTradingStorageV5.Trade",
          "name": "trade",
          "type": "tuple"
        },
        {
          "internalType": "uint256",
          "name": "block",
          "type": "uint256"
        },
        {
          "internalType": "uint256",
          "name": "wantedPrice",
          "type": "uint256"
        },
        {
          "internalType": "uint256",
          "name": "slippageP",
          "type": "uint256"
        },
        {
          "internalType": "uint256",
          "name": "spreadReductionP",
          "type": "uint256"
        },
        {
          "internalType": "uint256",
          "name": "tokenId",
          "type": "uint256"
        }
      ],
      "stateMutability": "view",
      "type": "function"
    },
    {
      "inputs": [
        {
          "internalType": "uint256",
          "name": "",
          "type": "uint256"
        }
      ],
      "name": "reqID_pendingNftOrder",
      "outputs": [
        {
          "internalType": "address",
          "name": "nftHolder",
          "type": "address"
        },
        {
          "internalType": "uint256",
          "name": "nftId",
          "type": "uint256"
        },
        {
          "internalType": "address",
          "name": "trader",
          "type": "address"
        },
        {
          "internalType": "uint256",
          "name": "pairIndex",
          "type": "uint256"
        },
        {
          "internalType": "uint256",
          "name": "index",
          "type": "uint256"
        },
        {
          "internalType": "enum GNSTestnetTradingStorageV5.LimitOrder",
          "name": "orderType",
          "type": "uint8"
        }
      ],
      "stateMutability": "view",
      "type": "function"
    },
    {
      "inputs": [
        {
          "internalType": "address",
          "name": "_callbacks",
          "type": "address"
        }
      ],
      "name": "setCallbacks",
      "outputs": [],
      "stateMutability": "nonpayable",
      "type": "function"
    },
    {
      "inputs": [
        {
          "internalType": "uint256",
          "name": "_lev",
          "type": "uint256"
        }
      ],
      "name": "setDefaultLeverageUnlocked",
      "outputs": [],
      "stateMutability": "nonpayable",
      "type": "function"
    },
    {
      "inputs": [
        {
          "internalType": "address",
          "name": "_dev",
          "type": "address"
        }
      ],
      "name": "setDev",
      "outputs": [],
      "stateMutability": "nonpayable",
      "type": "function"
    },
    {
      "inputs": [
        {
          "internalType": "address",
          "name": "_gov",
          "type": "address"
        }
      ],
      "name": "setGov",
      "outputs": [],
      "stateMutability": "nonpayable",
      "type": "function"
    },
    {
      "inputs": [
        {
          "internalType": "address",
          "name": "_trader",
          "type": "address"
        },
        {
          "internalType": "uint256",
          "name": "_newLeverage",
          "type": "uint256"
        }
      ],
      "name": "setLeverageUnlocked",
      "outputs": [],
      "stateMutability": "nonpayable",
      "type": "function"
    },
    {
      "inputs": [
        {
          "internalType": "uint256",
          "name": "_max",
          "type": "uint256"
        }
      ],
      "name": "setMaxGainP",
      "outputs": [],
      "stateMutability": "nonpayable",
      "type": "function"
    },
    {
      "inputs": [
        {
          "internalType": "uint256",
          "name": "_pairIndex",
          "type": "uint256"
        },
        {
          "internalType": "uint256",
          "name": "_newMaxOpenInterest",
          "type": "uint256"
        }
      ],
      "name": "setMaxOpenInterestDai",
      "outputs": [],
      "stateMutability": "nonpayable",
      "type": "function"
    },
    {
      "inputs": [
        {
          "internalType": "uint256",
          "name": "_maxPendingMarketOrders",
          "type": "uint256"
        }
      ],
      "name": "setMaxPendingMarketOrders",
      "outputs": [],
      "stateMutability": "nonpayable",
      "type": "function"
    },
    {
      "inputs": [
        {
          "internalType": "uint256",
          "name": "_max",
          "type": "uint256"
        }
      ],
      "name": "setMaxSlP",
      "outputs": [],
      "stateMutability": "nonpayable",
      "type": "function"
    },
    {
      "inputs": [
        {
          "internalType": "uint256",
          "name": "_maxTradesPerBlock",
          "type": "uint256"
        }
      ],
      "name": "setMaxTradesPerBlock",
      "outputs": [],
      "stateMutability": "nonpayable",
      "type": "function"
    },
    {
      "inputs": [
        {
          "internalType": "uint256",
          "name": "_maxTradesPerPair",
          "type": "uint256"
        }
      ],
      "name": "setMaxTradesPerPair",
      "outputs": [],
      "stateMutability": "nonpayable",
      "type": "function"
    },
    {
      "inputs": [
        {
          "internalType": "uint256",
          "name": "_blocks",
          "type": "uint256"
        }
      ],
      "name": "setNftSuccessTimelock",
      "outputs": [],
      "stateMutability": "nonpayable",
      "type": "function"
    },
    {
      "inputs": [
        {
          "internalType": "address",
          "name": "_pool",
          "type": "address"
        }
      ],
      "name": "setPool",
      "outputs": [],
      "stateMutability": "nonpayable",
      "type": "function"
    },
    {
      "inputs": [
        {
          "internalType": "address",
          "name": "_aggregator",
          "type": "address"
        }
      ],
      "name": "setPriceAggregator",
      "outputs": [],
      "stateMutability": "nonpayable",
      "type": "function"
    },
    {
      "inputs": [
        {
          "internalType": "uint256[5]",
          "name": "_r",
          "type": "uint256[5]"
        }
      ],
      "name": "setSpreadReductionsP",
      "outputs": [],
      "stateMutability": "nonpayable",
      "type": "function"
    },
    {
      "inputs": [
        {
          "internalType": "address",
          "name": "_tokenDaiRouter",
          "type": "address"
        }
      ],
      "name": "setTokenDaiRouter",
      "outputs": [],
      "stateMutability": "nonpayable",
      "type": "function"
    },
    {
      "inputs": [
        {
          "internalType": "address",
          "name": "_trading",
          "type": "address"
        }
      ],
      "name": "setTrading",
      "outputs": [],
      "stateMutability": "nonpayable",
      "type": "function"
    },
    {
      "inputs": [
        {
          "internalType": "address",
          "name": "_vault",
          "type": "address"
        }
      ],
      "name": "setVault",
      "outputs": [],
      "stateMutability": "nonpayable",
      "type": "function"
    },
    {
      "inputs": [
        {
          "internalType": "uint256",
          "name": "",
          "type": "uint256"
        }
      ],
      "name": "spreadReductionsP",
      "outputs": [
        {
          "internalType": "uint256",
          "name": "",
          "type": "uint256"
        }
      ],
      "stateMutability": "view",
      "type": "function"
    },
    {
      "inputs": [
        {
          "components": [
            {
              "internalType": "address",
              "name": "trader",
              "type": "address"
            },
            {
              "internalType": "uint256",
              "name": "pairIndex",
              "type": "uint256"
            },
            {
              "internalType": "uint256",
              "name": "index",
              "type": "uint256"
            },
            {
              "internalType": "uint256",
              "name": "positionSize",
              "type": "uint256"
            },
            {
              "internalType": "uint256",
              "name": "spreadReductionP",
              "type": "uint256"
            },
            {
              "internalType": "bool",
              "name": "buy",
              "type": "bool"
            },
            {
              "internalType": "uint256",
              "name": "leverage",
              "type": "uint256"
            },
            {
              "internalType": "uint256",
              "name": "tp",
              "type": "uint256"
            },
            {
              "internalType": "uint256",
              "name": "sl",
              "type": "uint256"
            },
            {
              "internalType": "uint256",
              "name": "minPrice",
              "type": "uint256"
            },
            {
              "internalType": "uint256",
              "name": "maxPrice",
              "type": "uint256"
            },
            {
              "internalType": "uint256",
              "name": "block",
              "type": "uint256"
            },
            {
              "internalType": "uint256",
              "name": "tokenId",
              "type": "uint256"
            }
          ],
          "internalType": "struct GNSTestnetTradingStorageV5.OpenLimitOrder",
          "name": "o",
          "type": "tuple"
        }
      ],
      "name": "storeOpenLimitOrder",
      "outputs": [],
      "stateMutability": "nonpayable",
      "type": "function"
    },
    {
      "inputs": [
        {
          "components": [
            {
              "components": [
                {
                  "internalType": "address",
                  "name": "trader",
                  "type": "address"
                },
                {
                  "internalType": "uint256",
                  "name": "pairIndex",
                  "type": "uint256"
                },
                {
                  "internalType": "uint256",
                  "name": "index",
                  "type": "uint256"
                },
                {
                  "internalType": "uint256",
                  "name": "initialPosToken",
                  "type": "uint256"
                },
                {
                  "internalType": "uint256",
                  "name": "positionSizeDai",
                  "type": "uint256"
                },
                {
                  "internalType": "uint256",
                  "name": "openPrice",
                  "type": "uint256"
                },
                {
                  "internalType": "bool",
                  "name": "buy",
                  "type": "bool"
                },
                {
                  "internalType": "uint256",
                  "name": "leverage",
                  "type": "uint256"
                },
                {
                  "internalType": "uint256",
                  "name": "tp",
                  "type": "uint256"
                },
                {
                  "internalType": "uint256",
                  "name": "sl",
                  "type": "uint256"
                }
              ],
              "internalType": "struct GNSTestnetTradingStorageV5.Trade",
              "name": "trade",
              "type": "tuple"
            },
            {
              "internalType": "uint256",
              "name": "block",
              "type": "uint256"
            },
            {
              "internalType": "uint256",
              "name": "wantedPrice",
              "type": "uint256"
            },
            {
              "internalType": "uint256",
              "name": "slippageP",
              "type": "uint256"
            },
            {
              "internalType": "uint256",
              "name": "spreadReductionP",
              "type": "uint256"
            },
            {
              "internalType": "uint256",
              "name": "tokenId",
              "type": "uint256"
            }
          ],
          "internalType": "struct GNSTestnetTradingStorageV5.PendingMarketOrder",
          "name": "_order",
          "type": "tuple"
        },
        {
          "internalType": "uint256",
          "name": "_id",
          "type": "uint256"
        },
        {
          "internalType": "bool",
          "name": "_open",
          "type": "bool"
        }
      ],
      "name": "storePendingMarketOrder",
      "outputs": [],
      "stateMutability": "nonpayable",
      "type": "function"
    },
    {
      "inputs": [
        {
          "components": [
            {
              "internalType": "address",
              "name": "nftHolder",
              "type": "address"
            },
            {
              "internalType": "uint256",
              "name": "nftId",
              "type": "uint256"
            },
            {
              "internalType": "address",
              "name": "trader",
              "type": "address"
            },
            {
              "internalType": "uint256",
              "name": "pairIndex",
              "type": "uint256"
            },
            {
              "internalType": "uint256",
              "name": "index",
              "type": "uint256"
            },
            {
              "internalType": "enum GNSTestnetTradingStorageV5.LimitOrder",
              "name": "orderType",
              "type": "uint8"
            }
          ],
          "internalType": "struct GNSTestnetTradingStorageV5.PendingNftOrder",
          "name": "_nftOrder",
          "type": "tuple"
        },
        {
          "internalType": "uint256",
          "name": "_orderId",
          "type": "uint256"
        }
      ],
      "name": "storePendingNftOrder",
      "outputs": [],
      "stateMutability": "nonpayable",
      "type": "function"
    },
    {
      "inputs": [
        {
          "internalType": "address",
          "name": "_trader",
          "type": "address"
        },
        {
          "internalType": "address",
          "name": "_referral",
          "type": "address"
        }
      ],
      "name": "storeReferral",
      "outputs": [],
      "stateMutability": "nonpayable",
      "type": "function"
    },
    {
      "inputs": [
        {
          "components": [
            {
              "internalType": "address",
              "name": "trader",
              "type": "address"
            },
            {
              "internalType": "uint256",
              "name": "pairIndex",
              "type": "uint256"
            },
            {
              "internalType": "uint256",
              "name": "index",
              "type": "uint256"
            },
            {
              "internalType": "uint256",
              "name": "initialPosToken",
              "type": "uint256"
            },
            {
              "internalType": "uint256",
              "name": "positionSizeDai",
              "type": "uint256"
            },
            {
              "internalType": "uint256",
              "name": "openPrice",
              "type": "uint256"
            },
            {
              "internalType": "bool",
              "name": "buy",
              "type": "bool"
            },
            {
              "internalType": "uint256",
              "name": "leverage",
              "type": "uint256"
            },
            {
              "internalType": "uint256",
              "name": "tp",
              "type": "uint256"
            },
            {
              "internalType": "uint256",
              "name": "sl",
              "type": "uint256"
            }
          ],
          "internalType": "struct GNSTestnetTradingStorageV5.Trade",
          "name": "_trade",
          "type": "tuple"
        },
        {
          "components": [
            {
              "internalType": "uint256",
              "name": "tokenId",
              "type": "uint256"
            },
            {
              "internalType": "uint256",
              "name": "tokenPriceDai",
              "type": "uint256"
            },
            {
              "internalType": "uint256",
              "name": "openInterestDai",
              "type": "uint256"
            },
            {
              "internalType": "uint256",
              "name": "tpLastUpdated",
              "type": "uint256"
            },
            {
              "internalType": "uint256",
              "name": "slLastUpdated",
              "type": "uint256"
            },
            {
              "internalType": "bool",
              "name": "beingMarketClosed",
              "type": "bool"
            }
          ],
          "internalType": "struct GNSTestnetTradingStorageV5.TradeInfo",
          "name": "_tradeInfo",
          "type": "tuple"
        }
      ],
      "name": "storeTrade",
      "outputs": [],
      "stateMutability": "nonpayable",
      "type": "function"
    },
    {
      "inputs": [
        {
          "internalType": "uint256",
          "name": "",
          "type": "uint256"
        }
      ],
      "name": "supportedTokens",
      "outputs": [
        {
          "internalType": "address",
          "name": "",
          "type": "address"
        }
      ],
      "stateMutability": "view",
      "type": "function"
    },
    {
      "inputs": [],
      "name": "token",
      "outputs": [
        {
          "internalType": "contract TokenInterfaceV5",
          "name": "",
          "type": "address"
        }
      ],
      "stateMutability": "view",
      "type": "function"
    },
    {
      "inputs": [],
      "name": "tokenDaiRouter",
      "outputs": [
        {
          "internalType": "address",
          "name": "",
          "type": "address"
        }
      ],
      "stateMutability": "view",
      "type": "function"
    },
    {
      "inputs": [],
      "name": "tokensBurned",
      "outputs": [
        {
          "internalType": "uint256",
          "name": "",
          "type": "uint256"
        }
      ],
      "stateMutability": "view",
      "type": "function"
    },
    {
      "inputs": [],
      "name": "tokensMinted",
      "outputs": [
        {
          "internalType": "uint256",
          "name": "",
          "type": "uint256"
        }
      ],
      "stateMutability": "view",
      "type": "function"
    },
    {
      "inputs": [
        {
          "internalType": "address",
          "name": "",
          "type": "address"
        }
      ],
      "name": "traders",
      "outputs": [
        {
          "internalType": "uint256",
          "name": "leverageUnlocked",
          "type": "uint256"
        },
        {
          "internalType": "address",
          "name": "referral",
          "type": "address"
        },
        {
          "internalType": "uint256",
          "name": "referralRewardsTotal",
          "type": "uint256"
        }
      ],
      "stateMutability": "view",
      "type": "function"
    },
    {
      "inputs": [
        {
          "internalType": "uint256",
          "name": "",
          "type": "uint256"
        }
      ],
      "name": "tradesPerBlock",
      "outputs": [
        {
          "internalType": "uint256",
          "name": "",
          "type": "uint256"
        }
      ],
      "stateMutability": "view",
      "type": "function"
    },
    {
      "inputs": [],
      "name": "trading",
      "outputs": [
        {
          "internalType": "contract PausableInterfaceV5",
          "name": "",
          "type": "address"
        }
      ],
      "stateMutability": "view",
      "type": "function"
    },
    {
      "inputs": [
        {
          "internalType": "address",
          "name": "_from",
          "type": "address"
        },
        {
          "internalType": "address",
          "name": "_to",
          "type": "address"
        },
        {
          "internalType": "uint256",
          "name": "_amount",
          "type": "uint256"
        }
      ],
      "name": "transferDai",
      "outputs": [],
      "stateMutability": "nonpayable",
      "type": "function"
    },
    {
      "inputs": [
        {
          "internalType": "address",
          "name": "_from",
          "type": "address"
        },
        {
          "internalType": "uint256",
          "name": "_pairIndex",
          "type": "uint256"
        },
        {
          "internalType": "uint256",
          "name": "_leveragedPosDai",
          "type": "uint256"
        }
      ],
      "name": "transferLinkToAggregator",
      "outputs": [],
      "stateMutability": "nonpayable",
      "type": "function"
    },
    {
      "inputs": [
        {
          "internalType": "address",
          "name": "_trader",
          "type": "address"
        },
        {
          "internalType": "uint256",
          "name": "_pairIndex",
          "type": "uint256"
        },
        {
          "internalType": "uint256",
          "name": "_index",
          "type": "uint256"
        }
      ],
      "name": "unregisterOpenLimitOrder",
      "outputs": [],
      "stateMutability": "nonpayable",
      "type": "function"
    },
    {
      "inputs": [
        {
          "internalType": "uint256",
          "name": "_id",
          "type": "uint256"
        },
        {
          "internalType": "bool",
          "name": "_open",
          "type": "bool"
        }
      ],
      "name": "unregisterPendingMarketOrder",
      "outputs": [],
      "stateMutability": "nonpayable",
      "type": "function"
    },
    {
      "inputs": [
        {
          "internalType": "uint256",
          "name": "_order",
          "type": "uint256"
        }
      ],
      "name": "unregisterPendingNftOrder",
      "outputs": [],
      "stateMutability": "nonpayable",
      "type": "function"
    },
    {
      "inputs": [
        {
          "internalType": "address",
          "name": "trader",
          "type": "address"
        },
        {
          "internalType": "uint256",
          "name": "pairIndex",
          "type": "uint256"
        },
        {
          "internalType": "uint256",
          "name": "index",
          "type": "uint256"
        }
      ],
      "name": "unregisterTrade",
      "outputs": [],
      "stateMutability": "nonpayable",
      "type": "function"
    },
    {
      "inputs": [
        {
          "internalType": "contract NftInterfaceV5[5]",
          "name": "_nfts",
          "type": "address[5]"
        }
      ],
      "name": "updateNfts",
      "outputs": [],
      "stateMutability": "nonpayable",
      "type": "function"
    },
    {
      "inputs": [
        {
          "components": [
            {
              "internalType": "address",
              "name": "trader",
              "type": "address"
            },
            {
              "internalType": "uint256",
              "name": "pairIndex",
              "type": "uint256"
            },
            {
              "internalType": "uint256",
              "name": "index",
              "type": "uint256"
            },
            {
              "internalType": "uint256",
              "name": "positionSize",
              "type": "uint256"
            },
            {
              "internalType": "uint256",
              "name": "spreadReductionP",
              "type": "uint256"
            },
            {
              "internalType": "bool",
              "name": "buy",
              "type": "bool"
            },
            {
              "internalType": "uint256",
              "name": "leverage",
              "type": "uint256"
            },
            {
              "internalType": "uint256",
              "name": "tp",
              "type": "uint256"
            },
            {
              "internalType": "uint256",
              "name": "sl",
              "type": "uint256"
            },
            {
              "internalType": "uint256",
              "name": "minPrice",
              "type": "uint256"
            },
            {
              "internalType": "uint256",
              "name": "maxPrice",
              "type": "uint256"
            },
            {
              "internalType": "uint256",
              "name": "block",
              "type": "uint256"
            },
            {
              "internalType": "uint256",
              "name": "tokenId",
              "type": "uint256"
            }
          ],
          "internalType": "struct GNSTestnetTradingStorageV5.OpenLimitOrder",
          "name": "_o",
          "type": "tuple"
        }
      ],
      "name": "updateOpenLimitOrder",
      "outputs": [],
      "stateMutability": "nonpayable",
      "type": "function"
    },
    {
      "inputs": [
        {
          "internalType": "address",
          "name": "_trader",
          "type": "address"
        },
        {
          "internalType": "uint256",
          "name": "_pairIndex",
          "type": "uint256"
        },
        {
          "internalType": "uint256",
          "name": "_index",
          "type": "uint256"
        },
        {
          "internalType": "uint256",
          "name": "_newSl",
          "type": "uint256"
        }
      ],
      "name": "updateSl",
      "outputs": [],
      "stateMutability": "nonpayable",
      "type": "function"
    },
    {
      "inputs": [
        {
          "internalType": "contract TokenInterfaceV5",
          "name": "_newToken",
          "type": "address"
        }
      ],
      "name": "updateToken",
      "outputs": [],
      "stateMutability": "nonpayable",
      "type": "function"
    },
    {
      "inputs": [
        {
          "internalType": "address",
          "name": "_trader",
          "type": "address"
        },
        {
          "internalType": "uint256",
          "name": "_pairIndex",
          "type": "uint256"
        },
        {
          "internalType": "uint256",
          "name": "_index",
          "type": "uint256"
        },
        {
          "internalType": "uint256",
          "name": "_newTp",
          "type": "uint256"
        }
      ],
      "name": "updateTp",
      "outputs": [],
      "stateMutability": "nonpayable",
      "type": "function"
    },
    {
      "inputs": [
        {
          "components": [
            {
              "internalType": "address",
              "name": "trader",
              "type": "address"
            },
            {
              "internalType": "uint256",
              "name": "pairIndex",
              "type": "uint256"
            },
            {
              "internalType": "uint256",
              "name": "index",
              "type": "uint256"
            },
            {
              "internalType": "uint256",
              "name": "initialPosToken",
              "type": "uint256"
            },
            {
              "internalType": "uint256",
              "name": "positionSizeDai",
              "type": "uint256"
            },
            {
              "internalType": "uint256",
              "name": "openPrice",
              "type": "uint256"
            },
            {
              "internalType": "bool",
              "name": "buy",
              "type": "bool"
            },
            {
              "internalType": "uint256",
              "name": "leverage",
              "type": "uint256"
            },
            {
              "internalType": "uint256",
              "name": "tp",
              "type": "uint256"
            },
            {
              "internalType": "uint256",
              "name": "sl",
              "type": "uint256"
            }
          ],
          "internalType": "struct GNSTestnetTradingStorageV5.Trade",
          "name": "_t",
          "type": "tuple"
        }
      ],
      "name": "updateTrade",
      "outputs": [],
      "stateMutability": "nonpayable",
      "type": "function"
    },
    {
      "inputs": [],
      "name": "vault",
      "outputs": [
        {
          "internalType": "address",
          "name": "",
          "type": "address"
        }
      ],
      "stateMutability": "view",
      "type": "function"
    }
  ],
  "bytecode": "6003600c556005600d819055600e819055610190600f90815560506010556032601181905560125561016060405260c0908152601460e052601961010052601e61012052602361014052620000589160139190620000ff565b506018805473ec9581354f7750bc8194e3e801f8ee1d91e2a8ac6001600160a01b031991821681179092556019805490911690911790553480156200009c57600080fd5b5060405162005d2238038062005d22833981016040819052620000bf91620001ea565b6001600160a01b03848116608052600480546001600160a01b031916858316179055821660a052620000f46005828162000147565b5050505050620002bd565b826005810192821562000135579160200282015b8281111562000135578251829060ff1690559160200191906001019062000113565b506200014392915062000192565b5090565b826005810192821562000135579160200282015b828111156200013557825182546001600160a01b0319166001600160a01b039091161782556020909201916001909101906200015b565b5b8082111562000143576000815560010162000193565b6001600160a01b0381168114620001bf57600080fd5b50565b634e487b7160e01b600052604160045260246000fd5b8051620001e581620001a9565b919050565b6000806000806101008086880312156200020357600080fd5b85516200021081620001a9565b809550506020808701516200022581620001a9565b60408801519095506200023881620001a9565b9350607f870188136200024a57600080fd5b60405160a081016001600160401b03811182821017156200026f576200026f620001c2565b6040529187019180898411156200028557600080fd5b606089015b84811015620002ac576200029e81620001d8565b82529083019083016200028a565b505080935050505092959194509250565b60805160a051615a1c620003066000396000818161118b0152611d210152600081816110d4015281816120220152818161207f01528181614081015261411e0152615a1c6000f3fe608060405234801561001057600080fd5b50600436106106075760003560e01c806397e7995a1161031b578063d4bda908116101a8578063ee92a4ff116100f4578063f823e2ae116100ad578063fc0c546a11610087578063fc0c546a14611157578063fdb594131461116a578063fe0fc8d614611173578063fece4eac1461118657600080fd5b8063f823e2ae14611128578063f8d24b481461113b578063fbfa77cf1461114457600080fd5b8063ee92a4ff146110a0578063f013d278146110a9578063f2c13bdf146110bc578063f4b9fa75146110cf578063f65d9dbe146110f6578063f7b3c6fd146110ff57600080fd5b8063e3cbe3a711610161578063ea5c3c331161013b578063ea5c3c3314611040578063ec44acf214611049578063ecf56a1f1461105c578063eda00d541461106f57600080fd5b8063e3cbe3a714611011578063e3f04eba14611024578063e7873b581461103757600080fd5b8063d4bda90814610f9d578063d539139314610fb0578063dc2123ff14610fc5578063dcdf339a14610fd8578063e212991a14610feb578063e378b36714610ffe57600080fd5b8063b8878a2c11610267578063cab9458011610220578063d294f093116101fa578063d294f09314610f67578063d3b5fe7014610f6f578063d3c7c2c714610f82578063d477f05f14610f8a57600080fd5b8063cab9458014610f2e578063cfad57a214610f41578063cfbacc1414610f5457600080fd5b8063b8878a2c14610eb9578063bcc9f1d314610ed9578063c122fea614610eec578063c311ab3114610ef5578063c625562614610f08578063c76faf7814610f1b57600080fd5b8063a553906c116102d4578063b4b0f567116102ae578063b4b0f56714610d96578063b66e6b0514610da9578063b767608a14610e7b578063b7682d5414610e8e57600080fd5b8063a553906c14610d57578063aa3b7d7714610d6a578063aaf5eb6814610d8a57600080fd5b806397e7995a14610ba357806399794d3514610bce5780639c8912f114610c325780639d1a107314610c5d578063a354418114610c70578063a3a80ffe14610c8357600080fd5b806356a6796f116104995780637395d79e116103e55780638a0bd7021161039e5780638c8ff1d5116103785780638c8ff1d514610a9c57806390d112b914610b2257806391cca3db14610b3557806392a88fa214610b4857600080fd5b80638a0bd70214610a6b5780638bbb644c14610a805780638bf7f5f914610a8957600080fd5b80637395d79e14610a0d578063796d82d914610a205780637ad3def214610a295780637fdb96f314610a3c5780638049fde714610a4f578063817fa1a414610a5857600080fd5b80636690a806116104525780636d69fcaf1161042c5780636d69fcaf146109ab5780636d81d981146109be5780636de9f32b146109f15780636e70e7b6146109fa57600080fd5b80636690a8061461095c5780636817031b1461096f57806368ca199d1461098257600080fd5b806356a6796f146108e25780635a912551146108f75780635ad9f993146109005780635b621e32146109095780635c76ac9e1461091c5780635fbfe8cc1461093c57600080fd5b8063292c1617116105585780634415b369116105115780634daf04b1116104eb5780634daf04b1146108895780635070e8371461089c57806352e5398f146108af5780635378143e146108cf57600080fd5b80634415b369146108385780634437152a1461086357806344d44f5a1461087657600080fd5b8063292c16171461073e5780633078fff51461075157806332149592146107645780633b0f0f2f146107e35780633dae10a01461081257806343b8fab51461082557600080fd5b806318407fe0116105c557806321f7a30b1161059f57806321f7a30b146106f2578063265aa6211461070557806328b1f8871461071857806328daca211461072b57600080fd5b806318407fe01461069d5780631c8636b4146106b4578063201d8bdb146106df57600080fd5b8062b127831461060c57806306aef7de1461063c578063099fa9341461065157806312d43a511461066457806313b36ff61461067757806316f0115b1461068a575b600080fd5b60035461061f906001600160a01b031681565b6040516001600160a01b0390911681526020015b60405180910390f35b61064f61064a366004614f1a565b6111ad565b005b61064f61065f366004614fa1565b61121f565b60185461061f906001600160a01b031681565b61064f610685366004614fa1565b611287565b60015461061f906001600160a01b031681565b6106a6601d5481565b604051908152602001610633565b6106a66106c2366004614fca565b602560209081526000928352604080842090915290825290205481565b61064f6106ed366004614fa1565b6112f2565b61064f610700366004614fca565b6113e1565b61061f610713366004614fa1565b6114b8565b61064f610726366004614fca565b6114d8565b6106a6610739366004614ff6565b611597565b6106a661074c366004614fca565b6115bc565b60005461061f906001600160a01b031681565b610777610772366004614fa1565b61161e565b604080516001600160a01b03909e168e5260208e019c909c529a8c019990995260608b019790975260808a019590955292151560a089015260c088019190915260e08701526101008601526101208501526101408401526101608301526101808201526101a001610633565b61061f6107f1366004615018565b6001600160a01b039081166000908152602260205260409020600101541690565b6106a6610820366004614fa1565b6116a5565b61064f610833366004614fa1565b6116bc565b6106a6610846366004614fca565b602f60209081526000928352604080842090915290825290205481565b61064f610871366004615018565b61173a565b6106a6610884366004614fca565b6117bf565b61064f610897366004615018565b6117f6565b61064f6108aa366004615018565b611885565b6106a66108bd366004614fa1565b60316020526000908152604090205481565b61064f6108dd36600461504e565b611915565b6108ea611ac8565b6040516106339190615090565b6106a660105481565b6106a660205481565b61064f610917366004615018565b611b04565b61092f61092a366004615018565b611b7f565b60405161063391906150c1565b61094f61094a366004614fa1565b611beb565b6040516106339190615105565b61064f61096a366004615146565b611c56565b61064f61097d366004615018565b611e1a565b6106a6610990366004615018565b6001600160a01b031660009081526022602052604090205490565b61064f6109b9366004615018565b611ea0565b6109e16109cc366004615018565b60336020526000908152604090205460ff1681565b6040519015158152602001610633565b6106a6601f5481565b61064f610a0836600461517b565b611f48565b61064f610a1b366004614ff6565b6120ae565b6106a6600d5481565b61064f610a37366004615018565b612174565b61064f610a4a3660046151bc565b61232d565b6106a6600e5481565b61064f610a663660046151f7565b61243a565b610a73612579565b604051610633919061531c565b6106a660115481565b61064f610a97366004614fa1565b612668565b610af3610aaa366004615146565b6024602090815260009384526040808520825292845282842090528252902080546001820154600283015460038401546004850154600590950154939492939192909160ff1686565b6040805196875260208701959095529385019290925260608401526080830152151560a082015260c001610633565b61064f610b30366004615146565b6126da565b60195461061f906001600160a01b031681565b610b80610b56366004615018565b60226020526000908152604090208054600182015460029092015490916001600160a01b03169083565b604080519384526001600160a01b03909216602084015290820152606001610633565b6106a6610bb1366004614fca565b602760209081526000928352604080842090915290825290205481565b610c20610bdc366004614fa1565b602a602052600090815260409020805460018201546002830154600384015460048501546005909501546001600160a01b0394851695939490921692909160ff1686565b60405161063396959493929190615375565b6106a6610c40366004614fca565b602c60209081526000928352604080842090915290825290205481565b61064f610c6b3660046153d1565b612a67565b61064f610c7e3660046151bc565b612b9d565b610d01610c91366004615146565b602360209081526000938452604080852082529284528284209052825290208054600182015460028301546003840154600485015460058601546006870154600788015460088901546009909901546001600160a01b03909816989697959694959394929360ff9092169290918a565b604080516001600160a01b03909b168b5260208b0199909952978901969096526060880194909452608087019290925260a0860152151560c085015260e084015261010083015261012082015261014001610633565b61064f610d65366004615018565b612caa565b6106a6610d78366004614fa1565b60326020526000908152604090205481565b6106a66402540be40081565b61064f610da4366004615146565b612d32565b610e69610db7366004614fa1565b60296020908152600091825260409182902082516101408101845281546001600160a01b031681526001820154928101929092526002810154928201929092526003820154606082015260048201546080820152600582015460a0820152600682015460ff16151560c0820152600782015460e082015260088201546101008201526009820154610120820152600a820154600b830154600c840154600d850154600e90950154939492939192909186565b6040516106339695949392919061540a565b61064f610e893660046154b0565b6130b6565b6106a6610e9c366004614fca565b602d60209081526000928352604080842090915290825290205481565b610ecc610ec7366004615146565b61325b565b60405161063391906154c9565b6106a6610ee7366004614fca565b6133df565b6106a6600f5481565b61064f610f03366004615571565b613410565b61061f610f16366004614fa1565b6136f6565b61064f610f29366004615601565b613720565b61064f610f3c366004615693565b613977565b61064f610f4f366004615018565b613cef565b6106a6610f623660046156b8565b613d73565b61064f613f41565b61064f610f7d366004615702565b6141a4565b61094f61452e565b61064f610f98366004615018565b61458f565b61064f610fab3660046157b5565b614613565b6106a66000805160206159c783398151915281565b61064f610fd3366004614fa1565b614721565b6109e1610fe6366004615146565b614792565b61064f610ff9366004614fa1565b61482c565b61064f61100c366004614ff6565b614890565b61061f61101f366004614ff6565b614923565b61064f611032366004614fa1565b61495b565b6106a6601e5481565b6106a6601b5481565b60025461061f906001600160a01b031681565b61064f61106a366004614fa1565b614a58565b6106a661107d366004615146565b602660209081526000938452604080852082529284528284209052825290205481565b6106a6601a5481565b61064f6110b73660046157d2565b614acf565b600b5461061f906001600160a01b031681565b61061f7f000000000000000000000000000000000000000000000000000000000000000081565b6106a6600c5481565b6106a661110d366004615018565b6001600160a01b03166000908152602b602052604090205490565b61064f611136366004615018565b614b79565b6106a660125481565b600a5461061f906001600160a01b031681565b60045461061f906001600160a01b031681565b6106a6601c5481565b61064f611181366004615018565b614cb0565b61061f7f000000000000000000000000000000000000000000000000000000000000000081565b6018546001600160a01b031633146111c457600080fd5b80516001600160a01b03166111d857600080fd5b6111e460058281614dc5565b507f89a3bfeda71ede5f8735aa09127c97cd56aa3803356c52f7c30caf418238b46481604051611214919061580a565b60405180910390a150565b6018546001600160a01b0316331461123657600080fd5b603281101561124457600080fd5b6010819055604080518181526006918101919091526506d6178536c560d41b60608201526020810182905260008051602061598783398151915290608001611214565b6018546001600160a01b0316331461129e57600080fd5b61012c8110156112ad57600080fd5b600f819055604080518181526008918101919091526706d61784761696e560c41b60608201526020810182905260008051602061598783398151915290608001611214565b3360009081526033602052604090205460ff16801561138c575060048054604051632474521560e21b81526001600160a01b03909116916391d148549161134b916000805160206159c78339815191529133910161583b565b602060405180830381865afa158015611368573d6000803e3d6000fd5b505050506040513d601f19601f8201168201806040525081019061138c9190615852565b61139557600080fd5b6000908152602a6020526040812080546001600160a01b03199081168255600182018390556002820180549091169055600381018290556004810191909155600501805460ff19169055565b3360009081526033602052604090205460ff16801561147b575060048054604051632474521560e21b81526001600160a01b03909116916391d148549161143a916000805160206159c78339815191529133910161583b565b602060405180830381865afa158015611457573d6000803e3d6000fd5b505050506040513d601f19601f8201168201806040525081019061147b9190615852565b61148457600080fd5b6001600160a01b038216600090815260226020526040812060020180548392906114af908490615885565b90915550505050565b600581600581106114c857600080fd5b01546001600160a01b0316905081565b3360009081526033602052604090205460ff168015611572575060048054604051632474521560e21b81526001600160a01b03909116916391d1485491611531916000805160206159c78339815191529133910161583b565b602060405180830381865afa15801561154e573d6000803e3d6000fd5b505050506040513d601f19601f820116820180604052508101906115729190615852565b61157b57600080fd5b6001600160a01b03909116600090815260226020526040902055565b603060205281600052604060002081600381106115b357600080fd5b01549150829050565b6000805b600c54811015611617576001600160a01b0384166000908152602360209081526040808320868452825280832084845290915290206007015461160557809150611617565b8061160f8161589d565b9150506115c0565b5092915050565b6028818154811061162e57600080fd5b60009182526020909120600d9091020180546001820154600283015460038401546004850154600586015460068701546007880154600889015460098a0154600a8b0154600b8c0154600c909c01546001600160a01b03909b169c50989a97999698959760ff90951696939592949193909291908d565b601381600581106116b557600080fd5b0154905081565b6018546001600160a01b031633146116d357600080fd5b600081116116e057600080fd5b6011819055604080518181526017918101919091527f64656661756c744c65766572616765556e6c6f636b656400000000000000000060608201526020810182905260008051602061598783398151915290608001611214565b6018546001600160a01b0316331461175157600080fd5b6001600160a01b03811661176457600080fd5b600180546001600160a01b0319166001600160a01b03831690811790915560408051818152600491810191909152631c1bdbdb60e21b606082015260208101919091526000805160206159a783398151915290608001611214565b6000805b600c54811015611617576117d8848483614792565b6117e457809150611617565b806117ee8161589d565b9150506117c3565b6018546001600160a01b0316331461180d57600080fd5b6001600160a01b03811661182057600080fd5b600b80546001600160a01b0319166001600160a01b03831690811790915560408051818152600e918101919091526d3a37b5b2b72230b4a937baba32b960911b606082015260208101919091526000805160206159a783398151915290608001611214565b6018546001600160a01b0316331461189c57600080fd5b6001600160a01b0381166118af57600080fd5b600080546001600160a01b0319166001600160a01b03831690811790915560408051818152600f918101919091526e383934b1b2a0b3b3b932b3b0ba37b960891b606082015260208101919091526000805160206159a783398151915290608001611214565b3360009081526033602052604090205460ff1680156119af575060048054604051632474521560e21b81526001600160a01b03909116916391d148549161196e916000805160206159c78339815191529133910161583b565b602060405180830381865afa15801561198b573d6000803e3d6000fd5b505050506040513d601f19601f820116820180604052508101906119af9190615852565b6119b857600080fd5b8015611a4357600480546040516340c10f1960e01b81526001600160a01b0386811693820193909352602481018590529116906340c10f1990604401600060405180830381600087803b158015611a0e57600080fd5b505af1158015611a22573d6000803e3d6000fd5b5050505081601f6000828254611a389190615885565b90915550611ac39050565b60048054604051632770a7eb60e21b81526001600160a01b038681169382019390935260248101859052911690639dc29fac90604401600060405180830381600087803b158015611a9357600080fd5b505af1158015611aa7573d6000803e3d6000fd5b5050505081601e6000828254611abd9190615885565b90915550505b505050565b611ad0614e1d565b6040805160a08101918290529060139060059082845b815481526020019060010190808311611ae6575b5050505050905090565b6018546001600160a01b03163314611b1b57600080fd5b6001600160a01b038116611b2e57600080fd5b6001600160a01b038116600081815260336020908152604091829020805460ff1916905590519182527ff9cf924d7d98e6e0a27ec523cd7214b0bbdfaba197018b33b41a702f5238190e9101611214565b6001600160a01b0381166000908152602b6020908152604091829020805483518184028101840190945280845260609392830182828015611bdf57602002820191906000526020600020905b815481526020019060010190808311611bcb575b50505050509050919050565b6000818152602e6020908152604091829020805483518184028101840190945280845260609392830182828015611bdf57602002820191906000526020600020905b81546001600160a01b03168152600190910190602001808311611c2d5750505050509050919050565b3360009081526033602052604090205460ff168015611cf0575060048054604051632474521560e21b81526001600160a01b03909116916391d1485491611caf916000805160206159c78339815191529133910161583b565b602060405180830381865afa158015611ccc573d6000803e3d6000fd5b505050506040513d601f19601f82011682018060405250810190611cf09190615852565b611cf957600080fd5b60005460405163b9e0336f60e01b815260048101849052602481018390526001600160a01b037f00000000000000000000000000000000000000000000000000000000000000008116926323b872dd92879290911690819063b9e0336f90604401602060405180830381865afa158015611d77573d6000803e3d6000fd5b505050506040513d601f19601f82011682018060405250810190611d9b91906158b8565b6040516001600160e01b031960e086901b1681526001600160a01b03938416600482015292909116602483015260448201526064015b6020604051808303816000875af1158015611df0573d6000803e3d6000fd5b505050506040513d601f19601f82011682018060405250810190611e149190615852565b50505050565b6018546001600160a01b03163314611e3157600080fd5b6001600160a01b038116611e4457600080fd5b600a80546001600160a01b0319166001600160a01b03831690811790915560408051818152600591810191909152641d985d5b1d60da1b606082015260208101919091526000805160206159a783398151915290608001611214565b6018546001600160a01b03163314611eb757600080fd5b6001600160a01b038116611eca57600080fd5b602180546001810182556000919091527f3a6357012c1a3ae0a17d304c9920310382d968ebcc4b1771f41c6b304205b5700180546001600160a01b0319166001600160a01b0383169081179091556040519081527fd1be2e90bd3d24839d9dd94ad871068e1f9688b02fa43f2a62c9975dfa9de2d790602001611214565b3360009081526033602052604090205460ff168015611fe2575060048054604051632474521560e21b81526001600160a01b03909116916391d1485491611fa1916000805160206159c78339815191529133910161583b565b602060405180830381865afa158015611fbe573d6000803e3d6000fd5b505050506040513d601f19601f82011682018060405250810190611fe29190615852565b611feb57600080fd5b6001600160a01b0383163014156120515760405163a9059cbb60e01b81526001600160a01b038381166004830152602482018390527f0000000000000000000000000000000000000000000000000000000000000000169063a9059cbb90604401611dd1565b6040516323b872dd60e01b81526001600160a01b0384811660048301528381166024830152604482018390527f000000000000000000000000000000000000000000000000000000000000000016906323b872dd90606401611dd1565b3360009081526033602052604090205460ff168015612148575060048054604051632474521560e21b81526001600160a01b03909116916391d1485491612107916000805160206159c78339815191529133910161583b565b602060405180830381865afa158015612124573d6000803e3d6000fd5b505050506040513d601f19601f820116820180604052508101906121489190615852565b61215157600080fd5b6000828152603260209081526040822043905580548392906114af908490615885565b6018546001600160a01b0316331461218b57600080fd5b600260009054906101000a90046001600160a01b03166001600160a01b031663b187bd266040518163ffffffff1660e01b8152600401602060405180830381865afa1580156121de573d6000803e3d6000fd5b505050506040513d601f19601f820116820180604052508101906122029190615852565b80156122805750600360009054906101000a90046001600160a01b03166001600160a01b031663b187bd266040518163ffffffff1660e01b8152600401602060405180830381865afa15801561225c573d6000803e3d6000fd5b505050506040513d601f19601f820116820180604052508101906122809190615852565b6122be5760405162461bcd60e51b815260206004820152600a6024820152691393d517d4105554d15160b21b60448201526064015b60405180910390fd5b6001600160a01b0381166122d157600080fd5b600480546001600160a01b0319166001600160a01b03831690811790915560408051818152600591810191909152643a37b5b2b760d91b606082015260208101919091526000805160206159a783398151915290608001611214565b3360009081526033602052604090205460ff1680156123c7575060048054604051632474521560e21b81526001600160a01b03909116916391d1485491612386916000805160206159c78339815191529133910161583b565b602060405180830381865afa1580156123a3573d6000803e3d6000fd5b505050506040513d601f19601f820116820180604052508101906123c79190615852565b6123d057600080fd5b6001600160a01b03841660008181526023602090815260408083208784528252808320868452825280832093835260248252808320878452825280832086845290915290206007820154612425575050611e14565b60089091018290554360039091015550505050565b3360009081526033602052604090205460ff1680156124d4575060048054604051632474521560e21b81526001600160a01b03909116916391d1485491612493916000805160206159c78339815191529133910161583b565b602060405180830381865afa1580156124b0573d6000803e3d6000fd5b505050506040513d601f19601f820116820180604052508101906124d49190615852565b6124dd57600080fd5b6000818152602a6020908152604091829020845181546001600160a01b03199081166001600160a01b03928316178355928601516001808401919091559386015160028301805490941691161790915560608401516003808301919091556080850151600483015560a085015160058301805487959293919260ff1990911691849081111561256e5761256e61535f565b021790555050505050565b60606028805480602002602001604051908101604052809291908181526020016000905b8282101561265f576000848152602090819020604080516101a081018252600d860290920180546001600160a01b03168352600180820154848601526002820154928401929092526003810154606084015260048101546080840152600581015460ff16151560a0840152600681015460c0840152600781015460e084015260088101546101008401526009810154610120840152600a810154610140840152600b810154610160840152600c0154610180830152908352909201910161259d565b50505050905090565b6018546001600160a01b0316331461267f57600080fd5b6000811161268c57600080fd5b600d81905560408051818152601191810191909152706d6178547261646573506572426c6f636b60781b60608201526020810182905260008051602061598783398151915290608001611214565b3360009081526033602052604090205460ff168015612774575060048054604051632474521560e21b81526001600160a01b03909116916391d1485491612733916000805160206159c78339815191529133910161583b565b602060405180830381865afa158015612750573d6000803e3d6000fd5b505050506040513d601f19601f820116820180604052508101906127749190615852565b61277d57600080fd5b6001600160a01b038316600081815260236020908152604080832086845282528083208584528252808320938352602482528083208684528252808320858452909152902060078201546127d2575050505050565b600281015460068301546127ed91869160009060ff16614d3a565b6001600160a01b03851660009081526025602090815260408083208784529091529020546001141561295b576001600160a01b0385166000908152602f60209081526040808320878452825280832054602e90925290912080548190612855906001906158d1565b81548110612865576128656157f4565b9060005260206000200160009054906101000a90046001600160a01b0316818381548110612895576128956157f4565b9060005260206000200160006101000a8154816001600160a01b0302191690836001600160a01b0316021790555081602f60008385815481106128da576128da6157f4565b60009182526020808320909101546001600160a01b03908116845283820194909452604092830182208b8352815282822094909455918a168252602f8352808220898352909252908120558054819080612936576129366158e8565b600082815260209020810160001990810180546001600160a01b031916905501905550505b6001600160a01b03851660008181526023602090815260408083208884528252808320878452825280832080546001600160a01b03191681556001808201859055600280830186905560038084018790556004808501889055600580860189905560068601805460ff19908116909155600787018a9055600887018a90556009909601899055898952602488528689208e8a5288528689208d8a52885286892089815594850189905592840188905590830187905582018690550180549091169055928252602581528282208783529052908120805491612a3b836158fe565b9091555050436000908152603160205260408120805491612a5b8361589d565b91905055505050505050565b3360009081526033602052604090205460ff168015612b01575060048054604051632474521560e21b81526001600160a01b03909116916391d1485491612ac0916000805160206159c78339815191529133910161583b565b602060405180830381865afa158015612add573d6000803e3d6000fd5b505050506040513d601f19601f82011682018060405250810190612b019190615852565b612b0a57600080fd5b6001600160a01b03808316600090815260226020526040902090821615801590612b3f575060018101546001600160a01b0316155b8015612b5d5750826001600160a01b0316826001600160a01b031614155b612b745760018101546001600160a01b0316612b76565b815b60019190910180546001600160a01b0319166001600160a01b039092169190911790555050565b3360009081526033602052604090205460ff168015612c37575060048054604051632474521560e21b81526001600160a01b03909116916391d1485491612bf6916000805160206159c78339815191529133910161583b565b602060405180830381865afa158015612c13573d6000803e3d6000fd5b505050506040513d601f19601f82011682018060405250810190612c379190615852565b612c4057600080fd5b6001600160a01b03841660008181526023602090815260408083208784528252808320868452825280832093835260248252808320878452825280832086845290915290206007820154612c95575050611e14565b60099091018290554360049091015550505050565b6018546001600160a01b03163314612cc157600080fd5b6001600160a01b038116612cd457600080fd5b600280546001600160a01b0319166001600160a01b038316908117909155604080518181526007918101919091526674726164696e6760c81b606082015260208101919091526000805160206159a783398151915290608001611214565b3360009081526033602052604090205460ff168015612dcc575060048054604051632474521560e21b81526001600160a01b03909116916391d1485491612d8b916000805160206159c78339815191529133910161583b565b602060405180830381865afa158015612da8573d6000803e3d6000fd5b505050506040513d601f19601f82011682018060405250810190612dcc9190615852565b612dd557600080fd5b612de0838383614792565b612de957505050565b6001600160a01b0383166000908152602660209081526040808320858452825280832084845290915290205460288054612e25906001906158d1565b81548110612e3557612e356157f4565b90600052602060002090600d020160288281548110612e5657612e566157f4565b6000918252602082208354600d9092020180546001600160a01b0319166001600160a01b0390921691909117815560018084015490820155600280840154908201556003808401549082015560048084015490820155600580840154908201805460ff909216151560ff1990921691909117905560068084015490820155600780840154908201556008808401549082015560098084015490820155600a8084015490820155600b8084015490820155600c92830154920191909155602880548392602692909184908110612f2d57612f2d6157f4565b60009182526020808320600d909202909101546001600160a01b0316835282019290925260400181206028805491929185908110612f6d57612f6d6157f4565b90600052602060002090600d0201600101548152602001908152602001600020600060288481548110612fa257612fa26157f4565b600091825260208083206002600d90930201919091015483528281019390935260409182018120939093556001600160a01b03871683526026825280832086845282528083208584529091528120556028805480613002576130026158e8565b60008281526020808220600d6000199094019384020180546001600160a01b03191681556001810183905560028101839055600381018390556004810183905560058101805460ff1916905560068101839055600781018390556008810183905560098101839055600a8101839055600b8101839055600c01829055919092556001600160a01b038616825260278152604080832086845290915281208054916130ab836158fe565b919050555050505050565b3360009081526033602052604090205460ff168015613150575060048054604051632474521560e21b81526001600160a01b03909116916391d148549161310f916000805160206159c78339815191529133910161583b565b602060405180830381865afa15801561312c573d6000803e3d6000fd5b505050506040513d601f19601f820116820180604052508101906131509190615852565b61315957600080fd5b6131786131696020830183615018565b82602001358360400135614792565b61317f5750565b600060286026826131936020860186615018565b6001600160a01b03168152602080820192909252604090810160009081208684013582528352818120868301358252909252902054815481106131d8576131d86157f4565b90600052602060002090600d02019050816060013581600301819055508160a00160208101906132089190615915565b60058201805460ff191691151591909117905560c0820135600682015560e0820135600782015561010082013560088201556101208201356009820155610140820135600a82015543600b909101555b50565b6132d1604051806101a0016040528060006001600160a01b0316815260200160008152602001600081526020016000815260200160008152602001600015158152602001600081526020016000815260200160008152602001600081526020016000815260200160008152602001600081525090565b6132dc848484614792565b6132e557600080fd5b6001600160a01b03841660009081526026602090815260408083208684528252808320858452909152902054602880549091908110613326576133266157f4565b6000918252602091829020604080516101a081018252600d90930290910180546001600160a01b031683526001810154938301939093526002830154908201526003820154606082015260048201546080820152600582015460ff16151560a0820152600682015460c0820152600782015460e082015260088201546101008201526009820154610120820152600a820154610140820152600b820154610160820152600c9091015461018082015290505b9392505050565b602b60205281600052604060002081815481106133fb57600080fd5b90600052602060002001600091509150505481565b3360009081526033602052604090205460ff1680156134aa575060048054604051632474521560e21b81526001600160a01b03909116916391d1485491613469916000805160206159c78339815191529133910161583b565b602060405180830381865afa158015613486573d6000803e3d6000fd5b505050506040513d601f19601f820116820180604052508101906134aa9190615852565b6134b357600080fd5b6134c5826000015183602001516115bc565b604083810191825283516001600160a01b0390811660009081526023602090815283822081880180518452908252848320865184528252848320885181546001600160a01b031916951694851781558151600182015595516002870155606088015160038701556080880151600487015560a0880151600587015560c088015160068701805460ff191691151591909117905560e0880151600787015561010088015160088701556101208801516009909601959095559181526025825282812093518152929052812080549161359b8361589d565b90915550504360009081526031602052604081208054916135bb8361589d565b909155505081516001600160a01b031660009081526025602090815260408083208286015184529091529020546001141561365c57602082810180516000908152602e80845260408083205487516001600160a01b039081168552602f87528285208651865287528285209190915593518352908452812085518154600181018355918352939091200180546001600160a01b031916929091169190911790555b600060a0820181815283516001600160a01b031682526024602090815260408084208287018051865290835281852082880151865283529381902085518155918501516001808401919091559085015160028301819055606086015160038401556080860151600484015592516005909201805460ff191692151592909217909155915160c08501516136f29391929190614d3a565b5050565b6021818154811061370657600080fd5b6000918252602090912001546001600160a01b0316905081565b3360009081526033602052604090205460ff1680156137ba575060048054604051632474521560e21b81526001600160a01b03909116916391d1485491613779916000805160206159c78339815191529133910161583b565b602060405180830381865afa158015613796573d6000803e3d6000fd5b505050506040513d601f19601f820116820180604052508101906137ba9190615852565b6137c357600080fd5b8251516001600160a01b039081166000908152602b602090815260408083208054600180820183559185528385200187905586845260298352928190208751805182546001600160a01b031916961695909517815591840151928201929092558282015160028201556060808401516003830155608080850151600484015560a080860151600585015560c086015160068501805460ff191691151591909117905560e08601516007850155610100860151600885015561012090950151600984015592870151600b830155860151600c82015590850151600d82015590840151600e82015543600a9091015580156138f5578251516001600160a01b03166000908152602c602090815260408083208651830151845290915281208054916138eb8361589d565b9190505550505050565b8251516001600160a01b03166000908152602d6020908152604080832086518301518452909152812080549161392a8361589d565b90915550508251516001600160a01b03166000908152602460209081526040808320865183015184528252808320865182015184529091529020600501805460ff19166001179055505050565b3360009081526033602052604090205460ff168015613a11575060048054604051632474521560e21b81526001600160a01b03909116916391d14854916139d0916000805160206159c78339815191529133910161583b565b602060405180830381865afa1580156139ed573d6000803e3d6000fd5b505050506040513d601f19601f82011682018060405250810190613a119190615852565b613a1a57600080fd5b600082815260296020908152604080832081516102008101835281546001600160a01b031660c08201818152600184015460e08401526002840154610100840152600384015461012084015260048401546101408401526005840154610160840152600684015460ff16151561018084015260078401546101a084015260088401546101c084015260098401546101e08401528252600a83015482860152600b83015482850152600c8301546060830152600d8301546080830152600e9092015460a0820152908452602b909252822090915b8154811015613ce85784828281548110613b0957613b096157f4565b90600052602060002001541415613cd6578315613b5f578251516001600160a01b03166000908152602c60209081526040808320865183015184529091528120805491613b55836158fe565b9190505550613bda565b8251516001600160a01b03166000908152602d60209081526040808320865183015184529091528120805491613b94836158fe565b90915550508251516001600160a01b03166000908152602460209081526040808320865183015184528252808320865182015184529091529020600501805460ff191690555b81548290613bea906001906158d1565b81548110613bfa57613bfa6157f4565b9060005260206000200154828281548110613c1757613c176157f4565b906000526020600020018190555081805480613c3557613c356158e8565b600082815260208082208301600019908101839055909201909255868252602990526040812080546001600160a01b0319168155600181018290556002810182905560038101829055600481018290556005810182905560068101805460ff19169055600781018290556008810182905560098101829055600a8101829055600b8101829055600c8101829055600d8101829055600e0155506136f2915050565b80613ce08161589d565b915050613aed565b5050505050565b6018546001600160a01b03163314613d0657600080fd5b6001600160a01b038116613d1957600080fd5b601880546001600160a01b0319166001600160a01b038316908117909155604080518181526003918101919091526233b7bb60e91b606082015260208101919091526000805160206159a783398151915290608001611214565b3360009081526033602052604081205460ff168015613e0d575060048054604051632474521560e21b81526001600160a01b03909116916391d1485491613dcc916000805160206159c78339815191529133910161583b565b602060405180830381865afa158015613de9573d6000803e3d6000fd5b505050506040513d601f19601f82011682018060405250810190613e0d9190615852565b613e1657600080fd5b600054604051630710f2ff60e51b8152600481018790526064916402540be400916001600160a01b039091169063e21e5fe090602401602060405180830381865afa158015613e69573d6000803e3d6000fd5b505050506040513d601f19601f82011682018060405250810190613e8d91906158b8565b613e979087615932565b613ea19190615951565b613eab9190615951565b905081613ec057613ebd600282615951565b90505b8215613efc5780601d6000828254613ed89190615885565b9250508190555080601b6000828254613ef19190615885565b90915550613f2d9050565b80601c6000828254613f0e9190615885565b9250508190555080601a6000828254613f279190615885565b90915550505b613f38600282615932565b95945050505050565b6018546001600160a01b03163314613f5857600080fd5b60048054601954601a546040516340c10f1960e01b81526001600160a01b0392831694810194909452602484015216906340c10f1990604401600060405180830381600087803b158015613fab57600080fd5b505af1158015613fbf573d6000803e3d6000fd5b505060048054601854601c546040516340c10f1960e01b81526001600160a01b039283169481019490945260248401521692506340c10f199150604401600060405180830381600087803b15801561401657600080fd5b505af115801561402a573d6000803e3d6000fd5b50505050601c54601a5461403e9190615885565b601f600082825461404f9190615885565b9091555050601854601d5460405163a9059cbb60e01b81526001600160a01b03928316600482015260248101919091527f00000000000000000000000000000000000000000000000000000000000000009091169063a9059cbb906044016020604051808303816000875af11580156140cc573d6000803e3d6000fd5b505050506040513d601f19601f820116820180604052508101906140f09190615852565b50601954601b5460405163a9059cbb60e01b81526001600160a01b03928316600482015260248101919091527f00000000000000000000000000000000000000000000000000000000000000009091169063a9059cbb906044016020604051808303816000875af1158015614169573d6000803e3d6000fd5b505050506040513d601f19601f8201168201806040525081019061418d9190615852565b506000601a819055601c819055601b819055601d55565b3360009081526033602052604090205460ff16801561423e575060048054604051632474521560e21b81526001600160a01b03909116916391d14854916141fd916000805160206159c78339815191529133910161583b565b602060405180830381865afa15801561421a573d6000803e3d6000fd5b505050506040513d601f19601f8201168201806040525081019061423e9190615852565b61424757600080fd5b614259816000015182602001516117bf565b604082019081524361016083019081526028805460018082018355600083905285517fe16da923a2d88192e5070f37b4571d58682c0d66212ec634d495f33de3f77ab5600d90930292830180546001600160a01b0319166001600160a01b0390921691909117905560208601517fe16da923a2d88192e5070f37b4571d58682c0d66212ec634d495f33de3f77ab683015593517fe16da923a2d88192e5070f37b4571d58682c0d66212ec634d495f33de3f77ab782015560608501517fe16da923a2d88192e5070f37b4571d58682c0d66212ec634d495f33de3f77ab882015560808501517fe16da923a2d88192e5070f37b4571d58682c0d66212ec634d495f33de3f77ab982015560a08501517fe16da923a2d88192e5070f37b4571d58682c0d66212ec634d495f33de3f77aba8201805460ff191691151591909117905560c08501517fe16da923a2d88192e5070f37b4571d58682c0d66212ec634d495f33de3f77abb82015560e08501517fe16da923a2d88192e5070f37b4571d58682c0d66212ec634d495f33de3f77abc8201556101008501517fe16da923a2d88192e5070f37b4571d58682c0d66212ec634d495f33de3f77abd8201556101208501517fe16da923a2d88192e5070f37b4571d58682c0d66212ec634d495f33de3f77abe8201556101408501517fe16da923a2d88192e5070f37b4571d58682c0d66212ec634d495f33de3f77abf82015591517fe16da923a2d88192e5070f37b4571d58682c0d66212ec634d495f33de3f77ac08301556101808401517fe16da923a2d88192e5070f37b4571d58682c0d66212ec634d495f33de3f77ac190920191909155546144c891906158d1565b81516001600160a01b039081166000908152602660209081526040808320828701805185529083528184208288015185528352818420959095558551909316825260278152828220935182529290925281208054916145268361589d565b919050555050565b60606021805480602002602001604051908101604052809291908181526020018280548015611afa57602002820191906000526020600020905b81546001600160a01b03168152600190910190602001808311614568575050505050905090565b6018546001600160a01b031633146145a657600080fd5b6001600160a01b0381166145b957600080fd5b601980546001600160a01b0319166001600160a01b03831690811790915560408051818152600391810191909152623232bb60e91b606082015260208101919091526000805160206159a783398151915290608001611214565b3360009081526033602052604090205460ff1680156146ad575060048054604051632474521560e21b81526001600160a01b03909116916391d148549161466c916000805160206159c78339815191529133910161583b565b602060405180830381865afa158015614689573d6000803e3d6000fd5b505050506040513d601f19601f820116820180604052508101906146ad9190615852565b6146b657600080fd5b80516001600160a01b031660009081526023602090815260408083208285015184528252808320818501518452909152902060078101546146f5575050565b606082015160038201556080820151600482015560a0820151600582015560e082015160079091015550565b6018546001600160a01b0316331461473857600080fd5b6000811161474557600080fd5b600c819055604080518181526010918101919091526f36b0bc2a3930b232b9a832b92830b4b960811b60608201526020810182905260008051602061598783398151915290608001611214565b6028546000906147a4575060006133d8565b6001600160a01b038416600090815260266020908152604080832086845282528083208584529091528120546028805490919081106147e5576147e56157f4565b60009182526020909120600d9091020180549091506001600160a01b0386811691161480156148175750838160010154145b8015613f385750600201549091149392505050565b6018546001600160a01b0316331461484357600080fd5b60128181556040805181815290810191909152716e66745375636365737354696d656c6f636b60701b60608201526020810182905260008051602061598783398151915290608001611214565b6018546001600160a01b031633146148a757600080fd5b6000828152603060205260409020819060020155604080516060808252601290820152716d61784f70656e496e74657265737444616960701b6080820152602081018490529081018290527f957cd67ea49f3e1ee953cdd23a1ba1f11d973e842411220d5c24ef0e24e1c9569060a00160405180910390a15050565b602e602052816000526040600020818154811061493f57600080fd5b6000918252602090912001546001600160a01b03169150829050565b3360009081526033602052604090205460ff1680156149f5575060048054604051632474521560e21b81526001600160a01b03909116916391d14854916149b4916000805160206159c78339815191529133910161583b565b602060405180830381865afa1580156149d1573d6000803e3d6000fd5b505050506040513d601f19601f820116820180604052508101906149f59190615852565b6149fe57600080fd5b600154604051633104b73f60e21b8152600481018390526001600160a01b039091169063c412dcfc90602401600060405180830381600087803b158015614a4457600080fd5b505af1158015613ce8573d6000803e3d6000fd5b6018546001600160a01b03163314614a6f57600080fd5b60008111614a7c57600080fd5b600e81905560408051818152601691810191909152756d617850656e64696e674d61726b65744f726465727360501b60608201526020810182905260008051602061598783398151915290608001611214565b6018546001600160a01b03163314614ae657600080fd5b803515801590614afa575080356020820135115b8015614b0d575060208101356040820135115b8015614b20575060408101356060820135115b8015614b33575060608101356080820135115b614b3c57600080fd5b614b496013826005614e3b565b507fdaae5e047a75b6f38ad4e279cdefe910fc35d5a99a91b8303bd948c0a999372a816040516112149190615973565b6018546001600160a01b03163314614b9057600080fd5b60048054604051632474521560e21b81526001600160a01b03909116916391d1485491614bcf916000805160206159c78339815191529186910161583b565b602060405180830381865afa158015614bec573d6000803e3d6000fd5b505050506040513d601f19601f82011682018060405250810190614c109190615852565b614c495760405162461bcd60e51b815260206004820152600a6024820152692727aa2fa6a4a72a22a960b11b60448201526064016122b5565b6001600160a01b038116614c5c57600080fd5b6001600160a01b038116600081815260336020908152604091829020805460ff1916600117905590519182527fb692fa98cbec9bd705572b4c7e0927e3f7698e9fe526dcef6f40f3d4d4980ca39101611214565b6018546001600160a01b03163314614cc757600080fd5b6001600160a01b038116614cda57600080fd5b600380546001600160a01b0319166001600160a01b038316908117909155604080518181526009918101919091526863616c6c6261636b7360b81b606082015260208101919091526000805160206159a783398151915290608001611214565b600081614d48576001614d4b565b60005b600086815260306020526040902060ff91909116915083614d8a5784818360038110614d7957614d796157f4565b0154614d8591906158d1565b614da9565b84818360038110614d9d57614d9d6157f4565b0154614da99190615885565b818360038110614dbb57614dbb6157f4565b0155505050505050565b8260058101928215614e0d579160200282015b82811115614e0d57825182546001600160a01b0319166001600160a01b03909116178255602090920191600190910190614dd8565b50614e19929150614e69565b5090565b6040518060a001604052806005906020820280368337509192915050565b8260058101928215614e0d579160200282015b82811115614e0d578235825591602001919060010190614e4e565b5b80821115614e195760008155600101614e6a565b634e487b7160e01b600052604160045260246000fd5b60405160c0810167ffffffffffffffff81118282101715614eb757614eb7614e7e565b60405290565b604051610140810167ffffffffffffffff81118282101715614eb757614eb7614e7e565b6040516101a0810167ffffffffffffffff81118282101715614eb757614eb7614e7e565b6001600160a01b038116811461325857600080fd5b600060a08284031215614f2c57600080fd5b82601f830112614f3b57600080fd5b60405160a0810181811067ffffffffffffffff82111715614f5e57614f5e614e7e565b6040528060a0840185811115614f7357600080fd5b845b81811015614f96578035614f8881614f05565b835260209283019201614f75565b509195945050505050565b600060208284031215614fb357600080fd5b5035919050565b8035614fc581614f05565b919050565b60008060408385031215614fdd57600080fd5b8235614fe881614f05565b946020939093013593505050565b6000806040838503121561500957600080fd5b50508035926020909101359150565b60006020828403121561502a57600080fd5b81356133d881614f05565b801515811461325857600080fd5b8035614fc581615035565b60008060006060848603121561506357600080fd5b833561506e81614f05565b925060208401359150604084013561508581615035565b809150509250925092565b60a08101818360005b60058110156150b8578151835260209283019290910190600101615099565b50505092915050565b6020808252825182820181905260009190848201906040850190845b818110156150f9578351835292840192918401916001016150dd565b50909695505050505050565b6020808252825182820181905260009190848201906040850190845b818110156150f95783516001600160a01b031683529284019291840191600101615121565b60008060006060848603121561515b57600080fd5b833561516681614f05565b95602085013595506040909401359392505050565b60008060006060848603121561519057600080fd5b833561519b81614f05565b925060208401356151ab81614f05565b929592945050506040919091013590565b600080600080608085870312156151d257600080fd5b84356151dd81614f05565b966020860135965060408601359560600135945092505050565b60008082840360e081121561520b57600080fd5b60c081121561521957600080fd5b50615222614e94565b833561522d81614f05565b815260208481013590820152604084013561524781614f05565b80604083015250606084013560608201526080840135608082015260a08401356004811061527457600080fd5b60a08201529460c0939093013593505050565b80516001600160a01b031682526020810151602083015260408101516040830152606081015160608301526080810151608083015260a08101516152cf60a084018215159052565b5060c0818101519083015260e08082015190830152610100808201519083015261012080820151908301526101408082015190830152610160808201519083015261018090810151910152565b6020808252825182820181905260009190848201906040850190845b818110156150f95761534b838551615287565b928401926101a09290920191600101615338565b634e487b7160e01b600052602160045260246000fd5b6001600160a01b0387811682526020820187905285166040820152606081018490526080810183905260c08101600483106153c057634e487b7160e01b600052602160045260246000fd5b8260a0830152979650505050505050565b600080604083850312156153e457600080fd5b82356153ef81614f05565b915060208301356153ff81614f05565b809150509250929050565b86516001600160a01b031681526101e081016020880151602083015260408801516040830152606088015160608301526080880151608083015260a088015160a083015260c088015161546160c084018215159052565b5060e08881015190830152610100808901519083015261012097880151978201979097526101408101959095526101608501939093526101808401919091526101a08301526101c09091015290565b60006101a082840312156154c357600080fd5b50919050565b6101a081016154d88284615287565b92915050565b600061014082840312156154f157600080fd5b6154f9614ebd565b905061550482614fba565b81526020820135602082015260408201356040820152606082013560608201526080820135608082015260a082013560a082015261554460c08301615043565b60c082015260e082013560e082015261010080830135818301525061012080830135818301525092915050565b60008082840361020081121561558657600080fd5b61559085856154de565b925060c061013f19820112156155a557600080fd5b506155ae614e94565b6101408401358152610160840135602082015261018084013560408201526101a084013560608201526101c084013560808201526101e08401356155f181615035565b60a0820152919491935090915050565b600080600083850361022081121561561857600080fd5b6101e08082121561562857600080fd5b615630614e94565b915061563c87876154de565b82526101408601356020830152610160860135604083015261018086013560608301526101a086013560808301526101c086013560a0830152909350840135915061568a6102008501615043565b90509250925092565b600080604083850312156156a657600080fd5b8235915060208301356153ff81615035565b600080600080608085870312156156ce57600080fd5b843593506020850135925060408501356156e781615035565b915060608501356156f781615035565b939692955090935050565b60006101a0828403121561571557600080fd5b61571d614ee1565b61572683614fba565b81526020830135602082015260408301356040820152606083013560608201526080830135608082015261575c60a08401615043565b60a082015260c0838101359082015260e080840135908201526101008084013590820152610120808401359082015261014080840135908201526101608084013590820152610180928301359281019290925250919050565b600061014082840312156157c857600080fd5b6133d883836154de565b600060a082840312156157e457600080fd5b8260a0830111156154c357600080fd5b634e487b7160e01b600052603260045260246000fd5b60a08101818360005b60058110156150b85781516001600160a01b0316835260209283019290910190600101615813565b9182526001600160a01b0316602082015260400190565b60006020828403121561586457600080fd5b81516133d881615035565b634e487b7160e01b600052601160045260246000fd5b600082198211156158985761589861586f565b500190565b60006000198214156158b1576158b161586f565b5060010190565b6000602082840312156158ca57600080fd5b5051919050565b6000828210156158e3576158e361586f565b500390565b634e487b7160e01b600052603160045260246000fd5b60008161590d5761590d61586f565b506000190190565b60006020828403121561592757600080fd5b81356133d881615035565b600081600019048311821515161561594c5761594c61586f565b500290565b60008261596e57634e487b7160e01b600052601260045260246000fd5b500490565b60a081810190838337600081529291505056fe8cf3e35f6221b16e1670a3413180c9484bf5aa71787905909fa82a6a2662e9ab943e9d45a11aaae5d87503e3bc248665d9807856e5cf2bdb4a988bee444227819f2df0fed2c77648de5860a4cc508cd0818c85b8b8a1ab4ceeef8d981c8956a6a2646970667358221220ac8843ccac61b25249f77cd4608c07c0290efab2a064a2720bba5a18fa69e99164736f6c634300080b0033",
  "bytecodeSha1": "277c4660169d5a6852e074eb23ed30e8bf635ff3",
  "compiler": {
    "evm_version": "istanbul",
    "optimizer": {
      "enabled": true,
      "runs": 200
    },
    "version": "0.8.11+commit.d7f03943"
  },
  "contractName": "GNSTestnetTradingStorageV5",
  "language": "Solidity",
  "natspec": {
    "kind": "dev",
    "methods": {},
    "version": 1
  },
  "opcodes": "PUSH1 0x80 PUSH1 0x40 MSTORE CALLVALUE DUP1 ISZERO PUSH2 0x10 JUMPI PUSH1 0x0 DUP1 REVERT JUMPDEST POP PUSH1 0x4 CALLDATASIZE LT PUSH2 0x607 JUMPI PUSH1 0x0 CALLDATALOAD PUSH1 0xE0 SHR DUP1 PUSH4 0x97E7995A GT PUSH2 0x31B JUMPI DUP1 PUSH4 0xD4BDA908 GT PUSH2 0x1A8 JUMPI DUP1 PUSH4 0xEE92A4FF GT PUSH2 0xF4 JUMPI DUP1 PUSH4 0xF823E2AE GT PUSH2 0xAD JUMPI DUP1 PUSH4 0xFC0C546A GT PUSH2 0x87 JUMPI DUP1 PUSH4 0xFC0C546A EQ PUSH2 0x1157 JUMPI DUP1 PUSH4 0xFDB59413 EQ PUSH2 0x116A JUMPI DUP1 PUSH4 0xFE0FC8D6 EQ PUSH2 0x1173 JUMPI DUP1 PUSH4 0xFECE4EAC EQ PUSH2 0x1186 JUMPI PUSH1 0x0 DUP1 REVERT JUMPDEST DUP1 PUSH4 0xF823E2AE EQ PUSH2 0x1128 JUMPI DUP1 PUSH4 0xF8D24B48 EQ PUSH2 0x113B JUMPI DUP1 PUSH4 0xFBFA77CF EQ PUSH2 0x1144 JUMPI PUSH1 0x0 DUP1 REVERT JUMPDEST DUP1 PUSH4 0xEE92A4FF EQ PUSH2 0x10A0 JUMPI DUP1 PUSH4 0xF013D278 EQ PUSH2 0x10A9 JUMPI DUP1 PUSH4 0xF2C13BDF EQ PUSH2 0x10BC JUMPI DUP1 PUSH4 0xF4B9FA75 EQ PUSH2 0x10CF JUMPI DUP1 PUSH4 0xF65D9DBE EQ PUSH2 0x10F6 JUMPI DUP1 PUSH4 0xF7B3C6FD EQ PUSH2 0x10FF JUMPI PUSH1 0x0 DUP1 REVERT JUMPDEST DUP1 PUSH4 0xE3CBE3A7 GT PUSH2 0x161 JUMPI DUP1 PUSH4 0xEA5C3C33 GT PUSH2 0x13B JUMPI DUP1 PUSH4 0xEA5C3C33 EQ PUSH2 0x1040 JUMPI DUP1 PUSH4 0xEC44ACF2 EQ PUSH2 0x1049 JUMPI DUP1 PUSH4 0xECF56A1F EQ PUSH2 0x105C JUMPI DUP1 PUSH4 0xEDA00D54 EQ PUSH2 0x106F JUMPI PUSH1 0x0 DUP1 REVERT JUMPDEST DUP1 PUSH4 0xE3CBE3A7 EQ PUSH2 0x1011 JUMPI DUP1 PUSH4 0xE3F04EBA EQ PUSH2 0x1024 JUMPI DUP1 PUSH4 0xE7873B58 EQ PUSH2 0x1037 JUMPI PUSH1 0x0 DUP1 REVERT JUMPDEST DUP1 PUSH4 0xD4BDA908 EQ PUSH2 0xF9D JUMPI DUP1 PUSH4 0xD5391393 EQ PUSH2 0xFB0 JUMPI DUP1 PUSH4 0xDC2123FF EQ PUSH2 0xFC5 JUMPI DUP1 PUSH4 0xDCDF339A EQ PUSH2 0xFD8 JUMPI DUP1 PUSH4 0xE212991A EQ PUSH2 0xFEB JUMPI DUP1 PUSH4 0xE378B367 EQ PUSH2 0xFFE JUMPI PUSH1 0x0 DUP1 REVERT JUMPDEST DUP1 PUSH4 0xB8878A2C GT PUSH2 0x267 JUMPI DUP1 PUSH4 0xCAB94580 GT PUSH2 0x220 JUMPI DUP1 PUSH4 0xD294F093 GT PUSH2 0x1FA JUMPI DUP1 PUSH4 0xD294F093 EQ PUSH2 0xF67 JUMPI DUP1 PUSH4 0xD3B5FE70 EQ PUSH2 0xF6F JUMPI DUP1 PUSH4 0xD3C7C2C7 EQ PUSH2 0xF82 JUMPI DUP1 PUSH4 0xD477F05F EQ PUSH2 0xF8A JUMPI PUSH1 0x0 DUP1 REVERT JUMPDEST DUP1 PUSH4 0xCAB94580 EQ PUSH2 0xF2E JUMPI DUP1 PUSH4 0xCFAD57A2 EQ PUSH2 0xF41 JUMPI DUP1 PUSH4 0xCFBACC14 EQ PUSH2 0xF54 JUMPI PUSH1 0x0 DUP1 REVERT JUMPDEST DUP1 PUSH4 0xB8878A2C EQ PUSH2 0xEB9 JUMPI DUP1 PUSH4 0xBCC9F1D3 EQ PUSH2 0xED9 JUMPI DUP1 PUSH4 0xC122FEA6 EQ PUSH2 0xEEC JUMPI DUP1 PUSH4 0xC311AB31 EQ PUSH2 0xEF5 JUMPI DUP1 PUSH4 0xC6255626 EQ PUSH2 0xF08 JUMPI DUP1 PUSH4 0xC76FAF78 EQ PUSH2 0xF1B JUMPI PUSH1 0x0 DUP1 REVERT JUMPDEST DUP1 PUSH4 0xA553906C GT PUSH2 0x2D4 JUMPI DUP1 PUSH4 0xB4B0F567 GT PUSH2 0x2AE JUMPI DUP1 PUSH4 0xB4B0F567 EQ PUSH2 0xD96 JUMPI DUP1 PUSH4 0xB66E6B05 EQ PUSH2 0xDA9 JUMPI DUP1 PUSH4 0xB767608A EQ PUSH2 0xE7B JUMPI DUP1 PUSH4 0xB7682D54 EQ PUSH2 0xE8E JUMPI PUSH1 0x0 DUP1 REVERT JUMPDEST DUP1 PUSH4 0xA553906C EQ PUSH2 0xD57 JUMPI DUP1 PUSH4 0xAA3B7D77 EQ PUSH2 0xD6A JUMPI DUP1 PUSH4 0xAAF5EB68 EQ PUSH2 0xD8A JUMPI PUSH1 0x0 DUP1 REVERT JUMPDEST DUP1 PUSH4 0x97E7995A EQ PUSH2 0xBA3 JUMPI DUP1 PUSH4 0x99794D35 EQ PUSH2 0xBCE JUMPI DUP1 PUSH4 0x9C8912F1 EQ PUSH2 0xC32 JUMPI DUP1 PUSH4 0x9D1A1073 EQ PUSH2 0xC5D JUMPI DUP1 PUSH4 0xA3544181 EQ PUSH2 0xC70 JUMPI DUP1 PUSH4 0xA3A80FFE EQ PUSH2 0xC83 JUMPI PUSH1 0x0 DUP1 REVERT JUMPDEST DUP1 PUSH4 0x56A6796F GT PUSH2 0x499 JUMPI DUP1 PUSH4 0x7395D79E GT PUSH2 0x3E5 JUMPI DUP1 PUSH4 0x8A0BD702 GT PUSH2 0x39E JUMPI DUP1 PUSH4 0x8C8FF1D5 GT PUSH2 0x378 JUMPI DUP1 PUSH4 0x8C8FF1D5 EQ PUSH2 0xA9C JUMPI DUP1 PUSH4 0x90D112B9 EQ PUSH2 0xB22 JUMPI DUP1 PUSH4 0x91CCA3DB EQ PUSH2 0xB35 JUMPI DUP1 PUSH4 0x92A88FA2 EQ PUSH2 0xB48 JUMPI PUSH1 0x0 DUP1 REVERT JUMPDEST DUP1 PUSH4 0x8A0BD702 EQ PUSH2 0xA6B JUMPI DUP1 PUSH4 0x8BBB644C EQ PUSH2 0xA80 JUMPI DUP1 PUSH4 0x8BF7F5F9 EQ PUSH2 0xA89 JUMPI PUSH1 0x0 DUP1 REVERT JUMPDEST DUP1 PUSH4 0x7395D79E EQ PUSH2 0xA0D JUMPI DUP1 PUSH4 0x796D82D9 EQ PUSH2 0xA20 JUMPI DUP1 PUSH4 0x7AD3DEF2 EQ PUSH2 0xA29 JUMPI DUP1 PUSH4 0x7FDB96F3 EQ PUSH2 0xA3C JUMPI DUP1 PUSH4 0x8049FDE7 EQ PUSH2 0xA4F JUMPI DUP1 PUSH4 0x817FA1A4 EQ PUSH2 0xA58 JUMPI PUSH1 0x0 DUP1 REVERT JUMPDEST DUP1 PUSH4 0x6690A806 GT PUSH2 0x452 JUMPI DUP1 PUSH4 0x6D69FCAF GT PUSH2 0x42C JUMPI DUP1 PUSH4 0x6D69FCAF EQ PUSH2 0x9AB JUMPI DUP1 PUSH4 0x6D81D981 EQ PUSH2 0x9BE JUMPI DUP1 PUSH4 0x6DE9F32B EQ PUSH2 0x9F1 JUMPI DUP1 PUSH4 0x6E70E7B6 EQ PUSH2 0x9FA JUMPI PUSH1 0x0 DUP1 REVERT JUMPDEST DUP1 PUSH4 0x6690A806 EQ PUSH2 0x95C JUMPI DUP1 PUSH4 0x6817031B EQ PUSH2 0x96F JUMPI DUP1 PUSH4 0x68CA199D EQ PUSH2 0x982 JUMPI PUSH1 0x0 DUP1 REVERT JUMPDEST DUP1 PUSH4 0x56A6796F EQ PUSH2 0x8E2 JUMPI DUP1 PUSH4 0x5A912551 EQ PUSH2 0x8F7 JUMPI DUP1 PUSH4 0x5AD9F993 EQ PUSH2 0x900 JUMPI DUP1 PUSH4 0x5B621E32 EQ PUSH2 0x909 JUMPI DUP1 PUSH4 0x5C76AC9E EQ PUSH2 0x91C JUMPI DUP1 PUSH4 0x5FBFE8CC EQ PUSH2 0x93C JUMPI PUSH1 0x0 DUP1 REVERT JUMPDEST DUP1 PUSH4 0x292C1617 GT PUSH2 0x558 JUMPI DUP1 PUSH4 0x4415B369 GT PUSH2 0x511 JUMPI DUP1 PUSH4 0x4DAF04B1 GT PUSH2 0x4EB JUMPI DUP1 PUSH4 0x4DAF04B1 EQ PUSH2 0x889 JUMPI DUP1 PUSH4 0x5070E837 EQ PUSH2 0x89C JUMPI DUP1 PUSH4 0x52E5398F EQ PUSH2 0x8AF JUMPI DUP1 PUSH4 0x5378143E EQ PUSH2 0x8CF JUMPI PUSH1 0x0 DUP1 REVERT JUMPDEST DUP1 PUSH4 0x4415B369 EQ PUSH2 0x838 JUMPI DUP1 PUSH4 0x4437152A EQ PUSH2 0x863 JUMPI DUP1 PUSH4 0x44D44F5A EQ PUSH2 0x876 JUMPI PUSH1 0x0 DUP1 REVERT JUMPDEST DUP1 PUSH4 0x292C1617 EQ PUSH2 0x73E JUMPI DUP1 PUSH4 0x3078FFF5 EQ PUSH2 0x751 JUMPI DUP1 PUSH4 0x32149592 EQ PUSH2 0x764 JUMPI DUP1 PUSH4 0x3B0F0F2F EQ PUSH2 0x7E3 JUMPI DUP1 PUSH4 0x3DAE10A0 EQ PUSH2 0x812 JUMPI DUP1 PUSH4 0x43B8FAB5 EQ PUSH2 0x825 JUMPI PUSH1 0x0 DUP1 REVERT JUMPDEST DUP1 PUSH4 0x18407FE0 GT PUSH2 0x5C5 JUMPI DUP1 PUSH4 0x21F7A30B GT PUSH2 0x59F JUMPI DUP1 PUSH4 0x21F7A30B EQ PUSH2 0x6F2 JUMPI DUP1 PUSH4 0x265AA621 EQ PUSH2 0x705 JUMPI DUP1 PUSH4 0x28B1F887 EQ PUSH2 0x718 JUMPI DUP1 PUSH4 0x28DACA21 EQ PUSH2 0x72B JUMPI PUSH1 0x0 DUP1 REVERT JUMPDEST DUP1 PUSH4 0x18407FE0 EQ PUSH2 0x69D JUMPI DUP1 PUSH4 0x1C8636B4 EQ PUSH2 0x6B4 JUMPI DUP1 PUSH4 0x201D8BDB EQ PUSH2 0x6DF JUMPI PUSH1 0x0 DUP1 REVERT JUMPDEST DUP1 PUSH3 0xB12783 EQ PUSH2 0x60C JUMPI DUP1 PUSH4 0x6AEF7DE EQ PUSH2 0x63C JUMPI DUP1 PUSH4 0x99FA934 EQ PUSH2 0x651 JUMPI DUP1 PUSH4 0x12D43A51 EQ PUSH2 0x664 JUMPI DUP1 PUSH4 0x13B36FF6 EQ PUSH2 0x677 JUMPI DUP1 PUSH4 0x16F0115B EQ PUSH2 0x68A JUMPI JUMPDEST PUSH1 0x0 DUP1 REVERT JUMPDEST PUSH1 0x3 SLOAD PUSH2 0x61F SWAP1 PUSH1 0x1 PUSH1 0x1 PUSH1 0xA0 SHL SUB AND DUP2 JUMP JUMPDEST PUSH1 0x40 MLOAD PUSH1 0x1 PUSH1 0x1 PUSH1 0xA0 SHL SUB SWAP1 SWAP2 AND DUP2 MSTORE PUSH1 0x20 ADD JUMPDEST PUSH1 0x40 MLOAD DUP1 SWAP2 SUB SWAP1 RETURN JUMPDEST PUSH2 0x64F PUSH2 0x64A CALLDATASIZE PUSH1 0x4 PUSH2 0x4F1A JUMP JUMPDEST PUSH2 0x11AD JUMP JUMPDEST STOP JUMPDEST PUSH2 0x64F PUSH2 0x65F CALLDATASIZE PUSH1 0x4 PUSH2 0x4FA1 JUMP JUMPDEST PUSH2 0x121F JUMP JUMPDEST PUSH1 0x18 SLOAD PUSH2 0x61F SWAP1 PUSH1 0x1 PUSH1 0x1 PUSH1 0xA0 SHL SUB AND DUP2 JUMP JUMPDEST PUSH2 0x64F PUSH2 0x685 CALLDATASIZE PUSH1 0x4 PUSH2 0x4FA1 JUMP JUMPDEST PUSH2 0x1287 JUMP JUMPDEST PUSH1 0x1 SLOAD PUSH2 0x61F SWAP1 PUSH1 0x1 PUSH1 0x1 PUSH1 0xA0 SHL SUB AND DUP2 JUMP JUMPDEST PUSH2 0x6A6 PUSH1 0x1D SLOAD DUP2 JUMP JUMPDEST PUSH1 0x40 MLOAD SWAP1 DUP2 MSTORE PUSH1 0x20 ADD PUSH2 0x633 JUMP JUMPDEST PUSH2 0x6A6 PUSH2 0x6C2 CALLDATASIZE PUSH1 0x4 PUSH2 0x4FCA JUMP JUMPDEST PUSH1 0x25 PUSH1 0x20 SWAP1 DUP2 MSTORE PUSH1 0x0 SWAP3 DUP4 MSTORE PUSH1 0x40 DUP1 DUP5 KECCAK256 SWAP1 SWAP2 MSTORE SWAP1 DUP3 MSTORE SWAP1 KECCAK256 SLOAD DUP2 JUMP JUMPDEST PUSH2 0x64F PUSH2 0x6ED CALLDATASIZE PUSH1 0x4 PUSH2 0x4FA1 JUMP JUMPDEST PUSH2 0x12F2 JUMP JUMPDEST PUSH2 0x64F PUSH2 0x700 CALLDATASIZE PUSH1 0x4 PUSH2 0x4FCA JUMP JUMPDEST PUSH2 0x13E1 JUMP JUMPDEST PUSH2 0x61F PUSH2 0x713 CALLDATASIZE PUSH1 0x4 PUSH2 0x4FA1 JUMP JUMPDEST PUSH2 0x14B8 JUMP JUMPDEST PUSH2 0x64F PUSH2 0x726 CALLDATASIZE PUSH1 0x4 PUSH2 0x4FCA JUMP JUMPDEST PUSH2 0x14D8 JUMP JUMPDEST PUSH2 0x6A6 PUSH2 0x739 CALLDATASIZE PUSH1 0x4 PUSH2 0x4FF6 JUMP JUMPDEST PUSH2 0x1597 JUMP JUMPDEST PUSH2 0x6A6 PUSH2 0x74C CALLDATASIZE PUSH1 0x4 PUSH2 0x4FCA JUMP JUMPDEST PUSH2 0x15BC JUMP JUMPDEST PUSH1 0x0 SLOAD PUSH2 0x61F SWAP1 PUSH1 0x1 PUSH1 0x1 PUSH1 0xA0 SHL SUB AND DUP2 JUMP JUMPDEST PUSH2 0x777 PUSH2 0x772 CALLDATASIZE PUSH1 0x4 PUSH2 0x4FA1 JUMP JUMPDEST PUSH2 0x161E JUMP JUMPDEST PUSH1 0x40 DUP1 MLOAD PUSH1 0x1 PUSH1 0x1 PUSH1 0xA0 SHL SUB SWAP1 SWAP15 AND DUP15 MSTORE PUSH1 0x20 DUP15 ADD SWAP13 SWAP1 SWAP13 MSTORE SWAP11 DUP13 ADD SWAP10 SWAP1 SWAP10 MSTORE PUSH1 0x60 DUP12 ADD SWAP8 SWAP1 SWAP8 MSTORE PUSH1 0x80 DUP11 ADD SWAP6 SWAP1 SWAP6 MSTORE SWAP3 ISZERO ISZERO PUSH1 0xA0 DUP10 ADD MSTORE PUSH1 0xC0 DUP9 ADD SWAP2 SWAP1 SWAP2 MSTORE PUSH1 0xE0 DUP8 ADD MSTORE PUSH2 0x100 DUP7 ADD MSTORE PUSH2 0x120 DUP6 ADD MSTORE PUSH2 0x140 DUP5 ADD MSTORE PUSH2 0x160 DUP4 ADD MSTORE PUSH2 0x180 DUP3 ADD MSTORE PUSH2 0x1A0 ADD PUSH2 0x633 JUMP JUMPDEST PUSH2 0x61F PUSH2 0x7F1 CALLDATASIZE PUSH1 0x4 PUSH2 0x5018 JUMP JUMPDEST PUSH1 0x1 PUSH1 0x1 PUSH1 0xA0 SHL SUB SWAP1 DUP2 AND PUSH1 0x0 SWAP1 DUP2 MSTORE PUSH1 0x22 PUSH1 0x20 MSTORE PUSH1 0x40 SWAP1 KECCAK256 PUSH1 0x1 ADD SLOAD AND SWAP1 JUMP JUMPDEST PUSH2 0x6A6 PUSH2 0x820 CALLDATASIZE PUSH1 0x4 PUSH2 0x4FA1 JUMP JUMPDEST PUSH2 0x16A5 JUMP JUMPDEST PUSH2 0x64F PUSH2 0x833 CALLDATASIZE PUSH1 0x4 PUSH2 0x4FA1 JUMP JUMPDEST PUSH2 0x16BC JUMP JUMPDEST PUSH2 0x6A6 PUSH2 0x846 CALLDATASIZE PUSH1 0x4 PUSH2 0x4FCA JUMP JUMPDEST PUSH1 0x2F PUSH1 0x20 SWAP1 DUP2 MSTORE PUSH1 0x0 SWAP3 DUP4 MSTORE PUSH1 0x40 DUP1 DUP5 KECCAK256 SWAP1 SWAP2 MSTORE SWAP1 DUP3 MSTORE SWAP1 KECCAK256 SLOAD DUP2 JUMP JUMPDEST PUSH2 0x64F PUSH2 0x871 CALLDATASIZE PUSH1 0x4 PUSH2 0x5018 JUMP JUMPDEST PUSH2 0x173A JUMP JUMPDEST PUSH2 0x6A6 PUSH2 0x884 CALLDATASIZE PUSH1 0x4 PUSH2 0x4FCA JUMP JUMPDEST PUSH2 0x17BF JUMP JUMPDEST PUSH2 0x64F PUSH2 0x897 CALLDATASIZE PUSH1 0x4 PUSH2 0x5018 JUMP JUMPDEST PUSH2 0x17F6 JUMP JUMPDEST PUSH2 0x64F PUSH2 0x8AA CALLDATASIZE PUSH1 0x4 PUSH2 0x5018 JUMP JUMPDEST PUSH2 0x1885 JUMP JUMPDEST PUSH2 0x6A6 PUSH2 0x8BD CALLDATASIZE PUSH1 0x4 PUSH2 0x4FA1 JUMP JUMPDEST PUSH1 0x31 PUSH1 0x20 MSTORE PUSH1 0x0 SWAP1 DUP2 MSTORE PUSH1 0x40 SWAP1 KECCAK256 SLOAD DUP2 JUMP JUMPDEST PUSH2 0x64F PUSH2 0x8DD CALLDATASIZE PUSH1 0x4 PUSH2 0x504E JUMP JUMPDEST PUSH2 0x1915 JUMP JUMPDEST PUSH2 0x8EA PUSH2 0x1AC8 JUMP JUMPDEST PUSH1 0x40 MLOAD PUSH2 0x633 SWAP2 SWAP1 PUSH2 0x5090 JUMP JUMPDEST PUSH2 0x6A6 PUSH1 0x10 SLOAD DUP2 JUMP JUMPDEST PUSH2 0x6A6 PUSH1 0x20 SLOAD DUP2 JUMP JUMPDEST PUSH2 0x64F PUSH2 0x917 CALLDATASIZE PUSH1 0x4 PUSH2 0x5018 JUMP JUMPDEST PUSH2 0x1B04 JUMP JUMPDEST PUSH2 0x92F PUSH2 0x92A CALLDATASIZE PUSH1 0x4 PUSH2 0x5018 JUMP JUMPDEST PUSH2 0x1B7F JUMP JUMPDEST PUSH1 0x40 MLOAD PUSH2 0x633 SWAP2 SWAP1 PUSH2 0x50C1 JUMP JUMPDEST PUSH2 0x94F PUSH2 0x94A CALLDATASIZE PUSH1 0x4 PUSH2 0x4FA1 JUMP JUMPDEST PUSH2 0x1BEB JUMP JUMPDEST PUSH1 0x40 MLOAD PUSH2 0x633 SWAP2 SWAP1 PUSH2 0x5105 JUMP JUMPDEST PUSH2 0x64F PUSH2 0x96A CALLDATASIZE PUSH1 0x4 PUSH2 0x5146 JUMP JUMPDEST PUSH2 0x1C56 JUMP JUMPDEST PUSH2 0x64F PUSH2 0x97D CALLDATASIZE PUSH1 0x4 PUSH2 0x5018 JUMP JUMPDEST PUSH2 0x1E1A JUMP JUMPDEST PUSH2 0x6A6 PUSH2 0x990 CALLDATASIZE PUSH1 0x4 PUSH2 0x5018 JUMP JUMPDEST PUSH1 0x1 PUSH1 0x1 PUSH1 0xA0 SHL SUB AND PUSH1 0x0 SWAP1 DUP2 MSTORE PUSH1 0x22 PUSH1 0x20 MSTORE PUSH1 0x40 SWAP1 KECCAK256 SLOAD SWAP1 JUMP JUMPDEST PUSH2 0x64F PUSH2 0x9B9 CALLDATASIZE PUSH1 0x4 PUSH2 0x5018 JUMP JUMPDEST PUSH2 0x1EA0 JUMP JUMPDEST PUSH2 0x9E1 PUSH2 0x9CC CALLDATASIZE PUSH1 0x4 PUSH2 0x5018 JUMP JUMPDEST PUSH1 0x33 PUSH1 0x20 MSTORE PUSH1 0x0 SWAP1 DUP2 MSTORE PUSH1 0x40 SWAP1 KECCAK256 SLOAD PUSH1 0xFF AND DUP2 JUMP JUMPDEST PUSH1 0x40 MLOAD SWAP1 ISZERO ISZERO DUP2 MSTORE PUSH1 0x20 ADD PUSH2 0x633 JUMP JUMPDEST PUSH2 0x6A6 PUSH1 0x1F SLOAD DUP2 JUMP JUMPDEST PUSH2 0x64F PUSH2 0xA08 CALLDATASIZE PUSH1 0x4 PUSH2 0x517B JUMP JUMPDEST PUSH2 0x1F48 JUMP JUMPDEST PUSH2 0x64F PUSH2 0xA1B CALLDATASIZE PUSH1 0x4 PUSH2 0x4FF6 JUMP JUMPDEST PUSH2 0x20AE JUMP JUMPDEST PUSH2 0x6A6 PUSH1 0xD SLOAD DUP2 JUMP JUMPDEST PUSH2 0x64F PUSH2 0xA37 CALLDATASIZE PUSH1 0x4 PUSH2 0x5018 JUMP JUMPDEST PUSH2 0x2174 JUMP JUMPDEST PUSH2 0x64F PUSH2 0xA4A CALLDATASIZE PUSH1 0x4 PUSH2 0x51BC JUMP JUMPDEST PUSH2 0x232D JUMP JUMPDEST PUSH2 0x6A6 PUSH1 0xE SLOAD DUP2 JUMP JUMPDEST PUSH2 0x64F PUSH2 0xA66 CALLDATASIZE PUSH1 0x4 PUSH2 0x51F7 JUMP JUMPDEST PUSH2 0x243A JUMP JUMPDEST PUSH2 0xA73 PUSH2 0x2579 JUMP JUMPDEST PUSH1 0x40 MLOAD PUSH2 0x633 SWAP2 SWAP1 PUSH2 0x531C JUMP JUMPDEST PUSH2 0x6A6 PUSH1 0x11 SLOAD DUP2 JUMP JUMPDEST PUSH2 0x64F PUSH2 0xA97 CALLDATASIZE PUSH1 0x4 PUSH2 0x4FA1 JUMP JUMPDEST PUSH2 0x2668 JUMP JUMPDEST PUSH2 0xAF3 PUSH2 0xAAA CALLDATASIZE PUSH1 0x4 PUSH2 0x5146 JUMP JUMPDEST PUSH1 0x24 PUSH1 0x20 SWAP1 DUP2 MSTORE PUSH1 0x0 SWAP4 DUP5 MSTORE PUSH1 0x40 DUP1 DUP6 KECCAK256 DUP3 MSTORE SWAP3 DUP5 MSTORE DUP3 DUP5 KECCAK256 SWAP1 MSTORE DUP3 MSTORE SWAP1 KECCAK256 DUP1 SLOAD PUSH1 0x1 DUP3 ADD SLOAD PUSH1 0x2 DUP4 ADD SLOAD PUSH1 0x3 DUP5 ADD SLOAD PUSH1 0x4 DUP6 ADD SLOAD PUSH1 0x5 SWAP1 SWAP6 ADD SLOAD SWAP4 SWAP5 SWAP3 SWAP4 SWAP2 SWAP3 SWAP1 SWAP2 PUSH1 0xFF AND DUP7 JUMP JUMPDEST PUSH1 0x40 DUP1 MLOAD SWAP7 DUP8 MSTORE PUSH1 0x20 DUP8 ADD SWAP6 SWAP1 SWAP6 MSTORE SWAP4 DUP6 ADD SWAP3 SWAP1 SWAP3 MSTORE PUSH1 0x60 DUP5 ADD MSTORE PUSH1 0x80 DUP4 ADD MSTORE ISZERO ISZERO PUSH1 0xA0 DUP3 ADD MSTORE PUSH1 0xC0 ADD PUSH2 0x633 JUMP JUMPDEST PUSH2 0x64F PUSH2 0xB30 CALLDATASIZE PUSH1 0x4 PUSH2 0x5146 JUMP JUMPDEST PUSH2 0x26DA JUMP JUMPDEST PUSH1 0x19 SLOAD PUSH2 0x61F SWAP1 PUSH1 0x1 PUSH1 0x1 PUSH1 0xA0 SHL SUB AND DUP2 JUMP JUMPDEST PUSH2 0xB80 PUSH2 0xB56 CALLDATASIZE PUSH1 0x4 PUSH2 0x5018 JUMP JUMPDEST PUSH1 0x22 PUSH1 0x20 MSTORE PUSH1 0x0 SWAP1 DUP2 MSTORE PUSH1 0x40 SWAP1 KECCAK256 DUP1 SLOAD PUSH1 0x1 DUP3 ADD SLOAD PUSH1 0x2 SWAP1 SWAP3 ADD SLOAD SWAP1 SWAP2 PUSH1 0x1 PUSH1 0x1 PUSH1 0xA0 SHL SUB AND SWAP1 DUP4 JUMP JUMPDEST PUSH1 0x40 DUP1 MLOAD SWAP4 DUP5 MSTORE PUSH1 0x1 PUSH1 0x1 PUSH1 0xA0 SHL SUB SWAP1 SWAP3 AND PUSH1 0x20 DUP5 ADD MSTORE SWAP1 DUP3 ADD MSTORE PUSH1 0x60 ADD PUSH2 0x633 JUMP JUMPDEST PUSH2 0x6A6 PUSH2 0xBB1 CALLDATASIZE PUSH1 0x4 PUSH2 0x4FCA JUMP JUMPDEST PUSH1 0x27 PUSH1 0x20 SWAP1 DUP2 MSTORE PUSH1 0x0 SWAP3 DUP4 MSTORE PUSH1 0x40 DUP1 DUP5 KECCAK256 SWAP1 SWAP2 MSTORE SWAP1 DUP3 MSTORE SWAP1 KECCAK256 SLOAD DUP2 JUMP JUMPDEST PUSH2 0xC20 PUSH2 0xBDC CALLDATASIZE PUSH1 0x4 PUSH2 0x4FA1 JUMP JUMPDEST PUSH1 0x2A PUSH1 0x20 MSTORE PUSH1 0x0 SWAP1 DUP2 MSTORE PUSH1 0x40 SWAP1 KECCAK256 DUP1 SLOAD PUSH1 0x1 DUP3 ADD SLOAD PUSH1 0x2 DUP4 ADD SLOAD PUSH1 0x3 DUP5 ADD SLOAD PUSH1 0x4 DUP6 ADD SLOAD PUSH1 0x5 SWAP1 SWAP6 ADD SLOAD PUSH1 0x1 PUSH1 0x1 PUSH1 0xA0 SHL SUB SWAP5 DUP6 AND SWAP6 SWAP4 SWAP5 SWAP1 SWAP3 AND SWAP3 SWAP1 SWAP2 PUSH1 0xFF AND DUP7 JUMP JUMPDEST PUSH1 0x40 MLOAD PUSH2 0x633 SWAP7 SWAP6 SWAP5 SWAP4 SWAP3 SWAP2 SWAP1 PUSH2 0x5375 JUMP JUMPDEST PUSH2 0x6A6 PUSH2 0xC40 CALLDATASIZE PUSH1 0x4 PUSH2 0x4FCA JUMP JUMPDEST PUSH1 0x2C PUSH1 0x20 SWAP1 DUP2 MSTORE PUSH1 0x0 SWAP3 DUP4 MSTORE PUSH1 0x40 DUP1 DUP5 KECCAK256 SWAP1 SWAP2 MSTORE SWAP1 DUP3 MSTORE SWAP1 KECCAK256 SLOAD DUP2 JUMP JUMPDEST PUSH2 0x64F PUSH2 0xC6B CALLDATASIZE PUSH1 0x4 PUSH2 0x53D1 JUMP JUMPDEST PUSH2 0x2A67 JUMP JUMPDEST PUSH2 0x64F PUSH2 0xC7E CALLDATASIZE PUSH1 0x4 PUSH2 0x51BC JUMP JUMPDEST PUSH2 0x2B9D JUMP JUMPDEST PUSH2 0xD01 PUSH2 0xC91 CALLDATASIZE PUSH1 0x4 PUSH2 0x5146 JUMP JUMPDEST PUSH1 0x23 PUSH1 0x20 SWAP1 DUP2 MSTORE PUSH1 0x0 SWAP4 DUP5 MSTORE PUSH1 0x40 DUP1 DUP6 KECCAK256 DUP3 MSTORE SWAP3 DUP5 MSTORE DUP3 DUP5 KECCAK256 SWAP1 MSTORE DUP3 MSTORE SWAP1 KECCAK256 DUP1 SLOAD PUSH1 0x1 DUP3 ADD SLOAD PUSH1 0x2 DUP4 ADD SLOAD PUSH1 0x3 DUP5 ADD SLOAD PUSH1 0x4 DUP6 ADD SLOAD PUSH1 0x5 DUP7 ADD SLOAD PUSH1 0x6 DUP8 ADD SLOAD PUSH1 0x7 DUP9 ADD SLOAD PUSH1 0x8 DUP10 ADD SLOAD PUSH1 0x9 SWAP1 SWAP10 ADD SLOAD PUSH1 0x1 PUSH1 0x1 PUSH1 0xA0 SHL SUB SWAP1 SWAP9 AND SWAP9 SWAP7 SWAP8 SWAP6 SWAP7 SWAP5 SWAP6 SWAP4 SWAP5 SWAP3 SWAP4 PUSH1 0xFF SWAP1 SWAP3 AND SWAP3 SWAP1 SWAP2 DUP11 JUMP JUMPDEST PUSH1 0x40 DUP1 MLOAD PUSH1 0x1 PUSH1 0x1 PUSH1 0xA0 SHL SUB SWAP1 SWAP12 AND DUP12 MSTORE PUSH1 0x20 DUP12 ADD SWAP10 SWAP1 SWAP10 MSTORE SWAP8 DUP10 ADD SWAP7 SWAP1 SWAP7 MSTORE PUSH1 0x60 DUP9 ADD SWAP5 SWAP1 SWAP5 MSTORE PUSH1 0x80 DUP8 ADD SWAP3 SWAP1 SWAP3 MSTORE PUSH1 0xA0 DUP7 ADD MSTORE ISZERO ISZERO PUSH1 0xC0 DUP6 ADD MSTORE PUSH1 0xE0 DUP5 ADD MSTORE PUSH2 0x100 DUP4 ADD MSTORE PUSH2 0x120 DUP3 ADD MSTORE PUSH2 0x140 ADD PUSH2 0x633 JUMP JUMPDEST PUSH2 0x64F PUSH2 0xD65 CALLDATASIZE PUSH1 0x4 PUSH2 0x5018 JUMP JUMPDEST PUSH2 0x2CAA JUMP JUMPDEST PUSH2 0x6A6 PUSH2 0xD78 CALLDATASIZE PUSH1 0x4 PUSH2 0x4FA1 JUMP JUMPDEST PUSH1 0x32 PUSH1 0x20 MSTORE PUSH1 0x0 SWAP1 DUP2 MSTORE PUSH1 0x40 SWAP1 KECCAK256 SLOAD DUP2 JUMP JUMPDEST PUSH2 0x6A6 PUSH5 0x2540BE400 DUP2 JUMP JUMPDEST PUSH2 0x64F PUSH2 0xDA4 CALLDATASIZE PUSH1 0x4 PUSH2 0x5146 JUMP JUMPDEST PUSH2 0x2D32 JUMP JUMPDEST PUSH2 0xE69 PUSH2 0xDB7 CALLDATASIZE PUSH1 0x4 PUSH2 0x4FA1 JUMP JUMPDEST PUSH1 0x29 PUSH1 0x20 SWAP1 DUP2 MSTORE PUSH1 0x0 SWAP2 DUP3 MSTORE PUSH1 0x40 SWAP2 DUP3 SWAP1 KECCAK256 DUP3 MLOAD PUSH2 0x140 DUP2 ADD DUP5 MSTORE DUP2 SLOAD PUSH1 0x1 PUSH1 0x1 PUSH1 0xA0 SHL SUB AND DUP2 MSTORE PUSH1 0x1 DUP3 ADD SLOAD SWAP3 DUP2 ADD SWAP3 SWAP1 SWAP3 MSTORE PUSH1 0x2 DUP2 ADD SLOAD SWAP3 DUP3 ADD SWAP3 SWAP1 SWAP3 MSTORE PUSH1 0x3 DUP3 ADD SLOAD PUSH1 0x60 DUP3 ADD MSTORE PUSH1 0x4 DUP3 ADD SLOAD PUSH1 0x80 DUP3 ADD MSTORE PUSH1 0x5 DUP3 ADD SLOAD PUSH1 0xA0 DUP3 ADD MSTORE PUSH1 0x6 DUP3 ADD SLOAD PUSH1 0xFF AND ISZERO ISZERO PUSH1 0xC0 DUP3 ADD MSTORE PUSH1 0x7 DUP3 ADD SLOAD PUSH1 0xE0 DUP3 ADD MSTORE PUSH1 0x8 DUP3 ADD SLOAD PUSH2 0x100 DUP3 ADD MSTORE PUSH1 0x9 DUP3 ADD SLOAD PUSH2 0x120 DUP3 ADD MSTORE PUSH1 0xA DUP3 ADD SLOAD PUSH1 0xB DUP4 ADD SLOAD PUSH1 0xC DUP5 ADD SLOAD PUSH1 0xD DUP6 ADD SLOAD PUSH1 0xE SWAP1 SWAP6 ADD SLOAD SWAP4 SWAP5 SWAP3 SWAP4 SWAP2 SWAP3 SWAP1 SWAP2 DUP7 JUMP JUMPDEST PUSH1 0x40 MLOAD PUSH2 0x633 SWAP7 SWAP6 SWAP5 SWAP4 SWAP3 SWAP2 SWAP1 PUSH2 0x540A JUMP JUMPDEST PUSH2 0x64F PUSH2 0xE89 CALLDATASIZE PUSH1 0x4 PUSH2 0x54B0 JUMP JUMPDEST PUSH2 0x30B6 JUMP JUMPDEST PUSH2 0x6A6 PUSH2 0xE9C CALLDATASIZE PUSH1 0x4 PUSH2 0x4FCA JUMP JUMPDEST PUSH1 0x2D PUSH1 0x20 SWAP1 DUP2 MSTORE PUSH1 0x0 SWAP3 DUP4 MSTORE PUSH1 0x40 DUP1 DUP5 KECCAK256 SWAP1 SWAP2 MSTORE SWAP1 DUP3 MSTORE SWAP1 KECCAK256 SLOAD DUP2 JUMP JUMPDEST PUSH2 0xECC PUSH2 0xEC7 CALLDATASIZE PUSH1 0x4 PUSH2 0x5146 JUMP JUMPDEST PUSH2 0x325B JUMP JUMPDEST PUSH1 0x40 MLOAD PUSH2 0x633 SWAP2 SWAP1 PUSH2 0x54C9 JUMP JUMPDEST PUSH2 0x6A6 PUSH2 0xEE7 CALLDATASIZE PUSH1 0x4 PUSH2 0x4FCA JUMP JUMPDEST PUSH2 0x33DF JUMP JUMPDEST PUSH2 0x6A6 PUSH1 0xF SLOAD DUP2 JUMP JUMPDEST PUSH2 0x64F PUSH2 0xF03 CALLDATASIZE PUSH1 0x4 PUSH2 0x5571 JUMP JUMPDEST PUSH2 0x3410 JUMP JUMPDEST PUSH2 0x61F PUSH2 0xF16 CALLDATASIZE PUSH1 0x4 PUSH2 0x4FA1 JUMP JUMPDEST PUSH2 0x36F6 JUMP JUMPDEST PUSH2 0x64F PUSH2 0xF29 CALLDATASIZE PUSH1 0x4 PUSH2 0x5601 JUMP JUMPDEST PUSH2 0x3720 JUMP JUMPDEST PUSH2 0x64F PUSH2 0xF3C CALLDATASIZE PUSH1 0x4 PUSH2 0x5693 JUMP JUMPDEST PUSH2 0x3977 JUMP JUMPDEST PUSH2 0x64F PUSH2 0xF4F CALLDATASIZE PUSH1 0x4 PUSH2 0x5018 JUMP JUMPDEST PUSH2 0x3CEF JUMP JUMPDEST PUSH2 0x6A6 PUSH2 0xF62 CALLDATASIZE PUSH1 0x4 PUSH2 0x56B8 JUMP JUMPDEST PUSH2 0x3D73 JUMP JUMPDEST PUSH2 0x64F PUSH2 0x3F41 JUMP JUMPDEST PUSH2 0x64F PUSH2 0xF7D CALLDATASIZE PUSH1 0x4 PUSH2 0x5702 JUMP JUMPDEST PUSH2 0x41A4 JUMP JUMPDEST PUSH2 0x94F PUSH2 0x452E JUMP JUMPDEST PUSH2 0x64F PUSH2 0xF98 CALLDATASIZE PUSH1 0x4 PUSH2 0x5018 JUMP JUMPDEST PUSH2 0x458F JUMP JUMPDEST PUSH2 0x64F PUSH2 0xFAB CALLDATASIZE PUSH1 0x4 PUSH2 0x57B5 JUMP JUMPDEST PUSH2 0x4613 JUMP JUMPDEST PUSH2 0x6A6 PUSH1 0x0 DUP1 MLOAD PUSH1 0x20 PUSH2 0x59C7 DUP4 CODECOPY DUP2 MLOAD SWAP2 MSTORE DUP2 JUMP JUMPDEST PUSH2 0x64F PUSH2 0xFD3 CALLDATASIZE PUSH1 0x4 PUSH2 0x4FA1 JUMP JUMPDEST PUSH2 0x4721 JUMP JUMPDEST PUSH2 0x9E1 PUSH2 0xFE6 CALLDATASIZE PUSH1 0x4 PUSH2 0x5146 JUMP JUMPDEST PUSH2 0x4792 JUMP JUMPDEST PUSH2 0x64F PUSH2 0xFF9 CALLDATASIZE PUSH1 0x4 PUSH2 0x4FA1 JUMP JUMPDEST PUSH2 0x482C JUMP JUMPDEST PUSH2 0x64F PUSH2 0x100C CALLDATASIZE PUSH1 0x4 PUSH2 0x4FF6 JUMP JUMPDEST PUSH2 0x4890 JUMP JUMPDEST PUSH2 0x61F PUSH2 0x101F CALLDATASIZE PUSH1 0x4 PUSH2 0x4FF6 JUMP JUMPDEST PUSH2 0x4923 JUMP JUMPDEST PUSH2 0x64F PUSH2 0x1032 CALLDATASIZE PUSH1 0x4 PUSH2 0x4FA1 JUMP JUMPDEST PUSH2 0x495B JUMP JUMPDEST PUSH2 0x6A6 PUSH1 0x1E SLOAD DUP2 JUMP JUMPDEST PUSH2 0x6A6 PUSH1 0x1B SLOAD DUP2 JUMP JUMPDEST PUSH1 0x2 SLOAD PUSH2 0x61F SWAP1 PUSH1 0x1 PUSH1 0x1 PUSH1 0xA0 SHL SUB AND DUP2 JUMP JUMPDEST PUSH2 0x64F PUSH2 0x106A CALLDATASIZE PUSH1 0x4 PUSH2 0x4FA1 JUMP JUMPDEST PUSH2 0x4A58 JUMP JUMPDEST PUSH2 0x6A6 PUSH2 0x107D CALLDATASIZE PUSH1 0x4 PUSH2 0x5146 JUMP JUMPDEST PUSH1 0x26 PUSH1 0x20 SWAP1 DUP2 MSTORE PUSH1 0x0 SWAP4 DUP5 MSTORE PUSH1 0x40 DUP1 DUP6 KECCAK256 DUP3 MSTORE SWAP3 DUP5 MSTORE DUP3 DUP5 KECCAK256 SWAP1 MSTORE DUP3 MSTORE SWAP1 KECCAK256 SLOAD DUP2 JUMP JUMPDEST PUSH2 0x6A6 PUSH1 0x1A SLOAD DUP2 JUMP JUMPDEST PUSH2 0x64F PUSH2 0x10B7 CALLDATASIZE PUSH1 0x4 PUSH2 0x57D2 JUMP JUMPDEST PUSH2 0x4ACF JUMP JUMPDEST PUSH1 0xB SLOAD PUSH2 0x61F SWAP1 PUSH1 0x1 PUSH1 0x1 PUSH1 0xA0 SHL SUB AND DUP2 JUMP JUMPDEST PUSH2 0x61F PUSH32 0x0 DUP2 JUMP JUMPDEST PUSH2 0x6A6 PUSH1 0xC SLOAD DUP2 JUMP JUMPDEST PUSH2 0x6A6 PUSH2 0x110D CALLDATASIZE PUSH1 0x4 PUSH2 0x5018 JUMP JUMPDEST PUSH1 0x1 PUSH1 0x1 PUSH1 0xA0 SHL SUB AND PUSH1 0x0 SWAP1 DUP2 MSTORE PUSH1 0x2B PUSH1 0x20 MSTORE PUSH1 0x40 SWAP1 KECCAK256 SLOAD SWAP1 JUMP JUMPDEST PUSH2 0x64F PUSH2 0x1136 CALLDATASIZE PUSH1 0x4 PUSH2 0x5018 JUMP JUMPDEST PUSH2 0x4B79 JUMP JUMPDEST PUSH2 0x6A6 PUSH1 0x12 SLOAD DUP2 JUMP JUMPDEST PUSH1 0xA SLOAD PUSH2 0x61F SWAP1 PUSH1 0x1 PUSH1 0x1 PUSH1 0xA0 SHL SUB AND DUP2 JUMP JUMPDEST PUSH1 0x4 SLOAD PUSH2 0x61F SWAP1 PUSH1 0x1 PUSH1 0x1 PUSH1 0xA0 SHL SUB AND DUP2 JUMP JUMPDEST PUSH2 0x6A6 PUSH1 0x1C SLOAD DUP2 JUMP JUMPDEST PUSH2 0x64F PUSH2 0x1181 CALLDATASIZE PUSH1 0x4 PUSH2 0x5018 JUMP JUMPDEST PUSH2 0x4CB0 JUMP JUMPDEST PUSH2 0x61F PUSH32 0x0 DUP2 JUMP JUMPDEST PUSH1 0x18 SLOAD PUSH1 0x1 PUSH1 0x1 PUSH1 0xA0 SHL SUB AND CALLER EQ PUSH2 0x11C4 JUMPI PUSH1 0x0 DUP1 REVERT JUMPDEST DUP1 MLOAD PUSH1 0x1 PUSH1 0x1 PUSH1 0xA0 SHL SUB AND PUSH2 0x11D8 JUMPI PUSH1 0x0 DUP1 REVERT JUMPDEST PUSH2 0x11E4 PUSH1 0x5 DUP3 DUP2 PUSH2 0x4DC5 JUMP JUMPDEST POP PUSH32 0x89A3BFEDA71EDE5F8735AA09127C97CD56AA3803356C52F7C30CAF418238B464 DUP2 PUSH1 0x40 MLOAD PUSH2 0x1214 SWAP2 SWAP1 PUSH2 0x580A JUMP JUMPDEST PUSH1 0x40 MLOAD DUP1 SWAP2 SUB SWAP1 LOG1 POP JUMP JUMPDEST PUSH1 0x18 SLOAD PUSH1 0x1 PUSH1 0x1 PUSH1 0xA0 SHL SUB AND CALLER EQ PUSH2 0x1236 JUMPI PUSH1 0x0 DUP1 REVERT JUMPDEST PUSH1 0x32 DUP2 LT ISZERO PUSH2 0x1244 JUMPI PUSH1 0x0 DUP1 REVERT JUMPDEST PUSH1 0x10 DUP2 SWAP1 SSTORE PUSH1 0x40 DUP1 MLOAD DUP2 DUP2 MSTORE PUSH1 0x6 SWAP2 DUP2 ADD SWAP2 SWAP1 SWAP2 MSTORE PUSH6 0x6D6178536C5 PUSH1 0xD4 SHL PUSH1 0x60 DUP3 ADD MSTORE PUSH1 0x20 DUP2 ADD DUP3 SWAP1 MSTORE PUSH1 0x0 DUP1 MLOAD PUSH1 0x20 PUSH2 0x5987 DUP4 CODECOPY DUP2 MLOAD SWAP2 MSTORE SWAP1 PUSH1 0x80 ADD PUSH2 0x1214 JUMP JUMPDEST PUSH1 0x18 SLOAD PUSH1 0x1 PUSH1 0x1 PUSH1 0xA0 SHL SUB AND CALLER EQ PUSH2 0x129E JUMPI PUSH1 0x0 DUP1 REVERT JUMPDEST PUSH2 0x12C DUP2 LT ISZERO PUSH2 0x12AD JUMPI PUSH1 0x0 DUP1 REVERT JUMPDEST PUSH1 0xF DUP2 SWAP1 SSTORE PUSH1 0x40 DUP1 MLOAD DUP2 DUP2 MSTORE PUSH1 0x8 SWAP2 DUP2 ADD SWAP2 SWAP1 SWAP2 MSTORE PUSH8 0x6D61784761696E5 PUSH1 0xC4 SHL PUSH1 0x60 DUP3 ADD MSTORE PUSH1 0x20 DUP2 ADD DUP3 SWAP1 MSTORE PUSH1 0x0 DUP1 MLOAD PUSH1 0x20 PUSH2 0x5987 DUP4 CODECOPY DUP2 MLOAD SWAP2 MSTORE SWAP1 PUSH1 0x80 ADD PUSH2 0x1214 JUMP JUMPDEST CALLER PUSH1 0x0 SWAP1 DUP2 MSTORE PUSH1 0x33 PUSH1 0x20 MSTORE PUSH1 0x40 SWAP1 KECCAK256 SLOAD PUSH1 0xFF AND DUP1 ISZERO PUSH2 0x138C JUMPI POP PUSH1 0x4 DUP1 SLOAD PUSH1 0x40 MLOAD PUSH4 0x24745215 PUSH1 0xE2 SHL DUP2 MSTORE PUSH1 0x1 PUSH1 0x1 PUSH1 0xA0 SHL SUB SWAP1 SWAP2 AND SWAP2 PUSH4 0x91D14854 SWAP2 PUSH2 0x134B SWAP2 PUSH1 0x0 DUP1 MLOAD PUSH1 0x20 PUSH2 0x59C7 DUP4 CODECOPY DUP2 MLOAD SWAP2 MSTORE SWAP2 CALLER SWAP2 ADD PUSH2 0x583B JUMP JUMPDEST PUSH1 0x20 PUSH1 0x40 MLOAD DUP1 DUP4 SUB DUP2 DUP7 GAS STATICCALL ISZERO DUP1 ISZERO PUSH2 0x1368 JUMPI RETURNDATASIZE PUSH1 0x0 DUP1 RETURNDATACOPY RETURNDATASIZE PUSH1 0x0 REVERT JUMPDEST POP POP POP POP PUSH1 0x40 MLOAD RETURNDATASIZE PUSH1 0x1F NOT PUSH1 0x1F DUP3 ADD AND DUP3 ADD DUP1 PUSH1 0x40 MSTORE POP DUP2 ADD SWAP1 PUSH2 0x138C SWAP2 SWAP1 PUSH2 0x5852 JUMP JUMPDEST PUSH2 0x1395 JUMPI PUSH1 0x0 DUP1 REVERT JUMPDEST PUSH1 0x0 SWAP1 DUP2 MSTORE PUSH1 0x2A PUSH1 0x20 MSTORE PUSH1 0x40 DUP2 KECCAK256 DUP1 SLOAD PUSH1 0x1 PUSH1 0x1 PUSH1 0xA0 SHL SUB NOT SWAP1 DUP2 AND DUP3 SSTORE PUSH1 0x1 DUP3 ADD DUP4 SWAP1 SSTORE PUSH1 0x2 DUP3 ADD DUP1 SLOAD SWAP1 SWAP2 AND SWAP1 SSTORE PUSH1 0x3 DUP2 ADD DUP3 SWAP1 SSTORE PUSH1 0x4 DUP2 ADD SWAP2 SWAP1 SWAP2 SSTORE PUSH1 0x5 ADD DUP1 SLOAD PUSH1 0xFF NOT AND SWAP1 SSTORE JUMP JUMPDEST CALLER PUSH1 0x0 SWAP1 DUP2 MSTORE PUSH1 0x33 PUSH1 0x20 MSTORE PUSH1 0x40 SWAP1 KECCAK256 SLOAD PUSH1 0xFF AND DUP1 ISZERO PUSH2 0x147B JUMPI POP PUSH1 0x4 DUP1 SLOAD PUSH1 0x40 MLOAD PUSH4 0x24745215 PUSH1 0xE2 SHL DUP2 MSTORE PUSH1 0x1 PUSH1 0x1 PUSH1 0xA0 SHL SUB SWAP1 SWAP2 AND SWAP2 PUSH4 0x91D14854 SWAP2 PUSH2 0x143A SWAP2 PUSH1 0x0 DUP1 MLOAD PUSH1 0x20 PUSH2 0x59C7 DUP4 CODECOPY DUP2 MLOAD SWAP2 MSTORE SWAP2 CALLER SWAP2 ADD PUSH2 0x583B JUMP JUMPDEST PUSH1 0x20 PUSH1 0x40 MLOAD DUP1 DUP4 SUB DUP2 DUP7 GAS STATICCALL ISZERO DUP1 ISZERO PUSH2 0x1457 JUMPI RETURNDATASIZE PUSH1 0x0 DUP1 RETURNDATACOPY RETURNDATASIZE PUSH1 0x0 REVERT JUMPDEST POP POP POP POP PUSH1 0x40 MLOAD RETURNDATASIZE PUSH1 0x1F NOT PUSH1 0x1F DUP3 ADD AND DUP3 ADD DUP1 PUSH1 0x40 MSTORE POP DUP2 ADD SWAP1 PUSH2 0x147B SWAP2 SWAP1 PUSH2 0x5852 JUMP JUMPDEST PUSH2 0x1484 JUMPI PUSH1 0x0 DUP1 REVERT JUMPDEST PUSH1 0x1 PUSH1 0x1 PUSH1 0xA0 SHL SUB DUP3 AND PUSH1 0x0 SWAP1 DUP2 MSTORE PUSH1 0x22 PUSH1 0x20 MSTORE PUSH1 0x40 DUP2 KECCAK256 PUSH1 0x2 ADD DUP1 SLOAD DUP4 SWAP3 SWAP1 PUSH2 0x14AF SWAP1 DUP5 SWAP1 PUSH2 0x5885 JUMP JUMPDEST SWAP1 SWAP2 SSTORE POP POP POP POP JUMP JUMPDEST PUSH1 0x5 DUP2 PUSH1 0x5 DUP2 LT PUSH2 0x14C8 JUMPI PUSH1 0x0 DUP1 REVERT JUMPDEST ADD SLOAD PUSH1 0x1 PUSH1 0x1 PUSH1 0xA0 SHL SUB AND SWAP1 POP DUP2 JUMP JUMPDEST CALLER PUSH1 0x0 SWAP1 DUP2 MSTORE PUSH1 0x33 PUSH1 0x20 MSTORE PUSH1 0x40 SWAP1 KECCAK256 SLOAD PUSH1 0xFF AND DUP1 ISZERO PUSH2 0x1572 JUMPI POP PUSH1 0x4 DUP1 SLOAD PUSH1 0x40 MLOAD PUSH4 0x24745215 PUSH1 0xE2 SHL DUP2 MSTORE PUSH1 0x1 PUSH1 0x1 PUSH1 0xA0 SHL SUB SWAP1 SWAP2 AND SWAP2 PUSH4 0x91D14854 SWAP2 PUSH2 0x1531 SWAP2 PUSH1 0x0 DUP1 MLOAD PUSH1 0x20 PUSH2 0x59C7 DUP4 CODECOPY DUP2 MLOAD SWAP2 MSTORE SWAP2 CALLER SWAP2 ADD PUSH2 0x583B JUMP JUMPDEST PUSH1 0x20 PUSH1 0x40 MLOAD DUP1 DUP4 SUB DUP2 DUP7 GAS STATICCALL ISZERO DUP1 ISZERO PUSH2 0x154E JUMPI RETURNDATASIZE PUSH1 0x0 DUP1 RETURNDATACOPY RETURNDATASIZE PUSH1 0x0 REVERT JUMPDEST POP POP POP POP PUSH1 0x40 MLOAD RETURNDATASIZE PUSH1 0x1F NOT PUSH1 0x1F DUP3 ADD AND DUP3 ADD DUP1 PUSH1 0x40 MSTORE POP DUP2 ADD SWAP1 PUSH2 0x1572 SWAP2 SWAP1 PUSH2 0x5852 JUMP JUMPDEST PUSH2 0x157B JUMPI PUSH1 0x0 DUP1 REVERT JUMPDEST PUSH1 0x1 PUSH1 0x1 PUSH1 0xA0 SHL SUB SWAP1 SWAP2 AND PUSH1 0x0 SWAP1 DUP2 MSTORE PUSH1 0x22 PUSH1 0x20 MSTORE PUSH1 0x40 SWAP1 KECCAK256 SSTORE JUMP JUMPDEST PUSH1 0x30 PUSH1 0x20 MSTORE DUP2 PUSH1 0x0 MSTORE PUSH1 0x40 PUSH1 0x0 KECCAK256 DUP2 PUSH1 0x3 DUP2 LT PUSH2 0x15B3 JUMPI PUSH1 0x0 DUP1 REVERT JUMPDEST ADD SLOAD SWAP2 POP DUP3 SWAP1 POP JUMP JUMPDEST PUSH1 0x0 DUP1 JUMPDEST PUSH1 0xC SLOAD DUP2 LT ISZERO PUSH2 0x1617 JUMPI PUSH1 0x1 PUSH1 0x1 PUSH1 0xA0 SHL SUB DUP5 AND PUSH1 0x0 SWAP1 DUP2 MSTORE PUSH1 0x23 PUSH1 0x20 SWAP1 DUP2 MSTORE PUSH1 0x40 DUP1 DUP4 KECCAK256 DUP7 DUP5 MSTORE DUP3 MSTORE DUP1 DUP4 KECCAK256 DUP5 DUP5 MSTORE SWAP1 SWAP2 MSTORE SWAP1 KECCAK256 PUSH1 0x7 ADD SLOAD PUSH2 0x1605 JUMPI DUP1 SWAP2 POP PUSH2 0x1617 JUMP JUMPDEST DUP1 PUSH2 0x160F DUP2 PUSH2 0x589D JUMP JUMPDEST SWAP2 POP POP PUSH2 0x15C0 JUMP JUMPDEST POP SWAP3 SWAP2 POP POP JUMP JUMPDEST PUSH1 0x28 DUP2 DUP2 SLOAD DUP2 LT PUSH2 0x162E JUMPI PUSH1 0x0 DUP1 REVERT JUMPDEST PUSH1 0x0 SWAP2 DUP3 MSTORE PUSH1 0x20 SWAP1 SWAP2 KECCAK256 PUSH1 0xD SWAP1 SWAP2 MUL ADD DUP1 SLOAD PUSH1 0x1 DUP3 ADD SLOAD PUSH1 0x2 DUP4 ADD SLOAD PUSH1 0x3 DUP5 ADD SLOAD PUSH1 0x4 DUP6 ADD SLOAD PUSH1 0x5 DUP7 ADD SLOAD PUSH1 0x6 DUP8 ADD SLOAD PUSH1 0x7 DUP9 ADD SLOAD PUSH1 0x8 DUP10 ADD SLOAD PUSH1 0x9 DUP11 ADD SLOAD PUSH1 0xA DUP12 ADD SLOAD PUSH1 0xB DUP13 ADD SLOAD PUSH1 0xC SWAP1 SWAP13 ADD SLOAD PUSH1 0x1 PUSH1 0x1 PUSH1 0xA0 SHL SUB SWAP1 SWAP12 AND SWAP13 POP SWAP9 SWAP11 SWAP8 SWAP10 SWAP7 SWAP9 SWAP6 SWAP8 PUSH1 0xFF SWAP1 SWAP6 AND SWAP7 SWAP4 SWAP6 SWAP3 SWAP5 SWAP2 SWAP4 SWAP1 SWAP3 SWAP2 SWAP1 DUP14 JUMP JUMPDEST PUSH1 0x13 DUP2 PUSH1 0x5 DUP2 LT PUSH2 0x16B5 JUMPI PUSH1 0x0 DUP1 REVERT JUMPDEST ADD SLOAD SWAP1 POP DUP2 JUMP JUMPDEST PUSH1 0x18 SLOAD PUSH1 0x1 PUSH1 0x1 PUSH1 0xA0 SHL SUB AND CALLER EQ PUSH2 0x16D3 JUMPI PUSH1 0x0 DUP1 REVERT JUMPDEST PUSH1 0x0 DUP2 GT PUSH2 0x16E0 JUMPI PUSH1 0x0 DUP1 REVERT JUMPDEST PUSH1 0x11 DUP2 SWAP1 SSTORE PUSH1 0x40 DUP1 MLOAD DUP2 DUP2 MSTORE PUSH1 0x17 SWAP2 DUP2 ADD SWAP2 SWAP1 SWAP2 MSTORE PUSH32 0x64656661756C744C65766572616765556E6C6F636B6564000000000000000000 PUSH1 0x60 DUP3 ADD MSTORE PUSH1 0x20 DUP2 ADD DUP3 SWAP1 MSTORE PUSH1 0x0 DUP1 MLOAD PUSH1 0x20 PUSH2 0x5987 DUP4 CODECOPY DUP2 MLOAD SWAP2 MSTORE SWAP1 PUSH1 0x80 ADD PUSH2 0x1214 JUMP JUMPDEST PUSH1 0x18 SLOAD PUSH1 0x1 PUSH1 0x1 PUSH1 0xA0 SHL SUB AND CALLER EQ PUSH2 0x1751 JUMPI PUSH1 0x0 DUP1 REVERT JUMPDEST PUSH1 0x1 PUSH1 0x1 PUSH1 0xA0 SHL SUB DUP2 AND PUSH2 0x1764 JUMPI PUSH1 0x0 DUP1 REVERT JUMPDEST PUSH1 0x1 DUP1 SLOAD PUSH1 0x1 PUSH1 0x1 PUSH1 0xA0 SHL SUB NOT AND PUSH1 0x1 PUSH1 0x1 PUSH1 0xA0 SHL SUB DUP4 AND SWAP1 DUP2 OR SWAP1 SWAP2 SSTORE PUSH1 0x40 DUP1 MLOAD DUP2 DUP2 MSTORE PUSH1 0x4 SWAP2 DUP2 ADD SWAP2 SWAP1 SWAP2 MSTORE PUSH4 0x1C1BDBDB PUSH1 0xE2 SHL PUSH1 0x60 DUP3 ADD MSTORE PUSH1 0x20 DUP2 ADD SWAP2 SWAP1 SWAP2 MSTORE PUSH1 0x0 DUP1 MLOAD PUSH1 0x20 PUSH2 0x59A7 DUP4 CODECOPY DUP2 MLOAD SWAP2 MSTORE SWAP1 PUSH1 0x80 ADD PUSH2 0x1214 JUMP JUMPDEST PUSH1 0x0 DUP1 JUMPDEST PUSH1 0xC SLOAD DUP2 LT ISZERO PUSH2 0x1617 JUMPI PUSH2 0x17D8 DUP5 DUP5 DUP4 PUSH2 0x4792 JUMP JUMPDEST PUSH2 0x17E4 JUMPI DUP1 SWAP2 POP PUSH2 0x1617 JUMP JUMPDEST DUP1 PUSH2 0x17EE DUP2 PUSH2 0x589D JUMP JUMPDEST SWAP2 POP POP PUSH2 0x17C3 JUMP JUMPDEST PUSH1 0x18 SLOAD PUSH1 0x1 PUSH1 0x1 PUSH1 0xA0 SHL SUB AND CALLER EQ PUSH2 0x180D JUMPI PUSH1 0x0 DUP1 REVERT JUMPDEST PUSH1 0x1 PUSH1 0x1 PUSH1 0xA0 SHL SUB DUP2 AND PUSH2 0x1820 JUMPI PUSH1 0x0 DUP1 REVERT JUMPDEST PUSH1 0xB DUP1 SLOAD PUSH1 0x1 PUSH1 0x1 PUSH1 0xA0 SHL SUB NOT AND PUSH1 0x1 PUSH1 0x1 PUSH1 0xA0 SHL SUB DUP4 AND SWAP1 DUP2 OR SWAP1 SWAP2 SSTORE PUSH1 0x40 DUP1 MLOAD DUP2 DUP2 MSTORE PUSH1 0xE SWAP2 DUP2 ADD SWAP2 SWAP1 SWAP2 MSTORE PUSH14 0x3A37B5B2B72230B4A937BABA32B9 PUSH1 0x91 SHL PUSH1 0x60 DUP3 ADD MSTORE PUSH1 0x20 DUP2 ADD SWAP2 SWAP1 SWAP2 MSTORE PUSH1 0x0 DUP1 MLOAD PUSH1 0x20 PUSH2 0x59A7 DUP4 CODECOPY DUP2 MLOAD SWAP2 MSTORE SWAP1 PUSH1 0x80 ADD PUSH2 0x1214 JUMP JUMPDEST PUSH1 0x18 SLOAD PUSH1 0x1 PUSH1 0x1 PUSH1 0xA0 SHL SUB AND CALLER EQ PUSH2 0x189C JUMPI PUSH1 0x0 DUP1 REVERT JUMPDEST PUSH1 0x1 PUSH1 0x1 PUSH1 0xA0 SHL SUB DUP2 AND PUSH2 0x18AF JUMPI PUSH1 0x0 DUP1 REVERT JUMPDEST PUSH1 0x0 DUP1 SLOAD PUSH1 0x1 PUSH1 0x1 PUSH1 0xA0 SHL SUB NOT AND PUSH1 0x1 PUSH1 0x1 PUSH1 0xA0 SHL SUB DUP4 AND SWAP1 DUP2 OR SWAP1 SWAP2 SSTORE PUSH1 0x40 DUP1 MLOAD DUP2 DUP2 MSTORE PUSH1 0xF SWAP2 DUP2 ADD SWAP2 SWAP1 SWAP2 MSTORE PUSH15 0x383934B1B2A0B3B3B932B3B0BA37B9 PUSH1 0x89 SHL PUSH1 0x60 DUP3 ADD MSTORE PUSH1 0x20 DUP2 ADD SWAP2 SWAP1 SWAP2 MSTORE PUSH1 0x0 DUP1 MLOAD PUSH1 0x20 PUSH2 0x59A7 DUP4 CODECOPY DUP2 MLOAD SWAP2 MSTORE SWAP1 PUSH1 0x80 ADD PUSH2 0x1214 JUMP JUMPDEST CALLER PUSH1 0x0 SWAP1 DUP2 MSTORE PUSH1 0x33 PUSH1 0x20 MSTORE PUSH1 0x40 SWAP1 KECCAK256 SLOAD PUSH1 0xFF AND DUP1 ISZERO PUSH2 0x19AF JUMPI POP PUSH1 0x4 DUP1 SLOAD PUSH1 0x40 MLOAD PUSH4 0x24745215 PUSH1 0xE2 SHL DUP2 MSTORE PUSH1 0x1 PUSH1 0x1 PUSH1 0xA0 SHL SUB SWAP1 SWAP2 AND SWAP2 PUSH4 0x91D14854 SWAP2 PUSH2 0x196E SWAP2 PUSH1 0x0 DUP1 MLOAD PUSH1 0x20 PUSH2 0x59C7 DUP4 CODECOPY DUP2 MLOAD SWAP2 MSTORE SWAP2 CALLER SWAP2 ADD PUSH2 0x583B JUMP JUMPDEST PUSH1 0x20 PUSH1 0x40 MLOAD DUP1 DUP4 SUB DUP2 DUP7 GAS STATICCALL ISZERO DUP1 ISZERO PUSH2 0x198B JUMPI RETURNDATASIZE PUSH1 0x0 DUP1 RETURNDATACOPY RETURNDATASIZE PUSH1 0x0 REVERT JUMPDEST POP POP POP POP PUSH1 0x40 MLOAD RETURNDATASIZE PUSH1 0x1F NOT PUSH1 0x1F DUP3 ADD AND DUP3 ADD DUP1 PUSH1 0x40 MSTORE POP DUP2 ADD SWAP1 PUSH2 0x19AF SWAP2 SWAP1 PUSH2 0x5852 JUMP JUMPDEST PUSH2 0x19B8 JUMPI PUSH1 0x0 DUP1 REVERT JUMPDEST DUP1 ISZERO PUSH2 0x1A43 JUMPI PUSH1 0x4 DUP1 SLOAD PUSH1 0x40 MLOAD PUSH4 0x40C10F19 PUSH1 0xE0 SHL DUP2 MSTORE PUSH1 0x1 PUSH1 0x1 PUSH1 0xA0 SHL SUB DUP7 DUP2 AND SWAP4 DUP3 ADD SWAP4 SWAP1 SWAP4 MSTORE PUSH1 0x24 DUP2 ADD DUP6 SWAP1 MSTORE SWAP2 AND SWAP1 PUSH4 0x40C10F19 SWAP1 PUSH1 0x44 ADD PUSH1 0x0 PUSH1 0x40 MLOAD DUP1 DUP4 SUB DUP2 PUSH1 0x0 DUP8 DUP1 EXTCODESIZE ISZERO DUP1 ISZERO PUSH2 0x1A0E JUMPI PUSH1 0x0 DUP1 REVERT JUMPDEST POP GAS CALL ISZERO DUP1 ISZERO PUSH2 0x1A22 JUMPI RETURNDATASIZE PUSH1 0x0 DUP1 RETURNDATACOPY RETURNDATASIZE PUSH1 0x0 REVERT JUMPDEST POP POP POP POP DUP2 PUSH1 0x1F PUSH1 0x0 DUP3 DUP3 SLOAD PUSH2 0x1A38 SWAP2 SWAP1 PUSH2 0x5885 JUMP JUMPDEST SWAP1 SWAP2 SSTORE POP PUSH2 0x1AC3 SWAP1 POP JUMP JUMPDEST PUSH1 0x4 DUP1 SLOAD PUSH1 0x40 MLOAD PUSH4 0x2770A7EB PUSH1 0xE2 SHL DUP2 MSTORE PUSH1 0x1 PUSH1 0x1 PUSH1 0xA0 SHL SUB DUP7 DUP2 AND SWAP4 DUP3 ADD SWAP4 SWAP1 SWAP4 MSTORE PUSH1 0x24 DUP2 ADD DUP6 SWAP1 MSTORE SWAP2 AND SWAP1 PUSH4 0x9DC29FAC SWAP1 PUSH1 0x44 ADD PUSH1 0x0 PUSH1 0x40 MLOAD DUP1 DUP4 SUB DUP2 PUSH1 0x0 DUP8 DUP1 EXTCODESIZE ISZERO DUP1 ISZERO PUSH2 0x1A93 JUMPI PUSH1 0x0 DUP1 REVERT JUMPDEST POP GAS CALL ISZERO DUP1 ISZERO PUSH2 0x1AA7 JUMPI RETURNDATASIZE PUSH1 0x0 DUP1 RETURNDATACOPY RETURNDATASIZE PUSH1 0x0 REVERT JUMPDEST POP POP POP POP DUP2 PUSH1 0x1E PUSH1 0x0 DUP3 DUP3 SLOAD PUSH2 0x1ABD SWAP2 SWAP1 PUSH2 0x5885 JUMP JUMPDEST SWAP1 SWAP2 SSTORE POP POP JUMPDEST POP POP POP JUMP JUMPDEST PUSH2 0x1AD0 PUSH2 0x4E1D JUMP JUMPDEST PUSH1 0x40 DUP1 MLOAD PUSH1 0xA0 DUP2 ADD SWAP2 DUP3 SWAP1 MSTORE SWAP1 PUSH1 0x13 SWAP1 PUSH1 0x5 SWAP1 DUP3 DUP5 JUMPDEST DUP2 SLOAD DUP2 MSTORE PUSH1 0x20 ADD SWAP1 PUSH1 0x1 ADD SWAP1 DUP1 DUP4 GT PUSH2 0x1AE6 JUMPI JUMPDEST POP POP POP POP POP SWAP1 POP SWAP1 JUMP JUMPDEST PUSH1 0x18 SLOAD PUSH1 0x1 PUSH1 0x1 PUSH1 0xA0 SHL SUB AND CALLER EQ PUSH2 0x1B1B JUMPI PUSH1 0x0 DUP1 REVERT JUMPDEST PUSH1 0x1 PUSH1 0x1 PUSH1 0xA0 SHL SUB DUP2 AND PUSH2 0x1B2E JUMPI PUSH1 0x0 DUP1 REVERT JUMPDEST PUSH1 0x1 PUSH1 0x1 PUSH1 0xA0 SHL SUB DUP2 AND PUSH1 0x0 DUP2 DUP2 MSTORE PUSH1 0x33 PUSH1 0x20 SWAP1 DUP2 MSTORE PUSH1 0x40 SWAP2 DUP3 SWAP1 KECCAK256 DUP1 SLOAD PUSH1 0xFF NOT AND SWAP1 SSTORE SWAP1 MLOAD SWAP2 DUP3 MSTORE PUSH32 0xF9CF924D7D98E6E0A27EC523CD7214B0BBDFABA197018B33B41A702F5238190E SWAP2 ADD PUSH2 0x1214 JUMP JUMPDEST PUSH1 0x1 PUSH1 0x1 PUSH1 0xA0 SHL SUB DUP2 AND PUSH1 0x0 SWAP1 DUP2 MSTORE PUSH1 0x2B PUSH1 0x20 SWAP1 DUP2 MSTORE PUSH1 0x40 SWAP2 DUP3 SWAP1 KECCAK256 DUP1 SLOAD DUP4 MLOAD DUP2 DUP5 MUL DUP2 ADD DUP5 ADD SWAP1 SWAP5 MSTORE DUP1 DUP5 MSTORE PUSH1 0x60 SWAP4 SWAP3 DUP4 ADD DUP3 DUP3 DUP1 ISZERO PUSH2 0x1BDF JUMPI PUSH1 0x20 MUL DUP3 ADD SWAP2 SWAP1 PUSH1 0x0 MSTORE PUSH1 0x20 PUSH1 0x0 KECCAK256 SWAP1 JUMPDEST DUP2 SLOAD DUP2 MSTORE PUSH1 0x20 ADD SWAP1 PUSH1 0x1 ADD SWAP1 DUP1 DUP4 GT PUSH2 0x1BCB JUMPI JUMPDEST POP POP POP POP POP SWAP1 POP SWAP2 SWAP1 POP JUMP JUMPDEST PUSH1 0x0 DUP2 DUP2 MSTORE PUSH1 0x2E PUSH1 0x20 SWAP1 DUP2 MSTORE PUSH1 0x40 SWAP2 DUP3 SWAP1 KECCAK256 DUP1 SLOAD DUP4 MLOAD DUP2 DUP5 MUL DUP2 ADD DUP5 ADD SWAP1 SWAP5 MSTORE DUP1 DUP5 MSTORE PUSH1 0x60 SWAP4 SWAP3 DUP4 ADD DUP3 DUP3 DUP1 ISZERO PUSH2 0x1BDF JUMPI PUSH1 0x20 MUL DUP3 ADD SWAP2 SWAP1 PUSH1 0x0 MSTORE PUSH1 0x20 PUSH1 0x0 KECCAK256 SWAP1 JUMPDEST DUP2 SLOAD PUSH1 0x1 PUSH1 0x1 PUSH1 0xA0 SHL SUB AND DUP2 MSTORE PUSH1 0x1 SWAP1 SWAP2 ADD SWAP1 PUSH1 0x20 ADD DUP1 DUP4 GT PUSH2 0x1C2D JUMPI POP POP POP POP POP SWAP1 POP SWAP2 SWAP1 POP JUMP JUMPDEST CALLER PUSH1 0x0 SWAP1 DUP2 MSTORE PUSH1 0x33 PUSH1 0x20 MSTORE PUSH1 0x40 SWAP1 KECCAK256 SLOAD PUSH1 0xFF AND DUP1 ISZERO PUSH2 0x1CF0 JUMPI POP PUSH1 0x4 DUP1 SLOAD PUSH1 0x40 MLOAD PUSH4 0x24745215 PUSH1 0xE2 SHL DUP2 MSTORE PUSH1 0x1 PUSH1 0x1 PUSH1 0xA0 SHL SUB SWAP1 SWAP2 AND SWAP2 PUSH4 0x91D14854 SWAP2 PUSH2 0x1CAF SWAP2 PUSH1 0x0 DUP1 MLOAD PUSH1 0x20 PUSH2 0x59C7 DUP4 CODECOPY DUP2 MLOAD SWAP2 MSTORE SWAP2 CALLER SWAP2 ADD PUSH2 0x583B JUMP JUMPDEST PUSH1 0x20 PUSH1 0x40 MLOAD DUP1 DUP4 SUB DUP2 DUP7 GAS STATICCALL ISZERO DUP1 ISZERO PUSH2 0x1CCC JUMPI RETURNDATASIZE PUSH1 0x0 DUP1 RETURNDATACOPY RETURNDATASIZE PUSH1 0x0 REVERT JUMPDEST POP POP POP POP PUSH1 0x40 MLOAD RETURNDATASIZE PUSH1 0x1F NOT PUSH1 0x1F DUP3 ADD AND DUP3 ADD DUP1 PUSH1 0x40 MSTORE POP DUP2 ADD SWAP1 PUSH2 0x1CF0 SWAP2 SWAP1 PUSH2 0x5852 JUMP JUMPDEST PUSH2 0x1CF9 JUMPI PUSH1 0x0 DUP1 REVERT JUMPDEST PUSH1 0x0 SLOAD PUSH1 0x40 MLOAD PUSH4 0xB9E0336F PUSH1 0xE0 SHL DUP2 MSTORE PUSH1 0x4 DUP2 ADD DUP5 SWAP1 MSTORE PUSH1 0x24 DUP2 ADD DUP4 SWAP1 MSTORE PUSH1 0x1 PUSH1 0x1 PUSH1 0xA0 SHL SUB PUSH32 0x0 DUP2 AND SWAP3 PUSH4 0x23B872DD SWAP3 DUP8 SWAP3 SWAP1 SWAP2 AND SWAP1 DUP2 SWAP1 PUSH4 0xB9E0336F SWAP1 PUSH1 0x44 ADD PUSH1 0x20 PUSH1 0x40 MLOAD DUP1 DUP4 SUB DUP2 DUP7 GAS STATICCALL ISZERO DUP1 ISZERO PUSH2 0x1D77 JUMPI RETURNDATASIZE PUSH1 0x0 DUP1 RETURNDATACOPY RETURNDATASIZE PUSH1 0x0 REVERT JUMPDEST POP POP POP POP PUSH1 0x40 MLOAD RETURNDATASIZE PUSH1 0x1F NOT PUSH1 0x1F DUP3 ADD AND DUP3 ADD DUP1 PUSH1 0x40 MSTORE POP DUP2 ADD SWAP1 PUSH2 0x1D9B SWAP2 SWAP1 PUSH2 0x58B8 JUMP JUMPDEST PUSH1 0x40 MLOAD PUSH1 0x1 PUSH1 0x1 PUSH1 0xE0 SHL SUB NOT PUSH1 0xE0 DUP7 SWAP1 SHL AND DUP2 MSTORE PUSH1 0x1 PUSH1 0x1 PUSH1 0xA0 SHL SUB SWAP4 DUP5 AND PUSH1 0x4 DUP3 ADD MSTORE SWAP3 SWAP1 SWAP2 AND PUSH1 0x24 DUP4 ADD MSTORE PUSH1 0x44 DUP3 ADD MSTORE PUSH1 0x64 ADD JUMPDEST PUSH1 0x20 PUSH1 0x40 MLOAD DUP1 DUP4 SUB DUP2 PUSH1 0x0 DUP8 GAS CALL ISZERO DUP1 ISZERO PUSH2 0x1DF0 JUMPI RETURNDATASIZE PUSH1 0x0 DUP1 RETURNDATACOPY RETURNDATASIZE PUSH1 0x0 REVERT JUMPDEST POP POP POP POP PUSH1 0x40 MLOAD RETURNDATASIZE PUSH1 0x1F NOT PUSH1 0x1F DUP3 ADD AND DUP3 ADD DUP1 PUSH1 0x40 MSTORE POP DUP2 ADD SWAP1 PUSH2 0x1E14 SWAP2 SWAP1 PUSH2 0x5852 JUMP JUMPDEST POP POP POP POP JUMP JUMPDEST PUSH1 0x18 SLOAD PUSH1 0x1 PUSH1 0x1 PUSH1 0xA0 SHL SUB AND CALLER EQ PUSH2 0x1E31 JUMPI PUSH1 0x0 DUP1 REVERT JUMPDEST PUSH1 0x1 PUSH1 0x1 PUSH1 0xA0 SHL SUB DUP2 AND PUSH2 0x1E44 JUMPI PUSH1 0x0 DUP1 REVERT JUMPDEST PUSH1 0xA DUP1 SLOAD PUSH1 0x1 PUSH1 0x1 PUSH1 0xA0 SHL SUB NOT AND PUSH1 0x1 PUSH1 0x1 PUSH1 0xA0 SHL SUB DUP4 AND SWAP1 DUP2 OR SWAP1 SWAP2 SSTORE PUSH1 0x40 DUP1 MLOAD DUP2 DUP2 MSTORE PUSH1 0x5 SWAP2 DUP2 ADD SWAP2 SWAP1 SWAP2 MSTORE PUSH5 0x1D985D5B1D PUSH1 0xDA SHL PUSH1 0x60 DUP3 ADD MSTORE PUSH1 0x20 DUP2 ADD SWAP2 SWAP1 SWAP2 MSTORE PUSH1 0x0 DUP1 MLOAD PUSH1 0x20 PUSH2 0x59A7 DUP4 CODECOPY DUP2 MLOAD SWAP2 MSTORE SWAP1 PUSH1 0x80 ADD PUSH2 0x1214 JUMP JUMPDEST PUSH1 0x18 SLOAD PUSH1 0x1 PUSH1 0x1 PUSH1 0xA0 SHL SUB AND CALLER EQ PUSH2 0x1EB7 JUMPI PUSH1 0x0 DUP1 REVERT JUMPDEST PUSH1 0x1 PUSH1 0x1 PUSH1 0xA0 SHL SUB DUP2 AND PUSH2 0x1ECA JUMPI PUSH1 0x0 DUP1 REVERT JUMPDEST PUSH1 0x21 DUP1 SLOAD PUSH1 0x1 DUP2 ADD DUP3 SSTORE PUSH1 0x0 SWAP2 SWAP1 SWAP2 MSTORE PUSH32 0x3A6357012C1A3AE0A17D304C9920310382D968EBCC4B1771F41C6B304205B570 ADD DUP1 SLOAD PUSH1 0x1 PUSH1 0x1 PUSH1 0xA0 SHL SUB NOT AND PUSH1 0x1 PUSH1 0x1 PUSH1 0xA0 SHL SUB DUP4 AND SWAP1 DUP2 OR SWAP1 SWAP2 SSTORE PUSH1 0x40 MLOAD SWAP1 DUP2 MSTORE PUSH32 0xD1BE2E90BD3D24839D9DD94AD871068E1F9688B02FA43F2A62C9975DFA9DE2D7 SWAP1 PUSH1 0x20 ADD PUSH2 0x1214 JUMP JUMPDEST CALLER PUSH1 0x0 SWAP1 DUP2 MSTORE PUSH1 0x33 PUSH1 0x20 MSTORE PUSH1 0x40 SWAP1 KECCAK256 SLOAD PUSH1 0xFF AND DUP1 ISZERO PUSH2 0x1FE2 JUMPI POP PUSH1 0x4 DUP1 SLOAD PUSH1 0x40 MLOAD PUSH4 0x24745215 PUSH1 0xE2 SHL DUP2 MSTORE PUSH1 0x1 PUSH1 0x1 PUSH1 0xA0 SHL SUB SWAP1 SWAP2 AND SWAP2 PUSH4 0x91D14854 SWAP2 PUSH2 0x1FA1 SWAP2 PUSH1 0x0 DUP1 MLOAD PUSH1 0x20 PUSH2 0x59C7 DUP4 CODECOPY DUP2 MLOAD SWAP2 MSTORE SWAP2 CALLER SWAP2 ADD PUSH2 0x583B JUMP JUMPDEST PUSH1 0x20 PUSH1 0x40 MLOAD DUP1 DUP4 SUB DUP2 DUP7 GAS STATICCALL ISZERO DUP1 ISZERO PUSH2 0x1FBE JUMPI RETURNDATASIZE PUSH1 0x0 DUP1 RETURNDATACOPY RETURNDATASIZE PUSH1 0x0 REVERT JUMPDEST POP POP POP POP PUSH1 0x40 MLOAD RETURNDATASIZE PUSH1 0x1F NOT PUSH1 0x1F DUP3 ADD AND DUP3 ADD DUP1 PUSH1 0x40 MSTORE POP DUP2 ADD SWAP1 PUSH2 0x1FE2 SWAP2 SWAP1 PUSH2 0x5852 JUMP JUMPDEST PUSH2 0x1FEB JUMPI PUSH1 0x0 DUP1 REVERT JUMPDEST PUSH1 0x1 PUSH1 0x1 PUSH1 0xA0 SHL SUB DUP4 AND ADDRESS EQ ISZERO PUSH2 0x2051 JUMPI PUSH1 0x40 MLOAD PUSH4 0xA9059CBB PUSH1 0xE0 SHL DUP2 MSTORE PUSH1 0x1 PUSH1 0x1 PUSH1 0xA0 SHL SUB DUP4 DUP2 AND PUSH1 0x4 DUP4 ADD MSTORE PUSH1 0x24 DUP3 ADD DUP4 SWAP1 MSTORE PUSH32 0x0 AND SWAP1 PUSH4 0xA9059CBB SWAP1 PUSH1 0x44 ADD PUSH2 0x1DD1 JUMP JUMPDEST PUSH1 0x40 MLOAD PUSH4 0x23B872DD PUSH1 0xE0 SHL DUP2 MSTORE PUSH1 0x1 PUSH1 0x1 PUSH1 0xA0 SHL SUB DUP5 DUP2 AND PUSH1 0x4 DUP4 ADD MSTORE DUP4 DUP2 AND PUSH1 0x24 DUP4 ADD MSTORE PUSH1 0x44 DUP3 ADD DUP4 SWAP1 MSTORE PUSH32 0x0 AND SWAP1 PUSH4 0x23B872DD SWAP1 PUSH1 0x64 ADD PUSH2 0x1DD1 JUMP JUMPDEST CALLER PUSH1 0x0 SWAP1 DUP2 MSTORE PUSH1 0x33 PUSH1 0x20 MSTORE PUSH1 0x40 SWAP1 KECCAK256 SLOAD PUSH1 0xFF AND DUP1 ISZERO PUSH2 0x2148 JUMPI POP PUSH1 0x4 DUP1 SLOAD PUSH1 0x40 MLOAD PUSH4 0x24745215 PUSH1 0xE2 SHL DUP2 MSTORE PUSH1 0x1 PUSH1 0x1 PUSH1 0xA0 SHL SUB SWAP1 SWAP2 AND SWAP2 PUSH4 0x91D14854 SWAP2 PUSH2 0x2107 SWAP2 PUSH1 0x0 DUP1 MLOAD PUSH1 0x20 PUSH2 0x59C7 DUP4 CODECOPY DUP2 MLOAD SWAP2 MSTORE SWAP2 CALLER SWAP2 ADD PUSH2 0x583B JUMP JUMPDEST PUSH1 0x20 PUSH1 0x40 MLOAD DUP1 DUP4 SUB DUP2 DUP7 GAS STATICCALL ISZERO DUP1 ISZERO PUSH2 0x2124 JUMPI RETURNDATASIZE PUSH1 0x0 DUP1 RETURNDATACOPY RETURNDATASIZE PUSH1 0x0 REVERT JUMPDEST POP POP POP POP PUSH1 0x40 MLOAD RETURNDATASIZE PUSH1 0x1F NOT PUSH1 0x1F DUP3 ADD AND DUP3 ADD DUP1 PUSH1 0x40 MSTORE POP DUP2 ADD SWAP1 PUSH2 0x2148 SWAP2 SWAP1 PUSH2 0x5852 JUMP JUMPDEST PUSH2 0x2151 JUMPI PUSH1 0x0 DUP1 REVERT JUMPDEST PUSH1 0x0 DUP3 DUP2 MSTORE PUSH1 0x32 PUSH1 0x20 SWAP1 DUP2 MSTORE PUSH1 0x40 DUP3 KECCAK256 NUMBER SWAP1 SSTORE DUP1 SLOAD DUP4 SWAP3 SWAP1 PUSH2 0x14AF SWAP1 DUP5 SWAP1 PUSH2 0x5885 JUMP JUMPDEST PUSH1 0x18 SLOAD PUSH1 0x1 PUSH1 0x1 PUSH1 0xA0 SHL SUB AND CALLER EQ PUSH2 0x218B JUMPI PUSH1 0x0 DUP1 REVERT JUMPDEST PUSH1 0x2 PUSH1 0x0 SWAP1 SLOAD SWAP1 PUSH2 0x100 EXP SWAP1 DIV PUSH1 0x1 PUSH1 0x1 PUSH1 0xA0 SHL SUB AND PUSH1 0x1 PUSH1 0x1 PUSH1 0xA0 SHL SUB AND PUSH4 0xB187BD26 PUSH1 0x40 MLOAD DUP2 PUSH4 0xFFFFFFFF AND PUSH1 0xE0 SHL DUP2 MSTORE PUSH1 0x4 ADD PUSH1 0x20 PUSH1 0x40 MLOAD DUP1 DUP4 SUB DUP2 DUP7 GAS STATICCALL ISZERO DUP1 ISZERO PUSH2 0x21DE JUMPI RETURNDATASIZE PUSH1 0x0 DUP1 RETURNDATACOPY RETURNDATASIZE PUSH1 0x0 REVERT JUMPDEST POP POP POP POP PUSH1 0x40 MLOAD RETURNDATASIZE PUSH1 0x1F NOT PUSH1 0x1F DUP3 ADD AND DUP3 ADD DUP1 PUSH1 0x40 MSTORE POP DUP2 ADD SWAP1 PUSH2 0x2202 SWAP2 SWAP1 PUSH2 0x5852 JUMP JUMPDEST DUP1 ISZERO PUSH2 0x2280 JUMPI POP PUSH1 0x3 PUSH1 0x0 SWAP1 SLOAD SWAP1 PUSH2 0x100 EXP SWAP1 DIV PUSH1 0x1 PUSH1 0x1 PUSH1 0xA0 SHL SUB AND PUSH1 0x1 PUSH1 0x1 PUSH1 0xA0 SHL SUB AND PUSH4 0xB187BD26 PUSH1 0x40 MLOAD DUP2 PUSH4 0xFFFFFFFF AND PUSH1 0xE0 SHL DUP2 MSTORE PUSH1 0x4 ADD PUSH1 0x20 PUSH1 0x40 MLOAD DUP1 DUP4 SUB DUP2 DUP7 GAS STATICCALL ISZERO DUP1 ISZERO PUSH2 0x225C JUMPI RETURNDATASIZE PUSH1 0x0 DUP1 RETURNDATACOPY RETURNDATASIZE PUSH1 0x0 REVERT JUMPDEST POP POP POP POP PUSH1 0x40 MLOAD RETURNDATASIZE PUSH1 0x1F NOT PUSH1 0x1F DUP3 ADD AND DUP3 ADD DUP1 PUSH1 0x40 MSTORE POP DUP2 ADD SWAP1 PUSH2 0x2280 SWAP2 SWAP1 PUSH2 0x5852 JUMP JUMPDEST PUSH2 0x22BE JUMPI PUSH1 0x40 MLOAD PUSH3 0x461BCD PUSH1 0xE5 SHL DUP2 MSTORE PUSH1 0x20 PUSH1 0x4 DUP3 ADD MSTORE PUSH1 0xA PUSH1 0x24 DUP3 ADD MSTORE PUSH10 0x1393D517D4105554D151 PUSH1 0xB2 SHL PUSH1 0x44 DUP3 ADD MSTORE PUSH1 0x64 ADD JUMPDEST PUSH1 0x40 MLOAD DUP1 SWAP2 SUB SWAP1 REVERT JUMPDEST PUSH1 0x1 PUSH1 0x1 PUSH1 0xA0 SHL SUB DUP2 AND PUSH2 0x22D1 JUMPI PUSH1 0x0 DUP1 REVERT JUMPDEST PUSH1 0x4 DUP1 SLOAD PUSH1 0x1 PUSH1 0x1 PUSH1 0xA0 SHL SUB NOT AND PUSH1 0x1 PUSH1 0x1 PUSH1 0xA0 SHL SUB DUP4 AND SWAP1 DUP2 OR SWAP1 SWAP2 SSTORE PUSH1 0x40 DUP1 MLOAD DUP2 DUP2 MSTORE PUSH1 0x5 SWAP2 DUP2 ADD SWAP2 SWAP1 SWAP2 MSTORE PUSH5 0x3A37B5B2B7 PUSH1 0xD9 SHL PUSH1 0x60 DUP3 ADD MSTORE PUSH1 0x20 DUP2 ADD SWAP2 SWAP1 SWAP2 MSTORE PUSH1 0x0 DUP1 MLOAD PUSH1 0x20 PUSH2 0x59A7 DUP4 CODECOPY DUP2 MLOAD SWAP2 MSTORE SWAP1 PUSH1 0x80 ADD PUSH2 0x1214 JUMP JUMPDEST CALLER PUSH1 0x0 SWAP1 DUP2 MSTORE PUSH1 0x33 PUSH1 0x20 MSTORE PUSH1 0x40 SWAP1 KECCAK256 SLOAD PUSH1 0xFF AND DUP1 ISZERO PUSH2 0x23C7 JUMPI POP PUSH1 0x4 DUP1 SLOAD PUSH1 0x40 MLOAD PUSH4 0x24745215 PUSH1 0xE2 SHL DUP2 MSTORE PUSH1 0x1 PUSH1 0x1 PUSH1 0xA0 SHL SUB SWAP1 SWAP2 AND SWAP2 PUSH4 0x91D14854 SWAP2 PUSH2 0x2386 SWAP2 PUSH1 0x0 DUP1 MLOAD PUSH1 0x20 PUSH2 0x59C7 DUP4 CODECOPY DUP2 MLOAD SWAP2 MSTORE SWAP2 CALLER SWAP2 ADD PUSH2 0x583B JUMP JUMPDEST PUSH1 0x20 PUSH1 0x40 MLOAD DUP1 DUP4 SUB DUP2 DUP7 GAS STATICCALL ISZERO DUP1 ISZERO PUSH2 0x23A3 JUMPI RETURNDATASIZE PUSH1 0x0 DUP1 RETURNDATACOPY RETURNDATASIZE PUSH1 0x0 REVERT JUMPDEST POP POP POP POP PUSH1 0x40 MLOAD RETURNDATASIZE PUSH1 0x1F NOT PUSH1 0x1F DUP3 ADD AND DUP3 ADD DUP1 PUSH1 0x40 MSTORE POP DUP2 ADD SWAP1 PUSH2 0x23C7 SWAP2 SWAP1 PUSH2 0x5852 JUMP JUMPDEST PUSH2 0x23D0 JUMPI PUSH1 0x0 DUP1 REVERT JUMPDEST PUSH1 0x1 PUSH1 0x1 PUSH1 0xA0 SHL SUB DUP5 AND PUSH1 0x0 DUP2 DUP2 MSTORE PUSH1 0x23 PUSH1 0x20 SWAP1 DUP2 MSTORE PUSH1 0x40 DUP1 DUP4 KECCAK256 DUP8 DUP5 MSTORE DUP3 MSTORE DUP1 DUP4 KECCAK256 DUP7 DUP5 MSTORE DUP3 MSTORE DUP1 DUP4 KECCAK256 SWAP4 DUP4 MSTORE PUSH1 0x24 DUP3 MSTORE DUP1 DUP4 KECCAK256 DUP8 DUP5 MSTORE DUP3 MSTORE DUP1 DUP4 KECCAK256 DUP7 DUP5 MSTORE SWAP1 SWAP2 MSTORE SWAP1 KECCAK256 PUSH1 0x7 DUP3 ADD SLOAD PUSH2 0x2425 JUMPI POP POP PUSH2 0x1E14 JUMP JUMPDEST PUSH1 0x8 SWAP1 SWAP2 ADD DUP3 SWAP1 SSTORE NUMBER PUSH1 0x3 SWAP1 SWAP2 ADD SSTORE POP POP POP POP JUMP JUMPDEST CALLER PUSH1 0x0 SWAP1 DUP2 MSTORE PUSH1 0x33 PUSH1 0x20 MSTORE PUSH1 0x40 SWAP1 KECCAK256 SLOAD PUSH1 0xFF AND DUP1 ISZERO PUSH2 0x24D4 JUMPI POP PUSH1 0x4 DUP1 SLOAD PUSH1 0x40 MLOAD PUSH4 0x24745215 PUSH1 0xE2 SHL DUP2 MSTORE PUSH1 0x1 PUSH1 0x1 PUSH1 0xA0 SHL SUB SWAP1 SWAP2 AND SWAP2 PUSH4 0x91D14854 SWAP2 PUSH2 0x2493 SWAP2 PUSH1 0x0 DUP1 MLOAD PUSH1 0x20 PUSH2 0x59C7 DUP4 CODECOPY DUP2 MLOAD SWAP2 MSTORE SWAP2 CALLER SWAP2 ADD PUSH2 0x583B JUMP JUMPDEST PUSH1 0x20 PUSH1 0x40 MLOAD DUP1 DUP4 SUB DUP2 DUP7 GAS STATICCALL ISZERO DUP1 ISZERO PUSH2 0x24B0 JUMPI RETURNDATASIZE PUSH1 0x0 DUP1 RETURNDATACOPY RETURNDATASIZE PUSH1 0x0 REVERT JUMPDEST POP POP POP POP PUSH1 0x40 MLOAD RETURNDATASIZE PUSH1 0x1F NOT PUSH1 0x1F DUP3 ADD AND DUP3 ADD DUP1 PUSH1 0x40 MSTORE POP DUP2 ADD SWAP1 PUSH2 0x24D4 SWAP2 SWAP1 PUSH2 0x5852 JUMP JUMPDEST PUSH2 0x24DD JUMPI PUSH1 0x0 DUP1 REVERT JUMPDEST PUSH1 0x0 DUP2 DUP2 MSTORE PUSH1 0x2A PUSH1 0x20 SWAP1 DUP2 MSTORE PUSH1 0x40 SWAP2 DUP3 SWAP1 KECCAK256 DUP5 MLOAD DUP2 SLOAD PUSH1 0x1 PUSH1 0x1 PUSH1 0xA0 SHL SUB NOT SWAP1 DUP2 AND PUSH1 0x1 PUSH1 0x1 PUSH1 0xA0 SHL SUB SWAP3 DUP4 AND OR DUP4 SSTORE SWAP3 DUP7 ADD MLOAD PUSH1 0x1 DUP1 DUP5 ADD SWAP2 SWAP1 SWAP2 SSTORE SWAP4 DUP7 ADD MLOAD PUSH1 0x2 DUP4 ADD DUP1 SLOAD SWAP1 SWAP5 AND SWAP2 AND OR SWAP1 SWAP2 SSTORE PUSH1 0x60 DUP5 ADD MLOAD PUSH1 0x3 DUP1 DUP4 ADD SWAP2 SWAP1 SWAP2 SSTORE PUSH1 0x80 DUP6 ADD MLOAD PUSH1 0x4 DUP4 ADD SSTORE PUSH1 0xA0 DUP6 ADD MLOAD PUSH1 0x5 DUP4 ADD DUP1 SLOAD DUP8 SWAP6 SWAP3 SWAP4 SWAP2 SWAP3 PUSH1 0xFF NOT SWAP1 SWAP2 AND SWAP2 DUP5 SWAP1 DUP2 GT ISZERO PUSH2 0x256E JUMPI PUSH2 0x256E PUSH2 0x535F JUMP JUMPDEST MUL OR SWAP1 SSTORE POP POP POP POP POP JUMP JUMPDEST PUSH1 0x60 PUSH1 0x28 DUP1 SLOAD DUP1 PUSH1 0x20 MUL PUSH1 0x20 ADD PUSH1 0x40 MLOAD SWAP1 DUP2 ADD PUSH1 0x40 MSTORE DUP1 SWAP3 SWAP2 SWAP1 DUP2 DUP2 MSTORE PUSH1 0x20 ADD PUSH1 0x0 SWAP1 JUMPDEST DUP3 DUP3 LT ISZERO PUSH2 0x265F JUMPI PUSH1 0x0 DUP5 DUP2 MSTORE PUSH1 0x20 SWAP1 DUP2 SWAP1 KECCAK256 PUSH1 0x40 DUP1 MLOAD PUSH2 0x1A0 DUP2 ADD DUP3 MSTORE PUSH1 0xD DUP7 MUL SWAP1 SWAP3 ADD DUP1 SLOAD PUSH1 0x1 PUSH1 0x1 PUSH1 0xA0 SHL SUB AND DUP4 MSTORE PUSH1 0x1 DUP1 DUP3 ADD SLOAD DUP5 DUP7 ADD MSTORE PUSH1 0x2 DUP3 ADD SLOAD SWAP3 DUP5 ADD SWAP3 SWAP1 SWAP3 MSTORE PUSH1 0x3 DUP2 ADD SLOAD PUSH1 0x60 DUP5 ADD MSTORE PUSH1 0x4 DUP2 ADD SLOAD PUSH1 0x80 DUP5 ADD MSTORE PUSH1 0x5 DUP2 ADD SLOAD PUSH1 0xFF AND ISZERO ISZERO PUSH1 0xA0 DUP5 ADD MSTORE PUSH1 0x6 DUP2 ADD SLOAD PUSH1 0xC0 DUP5 ADD MSTORE PUSH1 0x7 DUP2 ADD SLOAD PUSH1 0xE0 DUP5 ADD MSTORE PUSH1 0x8 DUP2 ADD SLOAD PUSH2 0x100 DUP5 ADD MSTORE PUSH1 0x9 DUP2 ADD SLOAD PUSH2 0x120 DUP5 ADD MSTORE PUSH1 0xA DUP2 ADD SLOAD PUSH2 0x140 DUP5 ADD MSTORE PUSH1 0xB DUP2 ADD SLOAD PUSH2 0x160 DUP5 ADD MSTORE PUSH1 0xC ADD SLOAD PUSH2 0x180 DUP4 ADD MSTORE SWAP1 DUP4 MSTORE SWAP1 SWAP3 ADD SWAP2 ADD PUSH2 0x259D JUMP JUMPDEST POP POP POP POP SWAP1 POP SWAP1 JUMP JUMPDEST PUSH1 0x18 SLOAD PUSH1 0x1 PUSH1 0x1 PUSH1 0xA0 SHL SUB AND CALLER EQ PUSH2 0x267F JUMPI PUSH1 0x0 DUP1 REVERT JUMPDEST PUSH1 0x0 DUP2 GT PUSH2 0x268C JUMPI PUSH1 0x0 DUP1 REVERT JUMPDEST PUSH1 0xD DUP2 SWAP1 SSTORE PUSH1 0x40 DUP1 MLOAD DUP2 DUP2 MSTORE PUSH1 0x11 SWAP2 DUP2 ADD SWAP2 SWAP1 SWAP2 MSTORE PUSH17 0x6D6178547261646573506572426C6F636B PUSH1 0x78 SHL PUSH1 0x60 DUP3 ADD MSTORE PUSH1 0x20 DUP2 ADD DUP3 SWAP1 MSTORE PUSH1 0x0 DUP1 MLOAD PUSH1 0x20 PUSH2 0x5987 DUP4 CODECOPY DUP2 MLOAD SWAP2 MSTORE SWAP1 PUSH1 0x80 ADD PUSH2 0x1214 JUMP JUMPDEST CALLER PUSH1 0x0 SWAP1 DUP2 MSTORE PUSH1 0x33 PUSH1 0x20 MSTORE PUSH1 0x40 SWAP1 KECCAK256 SLOAD PUSH1 0xFF AND DUP1 ISZERO PUSH2 0x2774 JUMPI POP PUSH1 0x4 DUP1 SLOAD PUSH1 0x40 MLOAD PUSH4 0x24745215 PUSH1 0xE2 SHL DUP2 MSTORE PUSH1 0x1 PUSH1 0x1 PUSH1 0xA0 SHL SUB SWAP1 SWAP2 AND SWAP2 PUSH4 0x91D14854 SWAP2 PUSH2 0x2733 SWAP2 PUSH1 0x0 DUP1 MLOAD PUSH1 0x20 PUSH2 0x59C7 DUP4 CODECOPY DUP2 MLOAD SWAP2 MSTORE SWAP2 CALLER SWAP2 ADD PUSH2 0x583B JUMP JUMPDEST PUSH1 0x20 PUSH1 0x40 MLOAD DUP1 DUP4 SUB DUP2 DUP7 GAS STATICCALL ISZERO DUP1 ISZERO PUSH2 0x2750 JUMPI RETURNDATASIZE PUSH1 0x0 DUP1 RETURNDATACOPY RETURNDATASIZE PUSH1 0x0 REVERT JUMPDEST POP POP POP POP PUSH1 0x40 MLOAD RETURNDATASIZE PUSH1 0x1F NOT PUSH1 0x1F DUP3 ADD AND DUP3 ADD DUP1 PUSH1 0x40 MSTORE POP DUP2 ADD SWAP1 PUSH2 0x2774 SWAP2 SWAP1 PUSH2 0x5852 JUMP JUMPDEST PUSH2 0x277D JUMPI PUSH1 0x0 DUP1 REVERT JUMPDEST PUSH1 0x1 PUSH1 0x1 PUSH1 0xA0 SHL SUB DUP4 AND PUSH1 0x0 DUP2 DUP2 MSTORE PUSH1 0x23 PUSH1 0x20 SWAP1 DUP2 MSTORE PUSH1 0x40 DUP1 DUP4 KECCAK256 DUP7 DUP5 MSTORE DUP3 MSTORE DUP1 DUP4 KECCAK256 DUP6 DUP5 MSTORE DUP3 MSTORE DUP1 DUP4 KECCAK256 SWAP4 DUP4 MSTORE PUSH1 0x24 DUP3 MSTORE DUP1 DUP4 KECCAK256 DUP7 DUP5 MSTORE DUP3 MSTORE DUP1 DUP4 KECCAK256 DUP6 DUP5 MSTORE SWAP1 SWAP2 MSTORE SWAP1 KECCAK256 PUSH1 0x7 DUP3 ADD SLOAD PUSH2 0x27D2 JUMPI POP POP POP POP POP JUMP JUMPDEST PUSH1 0x2 DUP2 ADD SLOAD PUSH1 0x6 DUP4 ADD SLOAD PUSH2 0x27ED SWAP2 DUP7 SWAP2 PUSH1 0x0 SWAP1 PUSH1 0xFF AND PUSH2 0x4D3A JUMP JUMPDEST PUSH1 0x1 PUSH1 0x1 PUSH1 0xA0 SHL SUB DUP6 AND PUSH1 0x0 SWAP1 DUP2 MSTORE PUSH1 0x25 PUSH1 0x20 SWAP1 DUP2 MSTORE PUSH1 0x40 DUP1 DUP4 KECCAK256 DUP8 DUP5 MSTORE SWAP1 SWAP2 MSTORE SWAP1 KECCAK256 SLOAD PUSH1 0x1 EQ ISZERO PUSH2 0x295B JUMPI PUSH1 0x1 PUSH1 0x1 PUSH1 0xA0 SHL SUB DUP6 AND PUSH1 0x0 SWAP1 DUP2 MSTORE PUSH1 0x2F PUSH1 0x20 SWAP1 DUP2 MSTORE PUSH1 0x40 DUP1 DUP4 KECCAK256 DUP8 DUP5 MSTORE DUP3 MSTORE DUP1 DUP4 KECCAK256 SLOAD PUSH1 0x2E SWAP1 SWAP3 MSTORE SWAP1 SWAP2 KECCAK256 DUP1 SLOAD DUP2 SWAP1 PUSH2 0x2855 SWAP1 PUSH1 0x1 SWAP1 PUSH2 0x58D1 JUMP JUMPDEST DUP2 SLOAD DUP2 LT PUSH2 0x2865 JUMPI PUSH2 0x2865 PUSH2 0x57F4 JUMP JUMPDEST SWAP1 PUSH1 0x0 MSTORE PUSH1 0x20 PUSH1 0x0 KECCAK256 ADD PUSH1 0x0 SWAP1 SLOAD SWAP1 PUSH2 0x100 EXP SWAP1 DIV PUSH1 0x1 PUSH1 0x1 PUSH1 0xA0 SHL SUB AND DUP2 DUP4 DUP2 SLOAD DUP2 LT PUSH2 0x2895 JUMPI PUSH2 0x2895 PUSH2 0x57F4 JUMP JUMPDEST SWAP1 PUSH1 0x0 MSTORE PUSH1 0x20 PUSH1 0x0 KECCAK256 ADD PUSH1 0x0 PUSH2 0x100 EXP DUP2 SLOAD DUP2 PUSH1 0x1 PUSH1 0x1 PUSH1 0xA0 SHL SUB MUL NOT AND SWAP1 DUP4 PUSH1 0x1 PUSH1 0x1 PUSH1 0xA0 SHL SUB AND MUL OR SWAP1 SSTORE POP DUP2 PUSH1 0x2F PUSH1 0x0 DUP4 DUP6 DUP2 SLOAD DUP2 LT PUSH2 0x28DA JUMPI PUSH2 0x28DA PUSH2 0x57F4 JUMP JUMPDEST PUSH1 0x0 SWAP2 DUP3 MSTORE PUSH1 0x20 DUP1 DUP4 KECCAK256 SWAP1 SWAP2 ADD SLOAD PUSH1 0x1 PUSH1 0x1 PUSH1 0xA0 SHL SUB SWAP1 DUP2 AND DUP5 MSTORE DUP4 DUP3 ADD SWAP5 SWAP1 SWAP5 MSTORE PUSH1 0x40 SWAP3 DUP4 ADD DUP3 KECCAK256 DUP12 DUP4 MSTORE DUP2 MSTORE DUP3 DUP3 KECCAK256 SWAP5 SWAP1 SWAP5 SSTORE SWAP2 DUP11 AND DUP3 MSTORE PUSH1 0x2F DUP4 MSTORE DUP1 DUP3 KECCAK256 DUP10 DUP4 MSTORE SWAP1 SWAP3 MSTORE SWAP1 DUP2 KECCAK256 SSTORE DUP1 SLOAD DUP2 SWAP1 DUP1 PUSH2 0x2936 JUMPI PUSH2 0x2936 PUSH2 0x58E8 JUMP JUMPDEST PUSH1 0x0 DUP3 DUP2 MSTORE PUSH1 0x20 SWAP1 KECCAK256 DUP2 ADD PUSH1 0x0 NOT SWAP1 DUP2 ADD DUP1 SLOAD PUSH1 0x1 PUSH1 0x1 PUSH1 0xA0 SHL SUB NOT AND SWAP1 SSTORE ADD SWAP1 SSTORE POP POP JUMPDEST PUSH1 0x1 PUSH1 0x1 PUSH1 0xA0 SHL SUB DUP6 AND PUSH1 0x0 DUP2 DUP2 MSTORE PUSH1 0x23 PUSH1 0x20 SWAP1 DUP2 MSTORE PUSH1 0x40 DUP1 DUP4 KECCAK256 DUP9 DUP5 MSTORE DUP3 MSTORE DUP1 DUP4 KECCAK256 DUP8 DUP5 MSTORE DUP3 MSTORE DUP1 DUP4 KECCAK256 DUP1 SLOAD PUSH1 0x1 PUSH1 0x1 PUSH1 0xA0 SHL SUB NOT AND DUP2 SSTORE PUSH1 0x1 DUP1 DUP3 ADD DUP6 SWAP1 SSTORE PUSH1 0x2 DUP1 DUP4 ADD DUP7 SWAP1 SSTORE PUSH1 0x3 DUP1 DUP5 ADD DUP8 SWAP1 SSTORE PUSH1 0x4 DUP1 DUP6 ADD DUP9 SWAP1 SSTORE PUSH1 0x5 DUP1 DUP7 ADD DUP10 SWAP1 SSTORE PUSH1 0x6 DUP7 ADD DUP1 SLOAD PUSH1 0xFF NOT SWAP1 DUP2 AND SWAP1 SWAP2 SSTORE PUSH1 0x7 DUP8 ADD DUP11 SWAP1 SSTORE PUSH1 0x8 DUP8 ADD DUP11 SWAP1 SSTORE PUSH1 0x9 SWAP1 SWAP7 ADD DUP10 SWAP1 SSTORE DUP10 DUP10 MSTORE PUSH1 0x24 DUP9 MSTORE DUP7 DUP10 KECCAK256 DUP15 DUP11 MSTORE DUP9 MSTORE DUP7 DUP10 KECCAK256 DUP14 DUP11 MSTORE DUP9 MSTORE DUP7 DUP10 KECCAK256 DUP10 DUP2 SSTORE SWAP5 DUP6 ADD DUP10 SWAP1 SSTORE SWAP3 DUP5 ADD DUP9 SWAP1 SSTORE SWAP1 DUP4 ADD DUP8 SWAP1 SSTORE DUP3 ADD DUP7 SWAP1 SSTORE ADD DUP1 SLOAD SWAP1 SWAP2 AND SWAP1 SSTORE SWAP3 DUP3 MSTORE PUSH1 0x25 DUP2 MSTORE DUP3 DUP3 KECCAK256 DUP8 DUP4 MSTORE SWAP1 MSTORE SWAP1 DUP2 KECCAK256 DUP1 SLOAD SWAP2 PUSH2 0x2A3B DUP4 PUSH2 0x58FE JUMP JUMPDEST SWAP1 SWAP2 SSTORE POP POP NUMBER PUSH1 0x0 SWAP1 DUP2 MSTORE PUSH1 0x31 PUSH1 0x20 MSTORE PUSH1 0x40 DUP2 KECCAK256 DUP1 SLOAD SWAP2 PUSH2 0x2A5B DUP4 PUSH2 0x589D JUMP JUMPDEST SWAP2 SWAP1 POP SSTORE POP POP POP POP POP POP JUMP JUMPDEST CALLER PUSH1 0x0 SWAP1 DUP2 MSTORE PUSH1 0x33 PUSH1 0x20 MSTORE PUSH1 0x40 SWAP1 KECCAK256 SLOAD PUSH1 0xFF AND DUP1 ISZERO PUSH2 0x2B01 JUMPI POP PUSH1 0x4 DUP1 SLOAD PUSH1 0x40 MLOAD PUSH4 0x24745215 PUSH1 0xE2 SHL DUP2 MSTORE PUSH1 0x1 PUSH1 0x1 PUSH1 0xA0 SHL SUB SWAP1 SWAP2 AND SWAP2 PUSH4 0x91D14854 SWAP2 PUSH2 0x2AC0 SWAP2 PUSH1 0x0 DUP1 MLOAD PUSH1 0x20 PUSH2 0x59C7 DUP4 CODECOPY DUP2 MLOAD SWAP2 MSTORE SWAP2 CALLER SWAP2 ADD PUSH2 0x583B JUMP JUMPDEST PUSH1 0x20 PUSH1 0x40 MLOAD DUP1 DUP4 SUB DUP2 DUP7 GAS STATICCALL ISZERO DUP1 ISZERO PUSH2 0x2ADD JUMPI RETURNDATASIZE PUSH1 0x0 DUP1 RETURNDATACOPY RETURNDATASIZE PUSH1 0x0 REVERT JUMPDEST POP POP POP POP PUSH1 0x40 MLOAD RETURNDATASIZE PUSH1 0x1F NOT PUSH1 0x1F DUP3 ADD AND DUP3 ADD DUP1 PUSH1 0x40 MSTORE POP DUP2 ADD SWAP1 PUSH2 0x2B01 SWAP2 SWAP1 PUSH2 0x5852 JUMP JUMPDEST PUSH2 0x2B0A JUMPI PUSH1 0x0 DUP1 REVERT JUMPDEST PUSH1 0x1 PUSH1 0x1 PUSH1 0xA0 SHL SUB DUP1 DUP4 AND PUSH1 0x0 SWAP1 DUP2 MSTORE PUSH1 0x22 PUSH1 0x20 MSTORE PUSH1 0x40 SWAP1 KECCAK256 SWAP1 DUP3 AND ISZERO DUP1 ISZERO SWAP1 PUSH2 0x2B3F JUMPI POP PUSH1 0x1 DUP2 ADD SLOAD PUSH1 0x1 PUSH1 0x1 PUSH1 0xA0 SHL SUB AND ISZERO JUMPDEST DUP1 ISZERO PUSH2 0x2B5D JUMPI POP DUP3 PUSH1 0x1 PUSH1 0x1 PUSH1 0xA0 SHL SUB AND DUP3 PUSH1 0x1 PUSH1 0x1 PUSH1 0xA0 SHL SUB AND EQ ISZERO JUMPDEST PUSH2 0x2B74 JUMPI PUSH1 0x1 DUP2 ADD SLOAD PUSH1 0x1 PUSH1 0x1 PUSH1 0xA0 SHL SUB AND PUSH2 0x2B76 JUMP JUMPDEST DUP2 JUMPDEST PUSH1 0x1 SWAP2 SWAP1 SWAP2 ADD DUP1 SLOAD PUSH1 0x1 PUSH1 0x1 PUSH1 0xA0 SHL SUB NOT AND PUSH1 0x1 PUSH1 0x1 PUSH1 0xA0 SHL SUB SWAP1 SWAP3 AND SWAP2 SWAP1 SWAP2 OR SWAP1 SSTORE POP POP JUMP JUMPDEST CALLER PUSH1 0x0 SWAP1 DUP2 MSTORE PUSH1 0x33 PUSH1 0x20 MSTORE PUSH1 0x40 SWAP1 KECCAK256 SLOAD PUSH1 0xFF AND DUP1 ISZERO PUSH2 0x2C37 JUMPI POP PUSH1 0x4 DUP1 SLOAD PUSH1 0x40 MLOAD PUSH4 0x24745215 PUSH1 0xE2 SHL DUP2 MSTORE PUSH1 0x1 PUSH1 0x1 PUSH1 0xA0 SHL SUB SWAP1 SWAP2 AND SWAP2 PUSH4 0x91D14854 SWAP2 PUSH2 0x2BF6 SWAP2 PUSH1 0x0 DUP1 MLOAD PUSH1 0x20 PUSH2 0x59C7 DUP4 CODECOPY DUP2 MLOAD SWAP2 MSTORE SWAP2 CALLER SWAP2 ADD PUSH2 0x583B JUMP JUMPDEST PUSH1 0x20 PUSH1 0x40 MLOAD DUP1 DUP4 SUB DUP2 DUP7 GAS STATICCALL ISZERO DUP1 ISZERO PUSH2 0x2C13 JUMPI RETURNDATASIZE PUSH1 0x0 DUP1 RETURNDATACOPY RETURNDATASIZE PUSH1 0x0 REVERT JUMPDEST POP POP POP POP PUSH1 0x40 MLOAD RETURNDATASIZE PUSH1 0x1F NOT PUSH1 0x1F DUP3 ADD AND DUP3 ADD DUP1 PUSH1 0x40 MSTORE POP DUP2 ADD SWAP1 PUSH2 0x2C37 SWAP2 SWAP1 PUSH2 0x5852 JUMP JUMPDEST PUSH2 0x2C40 JUMPI PUSH1 0x0 DUP1 REVERT JUMPDEST PUSH1 0x1 PUSH1 0x1 PUSH1 0xA0 SHL SUB DUP5 AND PUSH1 0x0 DUP2 DUP2 MSTORE PUSH1 0x23 PUSH1 0x20 SWAP1 DUP2 MSTORE PUSH1 0x40 DUP1 DUP4 KECCAK256 DUP8 DUP5 MSTORE DUP3 MSTORE DUP1 DUP4 KECCAK256 DUP7 DUP5 MSTORE DUP3 MSTORE DUP1 DUP4 KECCAK256 SWAP4 DUP4 MSTORE PUSH1 0x24 DUP3 MSTORE DUP1 DUP4 KECCAK256 DUP8 DUP5 MSTORE DUP3 MSTORE DUP1 DUP4 KECCAK256 DUP7 DUP5 MSTORE SWAP1 SWAP2 MSTORE SWAP1 KECCAK256 PUSH1 0x7 DUP3 ADD SLOAD PUSH2 0x2C95 JUMPI POP POP PUSH2 0x1E14 JUMP JUMPDEST PUSH1 0x9 SWAP1 SWAP2 ADD DUP3 SWAP1 SSTORE NUMBER PUSH1 0x4 SWAP1 SWAP2 ADD SSTORE POP POP POP POP JUMP JUMPDEST PUSH1 0x18 SLOAD PUSH1 0x1 PUSH1 0x1 PUSH1 0xA0 SHL SUB AND CALLER EQ PUSH2 0x2CC1 JUMPI PUSH1 0x0 DUP1 REVERT JUMPDEST PUSH1 0x1 PUSH1 0x1 PUSH1 0xA0 SHL SUB DUP2 AND PUSH2 0x2CD4 JUMPI PUSH1 0x0 DUP1 REVERT JUMPDEST PUSH1 0x2 DUP1 SLOAD PUSH1 0x1 PUSH1 0x1 PUSH1 0xA0 SHL SUB NOT AND PUSH1 0x1 PUSH1 0x1 PUSH1 0xA0 SHL SUB DUP4 AND SWAP1 DUP2 OR SWAP1 SWAP2 SSTORE PUSH1 0x40 DUP1 MLOAD DUP2 DUP2 MSTORE PUSH1 0x7 SWAP2 DUP2 ADD SWAP2 SWAP1 SWAP2 MSTORE PUSH7 0x74726164696E67 PUSH1 0xC8 SHL PUSH1 0x60 DUP3 ADD MSTORE PUSH1 0x20 DUP2 ADD SWAP2 SWAP1 SWAP2 MSTORE PUSH1 0x0 DUP1 MLOAD PUSH1 0x20 PUSH2 0x59A7 DUP4 CODECOPY DUP2 MLOAD SWAP2 MSTORE SWAP1 PUSH1 0x80 ADD PUSH2 0x1214 JUMP JUMPDEST CALLER PUSH1 0x0 SWAP1 DUP2 MSTORE PUSH1 0x33 PUSH1 0x20 MSTORE PUSH1 0x40 SWAP1 KECCAK256 SLOAD PUSH1 0xFF AND DUP1 ISZERO PUSH2 0x2DCC JUMPI POP PUSH1 0x4 DUP1 SLOAD PUSH1 0x40 MLOAD PUSH4 0x24745215 PUSH1 0xE2 SHL DUP2 MSTORE PUSH1 0x1 PUSH1 0x1 PUSH1 0xA0 SHL SUB SWAP1 SWAP2 AND SWAP2 PUSH4 0x91D14854 SWAP2 PUSH2 0x2D8B SWAP2 PUSH1 0x0 DUP1 MLOAD PUSH1 0x20 PUSH2 0x59C7 DUP4 CODECOPY DUP2 MLOAD SWAP2 MSTORE SWAP2 CALLER SWAP2 ADD PUSH2 0x583B JUMP JUMPDEST PUSH1 0x20 PUSH1 0x40 MLOAD DUP1 DUP4 SUB DUP2 DUP7 GAS STATICCALL ISZERO DUP1 ISZERO PUSH2 0x2DA8 JUMPI RETURNDATASIZE PUSH1 0x0 DUP1 RETURNDATACOPY RETURNDATASIZE PUSH1 0x0 REVERT JUMPDEST POP POP POP POP PUSH1 0x40 MLOAD RETURNDATASIZE PUSH1 0x1F NOT PUSH1 0x1F DUP3 ADD AND DUP3 ADD DUP1 PUSH1 0x40 MSTORE POP DUP2 ADD SWAP1 PUSH2 0x2DCC SWAP2 SWAP1 PUSH2 0x5852 JUMP JUMPDEST PUSH2 0x2DD5 JUMPI PUSH1 0x0 DUP1 REVERT JUMPDEST PUSH2 0x2DE0 DUP4 DUP4 DUP4 PUSH2 0x4792 JUMP JUMPDEST PUSH2 0x2DE9 JUMPI POP POP POP JUMP JUMPDEST PUSH1 0x1 PUSH1 0x1 PUSH1 0xA0 SHL SUB DUP4 AND PUSH1 0x0 SWAP1 DUP2 MSTORE PUSH1 0x26 PUSH1 0x20 SWAP1 DUP2 MSTORE PUSH1 0x40 DUP1 DUP4 KECCAK256 DUP6 DUP5 MSTORE DUP3 MSTORE DUP1 DUP4 KECCAK256 DUP5 DUP5 MSTORE SWAP1 SWAP2 MSTORE SWAP1 KECCAK256 SLOAD PUSH1 0x28 DUP1 SLOAD PUSH2 0x2E25 SWAP1 PUSH1 0x1 SWAP1 PUSH2 0x58D1 JUMP JUMPDEST DUP2 SLOAD DUP2 LT PUSH2 0x2E35 JUMPI PUSH2 0x2E35 PUSH2 0x57F4 JUMP JUMPDEST SWAP1 PUSH1 0x0 MSTORE PUSH1 0x20 PUSH1 0x0 KECCAK256 SWAP1 PUSH1 0xD MUL ADD PUSH1 0x28 DUP3 DUP2 SLOAD DUP2 LT PUSH2 0x2E56 JUMPI PUSH2 0x2E56 PUSH2 0x57F4 JUMP JUMPDEST PUSH1 0x0 SWAP2 DUP3 MSTORE PUSH1 0x20 DUP3 KECCAK256 DUP4 SLOAD PUSH1 0xD SWAP1 SWAP3 MUL ADD DUP1 SLOAD PUSH1 0x1 PUSH1 0x1 PUSH1 0xA0 SHL SUB NOT AND PUSH1 0x1 PUSH1 0x1 PUSH1 0xA0 SHL SUB SWAP1 SWAP3 AND SWAP2 SWAP1 SWAP2 OR DUP2 SSTORE PUSH1 0x1 DUP1 DUP5 ADD SLOAD SWAP1 DUP3 ADD SSTORE PUSH1 0x2 DUP1 DUP5 ADD SLOAD SWAP1 DUP3 ADD SSTORE PUSH1 0x3 DUP1 DUP5 ADD SLOAD SWAP1 DUP3 ADD SSTORE PUSH1 0x4 DUP1 DUP5 ADD SLOAD SWAP1 DUP3 ADD SSTORE PUSH1 0x5 DUP1 DUP5 ADD SLOAD SWAP1 DUP3 ADD DUP1 SLOAD PUSH1 0xFF SWAP1 SWAP3 AND ISZERO ISZERO PUSH1 0xFF NOT SWAP1 SWAP3 AND SWAP2 SWAP1 SWAP2 OR SWAP1 SSTORE PUSH1 0x6 DUP1 DUP5 ADD SLOAD SWAP1 DUP3 ADD SSTORE PUSH1 0x7 DUP1 DUP5 ADD SLOAD SWAP1 DUP3 ADD SSTORE PUSH1 0x8 DUP1 DUP5 ADD SLOAD SWAP1 DUP3 ADD SSTORE PUSH1 0x9 DUP1 DUP5 ADD SLOAD SWAP1 DUP3 ADD SSTORE PUSH1 0xA DUP1 DUP5 ADD SLOAD SWAP1 DUP3 ADD SSTORE PUSH1 0xB DUP1 DUP5 ADD SLOAD SWAP1 DUP3 ADD SSTORE PUSH1 0xC SWAP3 DUP4 ADD SLOAD SWAP3 ADD SWAP2 SWAP1 SWAP2 SSTORE PUSH1 0x28 DUP1 SLOAD DUP4 SWAP3 PUSH1 0x26 SWAP3 SWAP1 SWAP2 DUP5 SWAP1 DUP2 LT PUSH2 0x2F2D JUMPI PUSH2 0x2F2D PUSH2 0x57F4 JUMP JUMPDEST PUSH1 0x0 SWAP2 DUP3 MSTORE PUSH1 0x20 DUP1 DUP4 KECCAK256 PUSH1 0xD SWAP1 SWAP3 MUL SWAP1 SWAP2 ADD SLOAD PUSH1 0x1 PUSH1 0x1 PUSH1 0xA0 SHL SUB AND DUP4 MSTORE DUP3 ADD SWAP3 SWAP1 SWAP3 MSTORE PUSH1 0x40 ADD DUP2 KECCAK256 PUSH1 0x28 DUP1 SLOAD SWAP2 SWAP3 SWAP2 DUP6 SWAP1 DUP2 LT PUSH2 0x2F6D JUMPI PUSH2 0x2F6D PUSH2 0x57F4 JUMP JUMPDEST SWAP1 PUSH1 0x0 MSTORE PUSH1 0x20 PUSH1 0x0 KECCAK256 SWAP1 PUSH1 0xD MUL ADD PUSH1 0x1 ADD SLOAD DUP2 MSTORE PUSH1 0x20 ADD SWAP1 DUP2 MSTORE PUSH1 0x20 ADD PUSH1 0x0 KECCAK256 PUSH1 0x0 PUSH1 0x28 DUP5 DUP2 SLOAD DUP2 LT PUSH2 0x2FA2 JUMPI PUSH2 0x2FA2 PUSH2 0x57F4 JUMP JUMPDEST PUSH1 0x0 SWAP2 DUP3 MSTORE PUSH1 0x20 DUP1 DUP4 KECCAK256 PUSH1 0x2 PUSH1 0xD SWAP1 SWAP4 MUL ADD SWAP2 SWAP1 SWAP2 ADD SLOAD DUP4 MSTORE DUP3 DUP2 ADD SWAP4 SWAP1 SWAP4 MSTORE PUSH1 0x40 SWAP2 DUP3 ADD DUP2 KECCAK256 SWAP4 SWAP1 SWAP4 SSTORE PUSH1 0x1 PUSH1 0x1 PUSH1 0xA0 SHL SUB DUP8 AND DUP4 MSTORE PUSH1 0x26 DUP3 MSTORE DUP1 DUP4 KECCAK256 DUP7 DUP5 MSTORE DUP3 MSTORE DUP1 DUP4 KECCAK256 DUP6 DUP5 MSTORE SWAP1 SWAP2 MSTORE DUP2 KECCAK256 SSTORE PUSH1 0x28 DUP1 SLOAD DUP1 PUSH2 0x3002 JUMPI PUSH2 0x3002 PUSH2 0x58E8 JUMP JUMPDEST PUSH1 0x0 DUP3 DUP2 MSTORE PUSH1 0x20 DUP1 DUP3 KECCAK256 PUSH1 0xD PUSH1 0x0 NOT SWAP1 SWAP5 ADD SWAP4 DUP5 MUL ADD DUP1 SLOAD PUSH1 0x1 PUSH1 0x1 PUSH1 0xA0 SHL SUB NOT AND DUP2 SSTORE PUSH1 0x1 DUP2 ADD DUP4 SWAP1 SSTORE PUSH1 0x2 DUP2 ADD DUP4 SWAP1 SSTORE PUSH1 0x3 DUP2 ADD DUP4 SWAP1 SSTORE PUSH1 0x4 DUP2 ADD DUP4 SWAP1 SSTORE PUSH1 0x5 DUP2 ADD DUP1 SLOAD PUSH1 0xFF NOT AND SWAP1 SSTORE PUSH1 0x6 DUP2 ADD DUP4 SWAP1 SSTORE PUSH1 0x7 DUP2 ADD DUP4 SWAP1 SSTORE PUSH1 0x8 DUP2 ADD DUP4 SWAP1 SSTORE PUSH1 0x9 DUP2 ADD DUP4 SWAP1 SSTORE PUSH1 0xA DUP2 ADD DUP4 SWAP1 SSTORE PUSH1 0xB DUP2 ADD DUP4 SWAP1 SSTORE PUSH1 0xC ADD DUP3 SWAP1 SSTORE SWAP2 SWAP1 SWAP3 SSTORE PUSH1 0x1 PUSH1 0x1 PUSH1 0xA0 SHL SUB DUP7 AND DUP3 MSTORE PUSH1 0x27 DUP2 MSTORE PUSH1 0x40 DUP1 DUP4 KECCAK256 DUP7 DUP5 MSTORE SWAP1 SWAP2 MSTORE DUP2 KECCAK256 DUP1 SLOAD SWAP2 PUSH2 0x30AB DUP4 PUSH2 0x58FE JUMP JUMPDEST SWAP2 SWAP1 POP SSTORE POP POP POP POP POP JUMP JUMPDEST CALLER PUSH1 0x0 SWAP1 DUP2 MSTORE PUSH1 0x33 PUSH1 0x20 MSTORE PUSH1 0x40 SWAP1 KECCAK256 SLOAD PUSH1 0xFF AND DUP1 ISZERO PUSH2 0x3150 JUMPI POP PUSH1 0x4 DUP1 SLOAD PUSH1 0x40 MLOAD PUSH4 0x24745215 PUSH1 0xE2 SHL DUP2 MSTORE PUSH1 0x1 PUSH1 0x1 PUSH1 0xA0 SHL SUB SWAP1 SWAP2 AND SWAP2 PUSH4 0x91D14854 SWAP2 PUSH2 0x310F SWAP2 PUSH1 0x0 DUP1 MLOAD PUSH1 0x20 PUSH2 0x59C7 DUP4 CODECOPY DUP2 MLOAD SWAP2 MSTORE SWAP2 CALLER SWAP2 ADD PUSH2 0x583B JUMP JUMPDEST PUSH1 0x20 PUSH1 0x40 MLOAD DUP1 DUP4 SUB DUP2 DUP7 GAS STATICCALL ISZERO DUP1 ISZERO PUSH2 0x312C JUMPI RETURNDATASIZE PUSH1 0x0 DUP1 RETURNDATACOPY RETURNDATASIZE PUSH1 0x0 REVERT JUMPDEST POP POP POP POP PUSH1 0x40 MLOAD RETURNDATASIZE PUSH1 0x1F NOT PUSH1 0x1F DUP3 ADD AND DUP3 ADD DUP1 PUSH1 0x40 MSTORE POP DUP2 ADD SWAP1 PUSH2 0x3150 SWAP2 SWAP1 PUSH2 0x5852 JUMP JUMPDEST PUSH2 0x3159 JUMPI PUSH1 0x0 DUP1 REVERT JUMPDEST PUSH2 0x3178 PUSH2 0x3169 PUSH1 0x20 DUP4 ADD DUP4 PUSH2 0x5018 JUMP JUMPDEST DUP3 PUSH1 0x20 ADD CALLDATALOAD DUP4 PUSH1 0x40 ADD CALLDATALOAD PUSH2 0x4792 JUMP JUMPDEST PUSH2 0x317F JUMPI POP JUMP JUMPDEST PUSH1 0x0 PUSH1 0x28 PUSH1 0x26 DUP3 PUSH2 0x3193 PUSH1 0x20 DUP7 ADD DUP7 PUSH2 0x5018 JUMP JUMPDEST PUSH1 0x1 PUSH1 0x1 PUSH1 0xA0 SHL SUB AND DUP2 MSTORE PUSH1 0x20 DUP1 DUP3 ADD SWAP3 SWAP1 SWAP3 MSTORE PUSH1 0x40 SWAP1 DUP2 ADD PUSH1 0x0 SWAP1 DUP2 KECCAK256 DUP7 DUP5 ADD CALLDATALOAD DUP3 MSTORE DUP4 MSTORE DUP2 DUP2 KECCAK256 DUP7 DUP4 ADD CALLDATALOAD DUP3 MSTORE SWAP1 SWAP3 MSTORE SWAP1 KECCAK256 SLOAD DUP2 SLOAD DUP2 LT PUSH2 0x31D8 JUMPI PUSH2 0x31D8 PUSH2 0x57F4 JUMP JUMPDEST SWAP1 PUSH1 0x0 MSTORE PUSH1 0x20 PUSH1 0x0 KECCAK256 SWAP1 PUSH1 0xD MUL ADD SWAP1 POP DUP2 PUSH1 0x60 ADD CALLDATALOAD DUP2 PUSH1 0x3 ADD DUP2 SWAP1 SSTORE POP DUP2 PUSH1 0xA0 ADD PUSH1 0x20 DUP2 ADD SWAP1 PUSH2 0x3208 SWAP2 SWAP1 PUSH2 0x5915 JUMP JUMPDEST PUSH1 0x5 DUP3 ADD DUP1 SLOAD PUSH1 0xFF NOT AND SWAP2 ISZERO ISZERO SWAP2 SWAP1 SWAP2 OR SWAP1 SSTORE PUSH1 0xC0 DUP3 ADD CALLDATALOAD PUSH1 0x6 DUP3 ADD SSTORE PUSH1 0xE0 DUP3 ADD CALLDATALOAD PUSH1 0x7 DUP3 ADD SSTORE PUSH2 0x100 DUP3 ADD CALLDATALOAD PUSH1 0x8 DUP3 ADD SSTORE PUSH2 0x120 DUP3 ADD CALLDATALOAD PUSH1 0x9 DUP3 ADD SSTORE PUSH2 0x140 DUP3 ADD CALLDATALOAD PUSH1 0xA DUP3 ADD SSTORE NUMBER PUSH1 0xB SWAP1 SWAP2 ADD SSTORE JUMPDEST POP JUMP JUMPDEST PUSH2 0x32D1 PUSH1 0x40 MLOAD DUP1 PUSH2 0x1A0 ADD PUSH1 0x40 MSTORE DUP1 PUSH1 0x0 PUSH1 0x1 PUSH1 0x1 PUSH1 0xA0 SHL SUB AND DUP2 MSTORE PUSH1 0x20 ADD PUSH1 0x0 DUP2 MSTORE PUSH1 0x20 ADD PUSH1 0x0 DUP2 MSTORE PUSH1 0x20 ADD PUSH1 0x0 DUP2 MSTORE PUSH1 0x20 ADD PUSH1 0x0 DUP2 MSTORE PUSH1 0x20 ADD PUSH1 0x0 ISZERO ISZERO DUP2 MSTORE PUSH1 0x20 ADD PUSH1 0x0 DUP2 MSTORE PUSH1 0x20 ADD PUSH1 0x0 DUP2 MSTORE PUSH1 0x20 ADD PUSH1 0x0 DUP2 MSTORE PUSH1 0x20 ADD PUSH1 0x0 DUP2 MSTORE PUSH1 0x20 ADD PUSH1 0x0 DUP2 MSTORE PUSH1 0x20 ADD PUSH1 0x0 DUP2 MSTORE PUSH1 0x20 ADD PUSH1 0x0 DUP2 MSTORE POP SWAP1 JUMP JUMPDEST PUSH2 0x32DC DUP5 DUP5 DUP5 PUSH2 0x4792 JUMP JUMPDEST PUSH2 0x32E5 JUMPI PUSH1 0x0 DUP1 REVERT JUMPDEST PUSH1 0x1 PUSH1 0x1 PUSH1 0xA0 SHL SUB DUP5 AND PUSH1 0x0 SWAP1 DUP2 MSTORE PUSH1 0x26 PUSH1 0x20 SWAP1 DUP2 MSTORE PUSH1 0x40 DUP1 DUP4 KECCAK256 DUP7 DUP5 MSTORE DUP3 MSTORE DUP1 DUP4 KECCAK256 DUP6 DUP5 MSTORE SWAP1 SWAP2 MSTORE SWAP1 KECCAK256 SLOAD PUSH1 0x28 DUP1 SLOAD SWAP1 SWAP2 SWAP1 DUP2 LT PUSH2 0x3326 JUMPI PUSH2 0x3326 PUSH2 0x57F4 JUMP JUMPDEST PUSH1 0x0 SWAP2 DUP3 MSTORE PUSH1 0x20 SWAP2 DUP3 SWAP1 KECCAK256 PUSH1 0x40 DUP1 MLOAD PUSH2 0x1A0 DUP2 ADD DUP3 MSTORE PUSH1 0xD SWAP1 SWAP4 MUL SWAP1 SWAP2 ADD DUP1 SLOAD PUSH1 0x1 PUSH1 0x1 PUSH1 0xA0 SHL SUB AND DUP4 MSTORE PUSH1 0x1 DUP2 ADD SLOAD SWAP4 DUP4 ADD SWAP4 SWAP1 SWAP4 MSTORE PUSH1 0x2 DUP4 ADD SLOAD SWAP1 DUP3 ADD MSTORE PUSH1 0x3 DUP3 ADD SLOAD PUSH1 0x60 DUP3 ADD MSTORE PUSH1 0x4 DUP3 ADD SLOAD PUSH1 0x80 DUP3 ADD MSTORE PUSH1 0x5 DUP3 ADD SLOAD PUSH1 0xFF AND ISZERO ISZERO PUSH1 0xA0 DUP3 ADD MSTORE PUSH1 0x6 DUP3 ADD SLOAD PUSH1 0xC0 DUP3 ADD MSTORE PUSH1 0x7 DUP3 ADD SLOAD PUSH1 0xE0 DUP3 ADD MSTORE PUSH1 0x8 DUP3 ADD SLOAD PUSH2 0x100 DUP3 ADD MSTORE PUSH1 0x9 DUP3 ADD SLOAD PUSH2 0x120 DUP3 ADD MSTORE PUSH1 0xA DUP3 ADD SLOAD PUSH2 0x140 DUP3 ADD MSTORE PUSH1 0xB DUP3 ADD SLOAD PUSH2 0x160 DUP3 ADD MSTORE PUSH1 0xC SWAP1 SWAP2 ADD SLOAD PUSH2 0x180 DUP3 ADD MSTORE SWAP1 POP JUMPDEST SWAP4 SWAP3 POP POP POP JUMP JUMPDEST PUSH1 0x2B PUSH1 0x20 MSTORE DUP2 PUSH1 0x0 MSTORE PUSH1 0x40 PUSH1 0x0 KECCAK256 DUP2 DUP2 SLOAD DUP2 LT PUSH2 0x33FB JUMPI PUSH1 0x0 DUP1 REVERT JUMPDEST SWAP1 PUSH1 0x0 MSTORE PUSH1 0x20 PUSH1 0x0 KECCAK256 ADD PUSH1 0x0 SWAP2 POP SWAP2 POP POP SLOAD DUP2 JUMP JUMPDEST CALLER PUSH1 0x0 SWAP1 DUP2 MSTORE PUSH1 0x33 PUSH1 0x20 MSTORE PUSH1 0x40 SWAP1 KECCAK256 SLOAD PUSH1 0xFF AND DUP1 ISZERO PUSH2 0x34AA JUMPI POP PUSH1 0x4 DUP1 SLOAD PUSH1 0x40 MLOAD PUSH4 0x24745215 PUSH1 0xE2 SHL DUP2 MSTORE PUSH1 0x1 PUSH1 0x1 PUSH1 0xA0 SHL SUB SWAP1 SWAP2 AND SWAP2 PUSH4 0x91D14854 SWAP2 PUSH2 0x3469 SWAP2 PUSH1 0x0 DUP1 MLOAD PUSH1 0x20 PUSH2 0x59C7 DUP4 CODECOPY DUP2 MLOAD SWAP2 MSTORE SWAP2 CALLER SWAP2 ADD PUSH2 0x583B JUMP JUMPDEST PUSH1 0x20 PUSH1 0x40 MLOAD DUP1 DUP4 SUB DUP2 DUP7 GAS STATICCALL ISZERO DUP1 ISZERO PUSH2 0x3486 JUMPI RETURNDATASIZE PUSH1 0x0 DUP1 RETURNDATACOPY RETURNDATASIZE PUSH1 0x0 REVERT JUMPDEST POP POP POP POP PUSH1 0x40 MLOAD RETURNDATASIZE PUSH1 0x1F NOT PUSH1 0x1F DUP3 ADD AND DUP3 ADD DUP1 PUSH1 0x40 MSTORE POP DUP2 ADD SWAP1 PUSH2 0x34AA SWAP2 SWAP1 PUSH2 0x5852 JUMP JUMPDEST PUSH2 0x34B3 JUMPI PUSH1 0x0 DUP1 REVERT JUMPDEST PUSH2 0x34C5 DUP3 PUSH1 0x0 ADD MLOAD DUP4 PUSH1 0x20 ADD MLOAD PUSH2 0x15BC JUMP JUMPDEST PUSH1 0x40 DUP4 DUP2 ADD SWAP2 DUP3 MSTORE DUP4 MLOAD PUSH1 0x1 PUSH1 0x1 PUSH1 0xA0 SHL SUB SWAP1 DUP2 AND PUSH1 0x0 SWAP1 DUP2 MSTORE PUSH1 0x23 PUSH1 0x20 SWAP1 DUP2 MSTORE DUP4 DUP3 KECCAK256 DUP2 DUP9 ADD DUP1 MLOAD DUP5 MSTORE SWAP1 DUP3 MSTORE DUP5 DUP4 KECCAK256 DUP7 MLOAD DUP5 MSTORE DUP3 MSTORE DUP5 DUP4 KECCAK256 DUP9 MLOAD DUP2 SLOAD PUSH1 0x1 PUSH1 0x1 PUSH1 0xA0 SHL SUB NOT AND SWAP6 AND SWAP5 DUP6 OR DUP2 SSTORE DUP2 MLOAD PUSH1 0x1 DUP3 ADD SSTORE SWAP6 MLOAD PUSH1 0x2 DUP8 ADD SSTORE PUSH1 0x60 DUP9 ADD MLOAD PUSH1 0x3 DUP8 ADD SSTORE PUSH1 0x80 DUP9 ADD MLOAD PUSH1 0x4 DUP8 ADD SSTORE PUSH1 0xA0 DUP9 ADD MLOAD PUSH1 0x5 DUP8 ADD SSTORE PUSH1 0xC0 DUP9 ADD MLOAD PUSH1 0x6 DUP8 ADD DUP1 SLOAD PUSH1 0xFF NOT AND SWAP2 ISZERO ISZERO SWAP2 SWAP1 SWAP2 OR SWAP1 SSTORE PUSH1 0xE0 DUP9 ADD MLOAD PUSH1 0x7 DUP8 ADD SSTORE PUSH2 0x100 DUP9 ADD MLOAD PUSH1 0x8 DUP8 ADD SSTORE PUSH2 0x120 DUP9 ADD MLOAD PUSH1 0x9 SWAP1 SWAP7 ADD SWAP6 SWAP1 SWAP6 SSTORE SWAP2 DUP2 MSTORE PUSH1 0x25 DUP3 MSTORE DUP3 DUP2 KECCAK256 SWAP4 MLOAD DUP2 MSTORE SWAP3 SWAP1 MSTORE DUP2 KECCAK256 DUP1 SLOAD SWAP2 PUSH2 0x359B DUP4 PUSH2 0x589D JUMP JUMPDEST SWAP1 SWAP2 SSTORE POP POP NUMBER PUSH1 0x0 SWAP1 DUP2 MSTORE PUSH1 0x31 PUSH1 0x20 MSTORE PUSH1 0x40 DUP2 KECCAK256 DUP1 SLOAD SWAP2 PUSH2 0x35BB DUP4 PUSH2 0x589D JUMP JUMPDEST SWAP1 SWAP2 SSTORE POP POP DUP2 MLOAD PUSH1 0x1 PUSH1 0x1 PUSH1 0xA0 SHL SUB AND PUSH1 0x0 SWAP1 DUP2 MSTORE PUSH1 0x25 PUSH1 0x20 SWAP1 DUP2 MSTORE PUSH1 0x40 DUP1 DUP4 KECCAK256 DUP3 DUP7 ADD MLOAD DUP5 MSTORE SWAP1 SWAP2 MSTORE SWAP1 KECCAK256 SLOAD PUSH1 0x1 EQ ISZERO PUSH2 0x365C JUMPI PUSH1 0x20 DUP3 DUP2 ADD DUP1 MLOAD PUSH1 0x0 SWAP1 DUP2 MSTORE PUSH1 0x2E DUP1 DUP5 MSTORE PUSH1 0x40 DUP1 DUP4 KECCAK256 SLOAD DUP8 MLOAD PUSH1 0x1 PUSH1 0x1 PUSH1 0xA0 SHL SUB SWAP1 DUP2 AND DUP6 MSTORE PUSH1 0x2F DUP8 MSTORE DUP3 DUP6 KECCAK256 DUP7 MLOAD DUP7 MSTORE DUP8 MSTORE DUP3 DUP6 KECCAK256 SWAP2 SWAP1 SWAP2 SSTORE SWAP4 MLOAD DUP4 MSTORE SWAP1 DUP5 MSTORE DUP2 KECCAK256 DUP6 MLOAD DUP2 SLOAD PUSH1 0x1 DUP2 ADD DUP4 SSTORE SWAP2 DUP4 MSTORE SWAP4 SWAP1 SWAP2 KECCAK256 ADD DUP1 SLOAD PUSH1 0x1 PUSH1 0x1 PUSH1 0xA0 SHL SUB NOT AND SWAP3 SWAP1 SWAP2 AND SWAP2 SWAP1 SWAP2 OR SWAP1 SSTORE JUMPDEST PUSH1 0x0 PUSH1 0xA0 DUP3 ADD DUP2 DUP2 MSTORE DUP4 MLOAD PUSH1 0x1 PUSH1 0x1 PUSH1 0xA0 SHL SUB AND DUP3 MSTORE PUSH1 0x24 PUSH1 0x20 SWAP1 DUP2 MSTORE PUSH1 0x40 DUP1 DUP5 KECCAK256 DUP3 DUP8 ADD DUP1 MLOAD DUP7 MSTORE SWAP1 DUP4 MSTORE DUP2 DUP6 KECCAK256 DUP3 DUP9 ADD MLOAD DUP7 MSTORE DUP4 MSTORE SWAP4 DUP2 SWAP1 KECCAK256 DUP6 MLOAD DUP2 SSTORE SWAP2 DUP6 ADD MLOAD PUSH1 0x1 DUP1 DUP5 ADD SWAP2 SWAP1 SWAP2 SSTORE SWAP1 DUP6 ADD MLOAD PUSH1 0x2 DUP4 ADD DUP2 SWAP1 SSTORE PUSH1 0x60 DUP7 ADD MLOAD PUSH1 0x3 DUP5 ADD SSTORE PUSH1 0x80 DUP7 ADD MLOAD PUSH1 0x4 DUP5 ADD SSTORE SWAP3 MLOAD PUSH1 0x5 SWAP1 SWAP3 ADD DUP1 SLOAD PUSH1 0xFF NOT AND SWAP3 ISZERO ISZERO SWAP3 SWAP1 SWAP3 OR SWAP1 SWAP2 SSTORE SWAP2 MLOAD PUSH1 0xC0 DUP6 ADD MLOAD PUSH2 0x36F2 SWAP4 SWAP2 SWAP3 SWAP2 SWAP1 PUSH2 0x4D3A JUMP JUMPDEST POP POP JUMP JUMPDEST PUSH1 0x21 DUP2 DUP2 SLOAD DUP2 LT PUSH2 0x3706 JUMPI PUSH1 0x0 DUP1 REVERT JUMPDEST PUSH1 0x0 SWAP2 DUP3 MSTORE PUSH1 0x20 SWAP1 SWAP2 KECCAK256 ADD SLOAD PUSH1 0x1 PUSH1 0x1 PUSH1 0xA0 SHL SUB AND SWAP1 POP DUP2 JUMP JUMPDEST CALLER PUSH1 0x0 SWAP1 DUP2 MSTORE PUSH1 0x33 PUSH1 0x20 MSTORE PUSH1 0x40 SWAP1 KECCAK256 SLOAD PUSH1 0xFF AND DUP1 ISZERO PUSH2 0x37BA JUMPI POP PUSH1 0x4 DUP1 SLOAD PUSH1 0x40 MLOAD PUSH4 0x24745215 PUSH1 0xE2 SHL DUP2 MSTORE PUSH1 0x1 PUSH1 0x1 PUSH1 0xA0 SHL SUB SWAP1 SWAP2 AND SWAP2 PUSH4 0x91D14854 SWAP2 PUSH2 0x3779 SWAP2 PUSH1 0x0 DUP1 MLOAD PUSH1 0x20 PUSH2 0x59C7 DUP4 CODECOPY DUP2 MLOAD SWAP2 MSTORE SWAP2 CALLER SWAP2 ADD PUSH2 0x583B JUMP JUMPDEST PUSH1 0x20 PUSH1 0x40 MLOAD DUP1 DUP4 SUB DUP2 DUP7 GAS STATICCALL ISZERO DUP1 ISZERO PUSH2 0x3796 JUMPI RETURNDATASIZE PUSH1 0x0 DUP1 RETURNDATACOPY RETURNDATASIZE PUSH1 0x0 REVERT JUMPDEST POP POP POP POP PUSH1 0x40 MLOAD RETURNDATASIZE PUSH1 0x1F NOT PUSH1 0x1F DUP3 ADD AND DUP3 ADD DUP1 PUSH1 0x40 MSTORE POP DUP2 ADD SWAP1 PUSH2 0x37BA SWAP2 SWAP1 PUSH2 0x5852 JUMP JUMPDEST PUSH2 0x37C3 JUMPI PUSH1 0x0 DUP1 REVERT JUMPDEST DUP3 MLOAD MLOAD PUSH1 0x1 PUSH1 0x1 PUSH1 0xA0 SHL SUB SWAP1 DUP2 AND PUSH1 0x0 SWAP1 DUP2 MSTORE PUSH1 0x2B PUSH1 0x20 SWAP1 DUP2 MSTORE PUSH1 0x40 DUP1 DUP4 KECCAK256 DUP1 SLOAD PUSH1 0x1 DUP1 DUP3 ADD DUP4 SSTORE SWAP2 DUP6 MSTORE DUP4 DUP6 KECCAK256 ADD DUP8 SWAP1 SSTORE DUP7 DUP5 MSTORE PUSH1 0x29 DUP4 MSTORE SWAP3 DUP2 SWAP1 KECCAK256 DUP8 MLOAD DUP1 MLOAD DUP3 SLOAD PUSH1 0x1 PUSH1 0x1 PUSH1 0xA0 SHL SUB NOT AND SWAP7 AND SWAP6 SWAP1 SWAP6 OR DUP2 SSTORE SWAP2 DUP5 ADD MLOAD SWAP3 DUP3 ADD SWAP3 SWAP1 SWAP3 SSTORE DUP3 DUP3 ADD MLOAD PUSH1 0x2 DUP3 ADD SSTORE PUSH1 0x60 DUP1 DUP5 ADD MLOAD PUSH1 0x3 DUP4 ADD SSTORE PUSH1 0x80 DUP1 DUP6 ADD MLOAD PUSH1 0x4 DUP5 ADD SSTORE PUSH1 0xA0 DUP1 DUP7 ADD MLOAD PUSH1 0x5 DUP6 ADD SSTORE PUSH1 0xC0 DUP7 ADD MLOAD PUSH1 0x6 DUP6 ADD DUP1 SLOAD PUSH1 0xFF NOT AND SWAP2 ISZERO ISZERO SWAP2 SWAP1 SWAP2 OR SWAP1 SSTORE PUSH1 0xE0 DUP7 ADD MLOAD PUSH1 0x7 DUP6 ADD SSTORE PUSH2 0x100 DUP7 ADD MLOAD PUSH1 0x8 DUP6 ADD SSTORE PUSH2 0x120 SWAP1 SWAP6 ADD MLOAD PUSH1 0x9 DUP5 ADD SSTORE SWAP3 DUP8 ADD MLOAD PUSH1 0xB DUP4 ADD SSTORE DUP7 ADD MLOAD PUSH1 0xC DUP3 ADD SSTORE SWAP1 DUP6 ADD MLOAD PUSH1 0xD DUP3 ADD SSTORE SWAP1 DUP5 ADD MLOAD PUSH1 0xE DUP3 ADD SSTORE NUMBER PUSH1 0xA SWAP1 SWAP2 ADD SSTORE DUP1 ISZERO PUSH2 0x38F5 JUMPI DUP3 MLOAD MLOAD PUSH1 0x1 PUSH1 0x1 PUSH1 0xA0 SHL SUB AND PUSH1 0x0 SWAP1 DUP2 MSTORE PUSH1 0x2C PUSH1 0x20 SWAP1 DUP2 MSTORE PUSH1 0x40 DUP1 DUP4 KECCAK256 DUP7 MLOAD DUP4 ADD MLOAD DUP5 MSTORE SWAP1 SWAP2 MSTORE DUP2 KECCAK256 DUP1 SLOAD SWAP2 PUSH2 0x38EB DUP4 PUSH2 0x589D JUMP JUMPDEST SWAP2 SWAP1 POP SSTORE POP POP POP POP JUMP JUMPDEST DUP3 MLOAD MLOAD PUSH1 0x1 PUSH1 0x1 PUSH1 0xA0 SHL SUB AND PUSH1 0x0 SWAP1 DUP2 MSTORE PUSH1 0x2D PUSH1 0x20 SWAP1 DUP2 MSTORE PUSH1 0x40 DUP1 DUP4 KECCAK256 DUP7 MLOAD DUP4 ADD MLOAD DUP5 MSTORE SWAP1 SWAP2 MSTORE DUP2 KECCAK256 DUP1 SLOAD SWAP2 PUSH2 0x392A DUP4 PUSH2 0x589D JUMP JUMPDEST SWAP1 SWAP2 SSTORE POP POP DUP3 MLOAD MLOAD PUSH1 0x1 PUSH1 0x1 PUSH1 0xA0 SHL SUB AND PUSH1 0x0 SWAP1 DUP2 MSTORE PUSH1 0x24 PUSH1 0x20 SWAP1 DUP2 MSTORE PUSH1 0x40 DUP1 DUP4 KECCAK256 DUP7 MLOAD DUP4 ADD MLOAD DUP5 MSTORE DUP3 MSTORE DUP1 DUP4 KECCAK256 DUP7 MLOAD DUP3 ADD MLOAD DUP5 MSTORE SWAP1 SWAP2 MSTORE SWAP1 KECCAK256 PUSH1 0x5 ADD DUP1 SLOAD PUSH1 0xFF NOT AND PUSH1 0x1 OR SWAP1 SSTORE POP POP POP JUMP JUMPDEST CALLER PUSH1 0x0 SWAP1 DUP2 MSTORE PUSH1 0x33 PUSH1 0x20 MSTORE PUSH1 0x40 SWAP1 KECCAK256 SLOAD PUSH1 0xFF AND DUP1 ISZERO PUSH2 0x3A11 JUMPI POP PUSH1 0x4 DUP1 SLOAD PUSH1 0x40 MLOAD PUSH4 0x24745215 PUSH1 0xE2 SHL DUP2 MSTORE PUSH1 0x1 PUSH1 0x1 PUSH1 0xA0 SHL SUB SWAP1 SWAP2 AND SWAP2 PUSH4 0x91D14854 SWAP2 PUSH2 0x39D0 SWAP2 PUSH1 0x0 DUP1 MLOAD PUSH1 0x20 PUSH2 0x59C7 DUP4 CODECOPY DUP2 MLOAD SWAP2 MSTORE SWAP2 CALLER SWAP2 ADD PUSH2 0x583B JUMP JUMPDEST PUSH1 0x20 PUSH1 0x40 MLOAD DUP1 DUP4 SUB DUP2 DUP7 GAS STATICCALL ISZERO DUP1 ISZERO PUSH2 0x39ED JUMPI RETURNDATASIZE PUSH1 0x0 DUP1 RETURNDATACOPY RETURNDATASIZE PUSH1 0x0 REVERT JUMPDEST POP POP POP POP PUSH1 0x40 MLOAD RETURNDATASIZE PUSH1 0x1F NOT PUSH1 0x1F DUP3 ADD AND DUP3 ADD DUP1 PUSH1 0x40 MSTORE POP DUP2 ADD SWAP1 PUSH2 0x3A11 SWAP2 SWAP1 PUSH2 0x5852 JUMP JUMPDEST PUSH2 0x3A1A JUMPI PUSH1 0x0 DUP1 REVERT JUMPDEST PUSH1 0x0 DUP3 DUP2 MSTORE PUSH1 0x29 PUSH1 0x20 SWAP1 DUP2 MSTORE PUSH1 0x40 DUP1 DUP4 KECCAK256 DUP2 MLOAD PUSH2 0x200 DUP2 ADD DUP4 MSTORE DUP2 SLOAD PUSH1 0x1 PUSH1 0x1 PUSH1 0xA0 SHL SUB AND PUSH1 0xC0 DUP3 ADD DUP2 DUP2 MSTORE PUSH1 0x1 DUP5 ADD SLOAD PUSH1 0xE0 DUP5 ADD MSTORE PUSH1 0x2 DUP5 ADD SLOAD PUSH2 0x100 DUP5 ADD MSTORE PUSH1 0x3 DUP5 ADD SLOAD PUSH2 0x120 DUP5 ADD MSTORE PUSH1 0x4 DUP5 ADD SLOAD PUSH2 0x140 DUP5 ADD MSTORE PUSH1 0x5 DUP5 ADD SLOAD PUSH2 0x160 DUP5 ADD MSTORE PUSH1 0x6 DUP5 ADD SLOAD PUSH1 0xFF AND ISZERO ISZERO PUSH2 0x180 DUP5 ADD MSTORE PUSH1 0x7 DUP5 ADD SLOAD PUSH2 0x1A0 DUP5 ADD MSTORE PUSH1 0x8 DUP5 ADD SLOAD PUSH2 0x1C0 DUP5 ADD MSTORE PUSH1 0x9 DUP5 ADD SLOAD PUSH2 0x1E0 DUP5 ADD MSTORE DUP3 MSTORE PUSH1 0xA DUP4 ADD SLOAD DUP3 DUP7 ADD MSTORE PUSH1 0xB DUP4 ADD SLOAD DUP3 DUP6 ADD MSTORE PUSH1 0xC DUP4 ADD SLOAD PUSH1 0x60 DUP4 ADD MSTORE PUSH1 0xD DUP4 ADD SLOAD PUSH1 0x80 DUP4 ADD MSTORE PUSH1 0xE SWAP1 SWAP3 ADD SLOAD PUSH1 0xA0 DUP3 ADD MSTORE SWAP1 DUP5 MSTORE PUSH1 0x2B SWAP1 SWAP3 MSTORE DUP3 KECCAK256 SWAP1 SWAP2 JUMPDEST DUP2 SLOAD DUP2 LT ISZERO PUSH2 0x3CE8 JUMPI DUP5 DUP3 DUP3 DUP2 SLOAD DUP2 LT PUSH2 0x3B09 JUMPI PUSH2 0x3B09 PUSH2 0x57F4 JUMP JUMPDEST SWAP1 PUSH1 0x0 MSTORE PUSH1 0x20 PUSH1 0x0 KECCAK256 ADD SLOAD EQ ISZERO PUSH2 0x3CD6 JUMPI DUP4 ISZERO PUSH2 0x3B5F JUMPI DUP3 MLOAD MLOAD PUSH1 0x1 PUSH1 0x1 PUSH1 0xA0 SHL SUB AND PUSH1 0x0 SWAP1 DUP2 MSTORE PUSH1 0x2C PUSH1 0x20 SWAP1 DUP2 MSTORE PUSH1 0x40 DUP1 DUP4 KECCAK256 DUP7 MLOAD DUP4 ADD MLOAD DUP5 MSTORE SWAP1 SWAP2 MSTORE DUP2 KECCAK256 DUP1 SLOAD SWAP2 PUSH2 0x3B55 DUP4 PUSH2 0x58FE JUMP JUMPDEST SWAP2 SWAP1 POP SSTORE POP PUSH2 0x3BDA JUMP JUMPDEST DUP3 MLOAD MLOAD PUSH1 0x1 PUSH1 0x1 PUSH1 0xA0 SHL SUB AND PUSH1 0x0 SWAP1 DUP2 MSTORE PUSH1 0x2D PUSH1 0x20 SWAP1 DUP2 MSTORE PUSH1 0x40 DUP1 DUP4 KECCAK256 DUP7 MLOAD DUP4 ADD MLOAD DUP5 MSTORE SWAP1 SWAP2 MSTORE DUP2 KECCAK256 DUP1 SLOAD SWAP2 PUSH2 0x3B94 DUP4 PUSH2 0x58FE JUMP JUMPDEST SWAP1 SWAP2 SSTORE POP POP DUP3 MLOAD MLOAD PUSH1 0x1 PUSH1 0x1 PUSH1 0xA0 SHL SUB AND PUSH1 0x0 SWAP1 DUP2 MSTORE PUSH1 0x24 PUSH1 0x20 SWAP1 DUP2 MSTORE PUSH1 0x40 DUP1 DUP4 KECCAK256 DUP7 MLOAD DUP4 ADD MLOAD DUP5 MSTORE DUP3 MSTORE DUP1 DUP4 KECCAK256 DUP7 MLOAD DUP3 ADD MLOAD DUP5 MSTORE SWAP1 SWAP2 MSTORE SWAP1 KECCAK256 PUSH1 0x5 ADD DUP1 SLOAD PUSH1 0xFF NOT AND SWAP1 SSTORE JUMPDEST DUP2 SLOAD DUP3 SWAP1 PUSH2 0x3BEA SWAP1 PUSH1 0x1 SWAP1 PUSH2 0x58D1 JUMP JUMPDEST DUP2 SLOAD DUP2 LT PUSH2 0x3BFA JUMPI PUSH2 0x3BFA PUSH2 0x57F4 JUMP JUMPDEST SWAP1 PUSH1 0x0 MSTORE PUSH1 0x20 PUSH1 0x0 KECCAK256 ADD SLOAD DUP3 DUP3 DUP2 SLOAD DUP2 LT PUSH2 0x3C17 JUMPI PUSH2 0x3C17 PUSH2 0x57F4 JUMP JUMPDEST SWAP1 PUSH1 0x0 MSTORE PUSH1 0x20 PUSH1 0x0 KECCAK256 ADD DUP2 SWAP1 SSTORE POP DUP2 DUP1 SLOAD DUP1 PUSH2 0x3C35 JUMPI PUSH2 0x3C35 PUSH2 0x58E8 JUMP JUMPDEST PUSH1 0x0 DUP3 DUP2 MSTORE PUSH1 0x20 DUP1 DUP3 KECCAK256 DUP4 ADD PUSH1 0x0 NOT SWAP1 DUP2 ADD DUP4 SWAP1 SSTORE SWAP1 SWAP3 ADD SWAP1 SWAP3 SSTORE DUP7 DUP3 MSTORE PUSH1 0x29 SWAP1 MSTORE PUSH1 0x40 DUP2 KECCAK256 DUP1 SLOAD PUSH1 0x1 PUSH1 0x1 PUSH1 0xA0 SHL SUB NOT AND DUP2 SSTORE PUSH1 0x1 DUP2 ADD DUP3 SWAP1 SSTORE PUSH1 0x2 DUP2 ADD DUP3 SWAP1 SSTORE PUSH1 0x3 DUP2 ADD DUP3 SWAP1 SSTORE PUSH1 0x4 DUP2 ADD DUP3 SWAP1 SSTORE PUSH1 0x5 DUP2 ADD DUP3 SWAP1 SSTORE PUSH1 0x6 DUP2 ADD DUP1 SLOAD PUSH1 0xFF NOT AND SWAP1 SSTORE PUSH1 0x7 DUP2 ADD DUP3 SWAP1 SSTORE PUSH1 0x8 DUP2 ADD DUP3 SWAP1 SSTORE PUSH1 0x9 DUP2 ADD DUP3 SWAP1 SSTORE PUSH1 0xA DUP2 ADD DUP3 SWAP1 SSTORE PUSH1 0xB DUP2 ADD DUP3 SWAP1 SSTORE PUSH1 0xC DUP2 ADD DUP3 SWAP1 SSTORE PUSH1 0xD DUP2 ADD DUP3 SWAP1 SSTORE PUSH1 0xE ADD SSTORE POP PUSH2 0x36F2 SWAP2 POP POP JUMP JUMPDEST DUP1 PUSH2 0x3CE0 DUP2 PUSH2 0x589D JUMP JUMPDEST SWAP2 POP POP PUSH2 0x3AED JUMP JUMPDEST POP POP POP POP POP JUMP JUMPDEST PUSH1 0x18 SLOAD PUSH1 0x1 PUSH1 0x1 PUSH1 0xA0 SHL SUB AND CALLER EQ PUSH2 0x3D06 JUMPI PUSH1 0x0 DUP1 REVERT JUMPDEST PUSH1 0x1 PUSH1 0x1 PUSH1 0xA0 SHL SUB DUP2 AND PUSH2 0x3D19 JUMPI PUSH1 0x0 DUP1 REVERT JUMPDEST PUSH1 0x18 DUP1 SLOAD PUSH1 0x1 PUSH1 0x1 PUSH1 0xA0 SHL SUB NOT AND PUSH1 0x1 PUSH1 0x1 PUSH1 0xA0 SHL SUB DUP4 AND SWAP1 DUP2 OR SWAP1 SWAP2 SSTORE PUSH1 0x40 DUP1 MLOAD DUP2 DUP2 MSTORE PUSH1 0x3 SWAP2 DUP2 ADD SWAP2 SWAP1 SWAP2 MSTORE PUSH3 0x33B7BB PUSH1 0xE9 SHL PUSH1 0x60 DUP3 ADD MSTORE PUSH1 0x20 DUP2 ADD SWAP2 SWAP1 SWAP2 MSTORE PUSH1 0x0 DUP1 MLOAD PUSH1 0x20 PUSH2 0x59A7 DUP4 CODECOPY DUP2 MLOAD SWAP2 MSTORE SWAP1 PUSH1 0x80 ADD PUSH2 0x1214 JUMP JUMPDEST CALLER PUSH1 0x0 SWAP1 DUP2 MSTORE PUSH1 0x33 PUSH1 0x20 MSTORE PUSH1 0x40 DUP2 KECCAK256 SLOAD PUSH1 0xFF AND DUP1 ISZERO PUSH2 0x3E0D JUMPI POP PUSH1 0x4 DUP1 SLOAD PUSH1 0x40 MLOAD PUSH4 0x24745215 PUSH1 0xE2 SHL DUP2 MSTORE PUSH1 0x1 PUSH1 0x1 PUSH1 0xA0 SHL SUB SWAP1 SWAP2 AND SWAP2 PUSH4 0x91D14854 SWAP2 PUSH2 0x3DCC SWAP2 PUSH1 0x0 DUP1 MLOAD PUSH1 0x20 PUSH2 0x59C7 DUP4 CODECOPY DUP2 MLOAD SWAP2 MSTORE SWAP2 CALLER SWAP2 ADD PUSH2 0x583B JUMP JUMPDEST PUSH1 0x20 PUSH1 0x40 MLOAD DUP1 DUP4 SUB DUP2 DUP7 GAS STATICCALL ISZERO DUP1 ISZERO PUSH2 0x3DE9 JUMPI RETURNDATASIZE PUSH1 0x0 DUP1 RETURNDATACOPY RETURNDATASIZE PUSH1 0x0 REVERT JUMPDEST POP POP POP POP PUSH1 0x40 MLOAD RETURNDATASIZE PUSH1 0x1F NOT PUSH1 0x1F DUP3 ADD AND DUP3 ADD DUP1 PUSH1 0x40 MSTORE POP DUP2 ADD SWAP1 PUSH2 0x3E0D SWAP2 SWAP1 PUSH2 0x5852 JUMP JUMPDEST PUSH2 0x3E16 JUMPI PUSH1 0x0 DUP1 REVERT JUMPDEST PUSH1 0x0 SLOAD PUSH1 0x40 MLOAD PUSH4 0x710F2FF PUSH1 0xE5 SHL DUP2 MSTORE PUSH1 0x4 DUP2 ADD DUP8 SWAP1 MSTORE PUSH1 0x64 SWAP2 PUSH5 0x2540BE400 SWAP2 PUSH1 0x1 PUSH1 0x1 PUSH1 0xA0 SHL SUB SWAP1 SWAP2 AND SWAP1 PUSH4 0xE21E5FE0 SWAP1 PUSH1 0x24 ADD PUSH1 0x20 PUSH1 0x40 MLOAD DUP1 DUP4 SUB DUP2 DUP7 GAS STATICCALL ISZERO DUP1 ISZERO PUSH2 0x3E69 JUMPI RETURNDATASIZE PUSH1 0x0 DUP1 RETURNDATACOPY RETURNDATASIZE PUSH1 0x0 REVERT JUMPDEST POP POP POP POP PUSH1 0x40 MLOAD RETURNDATASIZE PUSH1 0x1F NOT PUSH1 0x1F DUP3 ADD AND DUP3 ADD DUP1 PUSH1 0x40 MSTORE POP DUP2 ADD SWAP1 PUSH2 0x3E8D SWAP2 SWAP1 PUSH2 0x58B8 JUMP JUMPDEST PUSH2 0x3E97 SWAP1 DUP8 PUSH2 0x5932 JUMP JUMPDEST PUSH2 0x3EA1 SWAP2 SWAP1 PUSH2 0x5951 JUMP JUMPDEST PUSH2 0x3EAB SWAP2 SWAP1 PUSH2 0x5951 JUMP JUMPDEST SWAP1 POP DUP2 PUSH2 0x3EC0 JUMPI PUSH2 0x3EBD PUSH1 0x2 DUP3 PUSH2 0x5951 JUMP JUMPDEST SWAP1 POP JUMPDEST DUP3 ISZERO PUSH2 0x3EFC JUMPI DUP1 PUSH1 0x1D PUSH1 0x0 DUP3 DUP3 SLOAD PUSH2 0x3ED8 SWAP2 SWAP1 PUSH2 0x5885 JUMP JUMPDEST SWAP3 POP POP DUP2 SWAP1 SSTORE POP DUP1 PUSH1 0x1B PUSH1 0x0 DUP3 DUP3 SLOAD PUSH2 0x3EF1 SWAP2 SWAP1 PUSH2 0x5885 JUMP JUMPDEST SWAP1 SWAP2 SSTORE POP PUSH2 0x3F2D SWAP1 POP JUMP JUMPDEST DUP1 PUSH1 0x1C PUSH1 0x0 DUP3 DUP3 SLOAD PUSH2 0x3F0E SWAP2 SWAP1 PUSH2 0x5885 JUMP JUMPDEST SWAP3 POP POP DUP2 SWAP1 SSTORE POP DUP1 PUSH1 0x1A PUSH1 0x0 DUP3 DUP3 SLOAD PUSH2 0x3F27 SWAP2 SWAP1 PUSH2 0x5885 JUMP JUMPDEST SWAP1 SWAP2 SSTORE POP POP JUMPDEST PUSH2 0x3F38 PUSH1 0x2 DUP3 PUSH2 0x5932 JUMP JUMPDEST SWAP6 SWAP5 POP POP POP POP POP JUMP JUMPDEST PUSH1 0x18 SLOAD PUSH1 0x1 PUSH1 0x1 PUSH1 0xA0 SHL SUB AND CALLER EQ PUSH2 0x3F58 JUMPI PUSH1 0x0 DUP1 REVERT JUMPDEST PUSH1 0x4 DUP1 SLOAD PUSH1 0x19 SLOAD PUSH1 0x1A SLOAD PUSH1 0x40 MLOAD PUSH4 0x40C10F19 PUSH1 0xE0 SHL DUP2 MSTORE PUSH1 0x1 PUSH1 0x1 PUSH1 0xA0 SHL SUB SWAP3 DUP4 AND SWAP5 DUP2 ADD SWAP5 SWAP1 SWAP5 MSTORE PUSH1 0x24 DUP5 ADD MSTORE AND SWAP1 PUSH4 0x40C10F19 SWAP1 PUSH1 0x44 ADD PUSH1 0x0 PUSH1 0x40 MLOAD DUP1 DUP4 SUB DUP2 PUSH1 0x0 DUP8 DUP1 EXTCODESIZE ISZERO DUP1 ISZERO PUSH2 0x3FAB JUMPI PUSH1 0x0 DUP1 REVERT JUMPDEST POP GAS CALL ISZERO DUP1 ISZERO PUSH2 0x3FBF JUMPI RETURNDATASIZE PUSH1 0x0 DUP1 RETURNDATACOPY RETURNDATASIZE PUSH1 0x0 REVERT JUMPDEST POP POP PUSH1 0x4 DUP1 SLOAD PUSH1 0x18 SLOAD PUSH1 0x1C SLOAD PUSH1 0x40 MLOAD PUSH4 0x40C10F19 PUSH1 0xE0 SHL DUP2 MSTORE PUSH1 0x1 PUSH1 0x1 PUSH1 0xA0 SHL SUB SWAP3 DUP4 AND SWAP5 DUP2 ADD SWAP5 SWAP1 SWAP5 MSTORE PUSH1 0x24 DUP5 ADD MSTORE AND SWAP3 POP PUSH4 0x40C10F19 SWAP2 POP PUSH1 0x44 ADD PUSH1 0x0 PUSH1 0x40 MLOAD DUP1 DUP4 SUB DUP2 PUSH1 0x0 DUP8 DUP1 EXTCODESIZE ISZERO DUP1 ISZERO PUSH2 0x4016 JUMPI PUSH1 0x0 DUP1 REVERT JUMPDEST POP GAS CALL ISZERO DUP1 ISZERO PUSH2 0x402A JUMPI RETURNDATASIZE PUSH1 0x0 DUP1 RETURNDATACOPY RETURNDATASIZE PUSH1 0x0 REVERT JUMPDEST POP POP POP POP PUSH1 0x1C SLOAD PUSH1 0x1A SLOAD PUSH2 0x403E SWAP2 SWAP1 PUSH2 0x5885 JUMP JUMPDEST PUSH1 0x1F PUSH1 0x0 DUP3 DUP3 SLOAD PUSH2 0x404F SWAP2 SWAP1 PUSH2 0x5885 JUMP JUMPDEST SWAP1 SWAP2 SSTORE POP POP PUSH1 0x18 SLOAD PUSH1 0x1D SLOAD PUSH1 0x40 MLOAD PUSH4 0xA9059CBB PUSH1 0xE0 SHL DUP2 MSTORE PUSH1 0x1 PUSH1 0x1 PUSH1 0xA0 SHL SUB SWAP3 DUP4 AND PUSH1 0x4 DUP3 ADD MSTORE PUSH1 0x24 DUP2 ADD SWAP2 SWAP1 SWAP2 MSTORE PUSH32 0x0 SWAP1 SWAP2 AND SWAP1 PUSH4 0xA9059CBB SWAP1 PUSH1 0x44 ADD PUSH1 0x20 PUSH1 0x40 MLOAD DUP1 DUP4 SUB DUP2 PUSH1 0x0 DUP8 GAS CALL ISZERO DUP1 ISZERO PUSH2 0x40CC JUMPI RETURNDATASIZE PUSH1 0x0 DUP1 RETURNDATACOPY RETURNDATASIZE PUSH1 0x0 REVERT JUMPDEST POP POP POP POP PUSH1 0x40 MLOAD RETURNDATASIZE PUSH1 0x1F NOT PUSH1 0x1F DUP3 ADD AND DUP3 ADD DUP1 PUSH1 0x40 MSTORE POP DUP2 ADD SWAP1 PUSH2 0x40F0 SWAP2 SWAP1 PUSH2 0x5852 JUMP JUMPDEST POP PUSH1 0x19 SLOAD PUSH1 0x1B SLOAD PUSH1 0x40 MLOAD PUSH4 0xA9059CBB PUSH1 0xE0 SHL DUP2 MSTORE PUSH1 0x1 PUSH1 0x1 PUSH1 0xA0 SHL SUB SWAP3 DUP4 AND PUSH1 0x4 DUP3 ADD MSTORE PUSH1 0x24 DUP2 ADD SWAP2 SWAP1 SWAP2 MSTORE PUSH32 0x0 SWAP1 SWAP2 AND SWAP1 PUSH4 0xA9059CBB SWAP1 PUSH1 0x44 ADD PUSH1 0x20 PUSH1 0x40 MLOAD DUP1 DUP4 SUB DUP2 PUSH1 0x0 DUP8 GAS CALL ISZERO DUP1 ISZERO PUSH2 0x4169 JUMPI RETURNDATASIZE PUSH1 0x0 DUP1 RETURNDATACOPY RETURNDATASIZE PUSH1 0x0 REVERT JUMPDEST POP POP POP POP PUSH1 0x40 MLOAD RETURNDATASIZE PUSH1 0x1F NOT PUSH1 0x1F DUP3 ADD AND DUP3 ADD DUP1 PUSH1 0x40 MSTORE POP DUP2 ADD SWAP1 PUSH2 0x418D SWAP2 SWAP1 PUSH2 0x5852 JUMP JUMPDEST POP PUSH1 0x0 PUSH1 0x1A DUP2 SWAP1 SSTORE PUSH1 0x1C DUP2 SWAP1 SSTORE PUSH1 0x1B DUP2 SWAP1 SSTORE PUSH1 0x1D SSTORE JUMP JUMPDEST CALLER PUSH1 0x0 SWAP1 DUP2 MSTORE PUSH1 0x33 PUSH1 0x20 MSTORE PUSH1 0x40 SWAP1 KECCAK256 SLOAD PUSH1 0xFF AND DUP1 ISZERO PUSH2 0x423E JUMPI POP PUSH1 0x4 DUP1 SLOAD PUSH1 0x40 MLOAD PUSH4 0x24745215 PUSH1 0xE2 SHL DUP2 MSTORE PUSH1 0x1 PUSH1 0x1 PUSH1 0xA0 SHL SUB SWAP1 SWAP2 AND SWAP2 PUSH4 0x91D14854 SWAP2 PUSH2 0x41FD SWAP2 PUSH1 0x0 DUP1 MLOAD PUSH1 0x20 PUSH2 0x59C7 DUP4 CODECOPY DUP2 MLOAD SWAP2 MSTORE SWAP2 CALLER SWAP2 ADD PUSH2 0x583B JUMP JUMPDEST PUSH1 0x20 PUSH1 0x40 MLOAD DUP1 DUP4 SUB DUP2 DUP7 GAS STATICCALL ISZERO DUP1 ISZERO PUSH2 0x421A JUMPI RETURNDATASIZE PUSH1 0x0 DUP1 RETURNDATACOPY RETURNDATASIZE PUSH1 0x0 REVERT JUMPDEST POP POP POP POP PUSH1 0x40 MLOAD RETURNDATASIZE PUSH1 0x1F NOT PUSH1 0x1F DUP3 ADD AND DUP3 ADD DUP1 PUSH1 0x40 MSTORE POP DUP2 ADD SWAP1 PUSH2 0x423E SWAP2 SWAP1 PUSH2 0x5852 JUMP JUMPDEST PUSH2 0x4247 JUMPI PUSH1 0x0 DUP1 REVERT JUMPDEST PUSH2 0x4259 DUP2 PUSH1 0x0 ADD MLOAD DUP3 PUSH1 0x20 ADD MLOAD PUSH2 0x17BF JUMP JUMPDEST PUSH1 0x40 DUP3 ADD SWAP1 DUP2 MSTORE NUMBER PUSH2 0x160 DUP4 ADD SWAP1 DUP2 MSTORE PUSH1 0x28 DUP1 SLOAD PUSH1 0x1 DUP1 DUP3 ADD DUP4 SSTORE PUSH1 0x0 DUP4 SWAP1 MSTORE DUP6 MLOAD PUSH32 0xE16DA923A2D88192E5070F37B4571D58682C0D66212EC634D495F33DE3F77AB5 PUSH1 0xD SWAP1 SWAP4 MUL SWAP3 DUP4 ADD DUP1 SLOAD PUSH1 0x1 PUSH1 0x1 PUSH1 0xA0 SHL SUB NOT AND PUSH1 0x1 PUSH1 0x1 PUSH1 0xA0 SHL SUB SWAP1 SWAP3 AND SWAP2 SWAP1 SWAP2 OR SWAP1 SSTORE PUSH1 0x20 DUP7 ADD MLOAD PUSH32 0xE16DA923A2D88192E5070F37B4571D58682C0D66212EC634D495F33DE3F77AB6 DUP4 ADD SSTORE SWAP4 MLOAD PUSH32 0xE16DA923A2D88192E5070F37B4571D58682C0D66212EC634D495F33DE3F77AB7 DUP3 ADD SSTORE PUSH1 0x60 DUP6 ADD MLOAD PUSH32 0xE16DA923A2D88192E5070F37B4571D58682C0D66212EC634D495F33DE3F77AB8 DUP3 ADD SSTORE PUSH1 0x80 DUP6 ADD MLOAD PUSH32 0xE16DA923A2D88192E5070F37B4571D58682C0D66212EC634D495F33DE3F77AB9 DUP3 ADD SSTORE PUSH1 0xA0 DUP6 ADD MLOAD PUSH32 0xE16DA923A2D88192E5070F37B4571D58682C0D66212EC634D495F33DE3F77ABA DUP3 ADD DUP1 SLOAD PUSH1 0xFF NOT AND SWAP2 ISZERO ISZERO SWAP2 SWAP1 SWAP2 OR SWAP1 SSTORE PUSH1 0xC0 DUP6 ADD MLOAD PUSH32 0xE16DA923A2D88192E5070F37B4571D58682C0D66212EC634D495F33DE3F77ABB DUP3 ADD SSTORE PUSH1 0xE0 DUP6 ADD MLOAD PUSH32 0xE16DA923A2D88192E5070F37B4571D58682C0D66212EC634D495F33DE3F77ABC DUP3 ADD SSTORE PUSH2 0x100 DUP6 ADD MLOAD PUSH32 0xE16DA923A2D88192E5070F37B4571D58682C0D66212EC634D495F33DE3F77ABD DUP3 ADD SSTORE PUSH2 0x120 DUP6 ADD MLOAD PUSH32 0xE16DA923A2D88192E5070F37B4571D58682C0D66212EC634D495F33DE3F77ABE DUP3 ADD SSTORE PUSH2 0x140 DUP6 ADD MLOAD PUSH32 0xE16DA923A2D88192E5070F37B4571D58682C0D66212EC634D495F33DE3F77ABF DUP3 ADD SSTORE SWAP2 MLOAD PUSH32 0xE16DA923A2D88192E5070F37B4571D58682C0D66212EC634D495F33DE3F77AC0 DUP4 ADD SSTORE PUSH2 0x180 DUP5 ADD MLOAD PUSH32 0xE16DA923A2D88192E5070F37B4571D58682C0D66212EC634D495F33DE3F77AC1 SWAP1 SWAP3 ADD SWAP2 SWAP1 SWAP2 SSTORE SLOAD PUSH2 0x44C8 SWAP2 SWAP1 PUSH2 0x58D1 JUMP JUMPDEST DUP2 MLOAD PUSH1 0x1 PUSH1 0x1 PUSH1 0xA0 SHL SUB SWAP1 DUP2 AND PUSH1 0x0 SWAP1 DUP2 MSTORE PUSH1 0x26 PUSH1 0x20 SWAP1 DUP2 MSTORE PUSH1 0x40 DUP1 DUP4 KECCAK256 DUP3 DUP8 ADD DUP1 MLOAD DUP6 MSTORE SWAP1 DUP4 MSTORE DUP2 DUP5 KECCAK256 DUP3 DUP9 ADD MLOAD DUP6 MSTORE DUP4 MSTORE DUP2 DUP5 KECCAK256 SWAP6 SWAP1 SWAP6 SSTORE DUP6 MLOAD SWAP1 SWAP4 AND DUP3 MSTORE PUSH1 0x27 DUP2 MSTORE DUP3 DUP3 KECCAK256 SWAP4 MLOAD DUP3 MSTORE SWAP3 SWAP1 SWAP3 MSTORE DUP2 KECCAK256 DUP1 SLOAD SWAP2 PUSH2 0x4526 DUP4 PUSH2 0x589D JUMP JUMPDEST SWAP2 SWAP1 POP SSTORE POP POP JUMP JUMPDEST PUSH1 0x60 PUSH1 0x21 DUP1 SLOAD DUP1 PUSH1 0x20 MUL PUSH1 0x20 ADD PUSH1 0x40 MLOAD SWAP1 DUP2 ADD PUSH1 0x40 MSTORE DUP1 SWAP3 SWAP2 SWAP1 DUP2 DUP2 MSTORE PUSH1 0x20 ADD DUP3 DUP1 SLOAD DUP1 ISZERO PUSH2 0x1AFA JUMPI PUSH1 0x20 MUL DUP3 ADD SWAP2 SWAP1 PUSH1 0x0 MSTORE PUSH1 0x20 PUSH1 0x0 KECCAK256 SWAP1 JUMPDEST DUP2 SLOAD PUSH1 0x1 PUSH1 0x1 PUSH1 0xA0 SHL SUB AND DUP2 MSTORE PUSH1 0x1 SWAP1 SWAP2 ADD SWAP1 PUSH1 0x20 ADD DUP1 DUP4 GT PUSH2 0x4568 JUMPI POP POP POP POP POP SWAP1 POP SWAP1 JUMP JUMPDEST PUSH1 0x18 SLOAD PUSH1 0x1 PUSH1 0x1 PUSH1 0xA0 SHL SUB AND CALLER EQ PUSH2 0x45A6 JUMPI PUSH1 0x0 DUP1 REVERT JUMPDEST PUSH1 0x1 PUSH1 0x1 PUSH1 0xA0 SHL SUB DUP2 AND PUSH2 0x45B9 JUMPI PUSH1 0x0 DUP1 REVERT JUMPDEST PUSH1 0x19 DUP1 SLOAD PUSH1 0x1 PUSH1 0x1 PUSH1 0xA0 SHL SUB NOT AND PUSH1 0x1 PUSH1 0x1 PUSH1 0xA0 SHL SUB DUP4 AND SWAP1 DUP2 OR SWAP1 SWAP2 SSTORE PUSH1 0x40 DUP1 MLOAD DUP2 DUP2 MSTORE PUSH1 0x3 SWAP2 DUP2 ADD SWAP2 SWAP1 SWAP2 MSTORE PUSH3 0x3232BB PUSH1 0xE9 SHL PUSH1 0x60 DUP3 ADD MSTORE PUSH1 0x20 DUP2 ADD SWAP2 SWAP1 SWAP2 MSTORE PUSH1 0x0 DUP1 MLOAD PUSH1 0x20 PUSH2 0x59A7 DUP4 CODECOPY DUP2 MLOAD SWAP2 MSTORE SWAP1 PUSH1 0x80 ADD PUSH2 0x1214 JUMP JUMPDEST CALLER PUSH1 0x0 SWAP1 DUP2 MSTORE PUSH1 0x33 PUSH1 0x20 MSTORE PUSH1 0x40 SWAP1 KECCAK256 SLOAD PUSH1 0xFF AND DUP1 ISZERO PUSH2 0x46AD JUMPI POP PUSH1 0x4 DUP1 SLOAD PUSH1 0x40 MLOAD PUSH4 0x24745215 PUSH1 0xE2 SHL DUP2 MSTORE PUSH1 0x1 PUSH1 0x1 PUSH1 0xA0 SHL SUB SWAP1 SWAP2 AND SWAP2 PUSH4 0x91D14854 SWAP2 PUSH2 0x466C SWAP2 PUSH1 0x0 DUP1 MLOAD PUSH1 0x20 PUSH2 0x59C7 DUP4 CODECOPY DUP2 MLOAD SWAP2 MSTORE SWAP2 CALLER SWAP2 ADD PUSH2 0x583B JUMP JUMPDEST PUSH1 0x20 PUSH1 0x40 MLOAD DUP1 DUP4 SUB DUP2 DUP7 GAS STATICCALL ISZERO DUP1 ISZERO PUSH2 0x4689 JUMPI RETURNDATASIZE PUSH1 0x0 DUP1 RETURNDATACOPY RETURNDATASIZE PUSH1 0x0 REVERT JUMPDEST POP POP POP POP PUSH1 0x40 MLOAD RETURNDATASIZE PUSH1 0x1F NOT PUSH1 0x1F DUP3 ADD AND DUP3 ADD DUP1 PUSH1 0x40 MSTORE POP DUP2 ADD SWAP1 PUSH2 0x46AD SWAP2 SWAP1 PUSH2 0x5852 JUMP JUMPDEST PUSH2 0x46B6 JUMPI PUSH1 0x0 DUP1 REVERT JUMPDEST DUP1 MLOAD PUSH1 0x1 PUSH1 0x1 PUSH1 0xA0 SHL SUB AND PUSH1 0x0 SWAP1 DUP2 MSTORE PUSH1 0x23 PUSH1 0x20 SWAP1 DUP2 MSTORE PUSH1 0x40 DUP1 DUP4 KECCAK256 DUP3 DUP6 ADD MLOAD DUP5 MSTORE DUP3 MSTORE DUP1 DUP4 KECCAK256 DUP2 DUP6 ADD MLOAD DUP5 MSTORE SWAP1 SWAP2 MSTORE SWAP1 KECCAK256 PUSH1 0x7 DUP2 ADD SLOAD PUSH2 0x46F5 JUMPI POP POP JUMP JUMPDEST PUSH1 0x60 DUP3 ADD MLOAD PUSH1 0x3 DUP3 ADD SSTORE PUSH1 0x80 DUP3 ADD MLOAD PUSH1 0x4 DUP3 ADD SSTORE PUSH1 0xA0 DUP3 ADD MLOAD PUSH1 0x5 DUP3 ADD SSTORE PUSH1 0xE0 DUP3 ADD MLOAD PUSH1 0x7 SWAP1 SWAP2 ADD SSTORE POP JUMP JUMPDEST PUSH1 0x18 SLOAD PUSH1 0x1 PUSH1 0x1 PUSH1 0xA0 SHL SUB AND CALLER EQ PUSH2 0x4738 JUMPI PUSH1 0x0 DUP1 REVERT JUMPDEST PUSH1 0x0 DUP2 GT PUSH2 0x4745 JUMPI PUSH1 0x0 DUP1 REVERT JUMPDEST PUSH1 0xC DUP2 SWAP1 SSTORE PUSH1 0x40 DUP1 MLOAD DUP2 DUP2 MSTORE PUSH1 0x10 SWAP2 DUP2 ADD SWAP2 SWAP1 SWAP2 MSTORE PUSH16 0x36B0BC2A3930B232B9A832B92830B4B9 PUSH1 0x81 SHL PUSH1 0x60 DUP3 ADD MSTORE PUSH1 0x20 DUP2 ADD DUP3 SWAP1 MSTORE PUSH1 0x0 DUP1 MLOAD PUSH1 0x20 PUSH2 0x5987 DUP4 CODECOPY DUP2 MLOAD SWAP2 MSTORE SWAP1 PUSH1 0x80 ADD PUSH2 0x1214 JUMP JUMPDEST PUSH1 0x28 SLOAD PUSH1 0x0 SWAP1 PUSH2 0x47A4 JUMPI POP PUSH1 0x0 PUSH2 0x33D8 JUMP JUMPDEST PUSH1 0x1 PUSH1 0x1 PUSH1 0xA0 SHL SUB DUP5 AND PUSH1 0x0 SWAP1 DUP2 MSTORE PUSH1 0x26 PUSH1 0x20 SWAP1 DUP2 MSTORE PUSH1 0x40 DUP1 DUP4 KECCAK256 DUP7 DUP5 MSTORE DUP3 MSTORE DUP1 DUP4 KECCAK256 DUP6 DUP5 MSTORE SWAP1 SWAP2 MSTORE DUP2 KECCAK256 SLOAD PUSH1 0x28 DUP1 SLOAD SWAP1 SWAP2 SWAP1 DUP2 LT PUSH2 0x47E5 JUMPI PUSH2 0x47E5 PUSH2 0x57F4 JUMP JUMPDEST PUSH1 0x0 SWAP2 DUP3 MSTORE PUSH1 0x20 SWAP1 SWAP2 KECCAK256 PUSH1 0xD SWAP1 SWAP2 MUL ADD DUP1 SLOAD SWAP1 SWAP2 POP PUSH1 0x1 PUSH1 0x1 PUSH1 0xA0 SHL SUB DUP7 DUP2 AND SWAP2 AND EQ DUP1 ISZERO PUSH2 0x4817 JUMPI POP DUP4 DUP2 PUSH1 0x1 ADD SLOAD EQ JUMPDEST DUP1 ISZERO PUSH2 0x3F38 JUMPI POP PUSH1 0x2 ADD SLOAD SWAP1 SWAP2 EQ SWAP4 SWAP3 POP POP POP JUMP JUMPDEST PUSH1 0x18 SLOAD PUSH1 0x1 PUSH1 0x1 PUSH1 0xA0 SHL SUB AND CALLER EQ PUSH2 0x4843 JUMPI PUSH1 0x0 DUP1 REVERT JUMPDEST PUSH1 0x12 DUP2 DUP2 SSTORE PUSH1 0x40 DUP1 MLOAD DUP2 DUP2 MSTORE SWAP1 DUP2 ADD SWAP2 SWAP1 SWAP2 MSTORE PUSH18 0x6E66745375636365737354696D656C6F636B PUSH1 0x70 SHL PUSH1 0x60 DUP3 ADD MSTORE PUSH1 0x20 DUP2 ADD DUP3 SWAP1 MSTORE PUSH1 0x0 DUP1 MLOAD PUSH1 0x20 PUSH2 0x5987 DUP4 CODECOPY DUP2 MLOAD SWAP2 MSTORE SWAP1 PUSH1 0x80 ADD PUSH2 0x1214 JUMP JUMPDEST PUSH1 0x18 SLOAD PUSH1 0x1 PUSH1 0x1 PUSH1 0xA0 SHL SUB AND CALLER EQ PUSH2 0x48A7 JUMPI PUSH1 0x0 DUP1 REVERT JUMPDEST PUSH1 0x0 DUP3 DUP2 MSTORE PUSH1 0x30 PUSH1 0x20 MSTORE PUSH1 0x40 SWAP1 KECCAK256 DUP2 SWAP1 PUSH1 0x2 ADD SSTORE PUSH1 0x40 DUP1 MLOAD PUSH1 0x60 DUP1 DUP3 MSTORE PUSH1 0x12 SWAP1 DUP3 ADD MSTORE PUSH18 0x6D61784F70656E496E746572657374446169 PUSH1 0x70 SHL PUSH1 0x80 DUP3 ADD MSTORE PUSH1 0x20 DUP2 ADD DUP5 SWAP1 MSTORE SWAP1 DUP2 ADD DUP3 SWAP1 MSTORE PUSH32 0x957CD67EA49F3E1EE953CDD23A1BA1F11D973E842411220D5C24EF0E24E1C956 SWAP1 PUSH1 0xA0 ADD PUSH1 0x40 MLOAD DUP1 SWAP2 SUB SWAP1 LOG1 POP POP JUMP JUMPDEST PUSH1 0x2E PUSH1 0x20 MSTORE DUP2 PUSH1 0x0 MSTORE PUSH1 0x40 PUSH1 0x0 KECCAK256 DUP2 DUP2 SLOAD DUP2 LT PUSH2 0x493F JUMPI PUSH1 0x0 DUP1 REVERT JUMPDEST PUSH1 0x0 SWAP2 DUP3 MSTORE PUSH1 0x20 SWAP1 SWAP2 KECCAK256 ADD SLOAD PUSH1 0x1 PUSH1 0x1 PUSH1 0xA0 SHL SUB AND SWAP2 POP DUP3 SWAP1 POP JUMP JUMPDEST CALLER PUSH1 0x0 SWAP1 DUP2 MSTORE PUSH1 0x33 PUSH1 0x20 MSTORE PUSH1 0x40 SWAP1 KECCAK256 SLOAD PUSH1 0xFF AND DUP1 ISZERO PUSH2 0x49F5 JUMPI POP PUSH1 0x4 DUP1 SLOAD PUSH1 0x40 MLOAD PUSH4 0x24745215 PUSH1 0xE2 SHL DUP2 MSTORE PUSH1 0x1 PUSH1 0x1 PUSH1 0xA0 SHL SUB SWAP1 SWAP2 AND SWAP2 PUSH4 0x91D14854 SWAP2 PUSH2 0x49B4 SWAP2 PUSH1 0x0 DUP1 MLOAD PUSH1 0x20 PUSH2 0x59C7 DUP4 CODECOPY DUP2 MLOAD SWAP2 MSTORE SWAP2 CALLER SWAP2 ADD PUSH2 0x583B JUMP JUMPDEST PUSH1 0x20 PUSH1 0x40 MLOAD DUP1 DUP4 SUB DUP2 DUP7 GAS STATICCALL ISZERO DUP1 ISZERO PUSH2 0x49D1 JUMPI RETURNDATASIZE PUSH1 0x0 DUP1 RETURNDATACOPY RETURNDATASIZE PUSH1 0x0 REVERT JUMPDEST POP POP POP POP PUSH1 0x40 MLOAD RETURNDATASIZE PUSH1 0x1F NOT PUSH1 0x1F DUP3 ADD AND DUP3 ADD DUP1 PUSH1 0x40 MSTORE POP DUP2 ADD SWAP1 PUSH2 0x49F5 SWAP2 SWAP1 PUSH2 0x5852 JUMP JUMPDEST PUSH2 0x49FE JUMPI PUSH1 0x0 DUP1 REVERT JUMPDEST PUSH1 0x1 SLOAD PUSH1 0x40 MLOAD PUSH4 0x3104B73F PUSH1 0xE2 SHL DUP2 MSTORE PUSH1 0x4 DUP2 ADD DUP4 SWAP1 MSTORE PUSH1 0x1 PUSH1 0x1 PUSH1 0xA0 SHL SUB SWAP1 SWAP2 AND SWAP1 PUSH4 0xC412DCFC SWAP1 PUSH1 0x24 ADD PUSH1 0x0 PUSH1 0x40 MLOAD DUP1 DUP4 SUB DUP2 PUSH1 0x0 DUP8 DUP1 EXTCODESIZE ISZERO DUP1 ISZERO PUSH2 0x4A44 JUMPI PUSH1 0x0 DUP1 REVERT JUMPDEST POP GAS CALL ISZERO DUP1 ISZERO PUSH2 0x3CE8 JUMPI RETURNDATASIZE PUSH1 0x0 DUP1 RETURNDATACOPY RETURNDATASIZE PUSH1 0x0 REVERT JUMPDEST PUSH1 0x18 SLOAD PUSH1 0x1 PUSH1 0x1 PUSH1 0xA0 SHL SUB AND CALLER EQ PUSH2 0x4A6F JUMPI PUSH1 0x0 DUP1 REVERT JUMPDEST PUSH1 0x0 DUP2 GT PUSH2 0x4A7C JUMPI PUSH1 0x0 DUP1 REVERT JUMPDEST PUSH1 0xE DUP2 SWAP1 SSTORE PUSH1 0x40 DUP1 MLOAD DUP2 DUP2 MSTORE PUSH1 0x16 SWAP2 DUP2 ADD SWAP2 SWAP1 SWAP2 MSTORE PUSH22 0x6D617850656E64696E674D61726B65744F7264657273 PUSH1 0x50 SHL PUSH1 0x60 DUP3 ADD MSTORE PUSH1 0x20 DUP2 ADD DUP3 SWAP1 MSTORE PUSH1 0x0 DUP1 MLOAD PUSH1 0x20 PUSH2 0x5987 DUP4 CODECOPY DUP2 MLOAD SWAP2 MSTORE SWAP1 PUSH1 0x80 ADD PUSH2 0x1214 JUMP JUMPDEST PUSH1 0x18 SLOAD PUSH1 0x1 PUSH1 0x1 PUSH1 0xA0 SHL SUB AND CALLER EQ PUSH2 0x4AE6 JUMPI PUSH1 0x0 DUP1 REVERT JUMPDEST DUP1 CALLDATALOAD ISZERO DUP1 ISZERO SWAP1 PUSH2 0x4AFA JUMPI POP DUP1 CALLDATALOAD PUSH1 0x20 DUP3 ADD CALLDATALOAD GT JUMPDEST DUP1 ISZERO PUSH2 0x4B0D JUMPI POP PUSH1 0x20 DUP2 ADD CALLDATALOAD PUSH1 0x40 DUP3 ADD CALLDATALOAD GT JUMPDEST DUP1 ISZERO PUSH2 0x4B20 JUMPI POP PUSH1 0x40 DUP2 ADD CALLDATALOAD PUSH1 0x60 DUP3 ADD CALLDATALOAD GT JUMPDEST DUP1 ISZERO PUSH2 0x4B33 JUMPI POP PUSH1 0x60 DUP2 ADD CALLDATALOAD PUSH1 0x80 DUP3 ADD CALLDATALOAD GT JUMPDEST PUSH2 0x4B3C JUMPI PUSH1 0x0 DUP1 REVERT JUMPDEST PUSH2 0x4B49 PUSH1 0x13 DUP3 PUSH1 0x5 PUSH2 0x4E3B JUMP JUMPDEST POP PUSH32 0xDAAE5E047A75B6F38AD4E279CDEFE910FC35D5A99A91B8303BD948C0A999372A DUP2 PUSH1 0x40 MLOAD PUSH2 0x1214 SWAP2 SWAP1 PUSH2 0x5973 JUMP JUMPDEST PUSH1 0x18 SLOAD PUSH1 0x1 PUSH1 0x1 PUSH1 0xA0 SHL SUB AND CALLER EQ PUSH2 0x4B90 JUMPI PUSH1 0x0 DUP1 REVERT JUMPDEST PUSH1 0x4 DUP1 SLOAD PUSH1 0x40 MLOAD PUSH4 0x24745215 PUSH1 0xE2 SHL DUP2 MSTORE PUSH1 0x1 PUSH1 0x1 PUSH1 0xA0 SHL SUB SWAP1 SWAP2 AND SWAP2 PUSH4 0x91D14854 SWAP2 PUSH2 0x4BCF SWAP2 PUSH1 0x0 DUP1 MLOAD PUSH1 0x20 PUSH2 0x59C7 DUP4 CODECOPY DUP2 MLOAD SWAP2 MSTORE SWAP2 DUP7 SWAP2 ADD PUSH2 0x583B JUMP JUMPDEST PUSH1 0x20 PUSH1 0x40 MLOAD DUP1 DUP4 SUB DUP2 DUP7 GAS STATICCALL ISZERO DUP1 ISZERO PUSH2 0x4BEC JUMPI RETURNDATASIZE PUSH1 0x0 DUP1 RETURNDATACOPY RETURNDATASIZE PUSH1 0x0 REVERT JUMPDEST POP POP POP POP PUSH1 0x40 MLOAD RETURNDATASIZE PUSH1 0x1F NOT PUSH1 0x1F DUP3 ADD AND DUP3 ADD DUP1 PUSH1 0x40 MSTORE POP DUP2 ADD SWAP1 PUSH2 0x4C10 SWAP2 SWAP1 PUSH2 0x5852 JUMP JUMPDEST PUSH2 0x4C49 JUMPI PUSH1 0x40 MLOAD PUSH3 0x461BCD PUSH1 0xE5 SHL DUP2 MSTORE PUSH1 0x20 PUSH1 0x4 DUP3 ADD MSTORE PUSH1 0xA PUSH1 0x24 DUP3 ADD MSTORE PUSH10 0x2727AA2FA6A4A72A22A9 PUSH1 0xB1 SHL PUSH1 0x44 DUP3 ADD MSTORE PUSH1 0x64 ADD PUSH2 0x22B5 JUMP JUMPDEST PUSH1 0x1 PUSH1 0x1 PUSH1 0xA0 SHL SUB DUP2 AND PUSH2 0x4C5C JUMPI PUSH1 0x0 DUP1 REVERT JUMPDEST PUSH1 0x1 PUSH1 0x1 PUSH1 0xA0 SHL SUB DUP2 AND PUSH1 0x0 DUP2 DUP2 MSTORE PUSH1 0x33 PUSH1 0x20 SWAP1 DUP2 MSTORE PUSH1 0x40 SWAP2 DUP3 SWAP1 KECCAK256 DUP1 SLOAD PUSH1 0xFF NOT AND PUSH1 0x1 OR SWAP1 SSTORE SWAP1 MLOAD SWAP2 DUP3 MSTORE PUSH32 0xB692FA98CBEC9BD705572B4C7E0927E3F7698E9FE526DCEF6F40F3D4D4980CA3 SWAP2 ADD PUSH2 0x1214 JUMP JUMPDEST PUSH1 0x18 SLOAD PUSH1 0x1 PUSH1 0x1 PUSH1 0xA0 SHL SUB AND CALLER EQ PUSH2 0x4CC7 JUMPI PUSH1 0x0 DUP1 REVERT JUMPDEST PUSH1 0x1 PUSH1 0x1 PUSH1 0xA0 SHL SUB DUP2 AND PUSH2 0x4CDA JUMPI PUSH1 0x0 DUP1 REVERT JUMPDEST PUSH1 0x3 DUP1 SLOAD PUSH1 0x1 PUSH1 0x1 PUSH1 0xA0 SHL SUB NOT AND PUSH1 0x1 PUSH1 0x1 PUSH1 0xA0 SHL SUB DUP4 AND SWAP1 DUP2 OR SWAP1 SWAP2 SSTORE PUSH1 0x40 DUP1 MLOAD DUP2 DUP2 MSTORE PUSH1 0x9 SWAP2 DUP2 ADD SWAP2 SWAP1 SWAP2 MSTORE PUSH9 0x63616C6C6261636B73 PUSH1 0xB8 SHL PUSH1 0x60 DUP3 ADD MSTORE PUSH1 0x20 DUP2 ADD SWAP2 SWAP1 SWAP2 MSTORE PUSH1 0x0 DUP1 MLOAD PUSH1 0x20 PUSH2 0x59A7 DUP4 CODECOPY DUP2 MLOAD SWAP2 MSTORE SWAP1 PUSH1 0x80 ADD PUSH2 0x1214 JUMP JUMPDEST PUSH1 0x0 DUP2 PUSH2 0x4D48 JUMPI PUSH1 0x1 PUSH2 0x4D4B JUMP JUMPDEST PUSH1 0x0 JUMPDEST PUSH1 0x0 DUP7 DUP2 MSTORE PUSH1 0x30 PUSH1 0x20 MSTORE PUSH1 0x40 SWAP1 KECCAK256 PUSH1 0xFF SWAP2 SWAP1 SWAP2 AND SWAP2 POP DUP4 PUSH2 0x4D8A JUMPI DUP5 DUP2 DUP4 PUSH1 0x3 DUP2 LT PUSH2 0x4D79 JUMPI PUSH2 0x4D79 PUSH2 0x57F4 JUMP JUMPDEST ADD SLOAD PUSH2 0x4D85 SWAP2 SWAP1 PUSH2 0x58D1 JUMP JUMPDEST PUSH2 0x4DA9 JUMP JUMPDEST DUP5 DUP2 DUP4 PUSH1 0x3 DUP2 LT PUSH2 0x4D9D JUMPI PUSH2 0x4D9D PUSH2 0x57F4 JUMP JUMPDEST ADD SLOAD PUSH2 0x4DA9 SWAP2 SWAP1 PUSH2 0x5885 JUMP JUMPDEST DUP2 DUP4 PUSH1 0x3 DUP2 LT PUSH2 0x4DBB JUMPI PUSH2 0x4DBB PUSH2 0x57F4 JUMP JUMPDEST ADD SSTORE POP POP POP POP POP POP JUMP JUMPDEST DUP3 PUSH1 0x5 DUP2 ADD SWAP3 DUP3 ISZERO PUSH2 0x4E0D JUMPI SWAP2 PUSH1 0x20 MUL DUP3 ADD JUMPDEST DUP3 DUP2 GT ISZERO PUSH2 0x4E0D JUMPI DUP3 MLOAD DUP3 SLOAD PUSH1 0x1 PUSH1 0x1 PUSH1 0xA0 SHL SUB NOT AND PUSH1 0x1 PUSH1 0x1 PUSH1 0xA0 SHL SUB SWAP1 SWAP2 AND OR DUP3 SSTORE PUSH1 0x20 SWAP1 SWAP3 ADD SWAP2 PUSH1 0x1 SWAP1 SWAP2 ADD SWAP1 PUSH2 0x4DD8 JUMP JUMPDEST POP PUSH2 0x4E19 SWAP3 SWAP2 POP PUSH2 0x4E69 JUMP JUMPDEST POP SWAP1 JUMP JUMPDEST PUSH1 0x40 MLOAD DUP1 PUSH1 0xA0 ADD PUSH1 0x40 MSTORE DUP1 PUSH1 0x5 SWAP1 PUSH1 0x20 DUP3 MUL DUP1 CALLDATASIZE DUP4 CALLDATACOPY POP SWAP2 SWAP3 SWAP2 POP POP JUMP JUMPDEST DUP3 PUSH1 0x5 DUP2 ADD SWAP3 DUP3 ISZERO PUSH2 0x4E0D JUMPI SWAP2 PUSH1 0x20 MUL DUP3 ADD JUMPDEST DUP3 DUP2 GT ISZERO PUSH2 0x4E0D JUMPI DUP3 CALLDATALOAD DUP3 SSTORE SWAP2 PUSH1 0x20 ADD SWAP2 SWAP1 PUSH1 0x1 ADD SWAP1 PUSH2 0x4E4E JUMP JUMPDEST JUMPDEST DUP1 DUP3 GT ISZERO PUSH2 0x4E19 JUMPI PUSH1 0x0 DUP2 SSTORE PUSH1 0x1 ADD PUSH2 0x4E6A JUMP JUMPDEST PUSH4 0x4E487B71 PUSH1 0xE0 SHL PUSH1 0x0 MSTORE PUSH1 0x41 PUSH1 0x4 MSTORE PUSH1 0x24 PUSH1 0x0 REVERT JUMPDEST PUSH1 0x40 MLOAD PUSH1 0xC0 DUP2 ADD PUSH8 0xFFFFFFFFFFFFFFFF DUP2 GT DUP3 DUP3 LT OR ISZERO PUSH2 0x4EB7 JUMPI PUSH2 0x4EB7 PUSH2 0x4E7E JUMP JUMPDEST PUSH1 0x40 MSTORE SWAP1 JUMP JUMPDEST PUSH1 0x40 MLOAD PUSH2 0x140 DUP2 ADD PUSH8 0xFFFFFFFFFFFFFFFF DUP2 GT DUP3 DUP3 LT OR ISZERO PUSH2 0x4EB7 JUMPI PUSH2 0x4EB7 PUSH2 0x4E7E JUMP JUMPDEST PUSH1 0x40 MLOAD PUSH2 0x1A0 DUP2 ADD PUSH8 0xFFFFFFFFFFFFFFFF DUP2 GT DUP3 DUP3 LT OR ISZERO PUSH2 0x4EB7 JUMPI PUSH2 0x4EB7 PUSH2 0x4E7E JUMP JUMPDEST PUSH1 0x1 PUSH1 0x1 PUSH1 0xA0 SHL SUB DUP2 AND DUP2 EQ PUSH2 0x3258 JUMPI PUSH1 0x0 DUP1 REVERT JUMPDEST PUSH1 0x0 PUSH1 0xA0 DUP3 DUP5 SUB SLT ISZERO PUSH2 0x4F2C JUMPI PUSH1 0x0 DUP1 REVERT JUMPDEST DUP3 PUSH1 0x1F DUP4 ADD SLT PUSH2 0x4F3B JUMPI PUSH1 0x0 DUP1 REVERT JUMPDEST PUSH1 0x40 MLOAD PUSH1 0xA0 DUP2 ADD DUP2 DUP2 LT PUSH8 0xFFFFFFFFFFFFFFFF DUP3 GT OR ISZERO PUSH2 0x4F5E JUMPI PUSH2 0x4F5E PUSH2 0x4E7E JUMP JUMPDEST PUSH1 0x40 MSTORE DUP1 PUSH1 0xA0 DUP5 ADD DUP6 DUP2 GT ISZERO PUSH2 0x4F73 JUMPI PUSH1 0x0 DUP1 REVERT JUMPDEST DUP5 JUMPDEST DUP2 DUP2 LT ISZERO PUSH2 0x4F96 JUMPI DUP1 CALLDATALOAD PUSH2 0x4F88 DUP2 PUSH2 0x4F05 JUMP JUMPDEST DUP4 MSTORE PUSH1 0x20 SWAP3 DUP4 ADD SWAP3 ADD PUSH2 0x4F75 JUMP JUMPDEST POP SWAP2 SWAP6 SWAP5 POP POP POP POP POP JUMP JUMPDEST PUSH1 0x0 PUSH1 0x20 DUP3 DUP5 SUB SLT ISZERO PUSH2 0x4FB3 JUMPI PUSH1 0x0 DUP1 REVERT JUMPDEST POP CALLDATALOAD SWAP2 SWAP1 POP JUMP JUMPDEST DUP1 CALLDATALOAD PUSH2 0x4FC5 DUP2 PUSH2 0x4F05 JUMP JUMPDEST SWAP2 SWAP1 POP JUMP JUMPDEST PUSH1 0x0 DUP1 PUSH1 0x40 DUP4 DUP6 SUB SLT ISZERO PUSH2 0x4FDD JUMPI PUSH1 0x0 DUP1 REVERT JUMPDEST DUP3 CALLDATALOAD PUSH2 0x4FE8 DUP2 PUSH2 0x4F05 JUMP JUMPDEST SWAP5 PUSH1 0x20 SWAP4 SWAP1 SWAP4 ADD CALLDATALOAD SWAP4 POP POP POP JUMP JUMPDEST PUSH1 0x0 DUP1 PUSH1 0x40 DUP4 DUP6 SUB SLT ISZERO PUSH2 0x5009 JUMPI PUSH1 0x0 DUP1 REVERT JUMPDEST POP POP DUP1 CALLDATALOAD SWAP3 PUSH1 0x20 SWAP1 SWAP2 ADD CALLDATALOAD SWAP2 POP JUMP JUMPDEST PUSH1 0x0 PUSH1 0x20 DUP3 DUP5 SUB SLT ISZERO PUSH2 0x502A JUMPI PUSH1 0x0 DUP1 REVERT JUMPDEST DUP2 CALLDATALOAD PUSH2 0x33D8 DUP2 PUSH2 0x4F05 JUMP JUMPDEST DUP1 ISZERO ISZERO DUP2 EQ PUSH2 0x3258 JUMPI PUSH1 0x0 DUP1 REVERT JUMPDEST DUP1 CALLDATALOAD PUSH2 0x4FC5 DUP2 PUSH2 0x5035 JUMP JUMPDEST PUSH1 0x0 DUP1 PUSH1 0x0 PUSH1 0x60 DUP5 DUP7 SUB SLT ISZERO PUSH2 0x5063 JUMPI PUSH1 0x0 DUP1 REVERT JUMPDEST DUP4 CALLDATALOAD PUSH2 0x506E DUP2 PUSH2 0x4F05 JUMP JUMPDEST SWAP3 POP PUSH1 0x20 DUP5 ADD CALLDATALOAD SWAP2 POP PUSH1 0x40 DUP5 ADD CALLDATALOAD PUSH2 0x5085 DUP2 PUSH2 0x5035 JUMP JUMPDEST DUP1 SWAP2 POP POP SWAP3 POP SWAP3 POP SWAP3 JUMP JUMPDEST PUSH1 0xA0 DUP2 ADD DUP2 DUP4 PUSH1 0x0 JUMPDEST PUSH1 0x5 DUP2 LT ISZERO PUSH2 0x50B8 JUMPI DUP2 MLOAD DUP4 MSTORE PUSH1 0x20 SWAP3 DUP4 ADD SWAP3 SWAP1 SWAP2 ADD SWAP1 PUSH1 0x1 ADD PUSH2 0x5099 JUMP JUMPDEST POP POP POP SWAP3 SWAP2 POP POP JUMP JUMPDEST PUSH1 0x20 DUP1 DUP3 MSTORE DUP3 MLOAD DUP3 DUP3 ADD DUP2 SWAP1 MSTORE PUSH1 0x0 SWAP2 SWAP1 DUP5 DUP3 ADD SWAP1 PUSH1 0x40 DUP6 ADD SWAP1 DUP5 JUMPDEST DUP2 DUP2 LT ISZERO PUSH2 0x50F9 JUMPI DUP4 MLOAD DUP4 MSTORE SWAP3 DUP5 ADD SWAP3 SWAP2 DUP5 ADD SWAP2 PUSH1 0x1 ADD PUSH2 0x50DD JUMP JUMPDEST POP SWAP1 SWAP7 SWAP6 POP POP POP POP POP POP JUMP JUMPDEST PUSH1 0x20 DUP1 DUP3 MSTORE DUP3 MLOAD DUP3 DUP3 ADD DUP2 SWAP1 MSTORE PUSH1 0x0 SWAP2 SWAP1 DUP5 DUP3 ADD SWAP1 PUSH1 0x40 DUP6 ADD SWAP1 DUP5 JUMPDEST DUP2 DUP2 LT ISZERO PUSH2 0x50F9 JUMPI DUP4 MLOAD PUSH1 0x1 PUSH1 0x1 PUSH1 0xA0 SHL SUB AND DUP4 MSTORE SWAP3 DUP5 ADD SWAP3 SWAP2 DUP5 ADD SWAP2 PUSH1 0x1 ADD PUSH2 0x5121 JUMP JUMPDEST PUSH1 0x0 DUP1 PUSH1 0x0 PUSH1 0x60 DUP5 DUP7 SUB SLT ISZERO PUSH2 0x515B JUMPI PUSH1 0x0 DUP1 REVERT JUMPDEST DUP4 CALLDATALOAD PUSH2 0x5166 DUP2 PUSH2 0x4F05 JUMP JUMPDEST SWAP6 PUSH1 0x20 DUP6 ADD CALLDATALOAD SWAP6 POP PUSH1 0x40 SWAP1 SWAP5 ADD CALLDATALOAD SWAP4 SWAP3 POP POP POP JUMP JUMPDEST PUSH1 0x0 DUP1 PUSH1 0x0 PUSH1 0x60 DUP5 DUP7 SUB SLT ISZERO PUSH2 0x5190 JUMPI PUSH1 0x0 DUP1 REVERT JUMPDEST DUP4 CALLDATALOAD PUSH2 0x519B DUP2 PUSH2 0x4F05 JUMP JUMPDEST SWAP3 POP PUSH1 0x20 DUP5 ADD CALLDATALOAD PUSH2 0x51AB DUP2 PUSH2 0x4F05 JUMP JUMPDEST SWAP3 SWAP6 SWAP3 SWAP5 POP POP POP PUSH1 0x40 SWAP2 SWAP1 SWAP2 ADD CALLDATALOAD SWAP1 JUMP JUMPDEST PUSH1 0x0 DUP1 PUSH1 0x0 DUP1 PUSH1 0x80 DUP6 DUP8 SUB SLT ISZERO PUSH2 0x51D2 JUMPI PUSH1 0x0 DUP1 REVERT JUMPDEST DUP5 CALLDATALOAD PUSH2 0x51DD DUP2 PUSH2 0x4F05 JUMP JUMPDEST SWAP7 PUSH1 0x20 DUP7 ADD CALLDATALOAD SWAP7 POP PUSH1 0x40 DUP7 ADD CALLDATALOAD SWAP6 PUSH1 0x60 ADD CALLDATALOAD SWAP5 POP SWAP3 POP POP POP JUMP JUMPDEST PUSH1 0x0 DUP1 DUP3 DUP5 SUB PUSH1 0xE0 DUP2 SLT ISZERO PUSH2 0x520B JUMPI PUSH1 0x0 DUP1 REVERT JUMPDEST PUSH1 0xC0 DUP2 SLT ISZERO PUSH2 0x5219 JUMPI PUSH1 0x0 DUP1 REVERT JUMPDEST POP PUSH2 0x5222 PUSH2 0x4E94 JUMP JUMPDEST DUP4 CALLDATALOAD PUSH2 0x522D DUP2 PUSH2 0x4F05 JUMP JUMPDEST DUP2 MSTORE PUSH1 0x20 DUP5 DUP2 ADD CALLDATALOAD SWAP1 DUP3 ADD MSTORE PUSH1 0x40 DUP5 ADD CALLDATALOAD PUSH2 0x5247 DUP2 PUSH2 0x4F05 JUMP JUMPDEST DUP1 PUSH1 0x40 DUP4 ADD MSTORE POP PUSH1 0x60 DUP5 ADD CALLDATALOAD PUSH1 0x60 DUP3 ADD MSTORE PUSH1 0x80 DUP5 ADD CALLDATALOAD PUSH1 0x80 DUP3 ADD MSTORE PUSH1 0xA0 DUP5 ADD CALLDATALOAD PUSH1 0x4 DUP2 LT PUSH2 0x5274 JUMPI PUSH1 0x0 DUP1 REVERT JUMPDEST PUSH1 0xA0 DUP3 ADD MSTORE SWAP5 PUSH1 0xC0 SWAP4 SWAP1 SWAP4 ADD CALLDATALOAD SWAP4 POP POP POP JUMP JUMPDEST DUP1 MLOAD PUSH1 0x1 PUSH1 0x1 PUSH1 0xA0 SHL SUB AND DUP3 MSTORE PUSH1 0x20 DUP2 ADD MLOAD PUSH1 0x20 DUP4 ADD MSTORE PUSH1 0x40 DUP2 ADD MLOAD PUSH1 0x40 DUP4 ADD MSTORE PUSH1 0x60 DUP2 ADD MLOAD PUSH1 0x60 DUP4 ADD MSTORE PUSH1 0x80 DUP2 ADD MLOAD PUSH1 0x80 DUP4 ADD MSTORE PUSH1 0xA0 DUP2 ADD MLOAD PUSH2 0x52CF PUSH1 0xA0 DUP5 ADD DUP3 ISZERO ISZERO SWAP1 MSTORE JUMP JUMPDEST POP PUSH1 0xC0 DUP2 DUP2 ADD MLOAD SWAP1 DUP4 ADD MSTORE PUSH1 0xE0 DUP1 DUP3 ADD MLOAD SWAP1 DUP4 ADD MSTORE PUSH2 0x100 DUP1 DUP3 ADD MLOAD SWAP1 DUP4 ADD MSTORE PUSH2 0x120 DUP1 DUP3 ADD MLOAD SWAP1 DUP4 ADD MSTORE PUSH2 0x140 DUP1 DUP3 ADD MLOAD SWAP1 DUP4 ADD MSTORE PUSH2 0x160 DUP1 DUP3 ADD MLOAD SWAP1 DUP4 ADD MSTORE PUSH2 0x180 SWAP1 DUP2 ADD MLOAD SWAP2 ADD MSTORE JUMP JUMPDEST PUSH1 0x20 DUP1 DUP3 MSTORE DUP3 MLOAD DUP3 DUP3 ADD DUP2 SWAP1 MSTORE PUSH1 0x0 SWAP2 SWAP1 DUP5 DUP3 ADD SWAP1 PUSH1 0x40 DUP6 ADD SWAP1 DUP5 JUMPDEST DUP2 DUP2 LT ISZERO PUSH2 0x50F9 JUMPI PUSH2 0x534B DUP4 DUP6 MLOAD PUSH2 0x5287 JUMP JUMPDEST SWAP3 DUP5 ADD SWAP3 PUSH2 0x1A0 SWAP3 SWAP1 SWAP3 ADD SWAP2 PUSH1 0x1 ADD PUSH2 0x5338 JUMP JUMPDEST PUSH4 0x4E487B71 PUSH1 0xE0 SHL PUSH1 0x0 MSTORE PUSH1 0x21 PUSH1 0x4 MSTORE PUSH1 0x24 PUSH1 0x0 REVERT JUMPDEST PUSH1 0x1 PUSH1 0x1 PUSH1 0xA0 SHL SUB DUP8 DUP2 AND DUP3 MSTORE PUSH1 0x20 DUP3 ADD DUP8 SWAP1 MSTORE DUP6 AND PUSH1 0x40 DUP3 ADD MSTORE PUSH1 0x60 DUP2 ADD DUP5 SWAP1 MSTORE PUSH1 0x80 DUP2 ADD DUP4 SWAP1 MSTORE PUSH1 0xC0 DUP2 ADD PUSH1 0x4 DUP4 LT PUSH2 0x53C0 JUMPI PUSH4 0x4E487B71 PUSH1 0xE0 SHL PUSH1 0x0 MSTORE PUSH1 0x21 PUSH1 0x4 MSTORE PUSH1 0x24 PUSH1 0x0 REVERT JUMPDEST DUP3 PUSH1 0xA0 DUP4 ADD MSTORE SWAP8 SWAP7 POP POP POP POP POP POP POP JUMP JUMPDEST PUSH1 0x0 DUP1 PUSH1 0x40 DUP4 DUP6 SUB SLT ISZERO PUSH2 0x53E4 JUMPI PUSH1 0x0 DUP1 REVERT JUMPDEST DUP3 CALLDATALOAD PUSH2 0x53EF DUP2 PUSH2 0x4F05 JUMP JUMPDEST SWAP2 POP PUSH1 0x20 DUP4 ADD CALLDATALOAD PUSH2 0x53FF DUP2 PUSH2 0x4F05 JUMP JUMPDEST DUP1 SWAP2 POP POP SWAP3 POP SWAP3 SWAP1 POP JUMP JUMPDEST DUP7 MLOAD PUSH1 0x1 PUSH1 0x1 PUSH1 0xA0 SHL SUB AND DUP2 MSTORE PUSH2 0x1E0 DUP2 ADD PUSH1 0x20 DUP9 ADD MLOAD PUSH1 0x20 DUP4 ADD MSTORE PUSH1 0x40 DUP9 ADD MLOAD PUSH1 0x40 DUP4 ADD MSTORE PUSH1 0x60 DUP9 ADD MLOAD PUSH1 0x60 DUP4 ADD MSTORE PUSH1 0x80 DUP9 ADD MLOAD PUSH1 0x80 DUP4 ADD MSTORE PUSH1 0xA0 DUP9 ADD MLOAD PUSH1 0xA0 DUP4 ADD MSTORE PUSH1 0xC0 DUP9 ADD MLOAD PUSH2 0x5461 PUSH1 0xC0 DUP5 ADD DUP3 ISZERO ISZERO SWAP1 MSTORE JUMP JUMPDEST POP PUSH1 0xE0 DUP9 DUP2 ADD MLOAD SWAP1 DUP4 ADD MSTORE PUSH2 0x100 DUP1 DUP10 ADD MLOAD SWAP1 DUP4 ADD MSTORE PUSH2 0x120 SWAP8 DUP9 ADD MLOAD SWAP8 DUP3 ADD SWAP8 SWAP1 SWAP8 MSTORE PUSH2 0x140 DUP2 ADD SWAP6 SWAP1 SWAP6 MSTORE PUSH2 0x160 DUP6 ADD SWAP4 SWAP1 SWAP4 MSTORE PUSH2 0x180 DUP5 ADD SWAP2 SWAP1 SWAP2 MSTORE PUSH2 0x1A0 DUP4 ADD MSTORE PUSH2 0x1C0 SWAP1 SWAP2 ADD MSTORE SWAP1 JUMP JUMPDEST PUSH1 0x0 PUSH2 0x1A0 DUP3 DUP5 SUB SLT ISZERO PUSH2 0x54C3 JUMPI PUSH1 0x0 DUP1 REVERT JUMPDEST POP SWAP2 SWAP1 POP JUMP JUMPDEST PUSH2 0x1A0 DUP2 ADD PUSH2 0x54D8 DUP3 DUP5 PUSH2 0x5287 JUMP JUMPDEST SWAP3 SWAP2 POP POP JUMP JUMPDEST PUSH1 0x0 PUSH2 0x140 DUP3 DUP5 SUB SLT ISZERO PUSH2 0x54F1 JUMPI PUSH1 0x0 DUP1 REVERT JUMPDEST PUSH2 0x54F9 PUSH2 0x4EBD JUMP JUMPDEST SWAP1 POP PUSH2 0x5504 DUP3 PUSH2 0x4FBA JUMP JUMPDEST DUP2 MSTORE PUSH1 0x20 DUP3 ADD CALLDATALOAD PUSH1 0x20 DUP3 ADD MSTORE PUSH1 0x40 DUP3 ADD CALLDATALOAD PUSH1 0x40 DUP3 ADD MSTORE PUSH1 0x60 DUP3 ADD CALLDATALOAD PUSH1 0x60 DUP3 ADD MSTORE PUSH1 0x80 DUP3 ADD CALLDATALOAD PUSH1 0x80 DUP3 ADD MSTORE PUSH1 0xA0 DUP3 ADD CALLDATALOAD PUSH1 0xA0 DUP3 ADD MSTORE PUSH2 0x5544 PUSH1 0xC0 DUP4 ADD PUSH2 0x5043 JUMP JUMPDEST PUSH1 0xC0 DUP3 ADD MSTORE PUSH1 0xE0 DUP3 ADD CALLDATALOAD PUSH1 0xE0 DUP3 ADD MSTORE PUSH2 0x100 DUP1 DUP4 ADD CALLDATALOAD DUP2 DUP4 ADD MSTORE POP PUSH2 0x120 DUP1 DUP4 ADD CALLDATALOAD DUP2 DUP4 ADD MSTORE POP SWAP3 SWAP2 POP POP JUMP JUMPDEST PUSH1 0x0 DUP1 DUP3 DUP5 SUB PUSH2 0x200 DUP2 SLT ISZERO PUSH2 0x5586 JUMPI PUSH1 0x0 DUP1 REVERT JUMPDEST PUSH2 0x5590 DUP6 DUP6 PUSH2 0x54DE JUMP JUMPDEST SWAP3 POP PUSH1 0xC0 PUSH2 0x13F NOT DUP3 ADD SLT ISZERO PUSH2 0x55A5 JUMPI PUSH1 0x0 DUP1 REVERT JUMPDEST POP PUSH2 0x55AE PUSH2 0x4E94 JUMP JUMPDEST PUSH2 0x140 DUP5 ADD CALLDATALOAD DUP2 MSTORE PUSH2 0x160 DUP5 ADD CALLDATALOAD PUSH1 0x20 DUP3 ADD MSTORE PUSH2 0x180 DUP5 ADD CALLDATALOAD PUSH1 0x40 DUP3 ADD MSTORE PUSH2 0x1A0 DUP5 ADD CALLDATALOAD PUSH1 0x60 DUP3 ADD MSTORE PUSH2 0x1C0 DUP5 ADD CALLDATALOAD PUSH1 0x80 DUP3 ADD MSTORE PUSH2 0x1E0 DUP5 ADD CALLDATALOAD PUSH2 0x55F1 DUP2 PUSH2 0x5035 JUMP JUMPDEST PUSH1 0xA0 DUP3 ADD MSTORE SWAP2 SWAP5 SWAP2 SWAP4 POP SWAP1 SWAP2 POP POP JUMP JUMPDEST PUSH1 0x0 DUP1 PUSH1 0x0 DUP4 DUP6 SUB PUSH2 0x220 DUP2 SLT ISZERO PUSH2 0x5618 JUMPI PUSH1 0x0 DUP1 REVERT JUMPDEST PUSH2 0x1E0 DUP1 DUP3 SLT ISZERO PUSH2 0x5628 JUMPI PUSH1 0x0 DUP1 REVERT JUMPDEST PUSH2 0x5630 PUSH2 0x4E94 JUMP JUMPDEST SWAP2 POP PUSH2 0x563C DUP8 DUP8 PUSH2 0x54DE JUMP JUMPDEST DUP3 MSTORE PUSH2 0x140 DUP7 ADD CALLDATALOAD PUSH1 0x20 DUP4 ADD MSTORE PUSH2 0x160 DUP7 ADD CALLDATALOAD PUSH1 0x40 DUP4 ADD MSTORE PUSH2 0x180 DUP7 ADD CALLDATALOAD PUSH1 0x60 DUP4 ADD MSTORE PUSH2 0x1A0 DUP7 ADD CALLDATALOAD PUSH1 0x80 DUP4 ADD MSTORE PUSH2 0x1C0 DUP7 ADD CALLDATALOAD PUSH1 0xA0 DUP4 ADD MSTORE SWAP1 SWAP4 POP DUP5 ADD CALLDATALOAD SWAP2 POP PUSH2 0x568A PUSH2 0x200 DUP6 ADD PUSH2 0x5043 JUMP JUMPDEST SWAP1 POP SWAP3 POP SWAP3 POP SWAP3 JUMP JUMPDEST PUSH1 0x0 DUP1 PUSH1 0x40 DUP4 DUP6 SUB SLT ISZERO PUSH2 0x56A6 JUMPI PUSH1 0x0 DUP1 REVERT JUMPDEST DUP3 CALLDATALOAD SWAP2 POP PUSH1 0x20 DUP4 ADD CALLDATALOAD PUSH2 0x53FF DUP2 PUSH2 0x5035 JUMP JUMPDEST PUSH1 0x0 DUP1 PUSH1 0x0 DUP1 PUSH1 0x80 DUP6 DUP8 SUB SLT ISZERO PUSH2 0x56CE JUMPI PUSH1 0x0 DUP1 REVERT JUMPDEST DUP5 CALLDATALOAD SWAP4 POP PUSH1 0x20 DUP6 ADD CALLDATALOAD SWAP3 POP PUSH1 0x40 DUP6 ADD CALLDATALOAD PUSH2 0x56E7 DUP2 PUSH2 0x5035 JUMP JUMPDEST SWAP2 POP PUSH1 0x60 DUP6 ADD CALLDATALOAD PUSH2 0x56F7 DUP2 PUSH2 0x5035 JUMP JUMPDEST SWAP4 SWAP7 SWAP3 SWAP6 POP SWAP1 SWAP4 POP POP JUMP JUMPDEST PUSH1 0x0 PUSH2 0x1A0 DUP3 DUP5 SUB SLT ISZERO PUSH2 0x5715 JUMPI PUSH1 0x0 DUP1 REVERT JUMPDEST PUSH2 0x571D PUSH2 0x4EE1 JUMP JUMPDEST PUSH2 0x5726 DUP4 PUSH2 0x4FBA JUMP JUMPDEST DUP2 MSTORE PUSH1 0x20 DUP4 ADD CALLDATALOAD PUSH1 0x20 DUP3 ADD MSTORE PUSH1 0x40 DUP4 ADD CALLDATALOAD PUSH1 0x40 DUP3 ADD MSTORE PUSH1 0x60 DUP4 ADD CALLDATALOAD PUSH1 0x60 DUP3 ADD MSTORE PUSH1 0x80 DUP4 ADD CALLDATALOAD PUSH1 0x80 DUP3 ADD MSTORE PUSH2 0x575C PUSH1 0xA0 DUP5 ADD PUSH2 0x5043 JUMP JUMPDEST PUSH1 0xA0 DUP3 ADD MSTORE PUSH1 0xC0 DUP4 DUP2 ADD CALLDATALOAD SWAP1 DUP3 ADD MSTORE PUSH1 0xE0 DUP1 DUP5 ADD CALLDATALOAD SWAP1 DUP3 ADD MSTORE PUSH2 0x100 DUP1 DUP5 ADD CALLDATALOAD SWAP1 DUP3 ADD MSTORE PUSH2 0x120 DUP1 DUP5 ADD CALLDATALOAD SWAP1 DUP3 ADD MSTORE PUSH2 0x140 DUP1 DUP5 ADD CALLDATALOAD SWAP1 DUP3 ADD MSTORE PUSH2 0x160 DUP1 DUP5 ADD CALLDATALOAD SWAP1 DUP3 ADD MSTORE PUSH2 0x180 SWAP3 DUP4 ADD CALLDATALOAD SWAP3 DUP2 ADD SWAP3 SWAP1 SWAP3 MSTORE POP SWAP2 SWAP1 POP JUMP JUMPDEST PUSH1 0x0 PUSH2 0x140 DUP3 DUP5 SUB SLT ISZERO PUSH2 0x57C8 JUMPI PUSH1 0x0 DUP1 REVERT JUMPDEST PUSH2 0x33D8 DUP4 DUP4 PUSH2 0x54DE JUMP JUMPDEST PUSH1 0x0 PUSH1 0xA0 DUP3 DUP5 SUB SLT ISZERO PUSH2 0x57E4 JUMPI PUSH1 0x0 DUP1 REVERT JUMPDEST DUP3 PUSH1 0xA0 DUP4 ADD GT ISZERO PUSH2 0x54C3 JUMPI PUSH1 0x0 DUP1 REVERT JUMPDEST PUSH4 0x4E487B71 PUSH1 0xE0 SHL PUSH1 0x0 MSTORE PUSH1 0x32 PUSH1 0x4 MSTORE PUSH1 0x24 PUSH1 0x0 REVERT JUMPDEST PUSH1 0xA0 DUP2 ADD DUP2 DUP4 PUSH1 0x0 JUMPDEST PUSH1 0x5 DUP2 LT ISZERO PUSH2 0x50B8 JUMPI DUP2 MLOAD PUSH1 0x1 PUSH1 0x1 PUSH1 0xA0 SHL SUB AND DUP4 MSTORE PUSH1 0x20 SWAP3 DUP4 ADD SWAP3 SWAP1 SWAP2 ADD SWAP1 PUSH1 0x1 ADD PUSH2 0x5813 JUMP JUMPDEST SWAP2 DUP3 MSTORE PUSH1 0x1 PUSH1 0x1 PUSH1 0xA0 SHL SUB AND PUSH1 0x20 DUP3 ADD MSTORE PUSH1 0x40 ADD SWAP1 JUMP JUMPDEST PUSH1 0x0 PUSH1 0x20 DUP3 DUP5 SUB SLT ISZERO PUSH2 0x5864 JUMPI PUSH1 0x0 DUP1 REVERT JUMPDEST DUP2 MLOAD PUSH2 0x33D8 DUP2 PUSH2 0x5035 JUMP JUMPDEST PUSH4 0x4E487B71 PUSH1 0xE0 SHL PUSH1 0x0 MSTORE PUSH1 0x11 PUSH1 0x4 MSTORE PUSH1 0x24 PUSH1 0x0 REVERT JUMPDEST PUSH1 0x0 DUP3 NOT DUP3 GT ISZERO PUSH2 0x5898 JUMPI PUSH2 0x5898 PUSH2 0x586F JUMP JUMPDEST POP ADD SWAP1 JUMP JUMPDEST PUSH1 0x0 PUSH1 0x0 NOT DUP3 EQ ISZERO PUSH2 0x58B1 JUMPI PUSH2 0x58B1 PUSH2 0x586F JUMP JUMPDEST POP PUSH1 0x1 ADD SWAP1 JUMP JUMPDEST PUSH1 0x0 PUSH1 0x20 DUP3 DUP5 SUB SLT ISZERO PUSH2 0x58CA JUMPI PUSH1 0x0 DUP1 REVERT JUMPDEST POP MLOAD SWAP2 SWAP1 POP JUMP JUMPDEST PUSH1 0x0 DUP3 DUP3 LT ISZERO PUSH2 0x58E3 JUMPI PUSH2 0x58E3 PUSH2 0x586F JUMP JUMPDEST POP SUB SWAP1 JUMP JUMPDEST PUSH4 0x4E487B71 PUSH1 0xE0 SHL PUSH1 0x0 MSTORE PUSH1 0x31 PUSH1 0x4 MSTORE PUSH1 0x24 PUSH1 0x0 REVERT JUMPDEST PUSH1 0x0 DUP2 PUSH2 0x590D JUMPI PUSH2 0x590D PUSH2 0x586F JUMP JUMPDEST POP PUSH1 0x0 NOT ADD SWAP1 JUMP JUMPDEST PUSH1 0x0 PUSH1 0x20 DUP3 DUP5 SUB SLT ISZERO PUSH2 0x5927 JUMPI PUSH1 0x0 DUP1 REVERT JUMPDEST DUP2 CALLDATALOAD PUSH2 0x33D8 DUP2 PUSH2 0x5035 JUMP JUMPDEST PUSH1 0x0 DUP2 PUSH1 0x0 NOT DIV DUP4 GT DUP3 ISZERO ISZERO AND ISZERO PUSH2 0x594C JUMPI PUSH2 0x594C PUSH2 0x586F JUMP JUMPDEST POP MUL SWAP1 JUMP JUMPDEST PUSH1 0x0 DUP3 PUSH2 0x596E JUMPI PUSH4 0x4E487B71 PUSH1 0xE0 SHL PUSH1 0x0 MSTORE PUSH1 0x12 PUSH1 0x4 MSTORE PUSH1 0x24 PUSH1 0x0 REVERT JUMPDEST POP DIV SWAP1 JUMP JUMPDEST PUSH1 0xA0 DUP2 DUP2 ADD SWAP1 DUP4 DUP4 CALLDATACOPY PUSH1 0x0 DUP2 MSTORE SWAP3 SWAP2 POP POP JUMP INVALID DUP13 RETURN 0xE3 0x5F PUSH3 0x21B16E AND PUSH17 0xA3413180C9484BF5AA71787905909FA82A PUSH11 0x2662E9AB943E9D45A11AAA 0xE5 0xD8 PUSH22 0x3E3BC248665D9807856E5CF2BDB4A988BEE44422781 SWAP16 0x2D CREATE INVALID 0xD2 0xC7 PUSH23 0x48DE5860A4CC508CD0818C85B8B8A1AB4CEEEF8D981C89 JUMP 0xA6 LOG2 PUSH5 0x6970667358 0x22 SLT KECCAK256 0xAC DUP9 NUMBER 0xCC 0xAC PUSH2 0xB252 0x49 0xF7 PUSH29 0xD4608C07C0290EFAB2A064A2720BBA5A18FA69E99164736F6C63430008 SIGNEXTEND STOP CALLER ",
  "sha1": "3aefb10997517254483bc30f84652898083fb8bd",
  "source": "/**\n *Submitted for verification at polygonscan.com on 2022-06-14\n*/\n\n// File: contracts\\interfaces\\TokenInterfaceV5.sol\n// SPDX-License-Identifier: MIT\n\npragma solidity 0.8.11;\n\ninterface TokenInterfaceV5{\n    function burn(address, uint256) external;\n    function mint(address, uint256) external;\n    function transfer(address, uint256) external returns (bool);\n    function transferFrom(address, address, uint256) external returns(bool);\n    function balanceOf(address) external view returns(uint256);\n    function hasRole(bytes32, address) external view returns (bool);\n    function approve(address, uint256) external returns (bool);\n    function allowance(address, address) external view returns (uint256);\n}\n\n// File: contracts\\interfaces\\AggregatorInterfaceV5.sol\n\npragma solidity 0.8.11;\n\ninterface AggregatorInterfaceV5{\n    enum OrderType { MARKET_OPEN, MARKET_CLOSE, LIMIT_OPEN, LIMIT_CLOSE }\n    function getPrice(uint,OrderType,uint) external returns(uint);\n    function tokenPriceDai() external view returns(uint);\n    function pairMinOpenLimitSlippageP(uint) external view returns(uint);\n    function closeFeeP(uint) external view returns(uint);\n    function linkFee(uint,uint) external view returns(uint);\n    function openFeeP(uint) external view returns(uint);\n    function pairMinLeverage(uint) external view returns(uint);\n    function pairMaxLeverage(uint) external view returns(uint);\n    function pairsCount() external view returns(uint);\n    function tokenDaiReservesLp() external view returns(uint, uint);\n    function referralP(uint) external view returns(uint);\n    function nftLimitOrderFeeP(uint) external view returns(uint);\n}\n\n// File: contracts\\interfaces\\PoolInterfaceV5.sol\n\npragma solidity 0.8.11;\n\ninterface PoolInterfaceV5{\n    function increaseAccTokensPerLp(uint) external;\n}\n\n// File: contracts\\interfaces\\NftInterfaceV5.sol\n\npragma solidity 0.8.11;\n\ninterface NftInterfaceV5{\n    function balanceOf(address) external view returns (uint);\n    function ownerOf(uint) external view returns (address);\n    function transferFrom(address, address, uint) external;\n    function tokenOfOwnerByIndex(address, uint) external view returns(uint);\n}\n\n// File: contracts\\interfaces\\PausableInterfaceV5.sol\n\npragma solidity 0.8.11;\n\ninterface PausableInterfaceV5{\n    function isPaused() external view returns (bool);\n}\n\n// File: contracts\\GNSTestnetTradingStorageV5.sol\n\npragma solidity 0.8.11;\n\ncontract GNSTestnetTradingStorageV5 {\n\n    // Constants\n    uint public constant PRECISION = 1e10;\n    bytes32 public constant MINTER_ROLE = 0x9f2df0fed2c77648de5860a4cc508cd0818c85b8b8a1ab4ceeef8d981c8956a6;\n    TokenInterfaceV5 public immutable dai;\n    TokenInterfaceV5 public immutable linkErc677;\n\n    // Contracts (updatable)\n    AggregatorInterfaceV5 public priceAggregator;\n    PoolInterfaceV5 public pool;\n    PausableInterfaceV5 public trading;\n    PausableInterfaceV5 public callbacks;\n    TokenInterfaceV5 public token;\n    NftInterfaceV5[5] public nfts;\n    address public vault;\n    address public tokenDaiRouter;\n\n    // Trading variables\n    uint public maxTradesPerPair = 3;\n    uint public maxTradesPerBlock = 5;\n    uint public maxPendingMarketOrders = 5;\n    uint public maxGainP = 400;                          // %\n    uint public maxSlP = 80;                             // %\n    uint public defaultLeverageUnlocked = 50;            // x\n    uint public nftSuccessTimelock = 50;                 // 50 blocks\n    uint[5] public spreadReductionsP = [15,20,25,30,35]; // %\n\n    // Gov & dev addresses (updatable)\n    address public gov = 0xec9581354f7750Bc8194E3e801f8eE1D91e2a8Ac;\n    address public dev = 0xec9581354f7750Bc8194E3e801f8eE1D91e2a8Ac;\n\n    // Gov & dev fees\n    uint public devFeesToken;   // 1e18\n    uint public devFeesDai;     // 1e18\n    uint public govFeesToken;   // 1e18\n    uint public govFeesDai;     // 1e18\n\n    // Stats\n    uint public tokensBurned;   // 1e18\n    uint public tokensMinted;   // 1e18\n    uint public nftRewards;     // 1e18\n\n    // Enums\n    enum LimitOrder { TP, SL, LIQ, OPEN }\n\n    // Structs\n    struct Trader{\n        uint leverageUnlocked;\n        address referral;\n        uint referralRewardsTotal;  // 1e18\n    }\n    struct Trade{\n        address trader;\n        uint pairIndex;\n        uint index;\n        uint initialPosToken;       // 1e18\n        uint positionSizeDai;       // 1e18\n        uint openPrice;             // PRECISION\n        bool buy;\n        uint leverage;\n        uint tp;                    // PRECISION\n        uint sl;                    // PRECISION\n    }\n    struct TradeInfo{\n        uint tokenId;\n        uint tokenPriceDai;         // PRECISION\n        uint openInterestDai;       // 1e18\n        uint tpLastUpdated;\n        uint slLastUpdated;\n        bool beingMarketClosed;\n    }\n    struct OpenLimitOrder{\n        address trader;\n        uint pairIndex;\n        uint index;\n        uint positionSize;          // 1e18 (DAI or GFARM2)\n        uint spreadReductionP;\n        bool buy;\n        uint leverage;\n        uint tp;                    // PRECISION (%)\n        uint sl;                    // PRECISION (%)\n        uint minPrice;              // PRECISION\n        uint maxPrice;              // PRECISION\n        uint block;\n        uint tokenId;               // index in supportedTokens\n    }\n    struct PendingMarketOrder{\n        Trade trade;\n        uint block;\n        uint wantedPrice;           // PRECISION\n        uint slippageP;             // PRECISION (%)\n        uint spreadReductionP;\n        uint tokenId;               // index in supportedTokens\n    }\n    struct PendingNftOrder{\n        address nftHolder;\n        uint nftId;\n        address trader;\n        uint pairIndex;\n        uint index;\n        LimitOrder orderType;\n    }\n\n    // Supported tokens to open trades with\n    address[] public supportedTokens;\n\n    // User info mapping\n    mapping(address => Trader) public traders;\n\n    // Trades mappings\n    mapping(address => mapping(uint => mapping(uint => Trade))) public openTrades;\n    mapping(address => mapping(uint => mapping(uint => TradeInfo))) public openTradesInfo;\n    mapping(address => mapping(uint => uint)) public openTradesCount;\n\n    // Limit orders mappings\n    mapping(address => mapping(uint => mapping(uint => uint))) public openLimitOrderIds;\n    mapping(address => mapping(uint => uint)) public openLimitOrdersCount;\n    OpenLimitOrder[] public openLimitOrders;\n\n    // Pending orders mappings\n    mapping(uint => PendingMarketOrder) public reqID_pendingMarketOrder;\n    mapping(uint => PendingNftOrder) public reqID_pendingNftOrder;\n    mapping(address => uint[]) public pendingOrderIds;\n    mapping(address => mapping(uint => uint)) public pendingMarketOpenCount;\n    mapping(address => mapping(uint => uint)) public pendingMarketCloseCount;\n\n    // List of open trades & limit orders\n    mapping(uint => address[]) public pairTraders;\n    mapping(address => mapping(uint => uint)) public pairTradersId;\n\n    // Current and max open interests for each pair\n    mapping(uint => uint[3]) public openInterestDai; // 1e18 [long,short,max]\n\n    // Restrictions & Timelocks\n    mapping(uint => uint) public tradesPerBlock;\n    mapping(uint => uint) public nftLastSuccess;\n\n    // List of allowed contracts => can update storage + mint/burn tokens\n    mapping(address => bool) public isTradingContract;\n\n    // Events\n    event SupportedTokenAdded(address a);\n    event TradingContractAdded(address a);\n    event TradingContractRemoved(address a);\n    event AddressUpdated(string name, address a);\n    event NftsUpdated(NftInterfaceV5[5] nfts);\n    event NumberUpdated(string name,uint value);\n    event NumberUpdatedPair(string name,uint pairIndex,uint value);\n    event SpreadReductionsUpdated(uint[5]);\n\n    constructor(\n        TokenInterfaceV5 _dai,\n        TokenInterfaceV5 _token,\n        TokenInterfaceV5 _linkErc677,\n        NftInterfaceV5[5] memory _nfts\n    ){ \n        dai = _dai;\n        token = _token;\n        linkErc677 = _linkErc677;\n        nfts = _nfts;\n    }\n\n    // Modifiers\n    modifier onlyGov(){ require(msg.sender == gov); _; }\n    modifier onlyTrading(){ require(isTradingContract[msg.sender] && token.hasRole(MINTER_ROLE, msg.sender)); _; }\n\n    // Manage addresses\n    function setGov(address _gov) external onlyGov{\n        require(_gov != address(0));\n        gov = _gov;\n        emit AddressUpdated(\"gov\", _gov);\n    }\n    function setDev(address _dev) external onlyGov{\n        require(_dev != address(0));\n        dev = _dev;\n        emit AddressUpdated(\"dev\", _dev);\n    }\n    function updateToken(TokenInterfaceV5 _newToken) external onlyGov{\n        require(trading.isPaused() && callbacks.isPaused(), \"NOT_PAUSED\");\n        require(address(_newToken) != address(0));\n        token = _newToken;\n        emit AddressUpdated(\"token\", address(_newToken));\n    }\n    function updateNfts(NftInterfaceV5[5] memory _nfts) external onlyGov{\n        require(address(_nfts[0]) != address(0));\n        nfts = _nfts;\n        emit NftsUpdated(_nfts);\n    }\n    // Trading + callbacks contracts\n    function addTradingContract(address _trading) external onlyGov{\n        require(token.hasRole(MINTER_ROLE, _trading), \"NOT_MINTER\");\n        require(_trading != address(0));\n        isTradingContract[_trading] = true;\n        emit TradingContractAdded(_trading);\n    }\n    function removeTradingContract(address _trading) external onlyGov{\n        require(_trading != address(0));\n        isTradingContract[_trading] = false;\n        emit TradingContractRemoved(_trading);\n    }\n    function addSupportedToken(address _token) external onlyGov{\n        require(_token != address(0));\n        supportedTokens.push(_token);\n        emit SupportedTokenAdded(_token);\n    }\n    function setPriceAggregator(address _aggregator) external onlyGov{\n        require(_aggregator != address(0));\n        priceAggregator = AggregatorInterfaceV5(_aggregator);\n        emit AddressUpdated(\"priceAggregator\", _aggregator);\n    }\n    function setPool(address _pool) external onlyGov{\n        require(_pool != address(0));\n        pool = PoolInterfaceV5(_pool);\n        emit AddressUpdated(\"pool\", _pool);\n    }\n    function setVault(address _vault) external onlyGov{\n        require(_vault != address(0));\n        vault = _vault;\n        emit AddressUpdated(\"vault\", _vault);\n    }\n    function setTrading(address _trading) external onlyGov{\n        require(_trading != address(0));\n        trading = PausableInterfaceV5(_trading);\n        emit AddressUpdated(\"trading\", _trading);\n    }\n    function setCallbacks(address _callbacks) external onlyGov{\n        require(_callbacks != address(0));\n        callbacks = PausableInterfaceV5(_callbacks);\n        emit AddressUpdated(\"callbacks\", _callbacks);\n    }\n    function setTokenDaiRouter(address _tokenDaiRouter) external onlyGov{\n        require(_tokenDaiRouter != address(0));\n        tokenDaiRouter = _tokenDaiRouter;\n        emit AddressUpdated(\"tokenDaiRouter\", _tokenDaiRouter);\n    }\n\n    // Manage trading variables\n    function setMaxTradesPerBlock(uint _maxTradesPerBlock) external onlyGov{\n        require(_maxTradesPerBlock > 0);\n        maxTradesPerBlock = _maxTradesPerBlock;\n        emit NumberUpdated(\"maxTradesPerBlock\", _maxTradesPerBlock);\n    }\n    function setMaxTradesPerPair(uint _maxTradesPerPair) external onlyGov{\n        require(_maxTradesPerPair > 0);\n        maxTradesPerPair = _maxTradesPerPair;\n        emit NumberUpdated(\"maxTradesPerPair\", _maxTradesPerPair);\n    }\n    function setMaxPendingMarketOrders(uint _maxPendingMarketOrders) external onlyGov{\n        require(_maxPendingMarketOrders > 0);\n        maxPendingMarketOrders = _maxPendingMarketOrders;\n        emit NumberUpdated(\"maxPendingMarketOrders\", _maxPendingMarketOrders);\n    }\n    function setMaxGainP(uint _max) external onlyGov{\n        require(_max >= 300);\n        maxGainP = _max;\n        emit NumberUpdated(\"maxGainP\", _max);\n    }\n    function setDefaultLeverageUnlocked(uint _lev) external onlyGov{\n        require(_lev > 0);\n        defaultLeverageUnlocked = _lev;\n        emit NumberUpdated(\"defaultLeverageUnlocked\", _lev);\n    }\n    function setMaxSlP(uint _max) external onlyGov{\n        require(_max >= 50);\n        maxSlP = _max;\n        emit NumberUpdated(\"maxSlP\", _max);\n    }\n    function setNftSuccessTimelock(uint _blocks) external onlyGov{\n        nftSuccessTimelock = _blocks;\n        emit NumberUpdated(\"nftSuccessTimelock\", _blocks);\n    }\n    function setSpreadReductionsP(uint[5] calldata _r) external onlyGov{\n        require(_r[0] > 0 && _r[1] > _r[0] && _r[2] > _r[1] && _r[3] > _r[2] && _r[4] > _r[3]);\n        spreadReductionsP = _r;\n        emit SpreadReductionsUpdated(_r);\n    }\n    function setMaxOpenInterestDai(uint _pairIndex, uint _newMaxOpenInterest) external onlyGov{\n        // Can set max open interest to 0 to pause trading on this pair only\n        openInterestDai[_pairIndex][2] = _newMaxOpenInterest;\n        emit NumberUpdatedPair(\"maxOpenInterestDai\", _pairIndex, _newMaxOpenInterest);\n    }\n\n    // Manage stored trades\n    function storeTrade(Trade memory _trade, TradeInfo memory _tradeInfo) external onlyTrading{\n        _trade.index = firstEmptyTradeIndex(_trade.trader, _trade.pairIndex);\n        openTrades[_trade.trader][_trade.pairIndex][_trade.index] = _trade;\n\n        openTradesCount[_trade.trader][_trade.pairIndex]++;\n        tradesPerBlock[block.number]++;\n\n        if(openTradesCount[_trade.trader][_trade.pairIndex] == 1){\n            pairTradersId[_trade.trader][_trade.pairIndex] = pairTraders[_trade.pairIndex].length;\n            pairTraders[_trade.pairIndex].push(_trade.trader); \n        }\n\n        _tradeInfo.beingMarketClosed = false;\n        openTradesInfo[_trade.trader][_trade.pairIndex][_trade.index] = _tradeInfo;\n\n        updateOpenInterestDai(_trade.pairIndex, _tradeInfo.openInterestDai, true, _trade.buy);\n    }\n    function unregisterTrade(address trader, uint pairIndex, uint index) external onlyTrading{\n        Trade storage t = openTrades[trader][pairIndex][index];\n        TradeInfo storage i = openTradesInfo[trader][pairIndex][index];\n        if(t.leverage == 0){ return; }\n\n        updateOpenInterestDai(pairIndex, i.openInterestDai, false, t.buy);\n\n        if(openTradesCount[trader][pairIndex] == 1){\n            uint _pairTradersId = pairTradersId[trader][pairIndex];\n            address[] storage p = pairTraders[pairIndex];\n\n            p[_pairTradersId] = p[p.length-1];\n            pairTradersId[p[_pairTradersId]][pairIndex] = _pairTradersId;\n            \n            delete pairTradersId[trader][pairIndex];\n            p.pop();\n        }\n\n        delete openTrades[trader][pairIndex][index];\n        delete openTradesInfo[trader][pairIndex][index];\n\n        openTradesCount[trader][pairIndex]--;\n        tradesPerBlock[block.number]++;\n    }\n\n    // Manage pending market orders\n    function storePendingMarketOrder(PendingMarketOrder memory _order, uint _id, bool _open) external onlyTrading{\n        pendingOrderIds[_order.trade.trader].push(_id);\n\n        reqID_pendingMarketOrder[_id] = _order;\n        reqID_pendingMarketOrder[_id].block = block.number;\n        \n        if(_open){\n            pendingMarketOpenCount[_order.trade.trader][_order.trade.pairIndex]++;\n        }else{\n            pendingMarketCloseCount[_order.trade.trader][_order.trade.pairIndex]++;\n            openTradesInfo[_order.trade.trader][_order.trade.pairIndex][_order.trade.index].beingMarketClosed = true;\n        }\n    }\n    function unregisterPendingMarketOrder(uint _id, bool _open) external onlyTrading{\n        PendingMarketOrder memory _order = reqID_pendingMarketOrder[_id];\n        uint[] storage orderIds = pendingOrderIds[_order.trade.trader];\n\n        for(uint i = 0; i < orderIds.length; i++){\n            if(orderIds[i] == _id){\n                if(_open){ \n                    pendingMarketOpenCount[_order.trade.trader][_order.trade.pairIndex]--;\n                }else{\n                    pendingMarketCloseCount[_order.trade.trader][_order.trade.pairIndex]--;\n                    openTradesInfo[_order.trade.trader][_order.trade.pairIndex][_order.trade.index].beingMarketClosed = false;\n                }\n\n                orderIds[i] = orderIds[orderIds.length-1];\n                orderIds.pop();\n\n                delete reqID_pendingMarketOrder[_id];\n                return;\n            }\n        }\n    }\n\n    // Manage open interest\n    function updateOpenInterestDai(uint _pairIndex, uint _leveragedPosDai, bool _open, bool _long) private{\n        uint index = _long ? 0 : 1;\n        uint[3] storage o = openInterestDai[_pairIndex];\n        o[index] = _open ? o[index] + _leveragedPosDai : o[index] - _leveragedPosDai;\n    }\n\n    // Manage open limit orders\n    function storeOpenLimitOrder(OpenLimitOrder memory o) external onlyTrading{\n        o.index = firstEmptyOpenLimitIndex(o.trader, o.pairIndex);\n        o.block = block.number;\n        openLimitOrders.push(o);\n        openLimitOrderIds[o.trader][o.pairIndex][o.index] = openLimitOrders.length-1;\n        openLimitOrdersCount[o.trader][o.pairIndex]++;\n    }\n    function updateOpenLimitOrder(OpenLimitOrder calldata _o) external onlyTrading{\n        if(!hasOpenLimitOrder(_o.trader, _o.pairIndex, _o.index)){ return; }\n        OpenLimitOrder storage o = openLimitOrders[openLimitOrderIds[_o.trader][_o.pairIndex][_o.index]];\n        o.positionSize = _o.positionSize;\n        o.buy = _o.buy;\n        o.leverage = _o.leverage;\n        o.tp = _o.tp;\n        o.sl = _o.sl;\n        o.minPrice = _o.minPrice;\n        o.maxPrice = _o.maxPrice;\n        o.block = block.number;\n    }\n    function unregisterOpenLimitOrder(address _trader, uint _pairIndex, uint _index) external onlyTrading{\n        if(!hasOpenLimitOrder(_trader, _pairIndex, _index)){ return; }\n\n        // Copy last order to deleted order => update id of this limit order\n        uint id = openLimitOrderIds[_trader][_pairIndex][_index];\n        openLimitOrders[id] = openLimitOrders[openLimitOrders.length-1];\n        openLimitOrderIds[openLimitOrders[id].trader][openLimitOrders[id].pairIndex][openLimitOrders[id].index] = id;\n\n        // Remove\n        delete openLimitOrderIds[_trader][_pairIndex][_index];\n        openLimitOrders.pop();\n\n        openLimitOrdersCount[_trader][_pairIndex]--;\n    }\n\n    // Manage NFT orders\n    function storePendingNftOrder(PendingNftOrder memory _nftOrder, uint _orderId) external onlyTrading{\n        reqID_pendingNftOrder[_orderId] = _nftOrder;\n    }\n    function unregisterPendingNftOrder(uint _order) external onlyTrading{\n        delete reqID_pendingNftOrder[_order];\n    }\n\n    // Manage open trade\n    function updateSl(address _trader, uint _pairIndex, uint _index, uint _newSl) external onlyTrading{\n        Trade storage t = openTrades[_trader][_pairIndex][_index];\n        TradeInfo storage i = openTradesInfo[_trader][_pairIndex][_index];\n        if(t.leverage == 0){ return; }\n        t.sl = _newSl;\n        i.slLastUpdated = block.number;\n    }\n    function updateTp(address _trader, uint _pairIndex, uint _index, uint _newTp) external onlyTrading{\n        Trade storage t = openTrades[_trader][_pairIndex][_index];\n        TradeInfo storage i = openTradesInfo[_trader][_pairIndex][_index];\n        if(t.leverage == 0){ return; }\n        t.tp = _newTp;\n        i.tpLastUpdated = block.number;\n    }\n    function updateTrade(Trade memory _t) external onlyTrading{ // useful when partial adding/closing\n        Trade storage t = openTrades[_t.trader][_t.pairIndex][_t.index];\n        if(t.leverage == 0){ return; }\n        t.initialPosToken = _t.initialPosToken;\n        t.positionSizeDai = _t.positionSizeDai;\n        t.openPrice = _t.openPrice;\n        t.leverage = _t.leverage;\n    }\n\n    // Manage referrals\n    function storeReferral(address _trader, address _referral) external onlyTrading{\n        Trader storage trader = traders[_trader];\n        trader.referral = _referral != address(0) && trader.referral == address(0) && _referral != _trader \n                        ? _referral : trader.referral;\n    }\n    function increaseReferralRewards(address _referral, uint _amount) external onlyTrading{ \n        traders[_referral].referralRewardsTotal += _amount; \n    }\n\n    // Manage rewards\n    function distributeLpRewards(uint _amount) external onlyTrading{ pool.increaseAccTokensPerLp(_amount); }\n    function increaseNftRewards(uint _nftId, uint _amount) external onlyTrading{\n        nftLastSuccess[_nftId] = block.number; \n        nftRewards += _amount; \n    }\n\n    // Unlock next leverage\n    function setLeverageUnlocked(address _trader, uint _newLeverage) external onlyTrading{\n        traders[_trader].leverageUnlocked = _newLeverage;\n    }\n\n    // Manage dev & gov fees\n    function handleDevGovFees(uint _pairIndex, uint _leveragedPositionSize, bool _dai, bool _fullFee) external onlyTrading returns(uint fee){\n        fee = _leveragedPositionSize * priceAggregator.openFeeP(_pairIndex) / PRECISION / 100;\n        if(!_fullFee){ fee /= 2; }\n\n        if(_dai){\n            govFeesDai += fee;\n            devFeesDai += fee;\n        }else{\n            govFeesToken += fee;\n            devFeesToken += fee;\n        }\n\n        fee *= 2;\n    }\n    function claimFees() external onlyGov{\n        token.mint(dev, devFeesToken);\n        token.mint(gov, govFeesToken);\n\n        tokensMinted += devFeesToken + govFeesToken;\n\n        dai.transfer(gov, govFeesDai);\n        dai.transfer(dev, devFeesDai);\n\n        devFeesToken = 0;\n        govFeesToken = 0;\n        devFeesDai = 0;\n        govFeesDai = 0;\n    }\n\n    // Manage tokens\n    function handleTokens(address _a, uint _amount, bool _mint) external onlyTrading{ \n        if(_mint){ token.mint(_a, _amount); tokensMinted += _amount; } \n        else { token.burn(_a, _amount); tokensBurned += _amount; } \n    }\n    function transferDai(address _from, address _to, uint _amount) external onlyTrading{ \n        if(_from == address(this)){\n            dai.transfer(_to, _amount); \n        }else{\n            dai.transferFrom(_from, _to, _amount); \n        }\n    }\n    function transferLinkToAggregator(address _from, uint _pairIndex, uint _leveragedPosDai) external onlyTrading{ \n        linkErc677.transferFrom(_from, address(priceAggregator), priceAggregator.linkFee(_pairIndex, _leveragedPosDai)); \n    }\n\n    // View utils functions\n    function firstEmptyTradeIndex(address trader, uint pairIndex) public view returns(uint index){\n        for(uint i = 0; i < maxTradesPerPair; i++){\n            if(openTrades[trader][pairIndex][i].leverage == 0){ index = i; break; }\n        }\n    }\n    function firstEmptyOpenLimitIndex(address trader, uint pairIndex) public view returns(uint index){\n        for(uint i = 0; i < maxTradesPerPair; i++){\n            if(!hasOpenLimitOrder(trader, pairIndex, i)){ index = i; break; }\n        }\n    }\n    function hasOpenLimitOrder(address trader, uint pairIndex, uint index) public view returns(bool){\n        if(openLimitOrders.length == 0){ return false; }\n        OpenLimitOrder storage o = openLimitOrders[openLimitOrderIds[trader][pairIndex][index]];\n        return o.trader == trader && o.pairIndex == pairIndex && o.index == index;\n    }\n\n    // Additional getters\n    function getReferral(address _trader) external view returns(address){ \n        return traders[_trader].referral; \n    }\n    function getLeverageUnlocked(address _trader) external view returns(uint){ \n        return traders[_trader].leverageUnlocked; \n    }\n    function pairTradersArray(uint _pairIndex) external view returns(address[] memory){ \n        return pairTraders[_pairIndex]; \n    }\n    function getPendingOrderIds(address _trader) external view returns(uint[] memory){ \n        return pendingOrderIds[_trader]; \n    }\n    function pendingOrderIdsCount(address _trader) external view returns(uint){ \n        return pendingOrderIds[_trader].length; \n    }\n    function getOpenLimitOrder(\n        address _trader, \n        uint _pairIndex,\n        uint _index\n    ) external view returns(OpenLimitOrder memory){ \n        require(hasOpenLimitOrder(_trader, _pairIndex, _index));\n        return openLimitOrders[openLimitOrderIds[_trader][_pairIndex][_index]]; \n    }\n    function getOpenLimitOrders() external view returns(OpenLimitOrder[] memory){ \n        return openLimitOrders; \n    }\n    function getSupportedTokens() external view returns(address[] memory){ \n        return supportedTokens; \n    }\n    function getSpreadReductionsArray() external view returns(uint[5] memory){\n        return spreadReductionsP;\n    }\n}",
  "sourcePath": "contracts/GNSTestnetTradingStorageV5.sol",
  "type": "contract"
}